{
  "_format": "hh-sol-artifact-1",
  "contractName": "MasterChefV2",
  "sourceName": "contracts/MasterChefV2.sol",
  "abi": [
    {
      "inputs": [
        {
          "internalType": "contract CobToken",
          "name": "_cob",
          "type": "address"
        },
        {
          "internalType": "address",
          "name": "_devaddr",
          "type": "address"
        },
        {
          "internalType": "address",
          "name": "_feeAddress",
          "type": "address"
        },
        {
          "internalType": "uint256",
          "name": "_cobPerBlock",
          "type": "uint256"
        },
        {
          "internalType": "uint256",
          "name": "_startBlock",
          "type": "uint256"
        }
      ],
      "stateMutability": "nonpayable",
      "type": "constructor"
    },
    {
      "anonymous": false,
      "inputs": [
        {
          "indexed": true,
          "internalType": "address",
          "name": "user",
          "type": "address"
        },
        {
          "indexed": true,
          "internalType": "uint256",
          "name": "pid",
          "type": "uint256"
        },
        {
          "indexed": false,
          "internalType": "uint256",
          "name": "amount",
          "type": "uint256"
        }
      ],
      "name": "Deposit",
      "type": "event"
    },
    {
      "anonymous": false,
      "inputs": [
        {
          "indexed": true,
          "internalType": "address",
          "name": "user",
          "type": "address"
        },
        {
          "indexed": true,
          "internalType": "uint256",
          "name": "pid",
          "type": "uint256"
        },
        {
          "indexed": false,
          "internalType": "uint256",
          "name": "amount",
          "type": "uint256"
        }
      ],
      "name": "EmergencyWithdraw",
      "type": "event"
    },
    {
      "anonymous": false,
      "inputs": [
        {
          "indexed": true,
          "internalType": "address",
          "name": "previousOwner",
          "type": "address"
        },
        {
          "indexed": true,
          "internalType": "address",
          "name": "newOwner",
          "type": "address"
        }
      ],
      "name": "OwnershipTransferred",
      "type": "event"
    },
    {
      "anonymous": false,
      "inputs": [
        {
          "indexed": true,
          "internalType": "address",
          "name": "user",
          "type": "address"
        },
        {
          "indexed": true,
          "internalType": "address",
          "name": "newAddress",
          "type": "address"
        }
      ],
      "name": "SetDevAddress",
      "type": "event"
    },
    {
      "anonymous": false,
      "inputs": [
        {
          "indexed": true,
          "internalType": "address",
          "name": "user",
          "type": "address"
        },
        {
          "indexed": true,
          "internalType": "address",
          "name": "newAddress",
          "type": "address"
        }
      ],
      "name": "SetFeeAddress",
      "type": "event"
    },
    {
      "anonymous": false,
      "inputs": [
        {
          "indexed": true,
          "internalType": "address",
          "name": "user",
          "type": "address"
        },
        {
          "indexed": false,
          "internalType": "uint256",
          "name": "goosePerBlock",
          "type": "uint256"
        }
      ],
      "name": "UpdateEmissionRate",
      "type": "event"
    },
    {
      "anonymous": false,
      "inputs": [
        {
          "indexed": true,
          "internalType": "address",
          "name": "user",
          "type": "address"
        },
        {
          "indexed": true,
          "internalType": "uint256",
          "name": "pid",
          "type": "uint256"
        },
        {
          "indexed": false,
          "internalType": "uint256",
          "name": "amount",
          "type": "uint256"
        }
      ],
      "name": "Withdraw",
      "type": "event"
    },
    {
      "inputs": [],
      "name": "BONUS_MULTIPLIER",
      "outputs": [
        {
          "internalType": "uint256",
          "name": "",
          "type": "uint256"
        }
      ],
      "stateMutability": "view",
      "type": "function"
    },
    {
      "inputs": [
        {
          "internalType": "uint256",
          "name": "_allocPoint",
          "type": "uint256"
        },
        {
          "internalType": "contract IERC20",
          "name": "_lpToken",
          "type": "address"
        },
        {
          "internalType": "uint16",
          "name": "_depositFeeBP",
          "type": "uint16"
        },
        {
          "internalType": "bool",
          "name": "_withUpdate",
          "type": "bool"
        }
      ],
      "name": "add",
      "outputs": [],
      "stateMutability": "nonpayable",
      "type": "function"
    },
    {
      "inputs": [],
      "name": "cob",
      "outputs": [
        {
          "internalType": "contract CobToken",
          "name": "",
          "type": "address"
        }
      ],
      "stateMutability": "view",
      "type": "function"
    },
    {
      "inputs": [],
      "name": "cobPerBlock",
      "outputs": [
        {
          "internalType": "uint256",
          "name": "",
          "type": "uint256"
        }
      ],
      "stateMutability": "view",
      "type": "function"
    },
    {
      "inputs": [
        {
          "internalType": "uint256",
          "name": "_pid",
          "type": "uint256"
        },
        {
          "internalType": "uint256",
          "name": "_amount",
          "type": "uint256"
        }
      ],
      "name": "deposit",
      "outputs": [],
      "stateMutability": "nonpayable",
      "type": "function"
    },
    {
      "inputs": [
        {
          "internalType": "address",
          "name": "_devaddr",
          "type": "address"
        }
      ],
      "name": "dev",
      "outputs": [],
      "stateMutability": "nonpayable",
      "type": "function"
    },
    {
      "inputs": [],
      "name": "devaddr",
      "outputs": [
        {
          "internalType": "address",
          "name": "",
          "type": "address"
        }
      ],
      "stateMutability": "view",
      "type": "function"
    },
    {
      "inputs": [
        {
          "internalType": "uint256",
          "name": "_pid",
          "type": "uint256"
        }
      ],
      "name": "emergencyWithdraw",
      "outputs": [],
      "stateMutability": "nonpayable",
      "type": "function"
    },
    {
      "inputs": [],
      "name": "feeAddress",
      "outputs": [
        {
          "internalType": "address",
          "name": "",
          "type": "address"
        }
      ],
      "stateMutability": "view",
      "type": "function"
    },
    {
      "inputs": [
        {
          "internalType": "uint256",
          "name": "_from",
          "type": "uint256"
        },
        {
          "internalType": "uint256",
          "name": "_to",
          "type": "uint256"
        }
      ],
      "name": "getMultiplier",
      "outputs": [
        {
          "internalType": "uint256",
          "name": "",
          "type": "uint256"
        }
      ],
      "stateMutability": "view",
      "type": "function"
    },
    {
      "inputs": [],
      "name": "massUpdatePools",
      "outputs": [],
      "stateMutability": "nonpayable",
      "type": "function"
    },
    {
      "inputs": [],
      "name": "owner",
      "outputs": [
        {
          "internalType": "address",
          "name": "",
          "type": "address"
        }
      ],
      "stateMutability": "view",
      "type": "function"
    },
    {
      "inputs": [
        {
          "internalType": "uint256",
          "name": "_pid",
          "type": "uint256"
        },
        {
          "internalType": "address",
          "name": "_user",
          "type": "address"
        }
      ],
      "name": "pendingCob",
      "outputs": [
        {
          "internalType": "uint256",
          "name": "",
          "type": "uint256"
        }
      ],
      "stateMutability": "view",
      "type": "function"
    },
    {
      "inputs": [
        {
          "internalType": "contract IERC20",
          "name": "",
          "type": "address"
        }
      ],
      "name": "poolExistence",
      "outputs": [
        {
          "internalType": "bool",
          "name": "",
          "type": "bool"
        }
      ],
      "stateMutability": "view",
      "type": "function"
    },
    {
      "inputs": [
        {
          "internalType": "uint256",
          "name": "",
          "type": "uint256"
        }
      ],
      "name": "poolInfo",
      "outputs": [
        {
          "internalType": "contract IERC20",
          "name": "lpToken",
          "type": "address"
        },
        {
          "internalType": "uint256",
          "name": "allocPoint",
          "type": "uint256"
        },
        {
          "internalType": "uint256",
          "name": "lastRewardBlock",
          "type": "uint256"
        },
        {
          "internalType": "uint256",
          "name": "accCobPerShare",
          "type": "uint256"
        },
        {
          "internalType": "uint16",
          "name": "depositFeeBP",
          "type": "uint16"
        }
      ],
      "stateMutability": "view",
      "type": "function"
    },
    {
      "inputs": [],
      "name": "poolLength",
      "outputs": [
        {
          "internalType": "uint256",
          "name": "",
          "type": "uint256"
        }
      ],
      "stateMutability": "view",
      "type": "function"
    },
    {
      "inputs": [],
      "name": "renounceOwnership",
      "outputs": [],
      "stateMutability": "nonpayable",
      "type": "function"
    },
    {
      "inputs": [
        {
          "internalType": "uint256",
          "name": "_pid",
          "type": "uint256"
        },
        {
          "internalType": "uint256",
          "name": "_allocPoint",
          "type": "uint256"
        },
        {
          "internalType": "uint16",
          "name": "_depositFeeBP",
          "type": "uint16"
        },
        {
          "internalType": "bool",
          "name": "_withUpdate",
          "type": "bool"
        }
      ],
      "name": "set",
      "outputs": [],
      "stateMutability": "nonpayable",
      "type": "function"
    },
    {
      "inputs": [
        {
          "internalType": "address",
          "name": "_feeAddress",
          "type": "address"
        }
      ],
      "name": "setFeeAddress",
      "outputs": [],
      "stateMutability": "nonpayable",
      "type": "function"
    },
    {
      "inputs": [],
      "name": "startBlock",
      "outputs": [
        {
          "internalType": "uint256",
          "name": "",
          "type": "uint256"
        }
      ],
      "stateMutability": "view",
      "type": "function"
    },
    {
      "inputs": [],
      "name": "totalAllocPoint",
      "outputs": [
        {
          "internalType": "uint256",
          "name": "",
          "type": "uint256"
        }
      ],
      "stateMutability": "view",
      "type": "function"
    },
    {
      "inputs": [
        {
          "internalType": "address",
          "name": "newOwner",
          "type": "address"
        }
      ],
      "name": "transferOwnership",
      "outputs": [],
      "stateMutability": "nonpayable",
      "type": "function"
    },
    {
      "inputs": [
        {
          "internalType": "uint256",
          "name": "_cobPerBlock",
          "type": "uint256"
        }
      ],
      "name": "updateEmissionRate",
      "outputs": [],
      "stateMutability": "nonpayable",
      "type": "function"
    },
    {
      "inputs": [
        {
          "internalType": "uint256",
          "name": "_pid",
          "type": "uint256"
        }
      ],
      "name": "updatePool",
      "outputs": [],
      "stateMutability": "nonpayable",
      "type": "function"
    },
    {
      "inputs": [
        {
          "internalType": "uint256",
          "name": "",
          "type": "uint256"
        },
        {
          "internalType": "address",
          "name": "",
          "type": "address"
        }
      ],
      "name": "userInfo",
      "outputs": [
        {
          "internalType": "uint256",
          "name": "amount",
          "type": "uint256"
        },
        {
          "internalType": "uint256",
          "name": "rewardDebt",
          "type": "uint256"
        }
      ],
      "stateMutability": "view",
      "type": "function"
    },
    {
      "inputs": [
        {
          "internalType": "uint256",
          "name": "_pid",
          "type": "uint256"
        },
        {
          "internalType": "uint256",
          "name": "_amount",
          "type": "uint256"
        }
      ],
      "name": "withdraw",
      "outputs": [],
      "stateMutability": "nonpayable",
      "type": "function"
    }
  ],
  "bytecode": "0x608060405260006008553480156200001657600080fd5b50604051620036fe380380620036fe83398181016040528101906200003c919062000250565b6200005c620000506200013f60201b60201c565b6200014760201b60201c565b6001808190555084600260006101000a81548173ffffffffffffffffffffffffffffffffffffffff021916908373ffffffffffffffffffffffffffffffffffffffff16021790555083600360006101000a81548173ffffffffffffffffffffffffffffffffffffffff021916908373ffffffffffffffffffffffffffffffffffffffff16021790555082600560006101000a81548173ffffffffffffffffffffffffffffffffffffffff021916908373ffffffffffffffffffffffffffffffffffffffff1602179055508160048190555080600981905550505050505062000372565b600033905090565b60008060009054906101000a900473ffffffffffffffffffffffffffffffffffffffff169050816000806101000a81548173ffffffffffffffffffffffffffffffffffffffff021916908373ffffffffffffffffffffffffffffffffffffffff1602179055508173ffffffffffffffffffffffffffffffffffffffff168173ffffffffffffffffffffffffffffffffffffffff167f8be0079c531659141344cd1fd0a4f28419497f9722a3daafe3b4186f6b6457e060405160405180910390a35050565b6000815190506200021c8162000324565b92915050565b60008151905062000233816200033e565b92915050565b6000815190506200024a8162000358565b92915050565b600080600080600060a086880312156200026957600080fd5b6000620002798882890162000222565b95505060206200028c888289016200020b565b94505060406200029f888289016200020b565b9350506060620002b28882890162000239565b9250506080620002c58882890162000239565b9150509295509295909350565b6000620002df82620002fa565b9050919050565b6000620002f382620002d2565b9050919050565b600073ffffffffffffffffffffffffffffffffffffffff82169050919050565b6000819050919050565b6200032f81620002d2565b81146200033b57600080fd5b50565b6200034981620002e6565b81146200035557600080fd5b50565b62000363816200031a565b81146200036f57600080fd5b50565b61337c80620003826000396000f3fe608060405234801561001057600080fd5b506004361061018e5760003560e01c80638705fcd4116100de57806393f1a40b11610097578063d49e77cd11610071578063d49e77cd14610450578063d96384221461046e578063e2bbb1581461048a578063f2fde38b146104a65761018e565b806393f1a40b146103d1578063a6ca860b14610402578063cbd258b5146104205761018e565b80638705fcd4146102fd5780638aa28550146103195780638ca68bf8146103375780638d88a90e146103675780638da5cb5b146103835780638dbb1e3a146103a15761018e565b806348cd4cb11161014b578063630b5ba111610125578063630b5ba1146102af5780637143d843146102b9578063715018a6146102d757806384e82a33146102e15761018e565b806348cd4cb11461025957806351eb05a6146102775780635312ea8e146102935761018e565b8063081e3eda146101935780630ba84cd2146101b15780631526fe27146101cd57806317caf6f114610201578063412753581461021f578063441a3e701461023d575b600080fd5b61019b6104c2565b6040516101a89190612cda565b60405180910390f35b6101cb60048036038101906101c691906125e2565b6104cf565b005b6101e760048036038101906101e291906125e2565b6105ab565b6040516101f8959493929190612ac5565b60405180910390f35b61020961061f565b6040516102169190612cda565b60405180910390f35b610227610625565b6040516102349190612a14565b60405180910390f35b610257600480360381019061025291906126d3565b61064b565b005b6102616108f8565b60405161026e9190612cda565b60405180910390f35b610291600480360381019061028c91906125e2565b6108fe565b005b6102ad60048036038101906102a891906125e2565b610c35565b005b6102b7610deb565b005b6102c1610e1e565b6040516102ce9190612cda565b60405180910390f35b6102df610e24565b005b6102fb60048036038101906102f69190612670565b610eac565b005b61031760048036038101906103129190612567565b61119d565b005b6103216112cb565b60405161032e9190612cda565b60405180910390f35b610351600480360381019061034c9190612634565b6112d0565b60405161035e9190612cda565b60405180910390f35b610381600480360381019061037c9190612567565b61152a565b005b61038b611658565b6040516103989190612a14565b60405180910390f35b6103bb60048036038101906103b691906126d3565b611681565b6040516103c89190612cda565b60405180910390f35b6103eb60048036038101906103e69190612634565b6116b1565b6040516103f9929190612cf5565b60405180910390f35b61040a6116e2565b6040516104179190612aaa565b60405180910390f35b61043a600480360381019061043591906125b9565b611708565b6040516104479190612a8f565b60405180910390f35b610458611728565b6040516104659190612a14565b60405180910390f35b6104886004803603810190610483919061270f565b61174e565b005b6104a4600480360381019061049f91906126d3565b611956565b005b6104c060048036038101906104bb9190612567565b611cd5565b005b6000600680549050905090565b6104d7611dcd565b73ffffffffffffffffffffffffffffffffffffffff166104f5611658565b73ffffffffffffffffffffffffffffffffffffffff161461054b576040517f08c379a000000000000000000000000000000000000000000000000000000000815260040161054290612bfa565b60405180910390fd5b610553610deb565b806004819055503373ffffffffffffffffffffffffffffffffffffffff167fe2492e003bbe8afa53088b406f0c1cb5d9e280370fc72a74cf116ffd343c4053826040516105a09190612cda565b60405180910390a250565b600681815481106105bb57600080fd5b90600052602060002090600502016000915090508060000160009054906101000a900473ffffffffffffffffffffffffffffffffffffffff16908060010154908060020154908060030154908060040160009054906101000a900461ffff16905085565b60085481565b600560009054906101000a900473ffffffffffffffffffffffffffffffffffffffff1681565b60026001541415610691576040517f08c379a000000000000000000000000000000000000000000000000000000000815260040161068890612cba565b60405180910390fd5b60026001819055506000600683815481106106d5577f4e487b7100000000000000000000000000000000000000000000000000000000600052603260045260246000fd5b9060005260206000209060050201905060006007600085815260200190815260200160002060003373ffffffffffffffffffffffffffffffffffffffff1673ffffffffffffffffffffffffffffffffffffffff16815260200190815260200160002090508281600001541015610780576040517f08c379a000000000000000000000000000000000000000000000000000000000815260040161077790612c3a565b60405180910390fd5b610789846108fe565b60006107d382600101546107c564e8d4a510006107b787600301548760000154611dd590919063ffffffff16565b611deb90919063ffffffff16565b611e0190919063ffffffff16565b905060008111156107e9576107e83382611e17565b5b600084111561086157610809848360000154611e0190919063ffffffff16565b826000018190555061086033858560000160009054906101000a900473ffffffffffffffffffffffffffffffffffffffff1673ffffffffffffffffffffffffffffffffffffffff1661207e9092919063ffffffff16565b5b61089364e8d4a5100061088585600301548560000154611dd590919063ffffffff16565b611deb90919063ffffffff16565b8260010181905550843373ffffffffffffffffffffffffffffffffffffffff167ff279e6a1f5e320cca91135676d9cb6e44ca8a08c0b88342bcdb1144f6511b568866040516108e29190612cda565b60405180910390a3505050600180819055505050565b60095481565b60006006828154811061093a577f4e487b7100000000000000000000000000000000000000000000000000000000600052603260045260246000fd5b906000526020600020906005020190508060020154431161095b5750610c32565b60008160000160009054906101000a900473ffffffffffffffffffffffffffffffffffffffff1673ffffffffffffffffffffffffffffffffffffffff166370a08231306040518263ffffffff1660e01b81526004016109ba9190612a14565b60206040518083038186803b1580156109d257600080fd5b505afa1580156109e6573d6000803e3d6000fd5b505050506040513d601f19601f82011682018060405250810190610a0a919061260b565b90506000811480610a1f575060008260010154145b15610a34574382600201819055505050610c32565b6000610a44836002015443611681565b90506000610a87600854610a798660010154610a6b60045487611dd590919063ffffffff16565b611dd590919063ffffffff16565b611deb90919063ffffffff16565b9050600260009054906101000a900473ffffffffffffffffffffffffffffffffffffffff1673ffffffffffffffffffffffffffffffffffffffff166340c10f19600360009054906101000a900473ffffffffffffffffffffffffffffffffffffffff16610afe600a85611deb90919063ffffffff16565b6040518363ffffffff1660e01b8152600401610b1b929190612a66565b600060405180830381600087803b158015610b3557600080fd5b505af1158015610b49573d6000803e3d6000fd5b50505050600260009054906101000a900473ffffffffffffffffffffffffffffffffffffffff1673ffffffffffffffffffffffffffffffffffffffff166340c10f1930836040518363ffffffff1660e01b8152600401610baa929190612a66565b600060405180830381600087803b158015610bc457600080fd5b505af1158015610bd8573d6000803e3d6000fd5b50505050610c1c610c0984610bfb64e8d4a5100085611dd590919063ffffffff16565b611deb90919063ffffffff16565b856003015461210490919063ffffffff16565b8460030181905550438460020181905550505050505b50565b60026001541415610c7b576040517f08c379a0000000000000000000000000000000000000000000000000000000008152600401610c7290612cba565b60405180910390fd5b6002600181905550600060068281548110610cbf577f4e487b7100000000000000000000000000000000000000000000000000000000600052603260045260246000fd5b9060005260206000209060050201905060006007600084815260200190815260200160002060003373ffffffffffffffffffffffffffffffffffffffff1673ffffffffffffffffffffffffffffffffffffffff16815260200190815260200160002090506000816000015490506000826000018190555060008260010181905550610d8f33828560000160009054906101000a900473ffffffffffffffffffffffffffffffffffffffff1673ffffffffffffffffffffffffffffffffffffffff1661207e9092919063ffffffff16565b833373ffffffffffffffffffffffffffffffffffffffff167fbb757047c2b5f3974fe26b7c10f732e7bce710b0952a71082702781e62ae059583604051610dd69190612cda565b60405180910390a35050506001808190555050565b6000600680549050905060005b81811015610e1a57610e09816108fe565b80610e1390612f48565b9050610df8565b5050565b60045481565b610e2c611dcd565b73ffffffffffffffffffffffffffffffffffffffff16610e4a611658565b73ffffffffffffffffffffffffffffffffffffffff1614610ea0576040517f08c379a0000000000000000000000000000000000000000000000000000000008152600401610e9790612bfa565b60405180910390fd5b610eaa600061211a565b565b610eb4611dcd565b73ffffffffffffffffffffffffffffffffffffffff16610ed2611658565b73ffffffffffffffffffffffffffffffffffffffff1614610f28576040517f08c379a0000000000000000000000000000000000000000000000000000000008152600401610f1f90612bfa565b60405180910390fd5b8260001515600a60008373ffffffffffffffffffffffffffffffffffffffff1673ffffffffffffffffffffffffffffffffffffffff16815260200190815260200160002060009054906101000a900460ff16151514610fbc576040517f08c379a0000000000000000000000000000000000000000000000000000000008152600401610fb390612c5a565b60405180910390fd5b6127108361ffff161115611005576040517f08c379a0000000000000000000000000000000000000000000000000000000008152600401610ffc90612b3a565b60405180910390fd5b811561101457611013610deb565b5b6000600954431161102757600954611029565b435b90506110408660085461210490919063ffffffff16565b6008819055506001600a60008773ffffffffffffffffffffffffffffffffffffffff1673ffffffffffffffffffffffffffffffffffffffff16815260200190815260200160002060006101000a81548160ff02191690831515021790555060066040518060a001604052808773ffffffffffffffffffffffffffffffffffffffff168152602001888152602001838152602001600081526020018661ffff16815250908060018154018082558091505060019003906000526020600020906005020160009091909190915060008201518160000160006101000a81548173ffffffffffffffffffffffffffffffffffffffff021916908373ffffffffffffffffffffffffffffffffffffffff16021790555060208201518160010155604082015181600201556060820151816003015560808201518160040160006101000a81548161ffff021916908361ffff1602179055505050505050505050565b600560009054906101000a900473ffffffffffffffffffffffffffffffffffffffff1673ffffffffffffffffffffffffffffffffffffffff163373ffffffffffffffffffffffffffffffffffffffff161461122d576040517f08c379a000000000000000000000000000000000000000000000000000000000815260040161122490612c7a565b60405180910390fd5b80600560006101000a81548173ffffffffffffffffffffffffffffffffffffffff021916908373ffffffffffffffffffffffffffffffffffffffff1602179055508073ffffffffffffffffffffffffffffffffffffffff163373ffffffffffffffffffffffffffffffffffffffff167fd44190acf9d04bdb5d3a1aafff7e6dee8b40b93dfb8c5d3f0eea4b9f4539c3f760405160405180910390a350565b600181565b6000806006848154811061130d577f4e487b7100000000000000000000000000000000000000000000000000000000600052603260045260246000fd5b9060005260206000209060050201905060006007600086815260200190815260200160002060008573ffffffffffffffffffffffffffffffffffffffff1673ffffffffffffffffffffffffffffffffffffffff168152602001908152602001600020905060008260030154905060008360000160009054906101000a900473ffffffffffffffffffffffffffffffffffffffff1673ffffffffffffffffffffffffffffffffffffffff166370a08231306040518263ffffffff1660e01b81526004016113d99190612a14565b60206040518083038186803b1580156113f157600080fd5b505afa158015611405573d6000803e3d6000fd5b505050506040513d601f19601f82011682018060405250810190611429919061260b565b905083600201544311801561143f575060008114155b156114da576000611454856002015443611681565b90506000611497600854611489886001015461147b60045487611dd590919063ffffffff16565b611dd590919063ffffffff16565b611deb90919063ffffffff16565b90506114d56114c6846114b864e8d4a5100085611dd590919063ffffffff16565b611deb90919063ffffffff16565b8561210490919063ffffffff16565b935050505b61151e836001015461151064e8d4a51000611502868860000154611dd590919063ffffffff16565b611deb90919063ffffffff16565b611e0190919063ffffffff16565b94505050505092915050565b600360009054906101000a900473ffffffffffffffffffffffffffffffffffffffff1673ffffffffffffffffffffffffffffffffffffffff163373ffffffffffffffffffffffffffffffffffffffff16146115ba576040517f08c379a00000000000000000000000000000000000000000000000000000000081526004016115b190612bba565b60405180910390fd5b80600360006101000a81548173ffffffffffffffffffffffffffffffffffffffff021916908373ffffffffffffffffffffffffffffffffffffffff1602179055508073ffffffffffffffffffffffffffffffffffffffff163373ffffffffffffffffffffffffffffffffffffffff167f618c54559e94f1499a808aad71ee8729f8e74e8c48e979616328ce493a1a52e760405160405180910390a350565b60008060009054906101000a900473ffffffffffffffffffffffffffffffffffffffff16905090565b60006116a9600161169b8585611e0190919063ffffffff16565b611dd590919063ffffffff16565b905092915050565b6007602052816000526040600020602052806000526040600020600091509150508060000154908060010154905082565b600260009054906101000a900473ffffffffffffffffffffffffffffffffffffffff1681565b600a6020528060005260406000206000915054906101000a900460ff1681565b600360009054906101000a900473ffffffffffffffffffffffffffffffffffffffff1681565b611756611dcd565b73ffffffffffffffffffffffffffffffffffffffff16611774611658565b73ffffffffffffffffffffffffffffffffffffffff16146117ca576040517f08c379a00000000000000000000000000000000000000000000000000000000081526004016117c190612bfa565b60405180910390fd5b6127108261ffff161115611813576040517f08c379a000000000000000000000000000000000000000000000000000000000815260040161180a90612bda565b60405180910390fd5b801561182257611821610deb565b5b6118948361188660068781548110611863577f4e487b7100000000000000000000000000000000000000000000000000000000600052603260045260246000fd5b906000526020600020906005020160010154600854611e0190919063ffffffff16565b61210490919063ffffffff16565b60088190555082600685815481106118d5577f4e487b7100000000000000000000000000000000000000000000000000000000600052603260045260246000fd5b9060005260206000209060050201600101819055508160068581548110611925577f4e487b7100000000000000000000000000000000000000000000000000000000600052603260045260246000fd5b906000526020600020906005020160040160006101000a81548161ffff021916908361ffff16021790555050505050565b6002600154141561199c576040517f08c379a000000000000000000000000000000000000000000000000000000000815260040161199390612cba565b60405180910390fd5b60026001819055506000600683815481106119e0577f4e487b7100000000000000000000000000000000000000000000000000000000600052603260045260246000fd5b9060005260206000209060050201905060006007600085815260200190815260200160002060003373ffffffffffffffffffffffffffffffffffffffff1673ffffffffffffffffffffffffffffffffffffffff1681526020019081526020016000209050611a4d846108fe565b600081600001541115611abc576000611aa48260010154611a9664e8d4a51000611a8887600301548760000154611dd590919063ffffffff16565b611deb90919063ffffffff16565b611e0190919063ffffffff16565b90506000811115611aba57611ab93382611e17565b5b505b6000831115611c3f57611b163330858560000160009054906101000a900473ffffffffffffffffffffffffffffffffffffffff1673ffffffffffffffffffffffffffffffffffffffff166121de909392919063ffffffff16565b60008260040160009054906101000a900461ffff1661ffff161115611c1e576000611b74612710611b668560040160009054906101000a900461ffff1661ffff1687611dd590919063ffffffff16565b611deb90919063ffffffff16565b9050611be7600560009054906101000a900473ffffffffffffffffffffffffffffffffffffffff16828560000160009054906101000a900473ffffffffffffffffffffffffffffffffffffffff1673ffffffffffffffffffffffffffffffffffffffff1661207e9092919063ffffffff16565b611c1081611c0286856000015461210490919063ffffffff16565b611e0190919063ffffffff16565b826000018190555050611c3e565b611c3583826000015461210490919063ffffffff16565b81600001819055505b5b611c7164e8d4a51000611c6384600301548460000154611dd590919063ffffffff16565b611deb90919063ffffffff16565b8160010181905550833373ffffffffffffffffffffffffffffffffffffffff167f90890809c654f11d6e72a28fa60149770a0d11ec6c92319d6ceb2bb0a4ea1a1585604051611cc09190612cda565b60405180910390a35050600180819055505050565b611cdd611dcd565b73ffffffffffffffffffffffffffffffffffffffff16611cfb611658565b73ffffffffffffffffffffffffffffffffffffffff1614611d51576040517f08c379a0000000000000000000000000000000000000000000000000000000008152600401611d4890612bfa565b60405180910390fd5b600073ffffffffffffffffffffffffffffffffffffffff168173ffffffffffffffffffffffffffffffffffffffff161415611dc1576040517f08c379a0000000000000000000000000000000000000000000000000000000008152600401611db890612b5a565b60405180910390fd5b611dca8161211a565b50565b600033905090565b60008183611de39190612dd7565b905092915050565b60008183611df99190612da6565b905092915050565b60008183611e0f9190612e31565b905092915050565b6000600260009054906101000a900473ffffffffffffffffffffffffffffffffffffffff1673ffffffffffffffffffffffffffffffffffffffff166370a08231306040518263ffffffff1660e01b8152600401611e749190612a14565b60206040518083038186803b158015611e8c57600080fd5b505afa158015611ea0573d6000803e3d6000fd5b505050506040513d601f19601f82011682018060405250810190611ec4919061260b565b9050600081831115611f8657600260009054906101000a900473ffffffffffffffffffffffffffffffffffffffff1673ffffffffffffffffffffffffffffffffffffffff1663a9059cbb85846040518363ffffffff1660e01b8152600401611f2d929190612a66565b602060405180830381600087803b158015611f4757600080fd5b505af1158015611f5b573d6000803e3d6000fd5b505050506040513d601f19601f82011682018060405250810190611f7f9190612590565b9050612038565b600260009054906101000a900473ffffffffffffffffffffffffffffffffffffffff1673ffffffffffffffffffffffffffffffffffffffff1663a9059cbb85856040518363ffffffff1660e01b8152600401611fe3929190612a66565b602060405180830381600087803b158015611ffd57600080fd5b505af1158015612011573d6000803e3d6000fd5b505050506040513d601f19601f820116820180604052508101906120359190612590565b90505b80612078576040517f08c379a000000000000000000000000000000000000000000000000000000000815260040161206f90612b7a565b60405180910390fd5b50505050565b6120ff8363a9059cbb60e01b848460405160240161209d929190612a66565b604051602081830303815290604052907bffffffffffffffffffffffffffffffffffffffffffffffffffffffff19166020820180517bffffffffffffffffffffffffffffffffffffffffffffffffffffffff8381831617835250505050612267565b505050565b600081836121129190612d50565b905092915050565b60008060009054906101000a900473ffffffffffffffffffffffffffffffffffffffff169050816000806101000a81548173ffffffffffffffffffffffffffffffffffffffff021916908373ffffffffffffffffffffffffffffffffffffffff1602179055508173ffffffffffffffffffffffffffffffffffffffff168173ffffffffffffffffffffffffffffffffffffffff167f8be0079c531659141344cd1fd0a4f28419497f9722a3daafe3b4186f6b6457e060405160405180910390a35050565b612261846323b872dd60e01b8585856040516024016121ff93929190612a2f565b604051602081830303815290604052907bffffffffffffffffffffffffffffffffffffffffffffffffffffffff19166020820180517bffffffffffffffffffffffffffffffffffffffffffffffffffffffff8381831617835250505050612267565b50505050565b60006122c9826040518060400160405280602081526020017f5361666545524332303a206c6f772d6c6576656c2063616c6c206661696c65648152508573ffffffffffffffffffffffffffffffffffffffff1661232e9092919063ffffffff16565b905060008151111561232957808060200190518101906122e99190612590565b612328576040517f08c379a000000000000000000000000000000000000000000000000000000000815260040161231f90612c9a565b60405180910390fd5b5b505050565b606061233d8484600085612346565b90509392505050565b60608247101561238b576040517f08c379a000000000000000000000000000000000000000000000000000000000815260040161238290612b9a565b60405180910390fd5b6123948561245a565b6123d3576040517f08c379a00000000000000000000000000000000000000000000000000000000081526004016123ca90612c1a565b60405180910390fd5b6000808673ffffffffffffffffffffffffffffffffffffffff1685876040516123fc91906129fd565b60006040518083038185875af1925050503d8060008114612439576040519150601f19603f3d011682016040523d82523d6000602084013e61243e565b606091505b509150915061244e82828661246d565b92505050949350505050565b600080823b905060008111915050919050565b6060831561247d578290506124cd565b6000835111156124905782518084602001fd5b816040517f08c379a00000000000000000000000000000000000000000000000000000000081526004016124c49190612b18565b60405180910390fd5b9392505050565b6000813590506124e3816132d3565b92915050565b6000813590506124f8816132ea565b92915050565b60008151905061250d816132ea565b92915050565b60008135905061252281613301565b92915050565b60008135905061253781613318565b92915050565b60008135905061254c8161332f565b92915050565b6000815190506125618161332f565b92915050565b60006020828403121561257957600080fd5b6000612587848285016124d4565b91505092915050565b6000602082840312156125a257600080fd5b60006125b0848285016124fe565b91505092915050565b6000602082840312156125cb57600080fd5b60006125d984828501612513565b91505092915050565b6000602082840312156125f457600080fd5b60006126028482850161253d565b91505092915050565b60006020828403121561261d57600080fd5b600061262b84828501612552565b91505092915050565b6000806040838503121561264757600080fd5b60006126558582860161253d565b9250506020612666858286016124d4565b9150509250929050565b6000806000806080858703121561268657600080fd5b60006126948782880161253d565b94505060206126a587828801612513565b93505060406126b687828801612528565b92505060606126c7878288016124e9565b91505092959194509250565b600080604083850312156126e657600080fd5b60006126f48582860161253d565b92505060206127058582860161253d565b9150509250929050565b6000806000806080858703121561272557600080fd5b60006127338782880161253d565b94505060206127448782880161253d565b935050604061275587828801612528565b9250506060612766878288016124e9565b91505092959194509250565b61277b81612e65565b82525050565b61278a81612e77565b82525050565b600061279b82612d1e565b6127a58185612d34565b93506127b5818560208601612f15565b80840191505092915050565b6127ca81612ecd565b82525050565b6127d981612ef1565b82525050565b60006127ea82612d29565b6127f48185612d3f565b9350612804818560208601612f15565b61280d81612fef565b840191505092915050565b6000612825602583612d3f565b915061283082613000565b604082019050919050565b6000612848602683612d3f565b91506128538261304f565b604082019050919050565b600061286b602083612d3f565b91506128768261309e565b602082019050919050565b600061288e602683612d3f565b9150612899826130c7565b604082019050919050565b60006128b1600983612d3f565b91506128bc82613116565b602082019050919050565b60006128d4602583612d3f565b91506128df8261313f565b604082019050919050565b60006128f7602083612d3f565b91506129028261318e565b602082019050919050565b600061291a601d83612d3f565b9150612925826131b7565b602082019050919050565b600061293d601283612d3f565b9150612948826131e0565b602082019050919050565b6000612960601983612d3f565b915061296b82613209565b602082019050919050565b6000612983601883612d3f565b915061298e82613232565b602082019050919050565b60006129a6602a83612d3f565b91506129b18261325b565b604082019050919050565b60006129c9601f83612d3f565b91506129d4826132aa565b602082019050919050565b6129e881612e95565b82525050565b6129f781612ec3565b82525050565b6000612a098284612790565b915081905092915050565b6000602082019050612a296000830184612772565b92915050565b6000606082019050612a446000830186612772565b612a516020830185612772565b612a5e60408301846129ee565b949350505050565b6000604082019050612a7b6000830185612772565b612a8860208301846129ee565b9392505050565b6000602082019050612aa46000830184612781565b92915050565b6000602082019050612abf60008301846127c1565b92915050565b600060a082019050612ada60008301886127d0565b612ae760208301876129ee565b612af460408301866129ee565b612b0160608301856129ee565b612b0e60808301846129df565b9695505050505050565b60006020820190508181036000830152612b3281846127df565b905092915050565b60006020820190508181036000830152612b5381612818565b9050919050565b60006020820190508181036000830152612b738161283b565b9050919050565b60006020820190508181036000830152612b938161285e565b9050919050565b60006020820190508181036000830152612bb381612881565b9050919050565b60006020820190508181036000830152612bd3816128a4565b9050919050565b60006020820190508181036000830152612bf3816128c7565b9050919050565b60006020820190508181036000830152612c13816128ea565b9050919050565b60006020820190508181036000830152612c338161290d565b9050919050565b60006020820190508181036000830152612c5381612930565b9050919050565b60006020820190508181036000830152612c7381612953565b9050919050565b60006020820190508181036000830152612c9381612976565b9050919050565b60006020820190508181036000830152612cb381612999565b9050919050565b60006020820190508181036000830152612cd3816129bc565b9050919050565b6000602082019050612cef60008301846129ee565b92915050565b6000604082019050612d0a60008301856129ee565b612d1760208301846129ee565b9392505050565b600081519050919050565b600081519050919050565b600081905092915050565b600082825260208201905092915050565b6000612d5b82612ec3565b9150612d6683612ec3565b9250827fffffffffffffffffffffffffffffffffffffffffffffffffffffffffffffffff03821115612d9b57612d9a612f91565b5b828201905092915050565b6000612db182612ec3565b9150612dbc83612ec3565b925082612dcc57612dcb612fc0565b5b828204905092915050565b6000612de282612ec3565b9150612ded83612ec3565b9250817fffffffffffffffffffffffffffffffffffffffffffffffffffffffffffffffff0483118215151615612e2657612e25612f91565b5b828202905092915050565b6000612e3c82612ec3565b9150612e4783612ec3565b925082821015612e5a57612e59612f91565b5b828203905092915050565b6000612e7082612ea3565b9050919050565b60008115159050919050565b6000612e8e82612e65565b9050919050565b600061ffff82169050919050565b600073ffffffffffffffffffffffffffffffffffffffff82169050919050565b6000819050919050565b6000612ed882612edf565b9050919050565b6000612eea82612ea3565b9050919050565b6000612efc82612f03565b9050919050565b6000612f0e82612ea3565b9050919050565b60005b83811015612f33578082015181840152602081019050612f18565b83811115612f42576000848401525b50505050565b6000612f5382612ec3565b91507fffffffffffffffffffffffffffffffffffffffffffffffffffffffffffffffff821415612f8657612f85612f91565b5b600182019050919050565b7f4e487b7100000000000000000000000000000000000000000000000000000000600052601160045260246000fd5b7f4e487b7100000000000000000000000000000000000000000000000000000000600052601260045260246000fd5b6000601f19601f8301169050919050565b7f6164643a20696e76616c6964206465706f73697420666565206261736973207060008201527f6f696e7473000000000000000000000000000000000000000000000000000000602082015250565b7f4f776e61626c653a206e6577206f776e657220697320746865207a65726f206160008201527f6464726573730000000000000000000000000000000000000000000000000000602082015250565b7f73616665436f625472616e736665723a207472616e73666572206661696c6564600082015250565b7f416464726573733a20696e73756666696369656e742062616c616e636520666f60008201527f722063616c6c0000000000000000000000000000000000000000000000000000602082015250565b7f6465763a207775743f0000000000000000000000000000000000000000000000600082015250565b7f7365743a20696e76616c6964206465706f73697420666565206261736973207060008201527f6f696e7473000000000000000000000000000000000000000000000000000000602082015250565b7f4f776e61626c653a2063616c6c6572206973206e6f7420746865206f776e6572600082015250565b7f416464726573733a2063616c6c20746f206e6f6e2d636f6e7472616374000000600082015250565b7f77697468647261773a206e6f7420676f6f640000000000000000000000000000600082015250565b7f6e6f6e4475706c6963617465643a206475706c69636174656400000000000000600082015250565b7f736574466565416464726573733a20464f5242494444454e0000000000000000600082015250565b7f5361666545524332303a204552433230206f7065726174696f6e20646964206e60008201527f6f74207375636365656400000000000000000000000000000000000000000000602082015250565b7f5265656e7472616e637947756172643a207265656e7472616e742063616c6c00600082015250565b6132dc81612e65565b81146132e757600080fd5b50565b6132f381612e77565b81146132fe57600080fd5b50565b61330a81612e83565b811461331557600080fd5b50565b61332181612e95565b811461332c57600080fd5b50565b61333881612ec3565b811461334357600080fd5b5056fea264697066735822122072dc812dd462e6d8f542c51e42792734748a39f6b6bb86db6c4de9154ad6bb4e64736f6c63430008040033",
  "linkReferences": {},
  "deployedLinkReferences": {}
}