{
  "abi": [
    {
      "inputs": [
        {
          "internalType": "uint256",
          "name": "_slippagePoints",
          "type": "uint256"
        },
        {
          "internalType": "uint256",
          "name": "_slippageBasePoints",
          "type": "uint256"
        },
        {
          "internalType": "contract IUniswapV2Router02[]",
          "name": "_routers",
          "type": "address[]"
        },
        {
          "internalType": "address",
          "name": "_resolver",
          "type": "address"
        }
      ],
      "stateMutability": "nonpayable",
      "type": "constructor"
    },
    {
      "anonymous": false,
      "inputs": [
        {
          "indexed": true,
          "internalType": "address",
          "name": "_creator",
          "type": "address"
        },
        {
          "indexed": true,
          "internalType": "uint256",
          "name": "_vaultId",
          "type": "uint256"
        },
        {
          "indexed": false,
          "internalType": "uint256",
          "name": "_orderId",
          "type": "uint256"
        }
      ],
      "name": "CreateOrder",
      "type": "event"
    },
    {
      "anonymous": false,
      "inputs": [
        {
          "indexed": true,
          "internalType": "address",
          "name": "_creator",
          "type": "address"
        },
        {
          "indexed": true,
          "internalType": "uint256",
          "name": "_vaultId",
          "type": "uint256"
        },
        {
          "indexed": false,
          "internalType": "uint256",
          "name": "_tokenId",
          "type": "uint256"
        }
      ],
      "name": "CreateTrade",
      "type": "event"
    },
    {
      "anonymous": false,
      "inputs": [
        {
          "indexed": true,
          "internalType": "address",
          "name": "_receiver",
          "type": "address"
        },
        {
          "indexed": false,
          "internalType": "address",
          "name": "_gasToken",
          "type": "address"
        },
        {
          "indexed": false,
          "internalType": "uint256",
          "name": "_amount",
          "type": "uint256"
        }
      ],
      "name": "DepositGas",
      "type": "event"
    },
    {
      "anonymous": false,
      "inputs": [
        {
          "indexed": true,
          "internalType": "address",
          "name": "_orderOwner",
          "type": "address"
        },
        {
          "indexed": true,
          "internalType": "uint256",
          "name": "_vaultId",
          "type": "uint256"
        },
        {
          "indexed": true,
          "internalType": "uint256",
          "name": "_tokenId",
          "type": "uint256"
        },
        {
          "indexed": false,
          "internalType": "uint256",
          "name": "_orderId",
          "type": "uint256"
        }
      ],
      "name": "FillOrder",
      "type": "event"
    },
    {
      "anonymous": false,
      "inputs": [
        {
          "indexed": true,
          "internalType": "address",
          "name": "previousOwner",
          "type": "address"
        },
        {
          "indexed": true,
          "internalType": "address",
          "name": "newOwner",
          "type": "address"
        }
      ],
      "name": "OwnershipTransferred",
      "type": "event"
    },
    {
      "anonymous": false,
      "inputs": [
        {
          "indexed": false,
          "internalType": "address",
          "name": "account",
          "type": "address"
        }
      ],
      "name": "Paused",
      "type": "event"
    },
    {
      "anonymous": false,
      "inputs": [
        {
          "indexed": false,
          "internalType": "address",
          "name": "account",
          "type": "address"
        }
      ],
      "name": "Unpaused",
      "type": "event"
    },
    {
      "anonymous": false,
      "inputs": [
        {
          "indexed": true,
          "internalType": "address",
          "name": "_owner",
          "type": "address"
        },
        {
          "indexed": true,
          "internalType": "uint256",
          "name": "_vaultId",
          "type": "uint256"
        },
        {
          "indexed": true,
          "internalType": "uint256",
          "name": "_tokenId",
          "type": "uint256"
        }
      ],
      "name": "Withdraw",
      "type": "event"
    },
    {
      "inputs": [],
      "name": "ACTIVE_VAULT",
      "outputs": [
        {
          "internalType": "uint8",
          "name": "",
          "type": "uint8"
        }
      ],
      "stateMutability": "view",
      "type": "function"
    },
    {
      "inputs": [],
      "name": "DEACTIVATED_VAULT",
      "outputs": [
        {
          "internalType": "uint8",
          "name": "",
          "type": "uint8"
        }
      ],
      "stateMutability": "view",
      "type": "function"
    },
    {
      "inputs": [],
      "name": "ETH",
      "outputs": [
        {
          "internalType": "address",
          "name": "",
          "type": "address"
        }
      ],
      "stateMutability": "view",
      "type": "function"
    },
    {
      "inputs": [],
      "name": "Fees",
      "outputs": [
        {
          "internalType": "address",
          "name": "",
          "type": "address"
        }
      ],
      "stateMutability": "view",
      "type": "function"
    },
    {
      "inputs": [],
      "name": "GasToken",
      "outputs": [
        {
          "internalType": "address",
          "name": "",
          "type": "address"
        }
      ],
      "stateMutability": "view",
      "type": "function"
    },
    {
      "inputs": [],
      "name": "Gelato",
      "outputs": [
        {
          "internalType": "bool",
          "name": "",
          "type": "bool"
        }
      ],
      "stateMutability": "view",
      "type": "function"
    },
    {
      "inputs": [],
      "name": "NOT_A_VAULT",
      "outputs": [
        {
          "internalType": "uint8",
          "name": "",
          "type": "uint8"
        }
      ],
      "stateMutability": "view",
      "type": "function"
    },
    {
      "inputs": [],
      "name": "PokeMe",
      "outputs": [
        {
          "internalType": "contract IPokeMe",
          "name": "",
          "type": "address"
        }
      ],
      "stateMutability": "view",
      "type": "function"
    },
    {
      "inputs": [],
      "name": "Resolver",
      "outputs": [
        {
          "internalType": "contract IResolver",
          "name": "",
          "type": "address"
        }
      ],
      "stateMutability": "view",
      "type": "function"
    },
    {
      "inputs": [],
      "name": "SLIPPAGE_BASE_POINTS",
      "outputs": [
        {
          "internalType": "uint256",
          "name": "",
          "type": "uint256"
        }
      ],
      "stateMutability": "view",
      "type": "function"
    },
    {
      "inputs": [],
      "name": "SLIPPAGE_POINTS",
      "outputs": [
        {
          "internalType": "uint256",
          "name": "",
          "type": "uint256"
        }
      ],
      "stateMutability": "view",
      "type": "function"
    },
    {
      "inputs": [
        {
          "internalType": "address",
          "name": "",
          "type": "address"
        }
      ],
      "name": "activeOrderFillers",
      "outputs": [
        {
          "internalType": "uint8",
          "name": "",
          "type": "uint8"
        }
      ],
      "stateMutability": "view",
      "type": "function"
    },
    {
      "inputs": [
        {
          "internalType": "contract IUniswapV2Router02",
          "name": "",
          "type": "address"
        }
      ],
      "name": "activeRouters",
      "outputs": [
        {
          "internalType": "bool",
          "name": "",
          "type": "bool"
        }
      ],
      "stateMutability": "view",
      "type": "function"
    },
    {
      "inputs": [
        {
          "internalType": "uint256",
          "name": "_vaultId",
          "type": "uint256"
        },
        {
          "internalType": "address",
          "name": "_token",
          "type": "address"
        }
      ],
      "name": "activeTokens",
      "outputs": [
        {
          "internalType": "bool",
          "name": "",
          "type": "bool"
        }
      ],
      "stateMutability": "view",
      "type": "function"
    },
    {
      "inputs": [
        {
          "internalType": "address",
          "name": "_filler",
          "type": "address"
        }
      ],
      "name": "addOrderFiller",
      "outputs": [],
      "stateMutability": "nonpayable",
      "type": "function"
    },
    {
      "inputs": [
        {
          "internalType": "address",
          "name": "_vault",
          "type": "address"
        }
      ],
      "name": "addVault",
      "outputs": [],
      "stateMutability": "nonpayable",
      "type": "function"
    },
    {
      "inputs": [
        {
          "internalType": "uint256",
          "name": "_vaultId",
          "type": "uint256"
        },
        {
          "internalType": "address",
          "name": "_token",
          "type": "address"
        },
        {
          "internalType": "uint256",
          "name": "_minDeposit",
          "type": "uint256"
        }
      ],
      "name": "changeTokenMinimumDeposit",
      "outputs": [],
      "stateMutability": "nonpayable",
      "type": "function"
    },
    {
      "inputs": [
        {
          "internalType": "uint256",
          "name": "_vaultId",
          "type": "uint256"
        },
        {
          "internalType": "address[]",
          "name": "_tokens",
          "type": "address[]"
        },
        {
          "internalType": "uint256[]",
          "name": "_amounts",
          "type": "uint256[]"
        },
        {
          "internalType": "uint256[]",
          "name": "_times",
          "type": "uint256[]"
        },
        {
          "internalType": "uint256",
          "name": "_maxGas",
          "type": "uint256"
        }
      ],
      "name": "createTrade",
      "outputs": [],
      "stateMutability": "nonpayable",
      "type": "function"
    },
    {
      "inputs": [
        {
          "internalType": "address",
          "name": "_filler",
          "type": "address"
        }
      ],
      "name": "deactivateOrderFiller",
      "outputs": [],
      "stateMutability": "nonpayable",
      "type": "function"
    },
    {
      "inputs": [
        {
          "internalType": "contract IUniswapV2Router02",
          "name": "_router",
          "type": "address"
        }
      ],
      "name": "deactivateRouter",
      "outputs": [],
      "stateMutability": "nonpayable",
      "type": "function"
    },
    {
      "inputs": [
        {
          "internalType": "uint256",
          "name": "_vaultId",
          "type": "uint256"
        },
        {
          "internalType": "address",
          "name": "_token",
          "type": "address"
        }
      ],
      "name": "deactivateToken",
      "outputs": [],
      "stateMutability": "nonpayable",
      "type": "function"
    },
    {
      "inputs": [
        {
          "internalType": "address",
          "name": "_vault",
          "type": "address"
        }
      ],
      "name": "deactivateVault",
      "outputs": [],
      "stateMutability": "nonpayable",
      "type": "function"
    },
    {
      "inputs": [
        {
          "internalType": "address",
          "name": "_receiver",
          "type": "address"
        }
      ],
      "name": "depositGas",
      "outputs": [],
      "stateMutability": "payable",
      "type": "function"
    },
    {
      "inputs": [
        {
          "internalType": "uint256",
          "name": "_vaultId",
          "type": "uint256"
        },
        {
          "internalType": "uint256",
          "name": "_orderId",
          "type": "uint256"
        },
        {
          "internalType": "contract IUniswapV2Router02",
          "name": "_router",
          "type": "address"
        },
        {
          "internalType": "address[]",
          "name": "_path",
          "type": "address[]"
        }
      ],
      "name": "fillOrder",
      "outputs": [],
      "stateMutability": "nonpayable",
      "type": "function"
    },
    {
      "inputs": [
        {
          "internalType": "uint256",
          "name": "_vaultId",
          "type": "uint256"
        },
        {
          "internalType": "uint256",
          "name": "_orderId",
          "type": "uint256"
        },
        {
          "internalType": "contract IUniswapV2Router02",
          "name": "_router",
          "type": "address"
        },
        {
          "internalType": "address[]",
          "name": "_path",
          "type": "address[]"
        }
      ],
      "name": "fillOrderGelato",
      "outputs": [],
      "stateMutability": "nonpayable",
      "type": "function"
    },
    {
      "inputs": [],
      "name": "gelato",
      "outputs": [
        {
          "internalType": "address payable",
          "name": "",
          "type": "address"
        }
      ],
      "stateMutability": "view",
      "type": "function"
    },
    {
      "inputs": [
        {
          "internalType": "contract IPokeMe",
          "name": "_pokeMe",
          "type": "address"
        },
        {
          "internalType": "contract IResolver",
          "name": "_resolver",
          "type": "address"
        },
        {
          "internalType": "bool",
          "name": "_gelato",
          "type": "bool"
        }
      ],
      "name": "gelatoSettings",
      "outputs": [],
      "stateMutability": "nonpayable",
      "type": "function"
    },
    {
      "inputs": [
        {
          "internalType": "uint256",
          "name": "",
          "type": "uint256"
        }
      ],
      "name": "holdingStrategies",
      "outputs": [
        {
          "internalType": "address",
          "name": "",
          "type": "address"
        }
      ],
      "stateMutability": "view",
      "type": "function"
    },
    {
      "inputs": [
        {
          "internalType": "uint256",
          "name": "_vaultId",
          "type": "uint256"
        }
      ],
      "name": "openOrdersLength",
      "outputs": [
        {
          "internalType": "uint256",
          "name": "",
          "type": "uint256"
        }
      ],
      "stateMutability": "view",
      "type": "function"
    },
    {
      "inputs": [
        {
          "internalType": "uint256",
          "name": "",
          "type": "uint256"
        }
      ],
      "name": "orderFillers",
      "outputs": [
        {
          "internalType": "address",
          "name": "",
          "type": "address"
        }
      ],
      "stateMutability": "view",
      "type": "function"
    },
    {
      "inputs": [
        {
          "internalType": "uint256",
          "name": "_vaultId",
          "type": "uint256"
        }
      ],
      "name": "ordersLength",
      "outputs": [
        {
          "internalType": "uint256",
          "name": "",
          "type": "uint256"
        }
      ],
      "stateMutability": "view",
      "type": "function"
    },
    {
      "inputs": [],
      "name": "owner",
      "outputs": [
        {
          "internalType": "address",
          "name": "",
          "type": "address"
        }
      ],
      "stateMutability": "view",
      "type": "function"
    },
    {
      "inputs": [],
      "name": "pause",
      "outputs": [],
      "stateMutability": "nonpayable",
      "type": "function"
    },
    {
      "inputs": [],
      "name": "paused",
      "outputs": [
        {
          "internalType": "bool",
          "name": "",
          "type": "bool"
        }
      ],
      "stateMutability": "view",
      "type": "function"
    },
    {
      "inputs": [
        {
          "internalType": "uint256",
          "name": "_vaultId",
          "type": "uint256"
        }
      ],
      "name": "priceMultiplier",
      "outputs": [
        {
          "internalType": "uint256",
          "name": "",
          "type": "uint256"
        }
      ],
      "stateMutability": "view",
      "type": "function"
    },
    {
      "inputs": [],
      "name": "renounceOwnership",
      "outputs": [],
      "stateMutability": "nonpayable",
      "type": "function"
    },
    {
      "inputs": [
        {
          "internalType": "uint256",
          "name": "",
          "type": "uint256"
        }
      ],
      "name": "routers",
      "outputs": [
        {
          "internalType": "contract IUniswapV2Router02",
          "name": "",
          "type": "address"
        }
      ],
      "stateMutability": "view",
      "type": "function"
    },
    {
      "inputs": [
        {
          "internalType": "bool",
          "name": "_whitelist",
          "type": "bool"
        }
      ],
      "name": "setOrderFillers",
      "outputs": [],
      "stateMutability": "nonpayable",
      "type": "function"
    },
    {
      "inputs": [
        {
          "internalType": "uint256",
          "name": "_slippagePoints",
          "type": "uint256"
        },
        {
          "internalType": "uint256",
          "name": "_slippageBasePoints",
          "type": "uint256"
        }
      ],
      "name": "setSlippage",
      "outputs": [],
      "stateMutability": "nonpayable",
      "type": "function"
    },
    {
      "inputs": [
        {
          "internalType": "uint256",
          "name": "_vaultId",
          "type": "uint256"
        },
        {
          "internalType": "address",
          "name": "_token",
          "type": "address"
        },
        {
          "internalType": "address",
          "name": "_strategy",
          "type": "address"
        },
        {
          "internalType": "uint256",
          "name": "_minDeposit",
          "type": "uint256"
        }
      ],
      "name": "setTokenStrategy",
      "outputs": [],
      "stateMutability": "nonpayable",
      "type": "function"
    },
    {
      "inputs": [
        {
          "internalType": "uint256",
          "name": "_vaultId",
          "type": "uint256"
        },
        {
          "internalType": "string",
          "name": "_URI",
          "type": "string"
        }
      ],
      "name": "setVaultURI",
      "outputs": [],
      "stateMutability": "nonpayable",
      "type": "function"
    },
    {
      "inputs": [
        {
          "internalType": "uint256",
          "name": "_amountIn",
          "type": "uint256"
        }
      ],
      "name": "slippage",
      "outputs": [
        {
          "internalType": "uint256",
          "name": "",
          "type": "uint256"
        }
      ],
      "stateMutability": "view",
      "type": "function"
    },
    {
      "inputs": [
        {
          "internalType": "uint256",
          "name": "",
          "type": "uint256"
        },
        {
          "internalType": "uint256",
          "name": "",
          "type": "uint256"
        }
      ],
      "name": "taskIds",
      "outputs": [
        {
          "internalType": "bytes32",
          "name": "",
          "type": "bytes32"
        }
      ],
      "stateMutability": "view",
      "type": "function"
    },
    {
      "inputs": [
        {
          "internalType": "uint256",
          "name": "_vaultId",
          "type": "uint256"
        }
      ],
      "name": "tokenLength",
      "outputs": [
        {
          "internalType": "uint256",
          "name": "",
          "type": "uint256"
        }
      ],
      "stateMutability": "view",
      "type": "function"
    },
    {
      "inputs": [
        {
          "internalType": "uint256",
          "name": "",
          "type": "uint256"
        },
        {
          "internalType": "uint256",
          "name": "",
          "type": "uint256"
        }
      ],
      "name": "tokenMaxGas",
      "outputs": [
        {
          "internalType": "uint256",
          "name": "",
          "type": "uint256"
        }
      ],
      "stateMutability": "view",
      "type": "function"
    },
    {
      "inputs": [
        {
          "internalType": "uint256",
          "name": "_vaultId",
          "type": "uint256"
        },
        {
          "internalType": "address",
          "name": "_token",
          "type": "address"
        }
      ],
      "name": "tokenMinimumDeposit",
      "outputs": [
        {
          "internalType": "uint256",
          "name": "",
          "type": "uint256"
        }
      ],
      "stateMutability": "view",
      "type": "function"
    },
    {
      "inputs": [
        {
          "internalType": "uint256",
          "name": "_vaultId",
          "type": "uint256"
        },
        {
          "internalType": "uint256",
          "name": "_tokenId",
          "type": "uint256"
        }
      ],
      "name": "tokenOpenOrdersLength",
      "outputs": [
        {
          "internalType": "uint256",
          "name": "",
          "type": "uint256"
        }
      ],
      "stateMutability": "view",
      "type": "function"
    },
    {
      "inputs": [
        {
          "internalType": "uint256",
          "name": "_vaultId",
          "type": "uint256"
        },
        {
          "internalType": "address",
          "name": "_token",
          "type": "address"
        }
      ],
      "name": "tokenStrategy",
      "outputs": [
        {
          "internalType": "contract IStrategy",
          "name": "",
          "type": "address"
        }
      ],
      "stateMutability": "view",
      "type": "function"
    },
    {
      "inputs": [
        {
          "internalType": "uint256",
          "name": "_vaultId",
          "type": "uint256"
        },
        {
          "internalType": "uint256",
          "name": "_tokenId",
          "type": "uint256"
        }
      ],
      "name": "tokenTradeLength",
      "outputs": [
        {
          "internalType": "uint256",
          "name": "",
          "type": "uint256"
        }
      ],
      "stateMutability": "view",
      "type": "function"
    },
    {
      "inputs": [
        {
          "internalType": "uint256",
          "name": "_vaultId",
          "type": "uint256"
        },
        {
          "internalType": "uint256",
          "name": "_index",
          "type": "uint256"
        }
      ],
      "name": "tokens",
      "outputs": [
        {
          "internalType": "address",
          "name": "",
          "type": "address"
        }
      ],
      "stateMutability": "view",
      "type": "function"
    },
    {
      "inputs": [
        {
          "internalType": "uint256",
          "name": "_vaultId",
          "type": "uint256"
        }
      ],
      "name": "tokensLength",
      "outputs": [
        {
          "internalType": "uint256",
          "name": "",
          "type": "uint256"
        }
      ],
      "stateMutability": "view",
      "type": "function"
    },
    {
      "inputs": [
        {
          "internalType": "address",
          "name": "newOwner",
          "type": "address"
        }
      ],
      "name": "transferOwnership",
      "outputs": [],
      "stateMutability": "nonpayable",
      "type": "function"
    },
    {
      "inputs": [],
      "name": "unpause",
      "outputs": [],
      "stateMutability": "nonpayable",
      "type": "function"
    },
    {
      "inputs": [
        {
          "internalType": "address",
          "name": "",
          "type": "address"
        }
      ],
      "name": "userGasAmounts",
      "outputs": [
        {
          "internalType": "uint256",
          "name": "",
          "type": "uint256"
        }
      ],
      "stateMutability": "view",
      "type": "function"
    },
    {
      "inputs": [
        {
          "internalType": "address",
          "name": "_vault",
          "type": "address"
        }
      ],
      "name": "vault",
      "outputs": [
        {
          "internalType": "uint8",
          "name": "",
          "type": "uint8"
        }
      ],
      "stateMutability": "view",
      "type": "function"
    },
    {
      "inputs": [
        {
          "internalType": "address",
          "name": "_vault",
          "type": "address"
        }
      ],
      "name": "vaultId",
      "outputs": [
        {
          "internalType": "uint256",
          "name": "",
          "type": "uint256"
        }
      ],
      "stateMutability": "view",
      "type": "function"
    },
    {
      "inputs": [
        {
          "internalType": "address",
          "name": "_owner",
          "type": "address"
        }
      ],
      "name": "vaultTokensByOwner",
      "outputs": [
        {
          "components": [
            {
              "internalType": "address",
              "name": "vault",
              "type": "address"
            },
            {
              "internalType": "uint256",
              "name": "tokenId",
              "type": "uint256"
            }
          ],
          "internalType": "struct Controller.UserTokens[]",
          "name": "",
          "type": "tuple[]"
        }
      ],
      "stateMutability": "view",
      "type": "function"
    },
    {
      "inputs": [
        {
          "internalType": "uint256",
          "name": "_vaultId",
          "type": "uint256"
        }
      ],
      "name": "vaultURI",
      "outputs": [
        {
          "internalType": "string",
          "name": "",
          "type": "string"
        }
      ],
      "stateMutability": "view",
      "type": "function"
    },
    {
      "inputs": [
        {
          "internalType": "uint256",
          "name": "",
          "type": "uint256"
        }
      ],
      "name": "vaults",
      "outputs": [
        {
          "internalType": "contract IVaultBase",
          "name": "",
          "type": "address"
        }
      ],
      "stateMutability": "view",
      "type": "function"
    },
    {
      "inputs": [],
      "name": "vaultsLength",
      "outputs": [
        {
          "internalType": "uint256",
          "name": "",
          "type": "uint256"
        }
      ],
      "stateMutability": "view",
      "type": "function"
    },
    {
      "inputs": [
        {
          "internalType": "uint256",
          "name": "_vaultId",
          "type": "uint256"
        },
        {
          "internalType": "uint256",
          "name": "_tokenId",
          "type": "uint256"
        }
      ],
      "name": "viewOpenOrdersByToken",
      "outputs": [
        {
          "components": [
            {
              "internalType": "uint256",
              "name": "tokenId",
              "type": "uint256"
            },
            {
              "internalType": "uint256",
              "name": "tradeId",
              "type": "uint256"
            },
            {
              "internalType": "uint256",
              "name": "orderId",
              "type": "uint256"
            },
            {
              "internalType": "uint256",
              "name": "timestamp",
              "type": "uint256"
            },
            {
              "internalType": "address[2]",
              "name": "tokens",
              "type": "address[2]"
            },
            {
              "internalType": "uint256[3]",
              "name": "amounts",
              "type": "uint256[3]"
            },
            {
              "internalType": "uint256[]",
              "name": "times",
              "type": "uint256[]"
            }
          ],
          "internalType": "struct IVaultBase.Order[]",
          "name": "",
          "type": "tuple[]"
        }
      ],
      "stateMutability": "view",
      "type": "function"
    },
    {
      "inputs": [
        {
          "internalType": "uint256",
          "name": "_vaultId",
          "type": "uint256"
        },
        {
          "internalType": "uint256",
          "name": "_start",
          "type": "uint256"
        },
        {
          "internalType": "uint256",
          "name": "_end",
          "type": "uint256"
        }
      ],
      "name": "viewOpenOrdersInRange",
      "outputs": [
        {
          "components": [
            {
              "internalType": "uint256",
              "name": "tokenId",
              "type": "uint256"
            },
            {
              "internalType": "uint256",
              "name": "tradeId",
              "type": "uint256"
            },
            {
              "internalType": "uint256",
              "name": "orderId",
              "type": "uint256"
            },
            {
              "internalType": "uint256",
              "name": "timestamp",
              "type": "uint256"
            },
            {
              "internalType": "address[2]",
              "name": "tokens",
              "type": "address[2]"
            },
            {
              "internalType": "uint256[3]",
              "name": "amounts",
              "type": "uint256[3]"
            },
            {
              "internalType": "uint256[]",
              "name": "times",
              "type": "uint256[]"
            }
          ],
          "internalType": "struct IVaultBase.Order[]",
          "name": "",
          "type": "tuple[]"
        }
      ],
      "stateMutability": "view",
      "type": "function"
    },
    {
      "inputs": [
        {
          "internalType": "uint256",
          "name": "_vaultId",
          "type": "uint256"
        },
        {
          "internalType": "uint256",
          "name": "_orderId",
          "type": "uint256"
        }
      ],
      "name": "viewOrder",
      "outputs": [
        {
          "components": [
            {
              "internalType": "uint256",
              "name": "tokenId",
              "type": "uint256"
            },
            {
              "internalType": "uint256",
              "name": "tradeId",
              "type": "uint256"
            },
            {
              "internalType": "uint256",
              "name": "orderId",
              "type": "uint256"
            },
            {
              "internalType": "uint256",
              "name": "timestamp",
              "type": "uint256"
            },
            {
              "internalType": "address[2]",
              "name": "tokens",
              "type": "address[2]"
            },
            {
              "internalType": "uint256[3]",
              "name": "amounts",
              "type": "uint256[3]"
            },
            {
              "internalType": "uint256[]",
              "name": "times",
              "type": "uint256[]"
            }
          ],
          "internalType": "struct IVaultBase.Order",
          "name": "",
          "type": "tuple"
        }
      ],
      "stateMutability": "view",
      "type": "function"
    },
    {
      "inputs": [
        {
          "internalType": "uint256",
          "name": "_vaultId",
          "type": "uint256"
        },
        {
          "internalType": "uint256[]",
          "name": "_orderIds",
          "type": "uint256[]"
        }
      ],
      "name": "viewOrders",
      "outputs": [
        {
          "components": [
            {
              "internalType": "uint256",
              "name": "tokenId",
              "type": "uint256"
            },
            {
              "internalType": "uint256",
              "name": "tradeId",
              "type": "uint256"
            },
            {
              "internalType": "uint256",
              "name": "orderId",
              "type": "uint256"
            },
            {
              "internalType": "uint256",
              "name": "timestamp",
              "type": "uint256"
            },
            {
              "internalType": "address[2]",
              "name": "tokens",
              "type": "address[2]"
            },
            {
              "internalType": "uint256[3]",
              "name": "amounts",
              "type": "uint256[3]"
            },
            {
              "internalType": "uint256[]",
              "name": "times",
              "type": "uint256[]"
            }
          ],
          "internalType": "struct IVaultBase.Order[]",
          "name": "",
          "type": "tuple[]"
        }
      ],
      "stateMutability": "view",
      "type": "function"
    },
    {
      "inputs": [
        {
          "internalType": "uint256",
          "name": "_vaultId",
          "type": "uint256"
        },
        {
          "internalType": "uint256",
          "name": "_tokenId",
          "type": "uint256"
        },
        {
          "internalType": "uint256[]",
          "name": "_tradeIds",
          "type": "uint256[]"
        }
      ],
      "name": "viewTrades",
      "outputs": [
        {
          "components": [
            {
              "internalType": "uint256",
              "name": "tokenId",
              "type": "uint256"
            },
            {
              "internalType": "uint256",
              "name": "tradeId",
              "type": "uint256"
            },
            {
              "internalType": "uint256",
              "name": "orderId",
              "type": "uint256"
            },
            {
              "internalType": "uint256",
              "name": "timestamp",
              "type": "uint256"
            },
            {
              "internalType": "address[2]",
              "name": "tokens",
              "type": "address[2]"
            },
            {
              "internalType": "uint256[3]",
              "name": "amounts",
              "type": "uint256[3]"
            },
            {
              "internalType": "uint256[]",
              "name": "times",
              "type": "uint256[]"
            }
          ],
          "internalType": "struct IVaultBase.Order[][]",
          "name": "",
          "type": "tuple[][]"
        }
      ],
      "stateMutability": "view",
      "type": "function"
    },
    {
      "inputs": [],
      "name": "whitelistOrderFillers",
      "outputs": [
        {
          "internalType": "bool",
          "name": "",
          "type": "bool"
        }
      ],
      "stateMutability": "view",
      "type": "function"
    },
    {
      "inputs": [
        {
          "internalType": "uint256",
          "name": "_vaultId",
          "type": "uint256"
        },
        {
          "internalType": "uint256",
          "name": "_tokenId",
          "type": "uint256"
        }
      ],
      "name": "withdraw",
      "outputs": [],
      "stateMutability": "nonpayable",
      "type": "function"
    },
    {
      "inputs": [],
      "name": "withdrawGas",
      "outputs": [],
      "stateMutability": "nonpayable",
      "type": "function"
    }
  ],
  "bytecode": "6080604052600180546001600160a01b031990811673527a819db1eb0e34426297b03bae11f2f8b3a19e179091556003805490911673eeeeeeeeeeeeeeeeeeeeeeeeeeeeeeeeeeeeeeee1790553480156200005957600080fd5b50604051620058ac380380620058ac8339810160408190526200007c9162000335565b60006200008862000180565b600080546001600160a01b0319166001600160a01b0383169081178255604051929350917f8be0079c531659141344cd1fd0a4f28419497f9722a3daafe3b4186f6b6457e0908290a3506000805461ffff60a01b1916600160a81b179055620000f2848462000184565b6003805460ff60a01b1916600160a01b179055600280546001600160a01b0383166001600160a01b031990911617905560005b82518110156200015d57620001548382815181106200014057fe5b6020026020010151620001d560201b60201c565b60010162000125565b50600e805460ff1916600117905562000176336200023c565b5050505062000525565b3390565b80620001a0603284620002df60201b62003b411790919060201c565b1115620001ca5760405162461bcd60e51b8152600401620001c19062000415565b60405180910390fd5b600c91909155600d55565b6007805460018181019092557fa66cc928b5edb82af9bd49922954155ab7b0942694bea4ce44661d9a8736c6880180546001600160a01b039093166001600160a01b031990931683179055600091825260086020526040909120805460ff19169091179055565b6001600160a01b03811660009081526010602052604090205460ff1615620002785760405162461bcd60e51b8152600401620001c1906200049e565b600f805460018181019092557f8d1108e10bcb7c27dddfc02ed9d693a074039d026cf4ea4240b40f7d581ac8020180546001600160a01b039093166001600160a01b031990931683179055600091825260106020526040909120805460ff19169091179055565b600082620002f05750600062000322565b82820282848281620002fe57fe5b04146200031f5760405162461bcd60e51b8152600401620001c1906200045d565b90505b92915050565b805162000322816200050c565b600080600080608085870312156200034b578384fd5b845160208087015160408801519296509450906001600160401b038082111562000373578485fd5b818801915088601f83011262000387578485fd5b81518181111562000396578586fd5b8381029150620003a8848301620004e5565b8181528481019084860184860187018d1015620003c3578889fd5b8895505b83861015620003f157620003dc8d8262000328565b835260019590950194918601918601620003c7565b508097505050505050506200040a866060870162000328565b905092959194509250565b60208082526028908201527f436f726e466920436f6e74726f6c6c65723a204d617820536c69707061676520604082015267115e18d95959195960c21b606082015260800190565b60208082526021908201527f536166654d6174683a206d756c7469706c69636174696f6e206f766572666c6f6040820152607760f81b606082015260800190565b60208082526027908201527f436f726e466920436f6e74726f6c6c65723a20496e76616c6964204f72646572604082015266102334b63632b960c91b606082015260800190565b6040518181016001600160401b03811182821017156200050457600080fd5b604052919050565b6001600160a01b03811681146200052257600080fd5b50565b61537780620005356000396000f3fe6080604052600436106103ef5760003560e01c80638456cb5911610208578063c20b08ea11610118578063e25fa122116100ab578063eeb8b9341161007a578063eeb8b93414610b6b578063f190a53914610b8b578063f2fde38b14610bab578063f815c03d14610bcb578063fd6766f614610beb576103ef565b8063e25fa12214610b01578063e3f5449914610b21578063e9fcd6ce14610b36578063eb03c98c14610b4b576103ef565b8063d8e09316116100e7578063d8e0931614610a74578063dc27522b14610a94578063dc51687614610ac1578063e20371e314610ae1576103ef565b8063c20b08ea146109f4578063c631353f14610a14578063c71a6d0614610a34578063cb306f0214610a54576103ef565b8063aa9f62171161019b578063bc9ef3e01161016a578063bc9ef3e01461096c578063bcb5703d1461098c578063c05d6c41146109a1578063c123cb44146109c1578063c14c0713146109d4576103ef565b8063aa9f6217146108f7578063ab27feea14610917578063aee1640714610937578063b86e3dc91461094c576103ef565b80638da5cb5b116101d75780638da5cb5b1461088d57806390181d28146108a257806396582cb5146108c25780639670e0de146108d7576103ef565b80638456cb59146108185780638b4864d61461082d5780638c64ea4a1461084d5780638d3a513e1461086d576103ef565b80634fec8c3411610303578063659755f9116102965780637af124e8116102655780637af124e81461078e5780637c04d11f146107ae5780637dc24f49146107ce57806382af54c9146107ee5780638322fff214610803576103ef565b8063659755f9146107245780636840339a14610739578063715018a6146107595780637726a73c1461076e576103ef565b80635711be12116102d25780635711be12146106ad578063573ea575146106da5780635c975abb146106ef57806362d4a36a14610704576103ef565b80634fec8c3414610629578063548a99ad1461064b57806355d6dc2f1461066b57806355eaf8f114610698576103ef565b8063256b5a02116103865780633b94a42b116103555780633b94a42b146105945780633f4ba83a146105b4578063408198c5146105c9578063441a3e70146105e95780634e9c111814610609576103ef565b8063256b5a02146105055780632a2925c21461052557806330d33f80146105525780633aaa36e61461057f576103ef565b80631261795d116103c25780631261795d1461048e5780631ac36471146104a3578063230f9b9d146104c357806324e702ed146104e3576103ef565b8063043b99cc146103f45780630445ea4b1461041f57806309fc72aa1461044c57806312320bca1461046c575b600080fd5b34801561040057600080fd5b50610409610c0b565b6040516104169190614a44565b60405180910390f35b34801561042b57600080fd5b5061043f61043a36600461432a565b610c1a565b6040516104169190614c43565b34801561045857600080fd5b5061043f610467366004614560565b610c2c565b34801561047857600080fd5b5061048c61048736600461480e565b610cc2565b005b34801561049a57600080fd5b5061048c61130f565b3480156104af57600080fd5b5061048c6104be36600461432a565b61140e565b3480156104cf57600080fd5b5061048c6104de36600461432a565b611464565b3480156104ef57600080fd5b506104f86114f8565b604051610416919061527c565b34801561051157600080fd5b5061048c61052036600461432a565b6114fd565b34801561053157600080fd5b506105456105403660046146de565b6115d0565b6040516104169190614bda565b34801561055e57600080fd5b5061057261056d3660046147c1565b611718565b6040516104169190614b7a565b34801561058b57600080fd5b5061040961191d565b3480156105a057600080fd5b506105456105af3660046147a0565b611935565b3480156105c057600080fd5b5061048c611b48565b3480156105d557600080fd5b506104f86105e436600461432a565b611b87565b3480156105f557600080fd5b5061048c6106043660046147a0565b611b9c565b34801561061557600080fd5b50610409610624366004614560565b611d97565b34801561063557600080fd5b5061063e611dbe565b6040516104169190614c38565b34801561065757600080fd5b5061048c610666366004614612565b611dce565b34801561067757600080fd5b5061068b61068636600461432a565b611e82565b6040516104169190614bed565b3480156106a457600080fd5b506104f8612149565b3480156106b957600080fd5b506106cd6106c83660046147a0565b61214e565b604051610416919061522f565b3480156106e657600080fd5b506104096121f7565b3480156106fb57600080fd5b5061063e61220f565b34801561071057600080fd5b5061043f61071f3660046147a0565b61221f565b34801561073057600080fd5b506104096122b7565b34801561074557600080fd5b50610409610754366004614560565b6122c6565b34801561076557600080fd5b5061048c6122d3565b34801561077a57600080fd5b5061043f61078936600461432a565b612352565b34801561079a57600080fd5b506104096107a9366004614578565b61236d565b3480156107ba57600080fd5b5061048c6107c9366004614722565b612405565b3480156107da57600080fd5b5061043f6107e9366004614560565b6124b6565b3480156107fa57600080fd5b5061043f61250e565b34801561080f57600080fd5b50610409612514565b34801561082457600080fd5b5061048c61252c565b34801561083957600080fd5b506104096108483660046147a0565b612569565b34801561085957600080fd5b50610409610868366004614560565b6125b1565b34801561087957600080fd5b5061043f6108883660046147a0565b6125be565b34801561089957600080fd5b506104096125db565b3480156108ae57600080fd5b5061043f6108bd366004614560565b6125ea565b3480156108ce57600080fd5b5061063e612642565b3480156108e357600080fd5b5061043f6108f2366004614560565b61264b565b34801561090357600080fd5b5061048c61091236600461432a565b612678565b34801561092357600080fd5b5061048c61093236600461439c565b6126d1565b34801561094357600080fd5b5061043f612719565b34801561095857600080fd5b5061048c610967366004614649565b61271f565b34801561097857600080fd5b5061048c6109873660046147a0565b612b7b565b34801561099857600080fd5b506104f8612bbe565b3480156109ad57600080fd5b5061063e6109bc36600461432a565b612bc3565b61048c6109cf36600461432a565b612bd8565b3480156109e057600080fd5b5061043f6109ef366004614560565b612cd1565b348015610a0057600080fd5b5061043f610a0f366004614578565b612d29565b348015610a2057600080fd5b50610545610a2f36600461486e565b612d71565b348015610a4057600080fd5b5061048c610a4f36600461480e565b612fad565b348015610a6057600080fd5b5061043f610a6f3660046147a0565b6135ea565b348015610a8057600080fd5b5061048c610a8f3660046143ec565b613607565b348015610aa057600080fd5b50610ab4610aaf366004614560565b61368a565b6040516104169190614c4c565b348015610acd57600080fd5b5061048c610adc3660046145cb565b61371c565b348015610aed57600080fd5b5061048c610afc366004614578565b613857565b348015610b0d57600080fd5b5061043f610b1c3660046147a0565b6138d2565b348015610b2d57600080fd5b5061040961391a565b348015610b4257600080fd5b5061043f613929565b348015610b5757600080fd5b50610409610b66366004614560565b61392f565b348015610b7757600080fd5b5061043f610b86366004614560565b61393c565b348015610b9757600080fd5b5061063e610ba6366004614578565b613994565b348015610bb757600080fd5b5061048c610bc636600461432a565b613a2c565b348015610bd757600080fd5b506104f8610be636600461432a565b613ae2565b348015610bf757600080fd5b5061048c610c0636600461432a565b613b00565b6003546001600160a01b031681565b60066020526000908152604090205481565b600060098281548110610c3b57fe5b6000918252602091829020015460408051630cc7267360e11b815290516001600160a01b039092169263198e4ce692600480840193829003018186803b158015610c8457600080fd5b505afa158015610c98573d6000803e3d6000fd5b505050506040513d601f19601f82011682018060405250810190610cbc91906143d4565b92915050565b600054600160a01b900460ff1615610cf55760405162461bcd60e51b8152600401610cec90614ea2565b60405180910390fd5b600e5460ff1615610d32573360009081526010602052604090205460ff16600114610d325760405162461bcd60e51b8152600401610cec90615050565b600054600160a81b900460ff16610d5b5760405162461bcd60e51b8152600401610cec9061516a565b6000805460ff60a81b191681555a6001600160a01b03841660009081526008602052604090205490915060ff16610da45760405162461bcd60e51b8152600401610cec90614cd2565b610dac6140a8565b610db6868661214e565b60008781526005602090815260408083208451845290915290205490915015610e13576000868152600560209081526040808320845184529091529020543a1115610e135760405162461bcd60e51b8152600401610cec90614c8d565b610e1b6140a8565b60098781548110610e2857fe5b600091825260209091200154604051632ca5159f60e11b81526001600160a01b039091169063594a2b3e90610e679033908a908a908a90600401614ac6565b600060405180830381600087803b158015610e8157600080fd5b505af1158015610e95573d6000803e3d6000fd5b505050506040513d6000823e601f3d908101601f19168201604052610ebd91908101906144a8565b60008881526004602090815260408083208a845290915290205490915015610f5b5760015460008881526004602081815260408084208b85529091529182902054915163ee8ca3b560e01b81526001600160a01b039093169263ee8ca3b592610f2892909101614c43565b600060405180830381600087803b158015610f4257600080fd5b505af1158015610f56573d6000803e3d6000fd5b505050505b600060098881548110610f6a57fe5b60009182526020909120015483516040516331a9108f60e11b81526001600160a01b0390921691636352211e91610fa391600401614c43565b60206040518083038186803b158015610fbb57600080fd5b505afa158015610fcf573d6000803e3d6000fd5b505050506040513d601f19601f82011682018060405250810190610ff39190614346565b9050826000015188826001600160a01b03167f37aacca185d8a700a40142541d808e10bc61ca82eb929cb3df05de903a64dc848a6040516110349190614c43565b60405180910390a4600354600160a01b900460ff1680156110585750604082015115155b156111db5787816001600160a01b03167faf1b9133e30ada3fee6cb47a46b80b2dfee808dc5bc919f712beb9ee33b465d6846040015160405161109b9190614c43565b60405180910390a3600154600254604084015160808501516001600160a01b039384169363b9f45adb93309363638d368360e11b93929091169163e34ca65d60e01b918f916000602002015160808b01516001602002015160a08c015160006020020151604051602401611113959493929190615250565b60408051601f198184030181529181526020820180516001600160e01b03166001600160e01b0319948516179052600354905160e088901b909316835261116b959493926001600160a01b0390911690600401614b27565b602060405180830381600087803b15801561118557600080fd5b505af1158015611199573d6000803e3d6000fd5b505050506040513d601f19601f820116820180604052508101906111bd91906143d4565b60008981526004602090815260408083208682015184529091529020555b60006111f46175306111ee5a8890613b7b565b90613bbd565b90506000611202823a613b41565b6001600160a01b03841660009081526006602052604090205490915081111561123d5760405162461bcd60e51b8152600401610cec906151e2565b6001600160a01b0383166000908152600660205260409020546112609082613b7b565b6001600160a01b0384166000908152600660205260408082209290925590513390839061128c90614a41565b60006040518083038185875af1925050503d80600081146112c9576040519150601f19603f3d011682016040523d82523d6000602084013e6112ce565b606091505b50509050806112ef5760405162461bcd60e51b8152600401610cec90614fc1565b50506000805460ff60a81b1916600160a81b179055505050505050505050565b600054600160a81b900460ff166113385760405162461bcd60e51b8152600401610cec9061516a565b6000805460ff60a81b191681553381526006602052604090205461136e5760405162461bcd60e51b8152600401610cec90614d02565b336000818152600660205260408082208054908390559051909290839061139490614a41565b60006040518083038185875af1925050503d80600081146113d1576040519150601f19603f3d011682016040523d82523d6000602084013e6113d6565b606091505b50509050806113f75760405162461bcd60e51b8152600401610cec90614fc1565b50506000805460ff60a81b1916600160a81b179055565b611416613be2565b6000546001600160a01b039081169116146114435760405162461bcd60e51b8152600401610cec90614f8c565b6001600160a01b03166000908152600860205260409020805460ff19169055565b61146c613be2565b6000546001600160a01b039081169116146114995760405162461bcd60e51b8152600401610cec90614f8c565b6001600160a01b03811660009081526010602052604090205460ff166001146114d45760405162461bcd60e51b8152600401610cec9061511e565b6001600160a01b03166000908152601060205260409020805460ff19166002179055565b600081565b611505613be2565b6000546001600160a01b039081169116146115325760405162461bcd60e51b8152600401610cec90614f8c565b6001600160a01b0381166000908152600a602052604090205460ff161561155857600080fd5b600980546001600160a01b039092166000818152600b6020908152604080832086905560018087019095557f6e1540171b6c0c960b71a7020d9f60077f6af931a8bbf590da0223dacf75c7af90950180546001600160a01b03191684179055918152600a90915291909120805460ff19169091179055565b60606000600984815481106115e157fe5b60009182526020909120015483516001600160a01b0390911691506060906001600160401b038111801561161457600080fd5b5060405190808252806020026020018201604052801561164e57816020015b61163b6140a8565b8152602001906001900390816116335790505b50905060005b845181101561170f57826001600160a01b03166321603f4386838151811061167857fe5b60200260200101516040518263ffffffff1660e01b815260040161169c9190614c43565b60006040518083038186803b1580156116b457600080fd5b505afa1580156116c8573d6000803e3d6000fd5b505050506040513d6000823e601f3d908101601f191682016040526116f091908101906144a8565b8282815181106116fc57fe5b6020908102919091010152600101611654565b50949350505050565b606060006009858154811061172957fe5b600091825260209182902001546040805163d082e38160e01b815290516001600160a01b039092169350839263d082e38192600480840193829003018186803b15801561177557600080fd5b505afa158015611789573d6000803e3d6000fd5b505050506040513d601f19601f820116820180604052508101906117ad91906143d4565b8411156117cc5760405162461bcd60e51b8152600401610cec90615007565b606083516001600160401b03811180156117e557600080fd5b5060405190808252806020026020018201604052801561181957816020015b60608152602001906001900390816118045790505b50905060005b845181101561191357604051634fe8cec960e11b81526001600160a01b03841690639fd19d9290611854908990600401614c43565b60206040518083038186803b15801561186c57600080fd5b505afa158015611880573d6000803e3d6000fd5b505050506040513d601f19601f820116820180604052508101906118a491906143d4565b8582815181106118b057fe5b602002602001015111156118d65760405162461bcd60e51b8152600401610cec90614f44565b6118f483878784815181106118e757fe5b6020026020010151613be6565b82828151811061190057fe5b602090810291909101015260010161181f565b5095945050505050565b7322b20054bbd6dc5c23d7c7595e092ca728a00c3281565b606060006009848154811061194657fe5b6000918252602082200154604051631bf744db60e01b81526001600160a01b0390911692508290631bf744db90611981908790600401614c43565b60206040518083038186803b15801561199957600080fd5b505afa1580156119ad573d6000803e3d6000fd5b505050506040513d601f19601f820116820180604052508101906119d191906143d4565b90506060816001600160401b03811180156119eb57600080fd5b50604051908082528060200260200182016040528015611a2557816020015b611a126140a8565b815260200190600190039081611a0a5790505b50905060005b828110156119135760405163915b985960e01b81526001600160a01b038516906321603f4390829063915b985990611a69908b908790600401615242565b60206040518083038186803b158015611a8157600080fd5b505afa158015611a95573d6000803e3d6000fd5b505050506040513d601f19601f82011682018060405250810190611ab991906143d4565b6040518263ffffffff1660e01b8152600401611ad59190614c43565b60006040518083038186803b158015611aed57600080fd5b505afa158015611b01573d6000803e3d6000fd5b505050506040513d6000823e601f3d908101601f19168201604052611b2991908101906144a8565b828281518110611b3557fe5b6020908102919091010152600101611a2b565b611b50613be2565b6000546001600160a01b03908116911614611b7d5760405162461bcd60e51b8152600401610cec90614f8c565b611b85613d81565b565b60106020526000908152604090205460ff1681565b600054600160a81b900460ff16611bc55760405162461bcd60e51b8152600401610cec9061516a565b6000805460ff60a81b191690556060611bde8383611935565b905060005b8151811015611cd557600460008581526020019081526020016000206000838381518110611c0d57fe5b6020026020010151604001518152602001908152602001600020546000801b14611ccd57600154600085815260046020526040812084516001600160a01b039093169263ee8ca3b59290869086908110611c6357fe5b6020026020010151604001518152602001908152602001600020546040518263ffffffff1660e01b8152600401611c9a9190614c43565b600060405180830381600087803b158015611cb457600080fd5b505af1158015611cc8573d6000803e3d6000fd5b505050505b600101611be3565b5060098381548110611ce357fe5b60009182526020909120015460405163f3fef3a360e01b81526001600160a01b039091169063f3fef3a390611d1e9033908690600401614aad565b600060405180830381600087803b158015611d3857600080fd5b505af1158015611d4c573d6000803e3d6000fd5b505060405184925085915033907ff279e6a1f5e320cca91135676d9cb6e44ca8a08c0b88342bcdb1144f6511b56890600090a450506000805460ff60a81b1916600160a81b17905550565b60078181548110611da457fe5b6000918252602090912001546001600160a01b0316905081565b600354600160a01b900460ff1681565b611dd6613be2565b6000546001600160a01b03908116911614611e035760405162461bcd60e51b8152600401610cec90614f8c565b60098381548110611e1057fe5b60009182526020909120015460405163575272dd60e11b81526001600160a01b039091169063aea4e5ba90611e4b9085908590600401614aad565b600060405180830381600087803b158015611e6557600080fd5b505af1158015611e79573d6000803e3d6000fd5b50505050505050565b60606000805b611e9061250e565b811015611f395760098181548110611ea457fe5b6000918252602090912001546040516370a0823160e01b81526001600160a01b03909116906370a0823190611edd908790600401614a44565b60206040518083038186803b158015611ef557600080fd5b505afa158015611f09573d6000803e3d6000fd5b505050506040513d601f19601f82011682018060405250810190611f2d91906143d4565b90910190600101611e88565b506060816001600160401b0381118015611f5257600080fd5b50604051908082528060200260200182016040528015611f8c57816020015b611f796140f1565b815260200190600190039081611f715790505b5090506000805b611f9b61250e565b81101561213f5760005b60098281548110611fb257fe5b6000918252602090912001546040516370a0823160e01b81526001600160a01b03909116906370a0823190611feb908a90600401614a44565b60206040518083038186803b15801561200357600080fd5b505afa158015612017573d6000803e3d6000fd5b505050506040513d601f19601f8201168201806040525081019061203b91906143d4565b8110156121365760405180604001604052806009848154811061205a57fe5b600091825260209182902001546001600160a01b031682526009805492909101918590811061208557fe5b600091825260209091200154604051632f745c5960e01b81526001600160a01b0390911690632f745c59906120c0908c908790600401614aad565b60206040518083038186803b1580156120d857600080fd5b505afa1580156120ec573d6000803e3d6000fd5b505050506040513d601f19601f8201168201806040525081019061211091906143d4565b9052845160018501948691811061212357fe5b6020908102919091010152600101611fa5565b50600101611f93565b5090949350505050565b600281565b6121566140a8565b6009838154811061216357fe5b6000918252602090912001546040516321603f4360e01b81526001600160a01b03909116906321603f439061219c908590600401614c43565b60006040518083038186803b1580156121b457600080fd5b505afa1580156121c8573d6000803e3d6000fd5b505050506040513d6000823e601f3d908101601f191682016040526121f091908101906144a8565b9392505050565b737598e84b2e114ab62cab288ce5f7d5f6bad35bba81565b600054600160a01b900460ff1690565b60006009838154811061222e57fe5b600091825260209091200154604051631bf744db60e01b81526001600160a01b0390911690631bf744db90612267908590600401614c43565b60206040518083038186803b15801561227f57600080fd5b505afa158015612293573d6000803e3d6000fd5b505050506040513d601f19601f820116820180604052508101906121f091906143d4565b6002546001600160a01b031681565b60118181548110611da457fe5b6122db613be2565b6000546001600160a01b039081169116146123085760405162461bcd60e51b8152600401610cec90614f8c565b600080546040516001600160a01b03909116907f8be0079c531659141344cd1fd0a4f28419497f9722a3daafe3b4186f6b6457e0908390a3600080546001600160a01b0319169055565b6001600160a01b03166000908152600b602052604090205490565b60006009838154811061237c57fe5b60009182526020909120015460405163228bfd9f60e01b81526001600160a01b039091169063228bfd9f906123b5908590600401614a44565b60206040518083038186803b1580156123cd57600080fd5b505afa1580156123e1573d6000803e3d6000fd5b505050506040513d601f19601f820116820180604052508101906121f09190614346565b61240d613be2565b6000546001600160a01b0390811691161461243a5760405162461bcd60e51b8152600401610cec90614f8c565b6009828154811061244757fe5b6000918252602090912001546040516355f804b360e01b81526001600160a01b03909116906355f804b390612480908490600401614c4c565b600060405180830381600087803b15801561249a57600080fd5b505af11580156124ae573d6000803e3d6000fd5b505050505050565b6000600982815481106124c557fe5b600091825260209182902001546040805163be8acd3f60e01b815290516001600160a01b039092169263be8acd3f92600480840193829003018186803b158015610c8457600080fd5b60095490565b73eeeeeeeeeeeeeeeeeeeeeeeeeeeeeeeeeeeeeeee81565b612534613be2565b6000546001600160a01b039081169116146125615760405162461bcd60e51b8152600401610cec90614f8c565b611b85613df7565b60006009838154811061257857fe5b6000918252602090912001546040516327b2595f60e11b81526001600160a01b0390911690634f64b2be906123b5908590600401614c43565b60098181548110611da457fe5b600460209081526000928352604080842090915290825290205481565b6000546001600160a01b031690565b6000600982815481106125f957fe5b600091825260209182902001546040805163d082e38160e01b815290516001600160a01b039092169263d082e38192600480840193829003018186803b158015610c8457600080fd5b600e5460ff1681565b6000610cbc612671600d5461266b600c5486613b4190919063ffffffff16565b90613e5d565b8390613b7b565b612680613be2565b6000546001600160a01b039081169116146126ad5760405162461bcd60e51b8152600401610cec90614f8c565b6001600160a01b03166000908152600a60205260409020805460ff19166002179055565b6126d9613be2565b6000546001600160a01b039081169116146127065760405162461bcd60e51b8152600401610cec90614f8c565b600e805460ff1916911515919091179055565b600c5481565b600054600160a01b900460ff16156127495760405162461bcd60e51b8152600401610cec90614ea2565b600054600160a81b900460ff166127725760405162461bcd60e51b8152600401610cec9061516a565b6000805460ff60a81b19169055600980546001916127ae918890811061279457fe5b6000918252602090912001546001600160a01b0316613ae2565b60ff16146127ce5760405162461bcd60e51b8152600401610cec906151a1565b6060600986815481106127dd57fe5b60009182526020909120015460405163dbb0371160e01b81526001600160a01b039091169063dbb037119061281c903390899089908990600401614a58565b600060405180830381600087803b15801561283657600080fd5b505af115801561284a573d6000803e3d6000fd5b505050506040513d6000823e601f3d908101601f191682016040526128729190810190614362565b9050606061288087836115d0565b905086336001600160a01b03167f8f64ca6a175f84df6403fba2601d4c5c734ee77f375196788648aedc05ff57d5836000815181106128bb57fe5b6020026020010151600001516040516128d49190614c43565b60405180910390a360008781526005602052604081208251859290849082906128f957fe5b60209081029190910181015151825281019190915260400160002055600354600160a01b900460ff1615612b5f5760005b8151811015612b5d5787336001600160a01b03167faf1b9133e30ada3fee6cb47a46b80b2dfee808dc5bc919f712beb9ee33b465d684848151811061296b57fe5b6020026020010151604001516040516129849190614c43565b60405180910390a360015460025483516001600160a01b039283169263b9f45adb92309263638d368360e11b929091169063e34ca65d60e01b908e908990899081106129cc57fe5b6020026020010151604001518989815181106129e457fe5b6020026020010151608001516000600281106129fc57fe5b60200201518a8a81518110612a0d57fe5b602002602001015160800151600160028110612a2557fe5b60200201518b8b81518110612a3657fe5b602002602001015160a00151600060038110612a4e57fe5b6020020151604051602401612a67959493929190615250565b60408051601f198184030181529181526020820180516001600160e01b03166001600160e01b0319948516179052600354905160e088901b9093168352612abf959493926001600160a01b0390911690600401614b27565b602060405180830381600087803b158015612ad957600080fd5b505af1158015612aed573d6000803e3d6000fd5b505050506040513d601f19601f82011682018060405250810190612b1191906143d4565b600460008a81526020019081526020016000206000848481518110612b3257fe5b602002602001015160400151815260200190815260200160002081905550808060010191505061292a565b505b50506000805460ff60a81b1916600160a81b1790555050505050565b612b83613be2565b6000546001600160a01b03908116911614612bb05760405162461bcd60e51b8152600401610cec90614f8c565b612bba8282613e9f565b5050565b600181565b60086020526000908152604090205460ff1681565b600054600160a81b900460ff16612c015760405162461bcd60e51b8152600401610cec9061516a565b6000805460ff60a81b191690819055600160a01b900460ff1615612c375760405162461bcd60e51b8152600401610cec90614ea2565b6001600160a01b0381166000908152600660205260409020543490612c5c9082613bbd565b6001600160a01b038084166000818152600660205260409081902093909355600354925190927fd0efd3e06609faf7821ca1899afe6f2ac4ce1514e0935434607ca0e80a81d0f292612cb2929116908590614aad565b60405180910390a250506000805460ff60a81b1916600160a81b179055565b600060098281548110612ce057fe5b600091825260209182902001546040805163d92fc67b60e01b815290516001600160a01b039092169263d92fc67b92600480840193829003018186803b158015610c8457600080fd5b600060098381548110612d3857fe5b600091825260209091200154604051633f2acb8560e21b81526001600160a01b039091169063fcab2e1490612267908590600401614a44565b6060600060098581548110612d8257fe5b6000918252602091829020015460408051630cc7267360e11b815290516001600160a01b039092169350839263198e4ce692600480840193829003018186803b158015612dce57600080fd5b505afa158015612de2573d6000803e3d6000fd5b505050506040513d601f19601f82011682018060405250810190612e0691906143d4565b831115612e255760405162461bcd60e51b8152600401610cec906150d9565b6060612e3660016111ee8688613b7b565b6001600160401b0381118015612e4b57600080fd5b50604051908082528060200260200182016040528015612e8557816020015b612e726140a8565b815260200190600190039081612e6a5790505b509050845b8481116119135760405163a5f4030360e01b81526001600160a01b038416906321603f4390829063a5f4030390612ec5908690600401614c43565b60206040518083038186803b158015612edd57600080fd5b505afa158015612ef1573d6000803e3d6000fd5b505050506040513d601f19601f82011682018060405250810190612f1591906143d4565b6040518263ffffffff1660e01b8152600401612f319190614c43565b60006040518083038186803b158015612f4957600080fd5b505afa158015612f5d573d6000803e3d6000fd5b505050506040513d6000823e601f3d908101601f19168201604052612f8591908101906144a8565b82612f908389613b7b565b81518110612f9a57fe5b6020908102919091010152600101612e8a565b600054600160a01b900460ff1615612fd75760405162461bcd60e51b8152600401610cec90614ea2565b6001546001600160a01b031633146130015760405162461bcd60e51b8152600401610cec90614d94565b600354600160a01b900460ff1661302a5760405162461bcd60e51b8152600401610cec90615097565b600054600160a81b900460ff166130535760405162461bcd60e51b8152600401610cec9061516a565b6000805460ff60a81b191681556001600160a01b03831681526008602052604090205460ff166130955760405162461bcd60e51b8152600401610cec90614cd2565b61309d6140a8565b6130a7858561214e565b60008681526005602090815260408083208451845290915290205490915015613104576000858152600560209081526040808320845184529091529020543a11156131045760405162461bcd60e51b8152600401610cec90614c8d565b61310c6140a8565b6009868154811061311957fe5b600091825260209091200154604051632ca5159f60e11b81526001600160a01b039091169063594a2b3e90613158903390899089908990600401614ac6565b600060405180830381600087803b15801561317257600080fd5b505af1158015613186573d6000803e3d6000fd5b505050506040513d6000823e601f3d908101601f191682016040526131ae91908101906144a8565b60008781526004602090815260408083208984529091529020549091501561324c5760015460008781526004602081815260408084208a85529091529182902054915163ee8ca3b560e01b81526001600160a01b039093169263ee8ca3b59261321992909101614c43565b600060405180830381600087803b15801561323357600080fd5b505af1158015613247573d6000803e3d6000fd5b505050505b60006009878154811061325b57fe5b60009182526020909120015483516040516331a9108f60e11b81526001600160a01b0390921691636352211e9161329491600401614c43565b60206040518083038186803b1580156132ac57600080fd5b505afa1580156132c0573d6000803e3d6000fd5b505050506040513d601f19601f820116820180604052508101906132e49190614346565b9050826000015187826001600160a01b03167f37aacca185d8a700a40142541d808e10bc61ca82eb929cb3df05de903a64dc84896040516133259190614c43565b60405180910390a4600354600160a01b900460ff1680156133495750604082015115155b156134cc5786816001600160a01b03167faf1b9133e30ada3fee6cb47a46b80b2dfee808dc5bc919f712beb9ee33b465d6846040015160405161338c9190614c43565b60405180910390a3600154600254604084015160808501516001600160a01b039384169363b9f45adb93309363638d368360e11b93929091169163e34ca65d60e01b918e916000602002015160808b01516001602002015160a08c015160006020020151604051602401613404959493929190615250565b60408051601f198184030181529181526020820180516001600160e01b03166001600160e01b0319948516179052600354905160e088901b909316835261345c959493926001600160a01b0390911690600401614b27565b602060405180830381600087803b15801561347657600080fd5b505af115801561348a573d6000803e3d6000fd5b505050506040513d601f19601f820116820180604052508101906134ae91906143d4565b60008881526004602090815260408083208682015184529091529020555b60015460408051635c08631b60e11b8152815160009384936001600160a01b039091169263b810c6369260048083019392829003018186803b15801561351157600080fd5b505afa158015613525573d6000803e3d6000fd5b505050506040513d601f19601f8201168201806040525081019061354991906145a7565b6001600160a01b03851660009081526006602052604090205491935091508211156135865760405162461bcd60e51b8152600401610cec906151e2565b6001600160a01b0383166000908152600660205260409020546135a99083613b7b565b6001600160a01b0384166000908152600660205260409020556135cc8282613ed4565b50506000805460ff60a81b1916600160a81b17905550505050505050565b600560209081526000928352604080842090915290825290205481565b61360f613be2565b6000546001600160a01b0390811691161461363c5760405162461bcd60e51b8152600401610cec90614f8c565b600180546001600160a01b039485166001600160a01b031991821617909155600280549390941692169190911790915560038054911515600160a01b0260ff60a01b19909216919091179055565b60606009828154811061369957fe5b600091825260208220015460408051636c0360eb60e01b815290516001600160a01b0390921692636c0360eb92600480840193829003018186803b1580156136e057600080fd5b505afa1580156136f4573d6000803e3d6000fd5b505050506040513d6000823e601f3d908101601f19168201604052610cbc9190810190614436565b613724613be2565b6000546001600160a01b039081169116146137515760405162461bcd60e51b8152600401610cec90614f8c565b6009848154811061375e57fe5b6000918252602090912001546040516348541ee160e11b81526001600160a01b03909116906390a83dc29061379b90869086908690600401614b03565b600060405180830381600087803b1580156137b557600080fd5b505af11580156137c9573d6000803e3d6000fd5b505050506001600160a01b03821660009081526012602052604090205460ff16613851576011805460018082019092557f31ecc21a745e3968a04e9570e4425bc18fa8019c68028196b546d1669c200c680180546001600160a01b0319166001600160a01b0385169081179091556000908152601260205260409020805460ff191690911790555b50505050565b61385f613be2565b6000546001600160a01b0390811691161461388c5760405162461bcd60e51b8152600401610cec90614f8c565b6009828154811061389957fe5b6000918252602090912001546040516368173bcf60e01b81526001600160a01b03909116906368173bcf90612480908490600401614a44565b6000600983815481106138e157fe5b600091825260209091200154604051634fe8cec960e11b81526001600160a01b0390911690639fd19d9290612267908590600401614c43565b6001546001600160a01b031681565b600d5481565b600f8181548110611da457fe5b60006009828154811061394b57fe5b6000918252602091829020015460408051630227321760e31b815290516001600160a01b039092169263113990b892600480840193829003018186803b158015610c8457600080fd5b6000600983815481106139a357fe5b600091825260209091200154604051635acf690360e01b81526001600160a01b0390911690635acf6903906139dc908590600401614a44565b60206040518083038186803b1580156139f457600080fd5b505afa158015613a08573d6000803e3d6000fd5b505050506040513d601f19601f820116820180604052508101906121f091906143b8565b613a34613be2565b6000546001600160a01b03908116911614613a615760405162461bcd60e51b8152600401610cec90614f8c565b6001600160a01b038116613a875760405162461bcd60e51b8152600401610cec90614d4e565b600080546040516001600160a01b03808516939216917f8be0079c531659141344cd1fd0a4f28419497f9722a3daafe3b4186f6b6457e091a3600080546001600160a01b0319166001600160a01b0392909216919091179055565b6001600160a01b03166000908152600a602052604090205460ff1690565b613b08613be2565b6000546001600160a01b03908116911614613b355760405162461bcd60e51b8152600401610cec90614f8c565b613b3e81613fa5565b50565b600082613b5057506000610cbc565b82820282848281613b5d57fe5b04146121f05760405162461bcd60e51b8152600401610cec90614f03565b60006121f083836040518060400160405280601e81526020017f536166654d6174683a207375627472616374696f6e206f766572666c6f770000815250614045565b6000828201838110156121f05760405162461bcd60e51b8152600401610cec90614e23565b3390565b606080846001600160a01b031663e20be69a85856040518363ffffffff1660e01b8152600401613c17929190615242565b60006040518083038186803b158015613c2f57600080fd5b505afa158015613c43573d6000803e3d6000fd5b505050506040513d6000823e601f3d908101601f19168201604052613c6b9190810190614362565b9050606081516001600160401b0381118015613c8657600080fd5b50604051908082528060200260200182016040528015613cc057816020015b613cad6140a8565b815260200190600190039081613ca55790505b50905060005b825181101561191357866001600160a01b03166321603f43848381518110613cea57fe5b60200260200101516040518263ffffffff1660e01b8152600401613d0e9190614c43565b60006040518083038186803b158015613d2657600080fd5b505afa158015613d3a573d6000803e3d6000fd5b505050506040513d6000823e601f3d908101601f19168201604052613d6291908101906144a8565b828281518110613d6e57fe5b6020908102919091010152600101613cc6565b600054600160a01b900460ff16613daa5760405162461bcd60e51b8152600401610cec90614c5f565b6000805460ff60a01b191690557f5db9ee0a495bf2e6ff9c91a7834c1ba4fdd244a5e8aa4e537bd38aeae4b073aa613de0613be2565b604051613ded9190614a44565b60405180910390a1565b600054600160a01b900460ff1615613e215760405162461bcd60e51b8152600401610cec90614ea2565b6000805460ff60a01b1916600160a01b1790557f62e78cea01bee320cd4e420270b5ea74000d11b0c9f74754ebdbfc544b05a258613de0613be2565b60006121f083836040518060400160405280601a81526020017f536166654d6174683a206469766973696f6e206279207a65726f000000000000815250614071565b80613eab836032613b41565b1115613ec95760405162461bcd60e51b8152600401610cec90614ddb565b600c91909155600d55565b6001600160a01b03811673eeeeeeeeeeeeeeeeeeeeeeeeeeeeeeeeeeeeeeee14613f105760405162461bcd60e51b8152600401610cec90614e5a565b6000737598e84b2e114ab62cab288ce5f7d5f6bad35bba6001600160a01b031683604051613f3d90614a41565b60006040518083038185875af1925050503d8060008114613f7a576040519150601f19603f3d011682016040523d82523d6000602084013e613f7f565b606091505b5050905080613fa05760405162461bcd60e51b8152600401610cec90614ecc565b505050565b6001600160a01b03811660009081526010602052604090205460ff1615613fde5760405162461bcd60e51b8152600401610cec90615050565b600f805460018181019092557f8d1108e10bcb7c27dddfc02ed9d693a074039d026cf4ea4240b40f7d581ac8020180546001600160a01b039093166001600160a01b031990931683179055600091825260106020526040909120805460ff19169091179055565b600081848411156140695760405162461bcd60e51b8152600401610cec9190614c4c565b505050900390565b600081836140925760405162461bcd60e51b8152600401610cec9190614c4c565b50600083858161409e57fe5b0495945050505050565b6040518060e00160405280600081526020016000815260200160008152602001600081526020016140d7614108565b81526020016140e4614126565b8152602001606081525090565b604080518082019091526000808252602082015290565b60405180604001604052806002906020820280368337509192915050565b60405180606001604052806003906020820280368337509192915050565b600082601f830112614154578081fd5b61415e604061528a565b905080828460408501111561417257600080fd5b60005b600281101561419e5781516141898161531e565b83526020928301929190910190600101614175565b50505092915050565b600082601f8301126141b7578081fd5b81356141ca6141c5826152b0565b61528a565b8181529150602080830190848101818402860182018710156141eb57600080fd5b60005b848110156142135781356142018161531e565b845292820192908201906001016141ee565b505050505092915050565b600082601f83011261422e578081fd5b614238606061528a565b905080828460608501111561424c57600080fd5b60005b600381101561419e57815183526020928301929091019060010161424f565b600082601f83011261427e578081fd5b813561428c6141c5826152b0565b8181529150602080830190848101818402860182018710156142ad57600080fd5b60005b84811015614213578135845292820192908201906001016142b0565b600082601f8301126142dc578081fd5b81516142ea6141c5826152b0565b81815291506020808301908481018184028601820187101561430b57600080fd5b60005b848110156142135781518452928201929082019060010161430e565b60006020828403121561433b578081fd5b81356121f08161531e565b600060208284031215614357578081fd5b81516121f08161531e565b600060208284031215614373578081fd5b81516001600160401b03811115614388578182fd5b614394848285016142cc565b949350505050565b6000602082840312156143ad578081fd5b81356121f081615333565b6000602082840312156143c9578081fd5b81516121f081615333565b6000602082840312156143e5578081fd5b5051919050565b600080600060608486031215614400578182fd5b833561440b8161531e565b9250602084013561441b8161531e565b9150604084013561442b81615333565b809150509250925092565b600060208284031215614447578081fd5b81516001600160401b0381111561445c578182fd5b8201601f8101841361446c578182fd5b805161447a6141c5826152cf565b81815285602083850101111561448e578384fd5b61449f8260208301602086016152f2565b95945050505050565b6000602082840312156144b9578081fd5b81516001600160401b03808211156144cf578283fd5b9083019061014082860312156144e3578283fd5b6144ed60e061528a565b8251815260208301516020820152604083015160408201526060830151606082015261451c8660808501614144565b608082015261452e8660c0850161421e565b60a082015261012083015182811115614545578485fd5b614551878286016142cc565b60c08301525095945050505050565b600060208284031215614571578081fd5b5035919050565b6000806040838503121561458a578182fd5b82359150602083013561459c8161531e565b809150509250929050565b600080604083850312156145b9578182fd5b82519150602083015161459c8161531e565b600080600080608085870312156145e0578182fd5b8435935060208501356145f28161531e565b925060408501356146028161531e565b9396929550929360600135925050565b600080600060608486031215614626578081fd5b8335925060208401356146388161531e565b929592945050506040919091013590565b600080600080600060a08688031215614660578283fd5b8535945060208601356001600160401b038082111561467d578485fd5b61468989838a016141a7565b9550604088013591508082111561469e578485fd5b6146aa89838a0161426e565b945060608801359150808211156146bf578283fd5b506146cc8882890161426e565b95989497509295608001359392505050565b600080604083850312156146f0578182fd5b8235915060208301356001600160401b0381111561470c578182fd5b6147188582860161426e565b9150509250929050565b60008060408385031215614734578182fd5b8235915060208301356001600160401b03811115614750578182fd5b8301601f81018513614760578182fd5b803561476e6141c5826152cf565b818152866020838501011115614782578384fd5b81602084016020830137908101602001929092525090939092509050565b600080604083850312156147b2578182fd5b50508035926020909101359150565b6000806000606084860312156147d5578081fd5b833592506020840135915060408401356001600160401b038111156147f8578182fd5b6148048682870161426e565b9150509250925092565b60008060008060808587031215614823578182fd5b8435935060208501359250604085013561483c8161531e565b915060608501356001600160401b03811115614856578182fd5b614862878288016141a7565b91505092959194509250565b600080600060608486031215614882578081fd5b505081359360208301359350604090920135919050565b6001600160a01b0316815260200190565b6000815180845260208085019450808401835b838110156148e25781516001600160a01b0316875295820195908201906001016148bd565b509495945050505050565b6000815180845260208085018081965082840281019150828601855b858110156149335782840389526149218483516149be565b98850198935090840190600101614909565b5091979650505050505050565b8060005b6003811015613851578151845260209384019390910190600101614944565b6000815180845260208085019450808401835b838110156148e257815187529582019590820190600101614976565b600081518084526149aa8160208601602086016152f2565b601f01601f19169290920160200192915050565b600061014082518452602080840151818601526040840151604086015260608401516060860152608084015160808601845b6002811015614a1257614a04828451614899565b9284019291506001016149f0565b5050505060a0830151614a2860c0860182614940565b5060c08301518161012086015261449f82860182614963565b90565b6001600160a01b0391909116815260200190565b6001600160a01b0385168152608060208201819052600090614a7c908301866148aa565b8281036040840152614a8e8186614963565b90508281036060840152614aa28185614963565b979650505050505050565b6001600160a01b03929092168252602082015260400190565b6001600160a01b0385811682526020820185905283166040820152608060608201819052600090614af9908301846148aa565b9695505050505050565b6001600160a01b039384168152919092166020820152604081019190915260600190565b6001600160a01b0386811682526001600160e01b031986166020830152848116604083015260a06060830181905260009190614b6590840186614992565b91508084166080840152509695505050505050565b6000602080830181845280855180835260408601915060408482028701019250838701855b82811015614bcd57603f19888603018452614bbb8583516148ed565b94509285019290850190600101614b9f565b5092979650505050505050565b6000602082526121f060208301846148ed565b602080825282518282018190526000919060409081850190868401855b8281101561493357815180516001600160a01b03168552860151868501529284019290850190600101614c0a565b901515815260200190565b90815260200190565b6000602082526121f06020830184614992565b60208082526014908201527314185d5cd8589b194e881b9bdd081c185d5cd95960621b604082015260600190565b60208082526025908201527f436f726e466920436f6e74726f6c6c65723a2047617320507269636520546f6f60408201526404090d2ced60db1b606082015260800190565b60208082526016908201527521b7b93723349d1024b73b30b634b2102937baba32b960511b604082015260600190565b6020808252602c908201527f436f726e466920436f6e74726f6c6c65723a204e6f20557365722046756e647360408201526b20746f20576974686472617760a01b606082015260800190565b60208082526026908201527f4f776e61626c653a206e6577206f776e657220697320746865207a65726f206160408201526564647265737360d01b606082015260800190565b60208082526027908201527f436f726e466920436f6e74726f6c6c65723a2047656c61746f204f6e6c7920466040820152663ab731ba34b7b760c91b606082015260800190565b60208082526028908201527f436f726e466920436f6e74726f6c6c65723a204d617820536c69707061676520604082015267115e18d95959195960c21b606082015260800190565b6020808252601b908201527f536166654d6174683a206164646974696f6e206f766572666c6f770000000000604082015260600190565b60208082526028908201527f436f726e466920436f6e74726f6c6c65723a20496e76616c6964205061796d65604082015267373a102a37b5b2b760c11b606082015260800190565b60208082526010908201526f14185d5cd8589b194e881c185d5cd95960821b604082015260600190565b6020808252601e908201527f5f7472616e736665723a20455448207472616e73666572206661696c65640000604082015260600190565b60208082526021908201527f536166654d6174683a206d756c7469706c69636174696f6e206f766572666c6f6040820152607760f81b606082015260800190565b60208082526028908201527f436f726e4669205661756c7420426173653a205472616465204944204f7574206040820152676f662052616e676560c01b606082015260800190565b6020808252818101527f4f776e61626c653a2063616c6c6572206973206e6f7420746865206f776e6572604082015260600190565b60208082526026908201527f436f726e466920436f6e74726f6c6c65723a20455448207472616e736665722060408201526519985a5b195960d21b606082015260800190565b60208082526029908201527f436f726e4669205661756c742051756572793a20546f6b656e204944204f7574604082015268206f662052616e676560b81b606082015260800190565b60208082526027908201527f436f726e466920436f6e74726f6c6c65723a20496e76616c6964204f72646572604082015266102334b63632b960c91b606082015260800190565b60208082526022908201527f436f726e466920436f6e74726f6c6c65723a2047656c61746f2044697361626c604082015261195960f21b606082015260800190565b60208082526025908201527f436f726e466920436f6e74726f6c6c65723a205175657279204f7574206f662060408201526452616e676560d81b606082015260800190565b6020808252602c908201527f436f726e466920436f6e74726f6c6c65723a204f6e6c7920416374697665204f60408201526b726465722046696c6c65727360a01b606082015260800190565b6020808252601f908201527f5265656e7472616e637947756172643a207265656e7472616e742063616c6c00604082015260600190565b60208082526021908201527f436f726e466920436f6e74726f6c6c65723a20496e616374697665205661756c6040820152601d60fa1b606082015260800190565b6020808252602d908201527f436f726e466920436f6e74726f6c6c65723a20496e737566666963656e74205560408201526c736572204761732046756e647360981b606082015260800190565b6000602082526121f060208301846149be565b918252602082015260400190565b94855260208501939093526001600160a01b039182166040850152166060830152608082015260a00190565b60ff91909116815260200190565b6040518181016001600160401b03811182821017156152a857600080fd5b604052919050565b60006001600160401b038211156152c5578081fd5b5060209081020190565b60006001600160401b038211156152e4578081fd5b50601f01601f191660200190565b60005b8381101561530d5781810151838201526020016152f5565b838111156138515750506000910152565b6001600160a01b0381168114613b3e57600080fd5b8015158114613b3e57600080fdfea26469706673582212207aa7868b4100fdac9c9a513fd5b0f672ce511a538bfb315565a9175b0755dfb164736f6c634300060c0033",
  "bytecodeSha1": "d21de814b7f9925d77333890810b10bbca1460aa",
  "compiler": {
    "evm_version": "istanbul",
    "optimizer": {
      "enabled": true,
      "runs": 200
    },
    "version": "0.6.12+commit.27d51765"
  },
  "contractName": "Controller",
  "language": "Solidity",
  "natspec": {
    "kind": "dev",
    "methods": {
      "activeTokens(uint256,address)": {
        "params": {
          "_token": ": ERC20 token address",
          "_vaultId": ": Index of vault in 'vaults'"
        },
        "returns": {
          "_0": "true: ERC20 token is active and can be used to create a trade; false: ERC20 token is inactive and cannot be used to create a trade"
        }
      },
      "addOrderFiller(address)": {
        "details": "Whitelist an order filler. Only the owner of this contract can call this  function.",
        "params": {
          "_filler": ": Address that will call 'fillOrder()' within this contract"
        }
      },
      "addVault(address)": {
        "details": "Add a vault for trading. Vault must inherit 'VaultBase.sol' and meet the vault standard for proper functionality. Only the owner of this contract can call  this function.",
        "params": {
          "_vault": ": Address of vault to add"
        }
      },
      "changeTokenMinimumDeposit(uint256,address,uint256)": {
        "details": "Change the minimum deposit amount for an ERC20 token when creating a trade. ERC20 token must already be mapped to a holding strategy before calling this function. Only the owner of this contract can call this function. "
      },
      "constructor": {
        "params": {
          "_resolver": ": Gelato resolver contract used to find the router and swap path that provides the highest output amount.",
          "_routers": ": Approved routers used for executing swaps. No new routers can be added after deploying this contract.",
          "_slippageBasePoints": ": (_slippagePoints / _slippageBasePoints) --> slippage %",
          "_slippagePoints": ": Highest acceptable slippage amount when executing swaps"
        }
      },
      "createTrade(uint256,address[],uint256[],uint256[],uint256)": {
        "notice": "Create a trade with one of the approved vaults. The format for '_tokens', '_amounts', and '_times' is specific to the vault. Refer to the vault being used to verify the correct data format. Trades are only created with active vaults. The strating amount of the trade is deposited upon creating a trade. A deposit fee is taken from the deposited amount. When Gelato is active, a task is created for each open order.",
        "params": {
          "_amounts": ": Specific to the vault used. Refer to vault documentation.",
          "_maxGas": ": In gwei. The maximum gas price that any order within this trade can be executed at.",
          "_times": ": Specific to the vault used. Refer to vault documentation.",
          "_tokens": ": Specific to the vault used. Refer to vault documentation.",
          "_vaultId": ": Index of vault in 'vaults'"
        }
      },
      "deactivateOrderFiller(address)": {
        "details": "Revokes order filling permissions from an address. Only the owner of this  contract can call this function.",
        "params": {
          "_filler": ": Address that will have its order filling permissions revoked"
        }
      },
      "deactivateRouter(address)": {
        "details": "Deactivated router will no longer be able to be used for filling orders. A deactivated router cannot be reactivated. Only the owner of this contract can  call this function.",
        "params": {
          "_router": ": Router to deactivate "
        }
      },
      "deactivateToken(uint256,address)": {
        "details": "Deactivate an ERC20 token for a vault. Once a token is deactivated, it cannot be reactivated. Only the owner can call this function.",
        "params": {
          "_token": ": ERC20 token address  ",
          "_vaultId": ": Index of vault in 'vaults'"
        }
      },
      "deactivateVault(address)": {
        "details": "Disables the 'createTrade', 'fillOrder', and 'fillOrderGelato' functions. Once a vault is deactivated, users will only be able to withdraw their trades. Deactivated vaults cannot be reactivated. Only the owner of this contract can  call this function.",
        "params": {
          "_vault": ": Address of vault to deactivate"
        }
      },
      "depositGas(address)": {
        "notice": "Deposit ETH to pay for gas cost accrued from filling orders. ETH deposited is automatically taken from the order owners balance when their orders are filled. User is able to withdraw their balance of ETH at any point in time. This function is not callable when 'isPaused()' == true.",
        "params": {
          "_receiver": ": Address that is credited with the deposited ETH"
        }
      },
      "fillOrder(uint256,uint256,address,address[])": {
        "notice": "Fill open orders when trade conditions are met. Only approved order fillers can call this function. This function will only be used if the use of Gelato is stopped. Call 'findBestPath()' in Resolver.sol first to get the router and path with the highest output amount. Caller is refunded the gas cost from the ETH the order owner has deposited.",
        "params": {
          "_orderId": ": Order to fill",
          "_path": ": Swap path used to fill the order",
          "_router": ": Router used to fill the order",
          "_vaultId": ": Index of vault in 'vaults'"
        }
      },
      "fillOrderGelato(uint256,uint256,address,address[])": {
        "notice": "Fill open orders when trade conditions are met. Only Gelato executors can call this function. This function is the primary method used to fill orders.  If Gelato is no longer used, orders are filled through calling 'fillOrder()' instead. Gelato executor will call 'checker()' in Resolver.sol first to get the  router and path with the highest output amount. Gelato executor is refunded the  gas cost from the ETH the order owner has deposited.",
        "params": {
          "_orderId": ": Order to fill",
          "_path": ": Swap path used to fill the order",
          "_router": ": Router used to fill the order",
          "_vaultId": ": Index of vault in 'vaults'"
        }
      },
      "gelatoSettings(address,address,bool)": {
        "details": "Configure Gelato settings. Enable/disable filling orders with Gelato. Only  the owner of this contract can call this function.",
        "params": {
          "_gelato": ": true: Gelato fills orders; false: Dev fills orders",
          "_pokeMe": ": Gelato contract that will call this contract",
          "_resolver": ": Contract that the Gelato executor will call for the input data used when calling this contract."
        }
      },
      "openOrdersLength(uint256)": {
        "params": {
          "_vaultId": ": Index of vault in 'vaults'"
        },
        "returns": {
          "_0": "Number of open orders in the vault "
        }
      },
      "ordersLength(uint256)": {
        "params": {
          "_vaultId": ": Index of vault in 'vaults'"
        },
        "returns": {
          "_0": "Number of orders created in the vault "
        }
      },
      "owner()": {
        "details": "Returns the address of the current owner."
      },
      "pause()": {
        "details": "After calling, 'createTrade', 'fillOrder', 'fillOrderGelato', and 'depositGas' functions will be disabled. Users will only be able to withdraw their trades and any deposited gas. Only the owner of this contract can call this function."
      },
      "paused()": {
        "details": "Returns true if the contract is paused, and false otherwise."
      },
      "priceMultiplier(uint256)": {
        "notice": "The prices used when creating trades need to be multiplied by the value returned from this function. This is done to handle the decimals.",
        "params": {
          "_vaultId": ": Index of vault in 'vaults'"
        },
        "returns": {
          "_0": "Value to multiply with the price "
        }
      },
      "renounceOwnership()": {
        "details": "Leaves the contract without owner. It will not be possible to call `onlyOwner` functions anymore. Can only be called by the current owner. NOTE: Renouncing ownership will leave the contract without an owner, thereby removing any functionality that is only available to the owner."
      },
      "setOrderFillers(bool)": {
        "details": "Restrict order filling to a whitelist of addresses or allow any address to fill orders. Only the owner of this contract can call this function.",
        "params": {
          "_whitelist": ": true: Only whitelisted addresses can fill orders; false: Any address can fill orders"
        }
      },
      "setSlippage(uint256,uint256)": {
        "details": "Set the slippage amount for each order being filled. Only the owner of this  contract can call this function.",
        "params": {
          "_slippageBasePoints": ": Max amount of slippage points",
          "_slippagePoints": ": This value divided by '_slippageBasePoints' gives the  slippage percentage."
        }
      },
      "setTokenStrategy(uint256,address,address,uint256)": {
        "details": "Map a holding strategy contract to an ERC20 token. A token can only be mapped to holding strategy once. Only the owner of this contract can call this function.",
        "params": {
          "_minDeposit": ": Minimum amount of '_token' that can be deposited when creating a trade. ",
          "_strategy": ": Holding strategy contract",
          "_token": ": ERC20 token address",
          "_vaultId": ": Index of vault in 'vaults'"
        }
      },
      "setVaultURI(uint256,string)": {
        "details": "Set the URI of a vault to display an image. Only the owner of this contract  can call this function.",
        "params": {
          "_URI": ": IPFS link",
          "_vaultId": ": Vault that will have its URI set"
        }
      },
      "slippage(uint256)": {
        "notice": "Use to get the minimum amount out of a swap",
        "params": {
          "_amountIn": ": Amount of a given ERC20 token"
        },
        "returns": {
          "_0": "Adjusts '_amountIn' to account for slippage"
        }
      },
      "tokenLength(uint256)": {
        "params": {
          "_vaultId": ": Index of vault in 'vaults'"
        },
        "returns": {
          "_0": "Number of all minted tokens in a vault (includes burnt tokens) "
        }
      },
      "tokenMinimumDeposit(uint256,address)": {
        "params": {
          "_token": ": ERC20 token address",
          "_vaultId": ": Index of vault in 'vaults'"
        },
        "returns": {
          "_0": "Minimum amount of '_token' that can be deposited while creating a trade"
        }
      },
      "tokenOpenOrdersLength(uint256,uint256)": {
        "params": {
          "_tokenId": ": Vault token",
          "_vaultId": ": Index of vault in 'vaults'"
        },
        "returns": {
          "_0": "Number of open orders for a token in a vault "
        }
      },
      "tokenStrategy(uint256,address)": {
        "params": {
          "_token": ": ERC20 token address",
          "_vaultId": ": Index of vault in 'vaults'"
        },
        "returns": {
          "_0": "Holding strategy mapped to '_token'"
        }
      },
      "tokenTradeLength(uint256,uint256)": {
        "params": {
          "_tokenId": ": Vault token",
          "_vaultId": ": Index of vault in 'vaults'"
        },
        "returns": {
          "_0": "Number of trades within a vault token "
        }
      },
      "tokens(uint256,uint256)": {
        "notice": "Array of all ERC20 tokens mapped to a holding strategy within a vault. Active and deactivated tokens are included. Use 'activeTokens()' to verify if the token is active or not.",
        "params": {
          "_index": ": Index of 'tokens' within a vault",
          "_vaultId": ": Index of vault in 'vaults'"
        },
        "returns": {
          "_0": "ERC20 token address"
        }
      },
      "tokensLength(uint256)": {
        "params": {
          "_vaultId": ": Index of vault in 'vaults'"
        },
        "returns": {
          "_0": "Number of ERC20 tokens mapped to a holding strategy in a vault"
        }
      },
      "transferOwnership(address)": {
        "details": "Transfers ownership of the contract to a new account (`newOwner`). Can only be called by the current owner."
      },
      "unpause()": {
        "details": "Enables 'createTrade', 'fillOrder', 'fillOrderGelato', and 'depositGas' functions. Only the owner of this contract can call this function."
      },
      "vault(address)": {
        "params": {
          "_vault": ": Address of vault"
        },
        "returns": {
          "_0": "0: Not added to this contract; 1 = Active vault; 2 = Deactivated vault"
        }
      },
      "vaultId(address)": {
        "params": {
          "_vault": ": Address of vault"
        },
        "returns": {
          "_0": "Reverse mapping vault address to index in 'vaults'"
        }
      },
      "vaultTokensByOwner(address)": {
        "params": {
          "_owner": ": Owner of vault tokens"
        },
        "returns": {
          "_0": "All vault tokens the user owns. Returns the vault address and token ID"
        }
      },
      "vaultURI(uint256)": {
        "details": "Change vault URI with 'setVaultURI'",
        "notice": "Vault URI is mutable",
        "params": {
          "_vaultId": ": Vault to view URI of"
        },
        "returns": {
          "_0": "Vault URI"
        }
      },
      "vaultsLength()": {
        "notice": "Includes active and added then deactivated vaults",
        "returns": {
          "_0": "Number of added vaults "
        }
      },
      "viewOpenOrdersByToken(uint256,uint256)": {
        "params": {
          "_tokenId": ": Vault token",
          "_vaultId": ": Index of vault in 'vaults'"
        },
        "returns": {
          "_0": "All open orders for a given vault token"
        }
      },
      "viewOpenOrdersInRange(uint256,uint256,uint256)": {
        "notice": "View multiple open orders in one call. Call may revert if the range is too big.",
        "params": {
          "_end": ": End index of 'openOrderIds' within the vault",
          "_start": ": Start index of 'openOrderIds' within the vault",
          "_vaultId": ": Index of vault in 'vaults'"
        },
        "returns": {
          "_0": "Open orders inside the given range"
        }
      },
      "viewOrder(uint256,uint256)": {
        "notice": "View a single order. Order can be open or closed.",
        "params": {
          "_orderId": ": Order to view",
          "_vaultId": ": Index of vault in 'vaults'"
        },
        "returns": {
          "_0": "Order details "
        }
      },
      "viewOrders(uint256,uint256[])": {
        "notice": "View multiple orders. ",
        "params": {
          "_orderIds": ": Orders to view",
          "_vaultId": ": Index of vault in 'vaults'"
        },
        "returns": {
          "_0": "Array of order details "
        }
      },
      "viewTrades(uint256,uint256,uint256[])": {
        "params": {
          "_tokenId": ": Vault token",
          "_tradeIds": ": Trades within the vault token",
          "_vaultId": ": Index of vault in 'vaults'"
        },
        "returns": {
          "_0": "Order[trade ID][order index] - Returns the trades and their orders "
        }
      },
      "withdraw(uint256,uint256)": {
        "notice": "Withdraws the ERC20 tokens owned by a vault token and returns to the token owner. All open orders associated with the vault token are closed and the vault token is burnt.",
        "params": {
          "_tokenId": ": Vault token  ",
          "_vaultId": ": Index of vault in 'vaults'"
        }
      },
      "withdrawGas()": {
        "notice": "Remove the deposited ETH balance of a user. Any amount of ETH not used to pay for gas is able to be withdrawn. Withdrawing ETH while still having open orders will result in the orders not being filled. A user must maintain a certian amount of ETH deposited to cover gas costs.  "
      }
    },
    "version": 1
  },
  "opcodes": "PUSH1 0x80 PUSH1 0x40 MSTORE PUSH1 0x4 CALLDATASIZE LT PUSH2 0x3EF JUMPI PUSH1 0x0 CALLDATALOAD PUSH1 0xE0 SHR DUP1 PUSH4 0x8456CB59 GT PUSH2 0x208 JUMPI DUP1 PUSH4 0xC20B08EA GT PUSH2 0x118 JUMPI DUP1 PUSH4 0xE25FA122 GT PUSH2 0xAB JUMPI DUP1 PUSH4 0xEEB8B934 GT PUSH2 0x7A JUMPI DUP1 PUSH4 0xEEB8B934 EQ PUSH2 0xB6B JUMPI DUP1 PUSH4 0xF190A539 EQ PUSH2 0xB8B JUMPI DUP1 PUSH4 0xF2FDE38B EQ PUSH2 0xBAB JUMPI DUP1 PUSH4 0xF815C03D EQ PUSH2 0xBCB JUMPI DUP1 PUSH4 0xFD6766F6 EQ PUSH2 0xBEB JUMPI PUSH2 0x3EF JUMP JUMPDEST DUP1 PUSH4 0xE25FA122 EQ PUSH2 0xB01 JUMPI DUP1 PUSH4 0xE3F54499 EQ PUSH2 0xB21 JUMPI DUP1 PUSH4 0xE9FCD6CE EQ PUSH2 0xB36 JUMPI DUP1 PUSH4 0xEB03C98C EQ PUSH2 0xB4B JUMPI PUSH2 0x3EF JUMP JUMPDEST DUP1 PUSH4 0xD8E09316 GT PUSH2 0xE7 JUMPI DUP1 PUSH4 0xD8E09316 EQ PUSH2 0xA74 JUMPI DUP1 PUSH4 0xDC27522B EQ PUSH2 0xA94 JUMPI DUP1 PUSH4 0xDC516876 EQ PUSH2 0xAC1 JUMPI DUP1 PUSH4 0xE20371E3 EQ PUSH2 0xAE1 JUMPI PUSH2 0x3EF JUMP JUMPDEST DUP1 PUSH4 0xC20B08EA EQ PUSH2 0x9F4 JUMPI DUP1 PUSH4 0xC631353F EQ PUSH2 0xA14 JUMPI DUP1 PUSH4 0xC71A6D06 EQ PUSH2 0xA34 JUMPI DUP1 PUSH4 0xCB306F02 EQ PUSH2 0xA54 JUMPI PUSH2 0x3EF JUMP JUMPDEST DUP1 PUSH4 0xAA9F6217 GT PUSH2 0x19B JUMPI DUP1 PUSH4 0xBC9EF3E0 GT PUSH2 0x16A JUMPI DUP1 PUSH4 0xBC9EF3E0 EQ PUSH2 0x96C JUMPI DUP1 PUSH4 0xBCB5703D EQ PUSH2 0x98C JUMPI DUP1 PUSH4 0xC05D6C41 EQ PUSH2 0x9A1 JUMPI DUP1 PUSH4 0xC123CB44 EQ PUSH2 0x9C1 JUMPI DUP1 PUSH4 0xC14C0713 EQ PUSH2 0x9D4 JUMPI PUSH2 0x3EF JUMP JUMPDEST DUP1 PUSH4 0xAA9F6217 EQ PUSH2 0x8F7 JUMPI DUP1 PUSH4 0xAB27FEEA EQ PUSH2 0x917 JUMPI DUP1 PUSH4 0xAEE16407 EQ PUSH2 0x937 JUMPI DUP1 PUSH4 0xB86E3DC9 EQ PUSH2 0x94C JUMPI PUSH2 0x3EF JUMP JUMPDEST DUP1 PUSH4 0x8DA5CB5B GT PUSH2 0x1D7 JUMPI DUP1 PUSH4 0x8DA5CB5B EQ PUSH2 0x88D JUMPI DUP1 PUSH4 0x90181D28 EQ PUSH2 0x8A2 JUMPI DUP1 PUSH4 0x96582CB5 EQ PUSH2 0x8C2 JUMPI DUP1 PUSH4 0x9670E0DE EQ PUSH2 0x8D7 JUMPI PUSH2 0x3EF JUMP JUMPDEST DUP1 PUSH4 0x8456CB59 EQ PUSH2 0x818 JUMPI DUP1 PUSH4 0x8B4864D6 EQ PUSH2 0x82D JUMPI DUP1 PUSH4 0x8C64EA4A EQ PUSH2 0x84D JUMPI DUP1 PUSH4 0x8D3A513E EQ PUSH2 0x86D JUMPI PUSH2 0x3EF JUMP JUMPDEST DUP1 PUSH4 0x4FEC8C34 GT PUSH2 0x303 JUMPI DUP1 PUSH4 0x659755F9 GT PUSH2 0x296 JUMPI DUP1 PUSH4 0x7AF124E8 GT PUSH2 0x265 JUMPI DUP1 PUSH4 0x7AF124E8 EQ PUSH2 0x78E JUMPI DUP1 PUSH4 0x7C04D11F EQ PUSH2 0x7AE JUMPI DUP1 PUSH4 0x7DC24F49 EQ PUSH2 0x7CE JUMPI DUP1 PUSH4 0x82AF54C9 EQ PUSH2 0x7EE JUMPI DUP1 PUSH4 0x8322FFF2 EQ PUSH2 0x803 JUMPI PUSH2 0x3EF JUMP JUMPDEST DUP1 PUSH4 0x659755F9 EQ PUSH2 0x724 JUMPI DUP1 PUSH4 0x6840339A EQ PUSH2 0x739 JUMPI DUP1 PUSH4 0x715018A6 EQ PUSH2 0x759 JUMPI DUP1 PUSH4 0x7726A73C EQ PUSH2 0x76E JUMPI PUSH2 0x3EF JUMP JUMPDEST DUP1 PUSH4 0x5711BE12 GT PUSH2 0x2D2 JUMPI DUP1 PUSH4 0x5711BE12 EQ PUSH2 0x6AD JUMPI DUP1 PUSH4 0x573EA575 EQ PUSH2 0x6DA JUMPI DUP1 PUSH4 0x5C975ABB EQ PUSH2 0x6EF JUMPI DUP1 PUSH4 0x62D4A36A EQ PUSH2 0x704 JUMPI PUSH2 0x3EF JUMP JUMPDEST DUP1 PUSH4 0x4FEC8C34 EQ PUSH2 0x629 JUMPI DUP1 PUSH4 0x548A99AD EQ PUSH2 0x64B JUMPI DUP1 PUSH4 0x55D6DC2F EQ PUSH2 0x66B JUMPI DUP1 PUSH4 0x55EAF8F1 EQ PUSH2 0x698 JUMPI PUSH2 0x3EF JUMP JUMPDEST DUP1 PUSH4 0x256B5A02 GT PUSH2 0x386 JUMPI DUP1 PUSH4 0x3B94A42B GT PUSH2 0x355 JUMPI DUP1 PUSH4 0x3B94A42B EQ PUSH2 0x594 JUMPI DUP1 PUSH4 0x3F4BA83A EQ PUSH2 0x5B4 JUMPI DUP1 PUSH4 0x408198C5 EQ PUSH2 0x5C9 JUMPI DUP1 PUSH4 0x441A3E70 EQ PUSH2 0x5E9 JUMPI DUP1 PUSH4 0x4E9C1118 EQ PUSH2 0x609 JUMPI PUSH2 0x3EF JUMP JUMPDEST DUP1 PUSH4 0x256B5A02 EQ PUSH2 0x505 JUMPI DUP1 PUSH4 0x2A2925C2 EQ PUSH2 0x525 JUMPI DUP1 PUSH4 0x30D33F80 EQ PUSH2 0x552 JUMPI DUP1 PUSH4 0x3AAA36E6 EQ PUSH2 0x57F JUMPI PUSH2 0x3EF JUMP JUMPDEST DUP1 PUSH4 0x1261795D GT PUSH2 0x3C2 JUMPI DUP1 PUSH4 0x1261795D EQ PUSH2 0x48E JUMPI DUP1 PUSH4 0x1AC36471 EQ PUSH2 0x4A3 JUMPI DUP1 PUSH4 0x230F9B9D EQ PUSH2 0x4C3 JUMPI DUP1 PUSH4 0x24E702ED EQ PUSH2 0x4E3 JUMPI PUSH2 0x3EF JUMP JUMPDEST DUP1 PUSH4 0x43B99CC EQ PUSH2 0x3F4 JUMPI DUP1 PUSH4 0x445EA4B EQ PUSH2 0x41F JUMPI DUP1 PUSH4 0x9FC72AA EQ PUSH2 0x44C JUMPI DUP1 PUSH4 0x12320BCA EQ PUSH2 0x46C JUMPI JUMPDEST PUSH1 0x0 DUP1 REVERT JUMPDEST CALLVALUE DUP1 ISZERO PUSH2 0x400 JUMPI PUSH1 0x0 DUP1 REVERT JUMPDEST POP PUSH2 0x409 PUSH2 0xC0B JUMP JUMPDEST PUSH1 0x40 MLOAD PUSH2 0x416 SWAP2 SWAP1 PUSH2 0x4A44 JUMP JUMPDEST PUSH1 0x40 MLOAD DUP1 SWAP2 SUB SWAP1 RETURN JUMPDEST CALLVALUE DUP1 ISZERO PUSH2 0x42B JUMPI PUSH1 0x0 DUP1 REVERT JUMPDEST POP PUSH2 0x43F PUSH2 0x43A CALLDATASIZE PUSH1 0x4 PUSH2 0x432A JUMP JUMPDEST PUSH2 0xC1A JUMP JUMPDEST PUSH1 0x40 MLOAD PUSH2 0x416 SWAP2 SWAP1 PUSH2 0x4C43 JUMP JUMPDEST CALLVALUE DUP1 ISZERO PUSH2 0x458 JUMPI PUSH1 0x0 DUP1 REVERT JUMPDEST POP PUSH2 0x43F PUSH2 0x467 CALLDATASIZE PUSH1 0x4 PUSH2 0x4560 JUMP JUMPDEST PUSH2 0xC2C JUMP JUMPDEST CALLVALUE DUP1 ISZERO PUSH2 0x478 JUMPI PUSH1 0x0 DUP1 REVERT JUMPDEST POP PUSH2 0x48C PUSH2 0x487 CALLDATASIZE PUSH1 0x4 PUSH2 0x480E JUMP JUMPDEST PUSH2 0xCC2 JUMP JUMPDEST STOP JUMPDEST CALLVALUE DUP1 ISZERO PUSH2 0x49A JUMPI PUSH1 0x0 DUP1 REVERT JUMPDEST POP PUSH2 0x48C PUSH2 0x130F JUMP JUMPDEST CALLVALUE DUP1 ISZERO PUSH2 0x4AF JUMPI PUSH1 0x0 DUP1 REVERT JUMPDEST POP PUSH2 0x48C PUSH2 0x4BE CALLDATASIZE PUSH1 0x4 PUSH2 0x432A JUMP JUMPDEST PUSH2 0x140E JUMP JUMPDEST CALLVALUE DUP1 ISZERO PUSH2 0x4CF JUMPI PUSH1 0x0 DUP1 REVERT JUMPDEST POP PUSH2 0x48C PUSH2 0x4DE CALLDATASIZE PUSH1 0x4 PUSH2 0x432A JUMP JUMPDEST PUSH2 0x1464 JUMP JUMPDEST CALLVALUE DUP1 ISZERO PUSH2 0x4EF JUMPI PUSH1 0x0 DUP1 REVERT JUMPDEST POP PUSH2 0x4F8 PUSH2 0x14F8 JUMP JUMPDEST PUSH1 0x40 MLOAD PUSH2 0x416 SWAP2 SWAP1 PUSH2 0x527C JUMP JUMPDEST CALLVALUE DUP1 ISZERO PUSH2 0x511 JUMPI PUSH1 0x0 DUP1 REVERT JUMPDEST POP PUSH2 0x48C PUSH2 0x520 CALLDATASIZE PUSH1 0x4 PUSH2 0x432A JUMP JUMPDEST PUSH2 0x14FD JUMP JUMPDEST CALLVALUE DUP1 ISZERO PUSH2 0x531 JUMPI PUSH1 0x0 DUP1 REVERT JUMPDEST POP PUSH2 0x545 PUSH2 0x540 CALLDATASIZE PUSH1 0x4 PUSH2 0x46DE JUMP JUMPDEST PUSH2 0x15D0 JUMP JUMPDEST PUSH1 0x40 MLOAD PUSH2 0x416 SWAP2 SWAP1 PUSH2 0x4BDA JUMP JUMPDEST CALLVALUE DUP1 ISZERO PUSH2 0x55E JUMPI PUSH1 0x0 DUP1 REVERT JUMPDEST POP PUSH2 0x572 PUSH2 0x56D CALLDATASIZE PUSH1 0x4 PUSH2 0x47C1 JUMP JUMPDEST PUSH2 0x1718 JUMP JUMPDEST PUSH1 0x40 MLOAD PUSH2 0x416 SWAP2 SWAP1 PUSH2 0x4B7A JUMP JUMPDEST CALLVALUE DUP1 ISZERO PUSH2 0x58B JUMPI PUSH1 0x0 DUP1 REVERT JUMPDEST POP PUSH2 0x409 PUSH2 0x191D JUMP JUMPDEST CALLVALUE DUP1 ISZERO PUSH2 0x5A0 JUMPI PUSH1 0x0 DUP1 REVERT JUMPDEST POP PUSH2 0x545 PUSH2 0x5AF CALLDATASIZE PUSH1 0x4 PUSH2 0x47A0 JUMP JUMPDEST PUSH2 0x1935 JUMP JUMPDEST CALLVALUE DUP1 ISZERO PUSH2 0x5C0 JUMPI PUSH1 0x0 DUP1 REVERT JUMPDEST POP PUSH2 0x48C PUSH2 0x1B48 JUMP JUMPDEST CALLVALUE DUP1 ISZERO PUSH2 0x5D5 JUMPI PUSH1 0x0 DUP1 REVERT JUMPDEST POP PUSH2 0x4F8 PUSH2 0x5E4 CALLDATASIZE PUSH1 0x4 PUSH2 0x432A JUMP JUMPDEST PUSH2 0x1B87 JUMP JUMPDEST CALLVALUE DUP1 ISZERO PUSH2 0x5F5 JUMPI PUSH1 0x0 DUP1 REVERT JUMPDEST POP PUSH2 0x48C PUSH2 0x604 CALLDATASIZE PUSH1 0x4 PUSH2 0x47A0 JUMP JUMPDEST PUSH2 0x1B9C JUMP JUMPDEST CALLVALUE DUP1 ISZERO PUSH2 0x615 JUMPI PUSH1 0x0 DUP1 REVERT JUMPDEST POP PUSH2 0x409 PUSH2 0x624 CALLDATASIZE PUSH1 0x4 PUSH2 0x4560 JUMP JUMPDEST PUSH2 0x1D97 JUMP JUMPDEST CALLVALUE DUP1 ISZERO PUSH2 0x635 JUMPI PUSH1 0x0 DUP1 REVERT JUMPDEST POP PUSH2 0x63E PUSH2 0x1DBE JUMP JUMPDEST PUSH1 0x40 MLOAD PUSH2 0x416 SWAP2 SWAP1 PUSH2 0x4C38 JUMP JUMPDEST CALLVALUE DUP1 ISZERO PUSH2 0x657 JUMPI PUSH1 0x0 DUP1 REVERT JUMPDEST POP PUSH2 0x48C PUSH2 0x666 CALLDATASIZE PUSH1 0x4 PUSH2 0x4612 JUMP JUMPDEST PUSH2 0x1DCE JUMP JUMPDEST CALLVALUE DUP1 ISZERO PUSH2 0x677 JUMPI PUSH1 0x0 DUP1 REVERT JUMPDEST POP PUSH2 0x68B PUSH2 0x686 CALLDATASIZE PUSH1 0x4 PUSH2 0x432A JUMP JUMPDEST PUSH2 0x1E82 JUMP JUMPDEST PUSH1 0x40 MLOAD PUSH2 0x416 SWAP2 SWAP1 PUSH2 0x4BED JUMP JUMPDEST CALLVALUE DUP1 ISZERO PUSH2 0x6A4 JUMPI PUSH1 0x0 DUP1 REVERT JUMPDEST POP PUSH2 0x4F8 PUSH2 0x2149 JUMP JUMPDEST CALLVALUE DUP1 ISZERO PUSH2 0x6B9 JUMPI PUSH1 0x0 DUP1 REVERT JUMPDEST POP PUSH2 0x6CD PUSH2 0x6C8 CALLDATASIZE PUSH1 0x4 PUSH2 0x47A0 JUMP JUMPDEST PUSH2 0x214E JUMP JUMPDEST PUSH1 0x40 MLOAD PUSH2 0x416 SWAP2 SWAP1 PUSH2 0x522F JUMP JUMPDEST CALLVALUE DUP1 ISZERO PUSH2 0x6E6 JUMPI PUSH1 0x0 DUP1 REVERT JUMPDEST POP PUSH2 0x409 PUSH2 0x21F7 JUMP JUMPDEST CALLVALUE DUP1 ISZERO PUSH2 0x6FB JUMPI PUSH1 0x0 DUP1 REVERT JUMPDEST POP PUSH2 0x63E PUSH2 0x220F JUMP JUMPDEST CALLVALUE DUP1 ISZERO PUSH2 0x710 JUMPI PUSH1 0x0 DUP1 REVERT JUMPDEST POP PUSH2 0x43F PUSH2 0x71F CALLDATASIZE PUSH1 0x4 PUSH2 0x47A0 JUMP JUMPDEST PUSH2 0x221F JUMP JUMPDEST CALLVALUE DUP1 ISZERO PUSH2 0x730 JUMPI PUSH1 0x0 DUP1 REVERT JUMPDEST POP PUSH2 0x409 PUSH2 0x22B7 JUMP JUMPDEST CALLVALUE DUP1 ISZERO PUSH2 0x745 JUMPI PUSH1 0x0 DUP1 REVERT JUMPDEST POP PUSH2 0x409 PUSH2 0x754 CALLDATASIZE PUSH1 0x4 PUSH2 0x4560 JUMP JUMPDEST PUSH2 0x22C6 JUMP JUMPDEST CALLVALUE DUP1 ISZERO PUSH2 0x765 JUMPI PUSH1 0x0 DUP1 REVERT JUMPDEST POP PUSH2 0x48C PUSH2 0x22D3 JUMP JUMPDEST CALLVALUE DUP1 ISZERO PUSH2 0x77A JUMPI PUSH1 0x0 DUP1 REVERT JUMPDEST POP PUSH2 0x43F PUSH2 0x789 CALLDATASIZE PUSH1 0x4 PUSH2 0x432A JUMP JUMPDEST PUSH2 0x2352 JUMP JUMPDEST CALLVALUE DUP1 ISZERO PUSH2 0x79A JUMPI PUSH1 0x0 DUP1 REVERT JUMPDEST POP PUSH2 0x409 PUSH2 0x7A9 CALLDATASIZE PUSH1 0x4 PUSH2 0x4578 JUMP JUMPDEST PUSH2 0x236D JUMP JUMPDEST CALLVALUE DUP1 ISZERO PUSH2 0x7BA JUMPI PUSH1 0x0 DUP1 REVERT JUMPDEST POP PUSH2 0x48C PUSH2 0x7C9 CALLDATASIZE PUSH1 0x4 PUSH2 0x4722 JUMP JUMPDEST PUSH2 0x2405 JUMP JUMPDEST CALLVALUE DUP1 ISZERO PUSH2 0x7DA JUMPI PUSH1 0x0 DUP1 REVERT JUMPDEST POP PUSH2 0x43F PUSH2 0x7E9 CALLDATASIZE PUSH1 0x4 PUSH2 0x4560 JUMP JUMPDEST PUSH2 0x24B6 JUMP JUMPDEST CALLVALUE DUP1 ISZERO PUSH2 0x7FA JUMPI PUSH1 0x0 DUP1 REVERT JUMPDEST POP PUSH2 0x43F PUSH2 0x250E JUMP JUMPDEST CALLVALUE DUP1 ISZERO PUSH2 0x80F JUMPI PUSH1 0x0 DUP1 REVERT JUMPDEST POP PUSH2 0x409 PUSH2 0x2514 JUMP JUMPDEST CALLVALUE DUP1 ISZERO PUSH2 0x824 JUMPI PUSH1 0x0 DUP1 REVERT JUMPDEST POP PUSH2 0x48C PUSH2 0x252C JUMP JUMPDEST CALLVALUE DUP1 ISZERO PUSH2 0x839 JUMPI PUSH1 0x0 DUP1 REVERT JUMPDEST POP PUSH2 0x409 PUSH2 0x848 CALLDATASIZE PUSH1 0x4 PUSH2 0x47A0 JUMP JUMPDEST PUSH2 0x2569 JUMP JUMPDEST CALLVALUE DUP1 ISZERO PUSH2 0x859 JUMPI PUSH1 0x0 DUP1 REVERT JUMPDEST POP PUSH2 0x409 PUSH2 0x868 CALLDATASIZE PUSH1 0x4 PUSH2 0x4560 JUMP JUMPDEST PUSH2 0x25B1 JUMP JUMPDEST CALLVALUE DUP1 ISZERO PUSH2 0x879 JUMPI PUSH1 0x0 DUP1 REVERT JUMPDEST POP PUSH2 0x43F PUSH2 0x888 CALLDATASIZE PUSH1 0x4 PUSH2 0x47A0 JUMP JUMPDEST PUSH2 0x25BE JUMP JUMPDEST CALLVALUE DUP1 ISZERO PUSH2 0x899 JUMPI PUSH1 0x0 DUP1 REVERT JUMPDEST POP PUSH2 0x409 PUSH2 0x25DB JUMP JUMPDEST CALLVALUE DUP1 ISZERO PUSH2 0x8AE JUMPI PUSH1 0x0 DUP1 REVERT JUMPDEST POP PUSH2 0x43F PUSH2 0x8BD CALLDATASIZE PUSH1 0x4 PUSH2 0x4560 JUMP JUMPDEST PUSH2 0x25EA JUMP JUMPDEST CALLVALUE DUP1 ISZERO PUSH2 0x8CE JUMPI PUSH1 0x0 DUP1 REVERT JUMPDEST POP PUSH2 0x63E PUSH2 0x2642 JUMP JUMPDEST CALLVALUE DUP1 ISZERO PUSH2 0x8E3 JUMPI PUSH1 0x0 DUP1 REVERT JUMPDEST POP PUSH2 0x43F PUSH2 0x8F2 CALLDATASIZE PUSH1 0x4 PUSH2 0x4560 JUMP JUMPDEST PUSH2 0x264B JUMP JUMPDEST CALLVALUE DUP1 ISZERO PUSH2 0x903 JUMPI PUSH1 0x0 DUP1 REVERT JUMPDEST POP PUSH2 0x48C PUSH2 0x912 CALLDATASIZE PUSH1 0x4 PUSH2 0x432A JUMP JUMPDEST PUSH2 0x2678 JUMP JUMPDEST CALLVALUE DUP1 ISZERO PUSH2 0x923 JUMPI PUSH1 0x0 DUP1 REVERT JUMPDEST POP PUSH2 0x48C PUSH2 0x932 CALLDATASIZE PUSH1 0x4 PUSH2 0x439C JUMP JUMPDEST PUSH2 0x26D1 JUMP JUMPDEST CALLVALUE DUP1 ISZERO PUSH2 0x943 JUMPI PUSH1 0x0 DUP1 REVERT JUMPDEST POP PUSH2 0x43F PUSH2 0x2719 JUMP JUMPDEST CALLVALUE DUP1 ISZERO PUSH2 0x958 JUMPI PUSH1 0x0 DUP1 REVERT JUMPDEST POP PUSH2 0x48C PUSH2 0x967 CALLDATASIZE PUSH1 0x4 PUSH2 0x4649 JUMP JUMPDEST PUSH2 0x271F JUMP JUMPDEST CALLVALUE DUP1 ISZERO PUSH2 0x978 JUMPI PUSH1 0x0 DUP1 REVERT JUMPDEST POP PUSH2 0x48C PUSH2 0x987 CALLDATASIZE PUSH1 0x4 PUSH2 0x47A0 JUMP JUMPDEST PUSH2 0x2B7B JUMP JUMPDEST CALLVALUE DUP1 ISZERO PUSH2 0x998 JUMPI PUSH1 0x0 DUP1 REVERT JUMPDEST POP PUSH2 0x4F8 PUSH2 0x2BBE JUMP JUMPDEST CALLVALUE DUP1 ISZERO PUSH2 0x9AD JUMPI PUSH1 0x0 DUP1 REVERT JUMPDEST POP PUSH2 0x63E PUSH2 0x9BC CALLDATASIZE PUSH1 0x4 PUSH2 0x432A JUMP JUMPDEST PUSH2 0x2BC3 JUMP JUMPDEST PUSH2 0x48C PUSH2 0x9CF CALLDATASIZE PUSH1 0x4 PUSH2 0x432A JUMP JUMPDEST PUSH2 0x2BD8 JUMP JUMPDEST CALLVALUE DUP1 ISZERO PUSH2 0x9E0 JUMPI PUSH1 0x0 DUP1 REVERT JUMPDEST POP PUSH2 0x43F PUSH2 0x9EF CALLDATASIZE PUSH1 0x4 PUSH2 0x4560 JUMP JUMPDEST PUSH2 0x2CD1 JUMP JUMPDEST CALLVALUE DUP1 ISZERO PUSH2 0xA00 JUMPI PUSH1 0x0 DUP1 REVERT JUMPDEST POP PUSH2 0x43F PUSH2 0xA0F CALLDATASIZE PUSH1 0x4 PUSH2 0x4578 JUMP JUMPDEST PUSH2 0x2D29 JUMP JUMPDEST CALLVALUE DUP1 ISZERO PUSH2 0xA20 JUMPI PUSH1 0x0 DUP1 REVERT JUMPDEST POP PUSH2 0x545 PUSH2 0xA2F CALLDATASIZE PUSH1 0x4 PUSH2 0x486E JUMP JUMPDEST PUSH2 0x2D71 JUMP JUMPDEST CALLVALUE DUP1 ISZERO PUSH2 0xA40 JUMPI PUSH1 0x0 DUP1 REVERT JUMPDEST POP PUSH2 0x48C PUSH2 0xA4F CALLDATASIZE PUSH1 0x4 PUSH2 0x480E JUMP JUMPDEST PUSH2 0x2FAD JUMP JUMPDEST CALLVALUE DUP1 ISZERO PUSH2 0xA60 JUMPI PUSH1 0x0 DUP1 REVERT JUMPDEST POP PUSH2 0x43F PUSH2 0xA6F CALLDATASIZE PUSH1 0x4 PUSH2 0x47A0 JUMP JUMPDEST PUSH2 0x35EA JUMP JUMPDEST CALLVALUE DUP1 ISZERO PUSH2 0xA80 JUMPI PUSH1 0x0 DUP1 REVERT JUMPDEST POP PUSH2 0x48C PUSH2 0xA8F CALLDATASIZE PUSH1 0x4 PUSH2 0x43EC JUMP JUMPDEST PUSH2 0x3607 JUMP JUMPDEST CALLVALUE DUP1 ISZERO PUSH2 0xAA0 JUMPI PUSH1 0x0 DUP1 REVERT JUMPDEST POP PUSH2 0xAB4 PUSH2 0xAAF CALLDATASIZE PUSH1 0x4 PUSH2 0x4560 JUMP JUMPDEST PUSH2 0x368A JUMP JUMPDEST PUSH1 0x40 MLOAD PUSH2 0x416 SWAP2 SWAP1 PUSH2 0x4C4C JUMP JUMPDEST CALLVALUE DUP1 ISZERO PUSH2 0xACD JUMPI PUSH1 0x0 DUP1 REVERT JUMPDEST POP PUSH2 0x48C PUSH2 0xADC CALLDATASIZE PUSH1 0x4 PUSH2 0x45CB JUMP JUMPDEST PUSH2 0x371C JUMP JUMPDEST CALLVALUE DUP1 ISZERO PUSH2 0xAED JUMPI PUSH1 0x0 DUP1 REVERT JUMPDEST POP PUSH2 0x48C PUSH2 0xAFC CALLDATASIZE PUSH1 0x4 PUSH2 0x4578 JUMP JUMPDEST PUSH2 0x3857 JUMP JUMPDEST CALLVALUE DUP1 ISZERO PUSH2 0xB0D JUMPI PUSH1 0x0 DUP1 REVERT JUMPDEST POP PUSH2 0x43F PUSH2 0xB1C CALLDATASIZE PUSH1 0x4 PUSH2 0x47A0 JUMP JUMPDEST PUSH2 0x38D2 JUMP JUMPDEST CALLVALUE DUP1 ISZERO PUSH2 0xB2D JUMPI PUSH1 0x0 DUP1 REVERT JUMPDEST POP PUSH2 0x409 PUSH2 0x391A JUMP JUMPDEST CALLVALUE DUP1 ISZERO PUSH2 0xB42 JUMPI PUSH1 0x0 DUP1 REVERT JUMPDEST POP PUSH2 0x43F PUSH2 0x3929 JUMP JUMPDEST CALLVALUE DUP1 ISZERO PUSH2 0xB57 JUMPI PUSH1 0x0 DUP1 REVERT JUMPDEST POP PUSH2 0x409 PUSH2 0xB66 CALLDATASIZE PUSH1 0x4 PUSH2 0x4560 JUMP JUMPDEST PUSH2 0x392F JUMP JUMPDEST CALLVALUE DUP1 ISZERO PUSH2 0xB77 JUMPI PUSH1 0x0 DUP1 REVERT JUMPDEST POP PUSH2 0x43F PUSH2 0xB86 CALLDATASIZE PUSH1 0x4 PUSH2 0x4560 JUMP JUMPDEST PUSH2 0x393C JUMP JUMPDEST CALLVALUE DUP1 ISZERO PUSH2 0xB97 JUMPI PUSH1 0x0 DUP1 REVERT JUMPDEST POP PUSH2 0x63E PUSH2 0xBA6 CALLDATASIZE PUSH1 0x4 PUSH2 0x4578 JUMP JUMPDEST PUSH2 0x3994 JUMP JUMPDEST CALLVALUE DUP1 ISZERO PUSH2 0xBB7 JUMPI PUSH1 0x0 DUP1 REVERT JUMPDEST POP PUSH2 0x48C PUSH2 0xBC6 CALLDATASIZE PUSH1 0x4 PUSH2 0x432A JUMP JUMPDEST PUSH2 0x3A2C JUMP JUMPDEST CALLVALUE DUP1 ISZERO PUSH2 0xBD7 JUMPI PUSH1 0x0 DUP1 REVERT JUMPDEST POP PUSH2 0x4F8 PUSH2 0xBE6 CALLDATASIZE PUSH1 0x4 PUSH2 0x432A JUMP JUMPDEST PUSH2 0x3AE2 JUMP JUMPDEST CALLVALUE DUP1 ISZERO PUSH2 0xBF7 JUMPI PUSH1 0x0 DUP1 REVERT JUMPDEST POP PUSH2 0x48C PUSH2 0xC06 CALLDATASIZE PUSH1 0x4 PUSH2 0x432A JUMP JUMPDEST PUSH2 0x3B00 JUMP JUMPDEST PUSH1 0x3 SLOAD PUSH1 0x1 PUSH1 0x1 PUSH1 0xA0 SHL SUB AND DUP2 JUMP JUMPDEST PUSH1 0x6 PUSH1 0x20 MSTORE PUSH1 0x0 SWAP1 DUP2 MSTORE PUSH1 0x40 SWAP1 KECCAK256 SLOAD DUP2 JUMP JUMPDEST PUSH1 0x0 PUSH1 0x9 DUP3 DUP2 SLOAD DUP2 LT PUSH2 0xC3B JUMPI INVALID JUMPDEST PUSH1 0x0 SWAP2 DUP3 MSTORE PUSH1 0x20 SWAP2 DUP3 SWAP1 KECCAK256 ADD SLOAD PUSH1 0x40 DUP1 MLOAD PUSH4 0xCC72673 PUSH1 0xE1 SHL DUP2 MSTORE SWAP1 MLOAD PUSH1 0x1 PUSH1 0x1 PUSH1 0xA0 SHL SUB SWAP1 SWAP3 AND SWAP3 PUSH4 0x198E4CE6 SWAP3 PUSH1 0x4 DUP1 DUP5 ADD SWAP4 DUP3 SWAP1 SUB ADD DUP2 DUP7 DUP1 EXTCODESIZE ISZERO DUP1 ISZERO PUSH2 0xC84 JUMPI PUSH1 0x0 DUP1 REVERT JUMPDEST POP GAS STATICCALL ISZERO DUP1 ISZERO PUSH2 0xC98 JUMPI RETURNDATASIZE PUSH1 0x0 DUP1 RETURNDATACOPY RETURNDATASIZE PUSH1 0x0 REVERT JUMPDEST POP POP POP POP PUSH1 0x40 MLOAD RETURNDATASIZE PUSH1 0x1F NOT PUSH1 0x1F DUP3 ADD AND DUP3 ADD DUP1 PUSH1 0x40 MSTORE POP DUP2 ADD SWAP1 PUSH2 0xCBC SWAP2 SWAP1 PUSH2 0x43D4 JUMP JUMPDEST SWAP3 SWAP2 POP POP JUMP JUMPDEST PUSH1 0x0 SLOAD PUSH1 0x1 PUSH1 0xA0 SHL SWAP1 DIV PUSH1 0xFF AND ISZERO PUSH2 0xCF5 JUMPI PUSH1 0x40 MLOAD PUSH3 0x461BCD PUSH1 0xE5 SHL DUP2 MSTORE PUSH1 0x4 ADD PUSH2 0xCEC SWAP1 PUSH2 0x4EA2 JUMP JUMPDEST PUSH1 0x40 MLOAD DUP1 SWAP2 SUB SWAP1 REVERT JUMPDEST PUSH1 0xE SLOAD PUSH1 0xFF AND ISZERO PUSH2 0xD32 JUMPI CALLER PUSH1 0x0 SWAP1 DUP2 MSTORE PUSH1 0x10 PUSH1 0x20 MSTORE PUSH1 0x40 SWAP1 KECCAK256 SLOAD PUSH1 0xFF AND PUSH1 0x1 EQ PUSH2 0xD32 JUMPI PUSH1 0x40 MLOAD PUSH3 0x461BCD PUSH1 0xE5 SHL DUP2 MSTORE PUSH1 0x4 ADD PUSH2 0xCEC SWAP1 PUSH2 0x5050 JUMP JUMPDEST PUSH1 0x0 SLOAD PUSH1 0x1 PUSH1 0xA8 SHL SWAP1 DIV PUSH1 0xFF AND PUSH2 0xD5B JUMPI PUSH1 0x40 MLOAD PUSH3 0x461BCD PUSH1 0xE5 SHL DUP2 MSTORE PUSH1 0x4 ADD PUSH2 0xCEC SWAP1 PUSH2 0x516A JUMP JUMPDEST PUSH1 0x0 DUP1 SLOAD PUSH1 0xFF PUSH1 0xA8 SHL NOT AND DUP2 SSTORE GAS PUSH1 0x1 PUSH1 0x1 PUSH1 0xA0 SHL SUB DUP5 AND PUSH1 0x0 SWAP1 DUP2 MSTORE PUSH1 0x8 PUSH1 0x20 MSTORE PUSH1 0x40 SWAP1 KECCAK256 SLOAD SWAP1 SWAP2 POP PUSH1 0xFF AND PUSH2 0xDA4 JUMPI PUSH1 0x40 MLOAD PUSH3 0x461BCD PUSH1 0xE5 SHL DUP2 MSTORE PUSH1 0x4 ADD PUSH2 0xCEC SWAP1 PUSH2 0x4CD2 JUMP JUMPDEST PUSH2 0xDAC PUSH2 0x40A8 JUMP JUMPDEST PUSH2 0xDB6 DUP7 DUP7 PUSH2 0x214E JUMP JUMPDEST PUSH1 0x0 DUP8 DUP2 MSTORE PUSH1 0x5 PUSH1 0x20 SWAP1 DUP2 MSTORE PUSH1 0x40 DUP1 DUP4 KECCAK256 DUP5 MLOAD DUP5 MSTORE SWAP1 SWAP2 MSTORE SWAP1 KECCAK256 SLOAD SWAP1 SWAP2 POP ISZERO PUSH2 0xE13 JUMPI PUSH1 0x0 DUP7 DUP2 MSTORE PUSH1 0x5 PUSH1 0x20 SWAP1 DUP2 MSTORE PUSH1 0x40 DUP1 DUP4 KECCAK256 DUP5 MLOAD DUP5 MSTORE SWAP1 SWAP2 MSTORE SWAP1 KECCAK256 SLOAD GASPRICE GT ISZERO PUSH2 0xE13 JUMPI PUSH1 0x40 MLOAD PUSH3 0x461BCD PUSH1 0xE5 SHL DUP2 MSTORE PUSH1 0x4 ADD PUSH2 0xCEC SWAP1 PUSH2 0x4C8D JUMP JUMPDEST PUSH2 0xE1B PUSH2 0x40A8 JUMP JUMPDEST PUSH1 0x9 DUP8 DUP2 SLOAD DUP2 LT PUSH2 0xE28 JUMPI INVALID JUMPDEST PUSH1 0x0 SWAP2 DUP3 MSTORE PUSH1 0x20 SWAP1 SWAP2 KECCAK256 ADD SLOAD PUSH1 0x40 MLOAD PUSH4 0x2CA5159F PUSH1 0xE1 SHL DUP2 MSTORE PUSH1 0x1 PUSH1 0x1 PUSH1 0xA0 SHL SUB SWAP1 SWAP2 AND SWAP1 PUSH4 0x594A2B3E SWAP1 PUSH2 0xE67 SWAP1 CALLER SWAP1 DUP11 SWAP1 DUP11 SWAP1 DUP11 SWAP1 PUSH1 0x4 ADD PUSH2 0x4AC6 JUMP JUMPDEST PUSH1 0x0 PUSH1 0x40 MLOAD DUP1 DUP4 SUB DUP2 PUSH1 0x0 DUP8 DUP1 EXTCODESIZE ISZERO DUP1 ISZERO PUSH2 0xE81 JUMPI PUSH1 0x0 DUP1 REVERT JUMPDEST POP GAS CALL ISZERO DUP1 ISZERO PUSH2 0xE95 JUMPI RETURNDATASIZE PUSH1 0x0 DUP1 RETURNDATACOPY RETURNDATASIZE PUSH1 0x0 REVERT JUMPDEST POP POP POP POP PUSH1 0x40 MLOAD RETURNDATASIZE PUSH1 0x0 DUP3 RETURNDATACOPY PUSH1 0x1F RETURNDATASIZE SWAP1 DUP2 ADD PUSH1 0x1F NOT AND DUP3 ADD PUSH1 0x40 MSTORE PUSH2 0xEBD SWAP2 SWAP1 DUP2 ADD SWAP1 PUSH2 0x44A8 JUMP JUMPDEST PUSH1 0x0 DUP9 DUP2 MSTORE PUSH1 0x4 PUSH1 0x20 SWAP1 DUP2 MSTORE PUSH1 0x40 DUP1 DUP4 KECCAK256 DUP11 DUP5 MSTORE SWAP1 SWAP2 MSTORE SWAP1 KECCAK256 SLOAD SWAP1 SWAP2 POP ISZERO PUSH2 0xF5B JUMPI PUSH1 0x1 SLOAD PUSH1 0x0 DUP9 DUP2 MSTORE PUSH1 0x4 PUSH1 0x20 DUP2 DUP2 MSTORE PUSH1 0x40 DUP1 DUP5 KECCAK256 DUP12 DUP6 MSTORE SWAP1 SWAP2 MSTORE SWAP2 DUP3 SWAP1 KECCAK256 SLOAD SWAP2 MLOAD PUSH4 0xEE8CA3B5 PUSH1 0xE0 SHL DUP2 MSTORE PUSH1 0x1 PUSH1 0x1 PUSH1 0xA0 SHL SUB SWAP1 SWAP4 AND SWAP3 PUSH4 0xEE8CA3B5 SWAP3 PUSH2 0xF28 SWAP3 SWAP1 SWAP2 ADD PUSH2 0x4C43 JUMP JUMPDEST PUSH1 0x0 PUSH1 0x40 MLOAD DUP1 DUP4 SUB DUP2 PUSH1 0x0 DUP8 DUP1 EXTCODESIZE ISZERO DUP1 ISZERO PUSH2 0xF42 JUMPI PUSH1 0x0 DUP1 REVERT JUMPDEST POP GAS CALL ISZERO DUP1 ISZERO PUSH2 0xF56 JUMPI RETURNDATASIZE PUSH1 0x0 DUP1 RETURNDATACOPY RETURNDATASIZE PUSH1 0x0 REVERT JUMPDEST POP POP POP POP JUMPDEST PUSH1 0x0 PUSH1 0x9 DUP9 DUP2 SLOAD DUP2 LT PUSH2 0xF6A JUMPI INVALID JUMPDEST PUSH1 0x0 SWAP2 DUP3 MSTORE PUSH1 0x20 SWAP1 SWAP2 KECCAK256 ADD SLOAD DUP4 MLOAD PUSH1 0x40 MLOAD PUSH4 0x31A9108F PUSH1 0xE1 SHL DUP2 MSTORE PUSH1 0x1 PUSH1 0x1 PUSH1 0xA0 SHL SUB SWAP1 SWAP3 AND SWAP2 PUSH4 0x6352211E SWAP2 PUSH2 0xFA3 SWAP2 PUSH1 0x4 ADD PUSH2 0x4C43 JUMP JUMPDEST PUSH1 0x20 PUSH1 0x40 MLOAD DUP1 DUP4 SUB DUP2 DUP7 DUP1 EXTCODESIZE ISZERO DUP1 ISZERO PUSH2 0xFBB JUMPI PUSH1 0x0 DUP1 REVERT JUMPDEST POP GAS STATICCALL ISZERO DUP1 ISZERO PUSH2 0xFCF JUMPI RETURNDATASIZE PUSH1 0x0 DUP1 RETURNDATACOPY RETURNDATASIZE PUSH1 0x0 REVERT JUMPDEST POP POP POP POP PUSH1 0x40 MLOAD RETURNDATASIZE PUSH1 0x1F NOT PUSH1 0x1F DUP3 ADD AND DUP3 ADD DUP1 PUSH1 0x40 MSTORE POP DUP2 ADD SWAP1 PUSH2 0xFF3 SWAP2 SWAP1 PUSH2 0x4346 JUMP JUMPDEST SWAP1 POP DUP3 PUSH1 0x0 ADD MLOAD DUP9 DUP3 PUSH1 0x1 PUSH1 0x1 PUSH1 0xA0 SHL SUB AND PUSH32 0x37AACCA185D8A700A40142541D808E10BC61CA82EB929CB3DF05DE903A64DC84 DUP11 PUSH1 0x40 MLOAD PUSH2 0x1034 SWAP2 SWAP1 PUSH2 0x4C43 JUMP JUMPDEST PUSH1 0x40 MLOAD DUP1 SWAP2 SUB SWAP1 LOG4 PUSH1 0x3 SLOAD PUSH1 0x1 PUSH1 0xA0 SHL SWAP1 DIV PUSH1 0xFF AND DUP1 ISZERO PUSH2 0x1058 JUMPI POP PUSH1 0x40 DUP3 ADD MLOAD ISZERO ISZERO JUMPDEST ISZERO PUSH2 0x11DB JUMPI DUP8 DUP2 PUSH1 0x1 PUSH1 0x1 PUSH1 0xA0 SHL SUB AND PUSH32 0xAF1B9133E30ADA3FEE6CB47A46B80B2DFEE808DC5BC919F712BEB9EE33B465D6 DUP5 PUSH1 0x40 ADD MLOAD PUSH1 0x40 MLOAD PUSH2 0x109B SWAP2 SWAP1 PUSH2 0x4C43 JUMP JUMPDEST PUSH1 0x40 MLOAD DUP1 SWAP2 SUB SWAP1 LOG3 PUSH1 0x1 SLOAD PUSH1 0x2 SLOAD PUSH1 0x40 DUP5 ADD MLOAD PUSH1 0x80 DUP6 ADD MLOAD PUSH1 0x1 PUSH1 0x1 PUSH1 0xA0 SHL SUB SWAP4 DUP5 AND SWAP4 PUSH4 0xB9F45ADB SWAP4 ADDRESS SWAP4 PUSH4 0x638D3683 PUSH1 0xE1 SHL SWAP4 SWAP3 SWAP1 SWAP2 AND SWAP2 PUSH4 0xE34CA65D PUSH1 0xE0 SHL SWAP2 DUP16 SWAP2 PUSH1 0x0 PUSH1 0x20 MUL ADD MLOAD PUSH1 0x80 DUP12 ADD MLOAD PUSH1 0x1 PUSH1 0x20 MUL ADD MLOAD PUSH1 0xA0 DUP13 ADD MLOAD PUSH1 0x0 PUSH1 0x20 MUL ADD MLOAD PUSH1 0x40 MLOAD PUSH1 0x24 ADD PUSH2 0x1113 SWAP6 SWAP5 SWAP4 SWAP3 SWAP2 SWAP1 PUSH2 0x5250 JUMP JUMPDEST PUSH1 0x40 DUP1 MLOAD PUSH1 0x1F NOT DUP2 DUP5 SUB ADD DUP2 MSTORE SWAP2 DUP2 MSTORE PUSH1 0x20 DUP3 ADD DUP1 MLOAD PUSH1 0x1 PUSH1 0x1 PUSH1 0xE0 SHL SUB AND PUSH1 0x1 PUSH1 0x1 PUSH1 0xE0 SHL SUB NOT SWAP5 DUP6 AND OR SWAP1 MSTORE PUSH1 0x3 SLOAD SWAP1 MLOAD PUSH1 0xE0 DUP9 SWAP1 SHL SWAP1 SWAP4 AND DUP4 MSTORE PUSH2 0x116B SWAP6 SWAP5 SWAP4 SWAP3 PUSH1 0x1 PUSH1 0x1 PUSH1 0xA0 SHL SUB SWAP1 SWAP2 AND SWAP1 PUSH1 0x4 ADD PUSH2 0x4B27 JUMP JUMPDEST PUSH1 0x20 PUSH1 0x40 MLOAD DUP1 DUP4 SUB DUP2 PUSH1 0x0 DUP8 DUP1 EXTCODESIZE ISZERO DUP1 ISZERO PUSH2 0x1185 JUMPI PUSH1 0x0 DUP1 REVERT JUMPDEST POP GAS CALL ISZERO DUP1 ISZERO PUSH2 0x1199 JUMPI RETURNDATASIZE PUSH1 0x0 DUP1 RETURNDATACOPY RETURNDATASIZE PUSH1 0x0 REVERT JUMPDEST POP POP POP POP PUSH1 0x40 MLOAD RETURNDATASIZE PUSH1 0x1F NOT PUSH1 0x1F DUP3 ADD AND DUP3 ADD DUP1 PUSH1 0x40 MSTORE POP DUP2 ADD SWAP1 PUSH2 0x11BD SWAP2 SWAP1 PUSH2 0x43D4 JUMP JUMPDEST PUSH1 0x0 DUP10 DUP2 MSTORE PUSH1 0x4 PUSH1 0x20 SWAP1 DUP2 MSTORE PUSH1 0x40 DUP1 DUP4 KECCAK256 DUP7 DUP3 ADD MLOAD DUP5 MSTORE SWAP1 SWAP2 MSTORE SWAP1 KECCAK256 SSTORE JUMPDEST PUSH1 0x0 PUSH2 0x11F4 PUSH2 0x7530 PUSH2 0x11EE GAS DUP9 SWAP1 PUSH2 0x3B7B JUMP JUMPDEST SWAP1 PUSH2 0x3BBD JUMP JUMPDEST SWAP1 POP PUSH1 0x0 PUSH2 0x1202 DUP3 GASPRICE PUSH2 0x3B41 JUMP JUMPDEST PUSH1 0x1 PUSH1 0x1 PUSH1 0xA0 SHL SUB DUP5 AND PUSH1 0x0 SWAP1 DUP2 MSTORE PUSH1 0x6 PUSH1 0x20 MSTORE PUSH1 0x40 SWAP1 KECCAK256 SLOAD SWAP1 SWAP2 POP DUP2 GT ISZERO PUSH2 0x123D JUMPI PUSH1 0x40 MLOAD PUSH3 0x461BCD PUSH1 0xE5 SHL DUP2 MSTORE PUSH1 0x4 ADD PUSH2 0xCEC SWAP1 PUSH2 0x51E2 JUMP JUMPDEST PUSH1 0x1 PUSH1 0x1 PUSH1 0xA0 SHL SUB DUP4 AND PUSH1 0x0 SWAP1 DUP2 MSTORE PUSH1 0x6 PUSH1 0x20 MSTORE PUSH1 0x40 SWAP1 KECCAK256 SLOAD PUSH2 0x1260 SWAP1 DUP3 PUSH2 0x3B7B JUMP JUMPDEST PUSH1 0x1 PUSH1 0x1 PUSH1 0xA0 SHL SUB DUP5 AND PUSH1 0x0 SWAP1 DUP2 MSTORE PUSH1 0x6 PUSH1 0x20 MSTORE PUSH1 0x40 DUP1 DUP3 KECCAK256 SWAP3 SWAP1 SWAP3 SSTORE SWAP1 MLOAD CALLER SWAP1 DUP4 SWAP1 PUSH2 0x128C SWAP1 PUSH2 0x4A41 JUMP JUMPDEST PUSH1 0x0 PUSH1 0x40 MLOAD DUP1 DUP4 SUB DUP2 DUP6 DUP8 GAS CALL SWAP3 POP POP POP RETURNDATASIZE DUP1 PUSH1 0x0 DUP2 EQ PUSH2 0x12C9 JUMPI PUSH1 0x40 MLOAD SWAP2 POP PUSH1 0x1F NOT PUSH1 0x3F RETURNDATASIZE ADD AND DUP3 ADD PUSH1 0x40 MSTORE RETURNDATASIZE DUP3 MSTORE RETURNDATASIZE PUSH1 0x0 PUSH1 0x20 DUP5 ADD RETURNDATACOPY PUSH2 0x12CE JUMP JUMPDEST PUSH1 0x60 SWAP2 POP JUMPDEST POP POP SWAP1 POP DUP1 PUSH2 0x12EF JUMPI PUSH1 0x40 MLOAD PUSH3 0x461BCD PUSH1 0xE5 SHL DUP2 MSTORE PUSH1 0x4 ADD PUSH2 0xCEC SWAP1 PUSH2 0x4FC1 JUMP JUMPDEST POP POP PUSH1 0x0 DUP1 SLOAD PUSH1 0xFF PUSH1 0xA8 SHL NOT AND PUSH1 0x1 PUSH1 0xA8 SHL OR SWAP1 SSTORE POP POP POP POP POP POP POP POP POP JUMP JUMPDEST PUSH1 0x0 SLOAD PUSH1 0x1 PUSH1 0xA8 SHL SWAP1 DIV PUSH1 0xFF AND PUSH2 0x1338 JUMPI PUSH1 0x40 MLOAD PUSH3 0x461BCD PUSH1 0xE5 SHL DUP2 MSTORE PUSH1 0x4 ADD PUSH2 0xCEC SWAP1 PUSH2 0x516A JUMP JUMPDEST PUSH1 0x0 DUP1 SLOAD PUSH1 0xFF PUSH1 0xA8 SHL NOT AND DUP2 SSTORE CALLER DUP2 MSTORE PUSH1 0x6 PUSH1 0x20 MSTORE PUSH1 0x40 SWAP1 KECCAK256 SLOAD PUSH2 0x136E JUMPI PUSH1 0x40 MLOAD PUSH3 0x461BCD PUSH1 0xE5 SHL DUP2 MSTORE PUSH1 0x4 ADD PUSH2 0xCEC SWAP1 PUSH2 0x4D02 JUMP JUMPDEST CALLER PUSH1 0x0 DUP2 DUP2 MSTORE PUSH1 0x6 PUSH1 0x20 MSTORE PUSH1 0x40 DUP1 DUP3 KECCAK256 DUP1 SLOAD SWAP1 DUP4 SWAP1 SSTORE SWAP1 MLOAD SWAP1 SWAP3 SWAP1 DUP4 SWAP1 PUSH2 0x1394 SWAP1 PUSH2 0x4A41 JUMP JUMPDEST PUSH1 0x0 PUSH1 0x40 MLOAD DUP1 DUP4 SUB DUP2 DUP6 DUP8 GAS CALL SWAP3 POP POP POP RETURNDATASIZE DUP1 PUSH1 0x0 DUP2 EQ PUSH2 0x13D1 JUMPI PUSH1 0x40 MLOAD SWAP2 POP PUSH1 0x1F NOT PUSH1 0x3F RETURNDATASIZE ADD AND DUP3 ADD PUSH1 0x40 MSTORE RETURNDATASIZE DUP3 MSTORE RETURNDATASIZE PUSH1 0x0 PUSH1 0x20 DUP5 ADD RETURNDATACOPY PUSH2 0x13D6 JUMP JUMPDEST PUSH1 0x60 SWAP2 POP JUMPDEST POP POP SWAP1 POP DUP1 PUSH2 0x13F7 JUMPI PUSH1 0x40 MLOAD PUSH3 0x461BCD PUSH1 0xE5 SHL DUP2 MSTORE PUSH1 0x4 ADD PUSH2 0xCEC SWAP1 PUSH2 0x4FC1 JUMP JUMPDEST POP POP PUSH1 0x0 DUP1 SLOAD PUSH1 0xFF PUSH1 0xA8 SHL NOT AND PUSH1 0x1 PUSH1 0xA8 SHL OR SWAP1 SSTORE JUMP JUMPDEST PUSH2 0x1416 PUSH2 0x3BE2 JUMP JUMPDEST PUSH1 0x0 SLOAD PUSH1 0x1 PUSH1 0x1 PUSH1 0xA0 SHL SUB SWAP1 DUP2 AND SWAP2 AND EQ PUSH2 0x1443 JUMPI PUSH1 0x40 MLOAD PUSH3 0x461BCD PUSH1 0xE5 SHL DUP2 MSTORE PUSH1 0x4 ADD PUSH2 0xCEC SWAP1 PUSH2 0x4F8C JUMP JUMPDEST PUSH1 0x1 PUSH1 0x1 PUSH1 0xA0 SHL SUB AND PUSH1 0x0 SWAP1 DUP2 MSTORE PUSH1 0x8 PUSH1 0x20 MSTORE PUSH1 0x40 SWAP1 KECCAK256 DUP1 SLOAD PUSH1 0xFF NOT AND SWAP1 SSTORE JUMP JUMPDEST PUSH2 0x146C PUSH2 0x3BE2 JUMP JUMPDEST PUSH1 0x0 SLOAD PUSH1 0x1 PUSH1 0x1 PUSH1 0xA0 SHL SUB SWAP1 DUP2 AND SWAP2 AND EQ PUSH2 0x1499 JUMPI PUSH1 0x40 MLOAD PUSH3 0x461BCD PUSH1 0xE5 SHL DUP2 MSTORE PUSH1 0x4 ADD PUSH2 0xCEC SWAP1 PUSH2 0x4F8C JUMP JUMPDEST PUSH1 0x1 PUSH1 0x1 PUSH1 0xA0 SHL SUB DUP2 AND PUSH1 0x0 SWAP1 DUP2 MSTORE PUSH1 0x10 PUSH1 0x20 MSTORE PUSH1 0x40 SWAP1 KECCAK256 SLOAD PUSH1 0xFF AND PUSH1 0x1 EQ PUSH2 0x14D4 JUMPI PUSH1 0x40 MLOAD PUSH3 0x461BCD PUSH1 0xE5 SHL DUP2 MSTORE PUSH1 0x4 ADD PUSH2 0xCEC SWAP1 PUSH2 0x511E JUMP JUMPDEST PUSH1 0x1 PUSH1 0x1 PUSH1 0xA0 SHL SUB AND PUSH1 0x0 SWAP1 DUP2 MSTORE PUSH1 0x10 PUSH1 0x20 MSTORE PUSH1 0x40 SWAP1 KECCAK256 DUP1 SLOAD PUSH1 0xFF NOT AND PUSH1 0x2 OR SWAP1 SSTORE JUMP JUMPDEST PUSH1 0x0 DUP2 JUMP JUMPDEST PUSH2 0x1505 PUSH2 0x3BE2 JUMP JUMPDEST PUSH1 0x0 SLOAD PUSH1 0x1 PUSH1 0x1 PUSH1 0xA0 SHL SUB SWAP1 DUP2 AND SWAP2 AND EQ PUSH2 0x1532 JUMPI PUSH1 0x40 MLOAD PUSH3 0x461BCD PUSH1 0xE5 SHL DUP2 MSTORE PUSH1 0x4 ADD PUSH2 0xCEC SWAP1 PUSH2 0x4F8C JUMP JUMPDEST PUSH1 0x1 PUSH1 0x1 PUSH1 0xA0 SHL SUB DUP2 AND PUSH1 0x0 SWAP1 DUP2 MSTORE PUSH1 0xA PUSH1 0x20 MSTORE PUSH1 0x40 SWAP1 KECCAK256 SLOAD PUSH1 0xFF AND ISZERO PUSH2 0x1558 JUMPI PUSH1 0x0 DUP1 REVERT JUMPDEST PUSH1 0x9 DUP1 SLOAD PUSH1 0x1 PUSH1 0x1 PUSH1 0xA0 SHL SUB SWAP1 SWAP3 AND PUSH1 0x0 DUP2 DUP2 MSTORE PUSH1 0xB PUSH1 0x20 SWAP1 DUP2 MSTORE PUSH1 0x40 DUP1 DUP4 KECCAK256 DUP7 SWAP1 SSTORE PUSH1 0x1 DUP1 DUP8 ADD SWAP1 SWAP6 SSTORE PUSH32 0x6E1540171B6C0C960B71A7020D9F60077F6AF931A8BBF590DA0223DACF75C7AF SWAP1 SWAP6 ADD DUP1 SLOAD PUSH1 0x1 PUSH1 0x1 PUSH1 0xA0 SHL SUB NOT AND DUP5 OR SWAP1 SSTORE SWAP2 DUP2 MSTORE PUSH1 0xA SWAP1 SWAP2 MSTORE SWAP2 SWAP1 SWAP2 KECCAK256 DUP1 SLOAD PUSH1 0xFF NOT AND SWAP1 SWAP2 OR SWAP1 SSTORE JUMP JUMPDEST PUSH1 0x60 PUSH1 0x0 PUSH1 0x9 DUP5 DUP2 SLOAD DUP2 LT PUSH2 0x15E1 JUMPI INVALID JUMPDEST PUSH1 0x0 SWAP2 DUP3 MSTORE PUSH1 0x20 SWAP1 SWAP2 KECCAK256 ADD SLOAD DUP4 MLOAD PUSH1 0x1 PUSH1 0x1 PUSH1 0xA0 SHL SUB SWAP1 SWAP2 AND SWAP2 POP PUSH1 0x60 SWAP1 PUSH1 0x1 PUSH1 0x1 PUSH1 0x40 SHL SUB DUP2 GT DUP1 ISZERO PUSH2 0x1614 JUMPI PUSH1 0x0 DUP1 REVERT JUMPDEST POP PUSH1 0x40 MLOAD SWAP1 DUP1 DUP3 MSTORE DUP1 PUSH1 0x20 MUL PUSH1 0x20 ADD DUP3 ADD PUSH1 0x40 MSTORE DUP1 ISZERO PUSH2 0x164E JUMPI DUP2 PUSH1 0x20 ADD JUMPDEST PUSH2 0x163B PUSH2 0x40A8 JUMP JUMPDEST DUP2 MSTORE PUSH1 0x20 ADD SWAP1 PUSH1 0x1 SWAP1 SUB SWAP1 DUP2 PUSH2 0x1633 JUMPI SWAP1 POP JUMPDEST POP SWAP1 POP PUSH1 0x0 JUMPDEST DUP5 MLOAD DUP2 LT ISZERO PUSH2 0x170F JUMPI DUP3 PUSH1 0x1 PUSH1 0x1 PUSH1 0xA0 SHL SUB AND PUSH4 0x21603F43 DUP7 DUP4 DUP2 MLOAD DUP2 LT PUSH2 0x1678 JUMPI INVALID JUMPDEST PUSH1 0x20 MUL PUSH1 0x20 ADD ADD MLOAD PUSH1 0x40 MLOAD DUP3 PUSH4 0xFFFFFFFF AND PUSH1 0xE0 SHL DUP2 MSTORE PUSH1 0x4 ADD PUSH2 0x169C SWAP2 SWAP1 PUSH2 0x4C43 JUMP JUMPDEST PUSH1 0x0 PUSH1 0x40 MLOAD DUP1 DUP4 SUB DUP2 DUP7 DUP1 EXTCODESIZE ISZERO DUP1 ISZERO PUSH2 0x16B4 JUMPI PUSH1 0x0 DUP1 REVERT JUMPDEST POP GAS STATICCALL ISZERO DUP1 ISZERO PUSH2 0x16C8 JUMPI RETURNDATASIZE PUSH1 0x0 DUP1 RETURNDATACOPY RETURNDATASIZE PUSH1 0x0 REVERT JUMPDEST POP POP POP POP PUSH1 0x40 MLOAD RETURNDATASIZE PUSH1 0x0 DUP3 RETURNDATACOPY PUSH1 0x1F RETURNDATASIZE SWAP1 DUP2 ADD PUSH1 0x1F NOT AND DUP3 ADD PUSH1 0x40 MSTORE PUSH2 0x16F0 SWAP2 SWAP1 DUP2 ADD SWAP1 PUSH2 0x44A8 JUMP JUMPDEST DUP3 DUP3 DUP2 MLOAD DUP2 LT PUSH2 0x16FC JUMPI INVALID JUMPDEST PUSH1 0x20 SWAP1 DUP2 MUL SWAP2 SWAP1 SWAP2 ADD ADD MSTORE PUSH1 0x1 ADD PUSH2 0x1654 JUMP JUMPDEST POP SWAP5 SWAP4 POP POP POP POP JUMP JUMPDEST PUSH1 0x60 PUSH1 0x0 PUSH1 0x9 DUP6 DUP2 SLOAD DUP2 LT PUSH2 0x1729 JUMPI INVALID JUMPDEST PUSH1 0x0 SWAP2 DUP3 MSTORE PUSH1 0x20 SWAP2 DUP3 SWAP1 KECCAK256 ADD SLOAD PUSH1 0x40 DUP1 MLOAD PUSH4 0xD082E381 PUSH1 0xE0 SHL DUP2 MSTORE SWAP1 MLOAD PUSH1 0x1 PUSH1 0x1 PUSH1 0xA0 SHL SUB SWAP1 SWAP3 AND SWAP4 POP DUP4 SWAP3 PUSH4 0xD082E381 SWAP3 PUSH1 0x4 DUP1 DUP5 ADD SWAP4 DUP3 SWAP1 SUB ADD DUP2 DUP7 DUP1 EXTCODESIZE ISZERO DUP1 ISZERO PUSH2 0x1775 JUMPI PUSH1 0x0 DUP1 REVERT JUMPDEST POP GAS STATICCALL ISZERO DUP1 ISZERO PUSH2 0x1789 JUMPI RETURNDATASIZE PUSH1 0x0 DUP1 RETURNDATACOPY RETURNDATASIZE PUSH1 0x0 REVERT JUMPDEST POP POP POP POP PUSH1 0x40 MLOAD RETURNDATASIZE PUSH1 0x1F NOT PUSH1 0x1F DUP3 ADD AND DUP3 ADD DUP1 PUSH1 0x40 MSTORE POP DUP2 ADD SWAP1 PUSH2 0x17AD SWAP2 SWAP1 PUSH2 0x43D4 JUMP JUMPDEST DUP5 GT ISZERO PUSH2 0x17CC JUMPI PUSH1 0x40 MLOAD PUSH3 0x461BCD PUSH1 0xE5 SHL DUP2 MSTORE PUSH1 0x4 ADD PUSH2 0xCEC SWAP1 PUSH2 0x5007 JUMP JUMPDEST PUSH1 0x60 DUP4 MLOAD PUSH1 0x1 PUSH1 0x1 PUSH1 0x40 SHL SUB DUP2 GT DUP1 ISZERO PUSH2 0x17E5 JUMPI PUSH1 0x0 DUP1 REVERT JUMPDEST POP PUSH1 0x40 MLOAD SWAP1 DUP1 DUP3 MSTORE DUP1 PUSH1 0x20 MUL PUSH1 0x20 ADD DUP3 ADD PUSH1 0x40 MSTORE DUP1 ISZERO PUSH2 0x1819 JUMPI DUP2 PUSH1 0x20 ADD JUMPDEST PUSH1 0x60 DUP2 MSTORE PUSH1 0x20 ADD SWAP1 PUSH1 0x1 SWAP1 SUB SWAP1 DUP2 PUSH2 0x1804 JUMPI SWAP1 POP JUMPDEST POP SWAP1 POP PUSH1 0x0 JUMPDEST DUP5 MLOAD DUP2 LT ISZERO PUSH2 0x1913 JUMPI PUSH1 0x40 MLOAD PUSH4 0x4FE8CEC9 PUSH1 0xE1 SHL DUP2 MSTORE PUSH1 0x1 PUSH1 0x1 PUSH1 0xA0 SHL SUB DUP5 AND SWAP1 PUSH4 0x9FD19D92 SWAP1 PUSH2 0x1854 SWAP1 DUP10 SWAP1 PUSH1 0x4 ADD PUSH2 0x4C43 JUMP JUMPDEST PUSH1 0x20 PUSH1 0x40 MLOAD DUP1 DUP4 SUB DUP2 DUP7 DUP1 EXTCODESIZE ISZERO DUP1 ISZERO PUSH2 0x186C JUMPI PUSH1 0x0 DUP1 REVERT JUMPDEST POP GAS STATICCALL ISZERO DUP1 ISZERO PUSH2 0x1880 JUMPI RETURNDATASIZE PUSH1 0x0 DUP1 RETURNDATACOPY RETURNDATASIZE PUSH1 0x0 REVERT JUMPDEST POP POP POP POP PUSH1 0x40 MLOAD RETURNDATASIZE PUSH1 0x1F NOT PUSH1 0x1F DUP3 ADD AND DUP3 ADD DUP1 PUSH1 0x40 MSTORE POP DUP2 ADD SWAP1 PUSH2 0x18A4 SWAP2 SWAP1 PUSH2 0x43D4 JUMP JUMPDEST DUP6 DUP3 DUP2 MLOAD DUP2 LT PUSH2 0x18B0 JUMPI INVALID JUMPDEST PUSH1 0x20 MUL PUSH1 0x20 ADD ADD MLOAD GT ISZERO PUSH2 0x18D6 JUMPI PUSH1 0x40 MLOAD PUSH3 0x461BCD PUSH1 0xE5 SHL DUP2 MSTORE PUSH1 0x4 ADD PUSH2 0xCEC SWAP1 PUSH2 0x4F44 JUMP JUMPDEST PUSH2 0x18F4 DUP4 DUP8 DUP8 DUP5 DUP2 MLOAD DUP2 LT PUSH2 0x18E7 JUMPI INVALID JUMPDEST PUSH1 0x20 MUL PUSH1 0x20 ADD ADD MLOAD PUSH2 0x3BE6 JUMP JUMPDEST DUP3 DUP3 DUP2 MLOAD DUP2 LT PUSH2 0x1900 JUMPI INVALID JUMPDEST PUSH1 0x20 SWAP1 DUP2 MUL SWAP2 SWAP1 SWAP2 ADD ADD MSTORE PUSH1 0x1 ADD PUSH2 0x181F JUMP JUMPDEST POP SWAP6 SWAP5 POP POP POP POP POP JUMP JUMPDEST PUSH20 0x22B20054BBD6DC5C23D7C7595E092CA728A00C32 DUP2 JUMP JUMPDEST PUSH1 0x60 PUSH1 0x0 PUSH1 0x9 DUP5 DUP2 SLOAD DUP2 LT PUSH2 0x1946 JUMPI INVALID JUMPDEST PUSH1 0x0 SWAP2 DUP3 MSTORE PUSH1 0x20 DUP3 KECCAK256 ADD SLOAD PUSH1 0x40 MLOAD PUSH4 0x1BF744DB PUSH1 0xE0 SHL DUP2 MSTORE PUSH1 0x1 PUSH1 0x1 PUSH1 0xA0 SHL SUB SWAP1 SWAP2 AND SWAP3 POP DUP3 SWAP1 PUSH4 0x1BF744DB SWAP1 PUSH2 0x1981 SWAP1 DUP8 SWAP1 PUSH1 0x4 ADD PUSH2 0x4C43 JUMP JUMPDEST PUSH1 0x20 PUSH1 0x40 MLOAD DUP1 DUP4 SUB DUP2 DUP7 DUP1 EXTCODESIZE ISZERO DUP1 ISZERO PUSH2 0x1999 JUMPI PUSH1 0x0 DUP1 REVERT JUMPDEST POP GAS STATICCALL ISZERO DUP1 ISZERO PUSH2 0x19AD JUMPI RETURNDATASIZE PUSH1 0x0 DUP1 RETURNDATACOPY RETURNDATASIZE PUSH1 0x0 REVERT JUMPDEST POP POP POP POP PUSH1 0x40 MLOAD RETURNDATASIZE PUSH1 0x1F NOT PUSH1 0x1F DUP3 ADD AND DUP3 ADD DUP1 PUSH1 0x40 MSTORE POP DUP2 ADD SWAP1 PUSH2 0x19D1 SWAP2 SWAP1 PUSH2 0x43D4 JUMP JUMPDEST SWAP1 POP PUSH1 0x60 DUP2 PUSH1 0x1 PUSH1 0x1 PUSH1 0x40 SHL SUB DUP2 GT DUP1 ISZERO PUSH2 0x19EB JUMPI PUSH1 0x0 DUP1 REVERT JUMPDEST POP PUSH1 0x40 MLOAD SWAP1 DUP1 DUP3 MSTORE DUP1 PUSH1 0x20 MUL PUSH1 0x20 ADD DUP3 ADD PUSH1 0x40 MSTORE DUP1 ISZERO PUSH2 0x1A25 JUMPI DUP2 PUSH1 0x20 ADD JUMPDEST PUSH2 0x1A12 PUSH2 0x40A8 JUMP JUMPDEST DUP2 MSTORE PUSH1 0x20 ADD SWAP1 PUSH1 0x1 SWAP1 SUB SWAP1 DUP2 PUSH2 0x1A0A JUMPI SWAP1 POP JUMPDEST POP SWAP1 POP PUSH1 0x0 JUMPDEST DUP3 DUP2 LT ISZERO PUSH2 0x1913 JUMPI PUSH1 0x40 MLOAD PUSH4 0x915B9859 PUSH1 0xE0 SHL DUP2 MSTORE PUSH1 0x1 PUSH1 0x1 PUSH1 0xA0 SHL SUB DUP6 AND SWAP1 PUSH4 0x21603F43 SWAP1 DUP3 SWAP1 PUSH4 0x915B9859 SWAP1 PUSH2 0x1A69 SWAP1 DUP12 SWAP1 DUP8 SWAP1 PUSH1 0x4 ADD PUSH2 0x5242 JUMP JUMPDEST PUSH1 0x20 PUSH1 0x40 MLOAD DUP1 DUP4 SUB DUP2 DUP7 DUP1 EXTCODESIZE ISZERO DUP1 ISZERO PUSH2 0x1A81 JUMPI PUSH1 0x0 DUP1 REVERT JUMPDEST POP GAS STATICCALL ISZERO DUP1 ISZERO PUSH2 0x1A95 JUMPI RETURNDATASIZE PUSH1 0x0 DUP1 RETURNDATACOPY RETURNDATASIZE PUSH1 0x0 REVERT JUMPDEST POP POP POP POP PUSH1 0x40 MLOAD RETURNDATASIZE PUSH1 0x1F NOT PUSH1 0x1F DUP3 ADD AND DUP3 ADD DUP1 PUSH1 0x40 MSTORE POP DUP2 ADD SWAP1 PUSH2 0x1AB9 SWAP2 SWAP1 PUSH2 0x43D4 JUMP JUMPDEST PUSH1 0x40 MLOAD DUP3 PUSH4 0xFFFFFFFF AND PUSH1 0xE0 SHL DUP2 MSTORE PUSH1 0x4 ADD PUSH2 0x1AD5 SWAP2 SWAP1 PUSH2 0x4C43 JUMP JUMPDEST PUSH1 0x0 PUSH1 0x40 MLOAD DUP1 DUP4 SUB DUP2 DUP7 DUP1 EXTCODESIZE ISZERO DUP1 ISZERO PUSH2 0x1AED JUMPI PUSH1 0x0 DUP1 REVERT JUMPDEST POP GAS STATICCALL ISZERO DUP1 ISZERO PUSH2 0x1B01 JUMPI RETURNDATASIZE PUSH1 0x0 DUP1 RETURNDATACOPY RETURNDATASIZE PUSH1 0x0 REVERT JUMPDEST POP POP POP POP PUSH1 0x40 MLOAD RETURNDATASIZE PUSH1 0x0 DUP3 RETURNDATACOPY PUSH1 0x1F RETURNDATASIZE SWAP1 DUP2 ADD PUSH1 0x1F NOT AND DUP3 ADD PUSH1 0x40 MSTORE PUSH2 0x1B29 SWAP2 SWAP1 DUP2 ADD SWAP1 PUSH2 0x44A8 JUMP JUMPDEST DUP3 DUP3 DUP2 MLOAD DUP2 LT PUSH2 0x1B35 JUMPI INVALID JUMPDEST PUSH1 0x20 SWAP1 DUP2 MUL SWAP2 SWAP1 SWAP2 ADD ADD MSTORE PUSH1 0x1 ADD PUSH2 0x1A2B JUMP JUMPDEST PUSH2 0x1B50 PUSH2 0x3BE2 JUMP JUMPDEST PUSH1 0x0 SLOAD PUSH1 0x1 PUSH1 0x1 PUSH1 0xA0 SHL SUB SWAP1 DUP2 AND SWAP2 AND EQ PUSH2 0x1B7D JUMPI PUSH1 0x40 MLOAD PUSH3 0x461BCD PUSH1 0xE5 SHL DUP2 MSTORE PUSH1 0x4 ADD PUSH2 0xCEC SWAP1 PUSH2 0x4F8C JUMP JUMPDEST PUSH2 0x1B85 PUSH2 0x3D81 JUMP JUMPDEST JUMP JUMPDEST PUSH1 0x10 PUSH1 0x20 MSTORE PUSH1 0x0 SWAP1 DUP2 MSTORE PUSH1 0x40 SWAP1 KECCAK256 SLOAD PUSH1 0xFF AND DUP2 JUMP JUMPDEST PUSH1 0x0 SLOAD PUSH1 0x1 PUSH1 0xA8 SHL SWAP1 DIV PUSH1 0xFF AND PUSH2 0x1BC5 JUMPI PUSH1 0x40 MLOAD PUSH3 0x461BCD PUSH1 0xE5 SHL DUP2 MSTORE PUSH1 0x4 ADD PUSH2 0xCEC SWAP1 PUSH2 0x516A JUMP JUMPDEST PUSH1 0x0 DUP1 SLOAD PUSH1 0xFF PUSH1 0xA8 SHL NOT AND SWAP1 SSTORE PUSH1 0x60 PUSH2 0x1BDE DUP4 DUP4 PUSH2 0x1935 JUMP JUMPDEST SWAP1 POP PUSH1 0x0 JUMPDEST DUP2 MLOAD DUP2 LT ISZERO PUSH2 0x1CD5 JUMPI PUSH1 0x4 PUSH1 0x0 DUP6 DUP2 MSTORE PUSH1 0x20 ADD SWAP1 DUP2 MSTORE PUSH1 0x20 ADD PUSH1 0x0 KECCAK256 PUSH1 0x0 DUP4 DUP4 DUP2 MLOAD DUP2 LT PUSH2 0x1C0D JUMPI INVALID JUMPDEST PUSH1 0x20 MUL PUSH1 0x20 ADD ADD MLOAD PUSH1 0x40 ADD MLOAD DUP2 MSTORE PUSH1 0x20 ADD SWAP1 DUP2 MSTORE PUSH1 0x20 ADD PUSH1 0x0 KECCAK256 SLOAD PUSH1 0x0 DUP1 SHL EQ PUSH2 0x1CCD JUMPI PUSH1 0x1 SLOAD PUSH1 0x0 DUP6 DUP2 MSTORE PUSH1 0x4 PUSH1 0x20 MSTORE PUSH1 0x40 DUP2 KECCAK256 DUP5 MLOAD PUSH1 0x1 PUSH1 0x1 PUSH1 0xA0 SHL SUB SWAP1 SWAP4 AND SWAP3 PUSH4 0xEE8CA3B5 SWAP3 SWAP1 DUP7 SWAP1 DUP7 SWAP1 DUP2 LT PUSH2 0x1C63 JUMPI INVALID JUMPDEST PUSH1 0x20 MUL PUSH1 0x20 ADD ADD MLOAD PUSH1 0x40 ADD MLOAD DUP2 MSTORE PUSH1 0x20 ADD SWAP1 DUP2 MSTORE PUSH1 0x20 ADD PUSH1 0x0 KECCAK256 SLOAD PUSH1 0x40 MLOAD DUP3 PUSH4 0xFFFFFFFF AND PUSH1 0xE0 SHL DUP2 MSTORE PUSH1 0x4 ADD PUSH2 0x1C9A SWAP2 SWAP1 PUSH2 0x4C43 JUMP JUMPDEST PUSH1 0x0 PUSH1 0x40 MLOAD DUP1 DUP4 SUB DUP2 PUSH1 0x0 DUP8 DUP1 EXTCODESIZE ISZERO DUP1 ISZERO PUSH2 0x1CB4 JUMPI PUSH1 0x0 DUP1 REVERT JUMPDEST POP GAS CALL ISZERO DUP1 ISZERO PUSH2 0x1CC8 JUMPI RETURNDATASIZE PUSH1 0x0 DUP1 RETURNDATACOPY RETURNDATASIZE PUSH1 0x0 REVERT JUMPDEST POP POP POP POP JUMPDEST PUSH1 0x1 ADD PUSH2 0x1BE3 JUMP JUMPDEST POP PUSH1 0x9 DUP4 DUP2 SLOAD DUP2 LT PUSH2 0x1CE3 JUMPI INVALID JUMPDEST PUSH1 0x0 SWAP2 DUP3 MSTORE PUSH1 0x20 SWAP1 SWAP2 KECCAK256 ADD SLOAD PUSH1 0x40 MLOAD PUSH4 0xF3FEF3A3 PUSH1 0xE0 SHL DUP2 MSTORE PUSH1 0x1 PUSH1 0x1 PUSH1 0xA0 SHL SUB SWAP1 SWAP2 AND SWAP1 PUSH4 0xF3FEF3A3 SWAP1 PUSH2 0x1D1E SWAP1 CALLER SWAP1 DUP7 SWAP1 PUSH1 0x4 ADD PUSH2 0x4AAD JUMP JUMPDEST PUSH1 0x0 PUSH1 0x40 MLOAD DUP1 DUP4 SUB DUP2 PUSH1 0x0 DUP8 DUP1 EXTCODESIZE ISZERO DUP1 ISZERO PUSH2 0x1D38 JUMPI PUSH1 0x0 DUP1 REVERT JUMPDEST POP GAS CALL ISZERO DUP1 ISZERO PUSH2 0x1D4C JUMPI RETURNDATASIZE PUSH1 0x0 DUP1 RETURNDATACOPY RETURNDATASIZE PUSH1 0x0 REVERT JUMPDEST POP POP PUSH1 0x40 MLOAD DUP5 SWAP3 POP DUP6 SWAP2 POP CALLER SWAP1 PUSH32 0xF279E6A1F5E320CCA91135676D9CB6E44CA8A08C0B88342BCDB1144F6511B568 SWAP1 PUSH1 0x0 SWAP1 LOG4 POP POP PUSH1 0x0 DUP1 SLOAD PUSH1 0xFF PUSH1 0xA8 SHL NOT AND PUSH1 0x1 PUSH1 0xA8 SHL OR SWAP1 SSTORE POP JUMP JUMPDEST PUSH1 0x7 DUP2 DUP2 SLOAD DUP2 LT PUSH2 0x1DA4 JUMPI INVALID JUMPDEST PUSH1 0x0 SWAP2 DUP3 MSTORE PUSH1 0x20 SWAP1 SWAP2 KECCAK256 ADD SLOAD PUSH1 0x1 PUSH1 0x1 PUSH1 0xA0 SHL SUB AND SWAP1 POP DUP2 JUMP JUMPDEST PUSH1 0x3 SLOAD PUSH1 0x1 PUSH1 0xA0 SHL SWAP1 DIV PUSH1 0xFF AND DUP2 JUMP JUMPDEST PUSH2 0x1DD6 PUSH2 0x3BE2 JUMP JUMPDEST PUSH1 0x0 SLOAD PUSH1 0x1 PUSH1 0x1 PUSH1 0xA0 SHL SUB SWAP1 DUP2 AND SWAP2 AND EQ PUSH2 0x1E03 JUMPI PUSH1 0x40 MLOAD PUSH3 0x461BCD PUSH1 0xE5 SHL DUP2 MSTORE PUSH1 0x4 ADD PUSH2 0xCEC SWAP1 PUSH2 0x4F8C JUMP JUMPDEST PUSH1 0x9 DUP4 DUP2 SLOAD DUP2 LT PUSH2 0x1E10 JUMPI INVALID JUMPDEST PUSH1 0x0 SWAP2 DUP3 MSTORE PUSH1 0x20 SWAP1 SWAP2 KECCAK256 ADD SLOAD PUSH1 0x40 MLOAD PUSH4 0x575272DD PUSH1 0xE1 SHL DUP2 MSTORE PUSH1 0x1 PUSH1 0x1 PUSH1 0xA0 SHL SUB SWAP1 SWAP2 AND SWAP1 PUSH4 0xAEA4E5BA SWAP1 PUSH2 0x1E4B SWAP1 DUP6 SWAP1 DUP6 SWAP1 PUSH1 0x4 ADD PUSH2 0x4AAD JUMP JUMPDEST PUSH1 0x0 PUSH1 0x40 MLOAD DUP1 DUP4 SUB DUP2 PUSH1 0x0 DUP8 DUP1 EXTCODESIZE ISZERO DUP1 ISZERO PUSH2 0x1E65 JUMPI PUSH1 0x0 DUP1 REVERT JUMPDEST POP GAS CALL ISZERO DUP1 ISZERO PUSH2 0x1E79 JUMPI RETURNDATASIZE PUSH1 0x0 DUP1 RETURNDATACOPY RETURNDATASIZE PUSH1 0x0 REVERT JUMPDEST POP POP POP POP POP POP POP JUMP JUMPDEST PUSH1 0x60 PUSH1 0x0 DUP1 JUMPDEST PUSH2 0x1E90 PUSH2 0x250E JUMP JUMPDEST DUP2 LT ISZERO PUSH2 0x1F39 JUMPI PUSH1 0x9 DUP2 DUP2 SLOAD DUP2 LT PUSH2 0x1EA4 JUMPI INVALID JUMPDEST PUSH1 0x0 SWAP2 DUP3 MSTORE PUSH1 0x20 SWAP1 SWAP2 KECCAK256 ADD SLOAD PUSH1 0x40 MLOAD PUSH4 0x70A08231 PUSH1 0xE0 SHL DUP2 MSTORE PUSH1 0x1 PUSH1 0x1 PUSH1 0xA0 SHL SUB SWAP1 SWAP2 AND SWAP1 PUSH4 0x70A08231 SWAP1 PUSH2 0x1EDD SWAP1 DUP8 SWAP1 PUSH1 0x4 ADD PUSH2 0x4A44 JUMP JUMPDEST PUSH1 0x20 PUSH1 0x40 MLOAD DUP1 DUP4 SUB DUP2 DUP7 DUP1 EXTCODESIZE ISZERO DUP1 ISZERO PUSH2 0x1EF5 JUMPI PUSH1 0x0 DUP1 REVERT JUMPDEST POP GAS STATICCALL ISZERO DUP1 ISZERO PUSH2 0x1F09 JUMPI RETURNDATASIZE PUSH1 0x0 DUP1 RETURNDATACOPY RETURNDATASIZE PUSH1 0x0 REVERT JUMPDEST POP POP POP POP PUSH1 0x40 MLOAD RETURNDATASIZE PUSH1 0x1F NOT PUSH1 0x1F DUP3 ADD AND DUP3 ADD DUP1 PUSH1 0x40 MSTORE POP DUP2 ADD SWAP1 PUSH2 0x1F2D SWAP2 SWAP1 PUSH2 0x43D4 JUMP JUMPDEST SWAP1 SWAP2 ADD SWAP1 PUSH1 0x1 ADD PUSH2 0x1E88 JUMP JUMPDEST POP PUSH1 0x60 DUP2 PUSH1 0x1 PUSH1 0x1 PUSH1 0x40 SHL SUB DUP2 GT DUP1 ISZERO PUSH2 0x1F52 JUMPI PUSH1 0x0 DUP1 REVERT JUMPDEST POP PUSH1 0x40 MLOAD SWAP1 DUP1 DUP3 MSTORE DUP1 PUSH1 0x20 MUL PUSH1 0x20 ADD DUP3 ADD PUSH1 0x40 MSTORE DUP1 ISZERO PUSH2 0x1F8C JUMPI DUP2 PUSH1 0x20 ADD JUMPDEST PUSH2 0x1F79 PUSH2 0x40F1 JUMP JUMPDEST DUP2 MSTORE PUSH1 0x20 ADD SWAP1 PUSH1 0x1 SWAP1 SUB SWAP1 DUP2 PUSH2 0x1F71 JUMPI SWAP1 POP JUMPDEST POP SWAP1 POP PUSH1 0x0 DUP1 JUMPDEST PUSH2 0x1F9B PUSH2 0x250E JUMP JUMPDEST DUP2 LT ISZERO PUSH2 0x213F JUMPI PUSH1 0x0 JUMPDEST PUSH1 0x9 DUP3 DUP2 SLOAD DUP2 LT PUSH2 0x1FB2 JUMPI INVALID JUMPDEST PUSH1 0x0 SWAP2 DUP3 MSTORE PUSH1 0x20 SWAP1 SWAP2 KECCAK256 ADD SLOAD PUSH1 0x40 MLOAD PUSH4 0x70A08231 PUSH1 0xE0 SHL DUP2 MSTORE PUSH1 0x1 PUSH1 0x1 PUSH1 0xA0 SHL SUB SWAP1 SWAP2 AND SWAP1 PUSH4 0x70A08231 SWAP1 PUSH2 0x1FEB SWAP1 DUP11 SWAP1 PUSH1 0x4 ADD PUSH2 0x4A44 JUMP JUMPDEST PUSH1 0x20 PUSH1 0x40 MLOAD DUP1 DUP4 SUB DUP2 DUP7 DUP1 EXTCODESIZE ISZERO DUP1 ISZERO PUSH2 0x2003 JUMPI PUSH1 0x0 DUP1 REVERT JUMPDEST POP GAS STATICCALL ISZERO DUP1 ISZERO PUSH2 0x2017 JUMPI RETURNDATASIZE PUSH1 0x0 DUP1 RETURNDATACOPY RETURNDATASIZE PUSH1 0x0 REVERT JUMPDEST POP POP POP POP PUSH1 0x40 MLOAD RETURNDATASIZE PUSH1 0x1F NOT PUSH1 0x1F DUP3 ADD AND DUP3 ADD DUP1 PUSH1 0x40 MSTORE POP DUP2 ADD SWAP1 PUSH2 0x203B SWAP2 SWAP1 PUSH2 0x43D4 JUMP JUMPDEST DUP2 LT ISZERO PUSH2 0x2136 JUMPI PUSH1 0x40 MLOAD DUP1 PUSH1 0x40 ADD PUSH1 0x40 MSTORE DUP1 PUSH1 0x9 DUP5 DUP2 SLOAD DUP2 LT PUSH2 0x205A JUMPI INVALID JUMPDEST PUSH1 0x0 SWAP2 DUP3 MSTORE PUSH1 0x20 SWAP2 DUP3 SWAP1 KECCAK256 ADD SLOAD PUSH1 0x1 PUSH1 0x1 PUSH1 0xA0 SHL SUB AND DUP3 MSTORE PUSH1 0x9 DUP1 SLOAD SWAP3 SWAP1 SWAP2 ADD SWAP2 DUP6 SWAP1 DUP2 LT PUSH2 0x2085 JUMPI INVALID JUMPDEST PUSH1 0x0 SWAP2 DUP3 MSTORE PUSH1 0x20 SWAP1 SWAP2 KECCAK256 ADD SLOAD PUSH1 0x40 MLOAD PUSH4 0x2F745C59 PUSH1 0xE0 SHL DUP2 MSTORE PUSH1 0x1 PUSH1 0x1 PUSH1 0xA0 SHL SUB SWAP1 SWAP2 AND SWAP1 PUSH4 0x2F745C59 SWAP1 PUSH2 0x20C0 SWAP1 DUP13 SWAP1 DUP8 SWAP1 PUSH1 0x4 ADD PUSH2 0x4AAD JUMP JUMPDEST PUSH1 0x20 PUSH1 0x40 MLOAD DUP1 DUP4 SUB DUP2 DUP7 DUP1 EXTCODESIZE ISZERO DUP1 ISZERO PUSH2 0x20D8 JUMPI PUSH1 0x0 DUP1 REVERT JUMPDEST POP GAS STATICCALL ISZERO DUP1 ISZERO PUSH2 0x20EC JUMPI RETURNDATASIZE PUSH1 0x0 DUP1 RETURNDATACOPY RETURNDATASIZE PUSH1 0x0 REVERT JUMPDEST POP POP POP POP PUSH1 0x40 MLOAD RETURNDATASIZE PUSH1 0x1F NOT PUSH1 0x1F DUP3 ADD AND DUP3 ADD DUP1 PUSH1 0x40 MSTORE POP DUP2 ADD SWAP1 PUSH2 0x2110 SWAP2 SWAP1 PUSH2 0x43D4 JUMP JUMPDEST SWAP1 MSTORE DUP5 MLOAD PUSH1 0x1 DUP6 ADD SWAP5 DUP7 SWAP2 DUP2 LT PUSH2 0x2123 JUMPI INVALID JUMPDEST PUSH1 0x20 SWAP1 DUP2 MUL SWAP2 SWAP1 SWAP2 ADD ADD MSTORE PUSH1 0x1 ADD PUSH2 0x1FA5 JUMP JUMPDEST POP PUSH1 0x1 ADD PUSH2 0x1F93 JUMP JUMPDEST POP SWAP1 SWAP5 SWAP4 POP POP POP POP JUMP JUMPDEST PUSH1 0x2 DUP2 JUMP JUMPDEST PUSH2 0x2156 PUSH2 0x40A8 JUMP JUMPDEST PUSH1 0x9 DUP4 DUP2 SLOAD DUP2 LT PUSH2 0x2163 JUMPI INVALID JUMPDEST PUSH1 0x0 SWAP2 DUP3 MSTORE PUSH1 0x20 SWAP1 SWAP2 KECCAK256 ADD SLOAD PUSH1 0x40 MLOAD PUSH4 0x21603F43 PUSH1 0xE0 SHL DUP2 MSTORE PUSH1 0x1 PUSH1 0x1 PUSH1 0xA0 SHL SUB SWAP1 SWAP2 AND SWAP1 PUSH4 0x21603F43 SWAP1 PUSH2 0x219C SWAP1 DUP6 SWAP1 PUSH1 0x4 ADD PUSH2 0x4C43 JUMP JUMPDEST PUSH1 0x0 PUSH1 0x40 MLOAD DUP1 DUP4 SUB DUP2 DUP7 DUP1 EXTCODESIZE ISZERO DUP1 ISZERO PUSH2 0x21B4 JUMPI PUSH1 0x0 DUP1 REVERT JUMPDEST POP GAS STATICCALL ISZERO DUP1 ISZERO PUSH2 0x21C8 JUMPI RETURNDATASIZE PUSH1 0x0 DUP1 RETURNDATACOPY RETURNDATASIZE PUSH1 0x0 REVERT JUMPDEST POP POP POP POP PUSH1 0x40 MLOAD RETURNDATASIZE PUSH1 0x0 DUP3 RETURNDATACOPY PUSH1 0x1F RETURNDATASIZE SWAP1 DUP2 ADD PUSH1 0x1F NOT AND DUP3 ADD PUSH1 0x40 MSTORE PUSH2 0x21F0 SWAP2 SWAP1 DUP2 ADD SWAP1 PUSH2 0x44A8 JUMP JUMPDEST SWAP4 SWAP3 POP POP POP JUMP JUMPDEST PUSH20 0x7598E84B2E114AB62CAB288CE5F7D5F6BAD35BBA DUP2 JUMP JUMPDEST PUSH1 0x0 SLOAD PUSH1 0x1 PUSH1 0xA0 SHL SWAP1 DIV PUSH1 0xFF AND SWAP1 JUMP JUMPDEST PUSH1 0x0 PUSH1 0x9 DUP4 DUP2 SLOAD DUP2 LT PUSH2 0x222E JUMPI INVALID JUMPDEST PUSH1 0x0 SWAP2 DUP3 MSTORE PUSH1 0x20 SWAP1 SWAP2 KECCAK256 ADD SLOAD PUSH1 0x40 MLOAD PUSH4 0x1BF744DB PUSH1 0xE0 SHL DUP2 MSTORE PUSH1 0x1 PUSH1 0x1 PUSH1 0xA0 SHL SUB SWAP1 SWAP2 AND SWAP1 PUSH4 0x1BF744DB SWAP1 PUSH2 0x2267 SWAP1 DUP6 SWAP1 PUSH1 0x4 ADD PUSH2 0x4C43 JUMP JUMPDEST PUSH1 0x20 PUSH1 0x40 MLOAD DUP1 DUP4 SUB DUP2 DUP7 DUP1 EXTCODESIZE ISZERO DUP1 ISZERO PUSH2 0x227F JUMPI PUSH1 0x0 DUP1 REVERT JUMPDEST POP GAS STATICCALL ISZERO DUP1 ISZERO PUSH2 0x2293 JUMPI RETURNDATASIZE PUSH1 0x0 DUP1 RETURNDATACOPY RETURNDATASIZE PUSH1 0x0 REVERT JUMPDEST POP POP POP POP PUSH1 0x40 MLOAD RETURNDATASIZE PUSH1 0x1F NOT PUSH1 0x1F DUP3 ADD AND DUP3 ADD DUP1 PUSH1 0x40 MSTORE POP DUP2 ADD SWAP1 PUSH2 0x21F0 SWAP2 SWAP1 PUSH2 0x43D4 JUMP JUMPDEST PUSH1 0x2 SLOAD PUSH1 0x1 PUSH1 0x1 PUSH1 0xA0 SHL SUB AND DUP2 JUMP JUMPDEST PUSH1 0x11 DUP2 DUP2 SLOAD DUP2 LT PUSH2 0x1DA4 JUMPI INVALID JUMPDEST PUSH2 0x22DB PUSH2 0x3BE2 JUMP JUMPDEST PUSH1 0x0 SLOAD PUSH1 0x1 PUSH1 0x1 PUSH1 0xA0 SHL SUB SWAP1 DUP2 AND SWAP2 AND EQ PUSH2 0x2308 JUMPI PUSH1 0x40 MLOAD PUSH3 0x461BCD PUSH1 0xE5 SHL DUP2 MSTORE PUSH1 0x4 ADD PUSH2 0xCEC SWAP1 PUSH2 0x4F8C JUMP JUMPDEST PUSH1 0x0 DUP1 SLOAD PUSH1 0x40 MLOAD PUSH1 0x1 PUSH1 0x1 PUSH1 0xA0 SHL SUB SWAP1 SWAP2 AND SWAP1 PUSH32 0x8BE0079C531659141344CD1FD0A4F28419497F9722A3DAAFE3B4186F6B6457E0 SWAP1 DUP4 SWAP1 LOG3 PUSH1 0x0 DUP1 SLOAD PUSH1 0x1 PUSH1 0x1 PUSH1 0xA0 SHL SUB NOT AND SWAP1 SSTORE JUMP JUMPDEST PUSH1 0x1 PUSH1 0x1 PUSH1 0xA0 SHL SUB AND PUSH1 0x0 SWAP1 DUP2 MSTORE PUSH1 0xB PUSH1 0x20 MSTORE PUSH1 0x40 SWAP1 KECCAK256 SLOAD SWAP1 JUMP JUMPDEST PUSH1 0x0 PUSH1 0x9 DUP4 DUP2 SLOAD DUP2 LT PUSH2 0x237C JUMPI INVALID JUMPDEST PUSH1 0x0 SWAP2 DUP3 MSTORE PUSH1 0x20 SWAP1 SWAP2 KECCAK256 ADD SLOAD PUSH1 0x40 MLOAD PUSH4 0x228BFD9F PUSH1 0xE0 SHL DUP2 MSTORE PUSH1 0x1 PUSH1 0x1 PUSH1 0xA0 SHL SUB SWAP1 SWAP2 AND SWAP1 PUSH4 0x228BFD9F SWAP1 PUSH2 0x23B5 SWAP1 DUP6 SWAP1 PUSH1 0x4 ADD PUSH2 0x4A44 JUMP JUMPDEST PUSH1 0x20 PUSH1 0x40 MLOAD DUP1 DUP4 SUB DUP2 DUP7 DUP1 EXTCODESIZE ISZERO DUP1 ISZERO PUSH2 0x23CD JUMPI PUSH1 0x0 DUP1 REVERT JUMPDEST POP GAS STATICCALL ISZERO DUP1 ISZERO PUSH2 0x23E1 JUMPI RETURNDATASIZE PUSH1 0x0 DUP1 RETURNDATACOPY RETURNDATASIZE PUSH1 0x0 REVERT JUMPDEST POP POP POP POP PUSH1 0x40 MLOAD RETURNDATASIZE PUSH1 0x1F NOT PUSH1 0x1F DUP3 ADD AND DUP3 ADD DUP1 PUSH1 0x40 MSTORE POP DUP2 ADD SWAP1 PUSH2 0x21F0 SWAP2 SWAP1 PUSH2 0x4346 JUMP JUMPDEST PUSH2 0x240D PUSH2 0x3BE2 JUMP JUMPDEST PUSH1 0x0 SLOAD PUSH1 0x1 PUSH1 0x1 PUSH1 0xA0 SHL SUB SWAP1 DUP2 AND SWAP2 AND EQ PUSH2 0x243A JUMPI PUSH1 0x40 MLOAD PUSH3 0x461BCD PUSH1 0xE5 SHL DUP2 MSTORE PUSH1 0x4 ADD PUSH2 0xCEC SWAP1 PUSH2 0x4F8C JUMP JUMPDEST PUSH1 0x9 DUP3 DUP2 SLOAD DUP2 LT PUSH2 0x2447 JUMPI INVALID JUMPDEST PUSH1 0x0 SWAP2 DUP3 MSTORE PUSH1 0x20 SWAP1 SWAP2 KECCAK256 ADD SLOAD PUSH1 0x40 MLOAD PUSH4 0x55F804B3 PUSH1 0xE0 SHL DUP2 MSTORE PUSH1 0x1 PUSH1 0x1 PUSH1 0xA0 SHL SUB SWAP1 SWAP2 AND SWAP1 PUSH4 0x55F804B3 SWAP1 PUSH2 0x2480 SWAP1 DUP5 SWAP1 PUSH1 0x4 ADD PUSH2 0x4C4C JUMP JUMPDEST PUSH1 0x0 PUSH1 0x40 MLOAD DUP1 DUP4 SUB DUP2 PUSH1 0x0 DUP8 DUP1 EXTCODESIZE ISZERO DUP1 ISZERO PUSH2 0x249A JUMPI PUSH1 0x0 DUP1 REVERT JUMPDEST POP GAS CALL ISZERO DUP1 ISZERO PUSH2 0x24AE JUMPI RETURNDATASIZE PUSH1 0x0 DUP1 RETURNDATACOPY RETURNDATASIZE PUSH1 0x0 REVERT JUMPDEST POP POP POP POP POP POP JUMP JUMPDEST PUSH1 0x0 PUSH1 0x9 DUP3 DUP2 SLOAD DUP2 LT PUSH2 0x24C5 JUMPI INVALID JUMPDEST PUSH1 0x0 SWAP2 DUP3 MSTORE PUSH1 0x20 SWAP2 DUP3 SWAP1 KECCAK256 ADD SLOAD PUSH1 0x40 DUP1 MLOAD PUSH4 0xBE8ACD3F PUSH1 0xE0 SHL DUP2 MSTORE SWAP1 MLOAD PUSH1 0x1 PUSH1 0x1 PUSH1 0xA0 SHL SUB SWAP1 SWAP3 AND SWAP3 PUSH4 0xBE8ACD3F SWAP3 PUSH1 0x4 DUP1 DUP5 ADD SWAP4 DUP3 SWAP1 SUB ADD DUP2 DUP7 DUP1 EXTCODESIZE ISZERO DUP1 ISZERO PUSH2 0xC84 JUMPI PUSH1 0x0 DUP1 REVERT JUMPDEST PUSH1 0x9 SLOAD SWAP1 JUMP JUMPDEST PUSH20 0xEEEEEEEEEEEEEEEEEEEEEEEEEEEEEEEEEEEEEEEE DUP2 JUMP JUMPDEST PUSH2 0x2534 PUSH2 0x3BE2 JUMP JUMPDEST PUSH1 0x0 SLOAD PUSH1 0x1 PUSH1 0x1 PUSH1 0xA0 SHL SUB SWAP1 DUP2 AND SWAP2 AND EQ PUSH2 0x2561 JUMPI PUSH1 0x40 MLOAD PUSH3 0x461BCD PUSH1 0xE5 SHL DUP2 MSTORE PUSH1 0x4 ADD PUSH2 0xCEC SWAP1 PUSH2 0x4F8C JUMP JUMPDEST PUSH2 0x1B85 PUSH2 0x3DF7 JUMP JUMPDEST PUSH1 0x0 PUSH1 0x9 DUP4 DUP2 SLOAD DUP2 LT PUSH2 0x2578 JUMPI INVALID JUMPDEST PUSH1 0x0 SWAP2 DUP3 MSTORE PUSH1 0x20 SWAP1 SWAP2 KECCAK256 ADD SLOAD PUSH1 0x40 MLOAD PUSH4 0x27B2595F PUSH1 0xE1 SHL DUP2 MSTORE PUSH1 0x1 PUSH1 0x1 PUSH1 0xA0 SHL SUB SWAP1 SWAP2 AND SWAP1 PUSH4 0x4F64B2BE SWAP1 PUSH2 0x23B5 SWAP1 DUP6 SWAP1 PUSH1 0x4 ADD PUSH2 0x4C43 JUMP JUMPDEST PUSH1 0x9 DUP2 DUP2 SLOAD DUP2 LT PUSH2 0x1DA4 JUMPI INVALID JUMPDEST PUSH1 0x4 PUSH1 0x20 SWAP1 DUP2 MSTORE PUSH1 0x0 SWAP3 DUP4 MSTORE PUSH1 0x40 DUP1 DUP5 KECCAK256 SWAP1 SWAP2 MSTORE SWAP1 DUP3 MSTORE SWAP1 KECCAK256 SLOAD DUP2 JUMP JUMPDEST PUSH1 0x0 SLOAD PUSH1 0x1 PUSH1 0x1 PUSH1 0xA0 SHL SUB AND SWAP1 JUMP JUMPDEST PUSH1 0x0 PUSH1 0x9 DUP3 DUP2 SLOAD DUP2 LT PUSH2 0x25F9 JUMPI INVALID JUMPDEST PUSH1 0x0 SWAP2 DUP3 MSTORE PUSH1 0x20 SWAP2 DUP3 SWAP1 KECCAK256 ADD SLOAD PUSH1 0x40 DUP1 MLOAD PUSH4 0xD082E381 PUSH1 0xE0 SHL DUP2 MSTORE SWAP1 MLOAD PUSH1 0x1 PUSH1 0x1 PUSH1 0xA0 SHL SUB SWAP1 SWAP3 AND SWAP3 PUSH4 0xD082E381 SWAP3 PUSH1 0x4 DUP1 DUP5 ADD SWAP4 DUP3 SWAP1 SUB ADD DUP2 DUP7 DUP1 EXTCODESIZE ISZERO DUP1 ISZERO PUSH2 0xC84 JUMPI PUSH1 0x0 DUP1 REVERT JUMPDEST PUSH1 0xE SLOAD PUSH1 0xFF AND DUP2 JUMP JUMPDEST PUSH1 0x0 PUSH2 0xCBC PUSH2 0x2671 PUSH1 0xD SLOAD PUSH2 0x266B PUSH1 0xC SLOAD DUP7 PUSH2 0x3B41 SWAP1 SWAP2 SWAP1 PUSH4 0xFFFFFFFF AND JUMP JUMPDEST SWAP1 PUSH2 0x3E5D JUMP JUMPDEST DUP4 SWAP1 PUSH2 0x3B7B JUMP JUMPDEST PUSH2 0x2680 PUSH2 0x3BE2 JUMP JUMPDEST PUSH1 0x0 SLOAD PUSH1 0x1 PUSH1 0x1 PUSH1 0xA0 SHL SUB SWAP1 DUP2 AND SWAP2 AND EQ PUSH2 0x26AD JUMPI PUSH1 0x40 MLOAD PUSH3 0x461BCD PUSH1 0xE5 SHL DUP2 MSTORE PUSH1 0x4 ADD PUSH2 0xCEC SWAP1 PUSH2 0x4F8C JUMP JUMPDEST PUSH1 0x1 PUSH1 0x1 PUSH1 0xA0 SHL SUB AND PUSH1 0x0 SWAP1 DUP2 MSTORE PUSH1 0xA PUSH1 0x20 MSTORE PUSH1 0x40 SWAP1 KECCAK256 DUP1 SLOAD PUSH1 0xFF NOT AND PUSH1 0x2 OR SWAP1 SSTORE JUMP JUMPDEST PUSH2 0x26D9 PUSH2 0x3BE2 JUMP JUMPDEST PUSH1 0x0 SLOAD PUSH1 0x1 PUSH1 0x1 PUSH1 0xA0 SHL SUB SWAP1 DUP2 AND SWAP2 AND EQ PUSH2 0x2706 JUMPI PUSH1 0x40 MLOAD PUSH3 0x461BCD PUSH1 0xE5 SHL DUP2 MSTORE PUSH1 0x4 ADD PUSH2 0xCEC SWAP1 PUSH2 0x4F8C JUMP JUMPDEST PUSH1 0xE DUP1 SLOAD PUSH1 0xFF NOT AND SWAP2 ISZERO ISZERO SWAP2 SWAP1 SWAP2 OR SWAP1 SSTORE JUMP JUMPDEST PUSH1 0xC SLOAD DUP2 JUMP JUMPDEST PUSH1 0x0 SLOAD PUSH1 0x1 PUSH1 0xA0 SHL SWAP1 DIV PUSH1 0xFF AND ISZERO PUSH2 0x2749 JUMPI PUSH1 0x40 MLOAD PUSH3 0x461BCD PUSH1 0xE5 SHL DUP2 MSTORE PUSH1 0x4 ADD PUSH2 0xCEC SWAP1 PUSH2 0x4EA2 JUMP JUMPDEST PUSH1 0x0 SLOAD PUSH1 0x1 PUSH1 0xA8 SHL SWAP1 DIV PUSH1 0xFF AND PUSH2 0x2772 JUMPI PUSH1 0x40 MLOAD PUSH3 0x461BCD PUSH1 0xE5 SHL DUP2 MSTORE PUSH1 0x4 ADD PUSH2 0xCEC SWAP1 PUSH2 0x516A JUMP JUMPDEST PUSH1 0x0 DUP1 SLOAD PUSH1 0xFF PUSH1 0xA8 SHL NOT AND SWAP1 SSTORE PUSH1 0x9 DUP1 SLOAD PUSH1 0x1 SWAP2 PUSH2 0x27AE SWAP2 DUP9 SWAP1 DUP2 LT PUSH2 0x2794 JUMPI INVALID JUMPDEST PUSH1 0x0 SWAP2 DUP3 MSTORE PUSH1 0x20 SWAP1 SWAP2 KECCAK256 ADD SLOAD PUSH1 0x1 PUSH1 0x1 PUSH1 0xA0 SHL SUB AND PUSH2 0x3AE2 JUMP JUMPDEST PUSH1 0xFF AND EQ PUSH2 0x27CE JUMPI PUSH1 0x40 MLOAD PUSH3 0x461BCD PUSH1 0xE5 SHL DUP2 MSTORE PUSH1 0x4 ADD PUSH2 0xCEC SWAP1 PUSH2 0x51A1 JUMP JUMPDEST PUSH1 0x60 PUSH1 0x9 DUP7 DUP2 SLOAD DUP2 LT PUSH2 0x27DD JUMPI INVALID JUMPDEST PUSH1 0x0 SWAP2 DUP3 MSTORE PUSH1 0x20 SWAP1 SWAP2 KECCAK256 ADD SLOAD PUSH1 0x40 MLOAD PUSH4 0xDBB03711 PUSH1 0xE0 SHL DUP2 MSTORE PUSH1 0x1 PUSH1 0x1 PUSH1 0xA0 SHL SUB SWAP1 SWAP2 AND SWAP1 PUSH4 0xDBB03711 SWAP1 PUSH2 0x281C SWAP1 CALLER SWAP1 DUP10 SWAP1 DUP10 SWAP1 DUP10 SWAP1 PUSH1 0x4 ADD PUSH2 0x4A58 JUMP JUMPDEST PUSH1 0x0 PUSH1 0x40 MLOAD DUP1 DUP4 SUB DUP2 PUSH1 0x0 DUP8 DUP1 EXTCODESIZE ISZERO DUP1 ISZERO PUSH2 0x2836 JUMPI PUSH1 0x0 DUP1 REVERT JUMPDEST POP GAS CALL ISZERO DUP1 ISZERO PUSH2 0x284A JUMPI RETURNDATASIZE PUSH1 0x0 DUP1 RETURNDATACOPY RETURNDATASIZE PUSH1 0x0 REVERT JUMPDEST POP POP POP POP PUSH1 0x40 MLOAD RETURNDATASIZE PUSH1 0x0 DUP3 RETURNDATACOPY PUSH1 0x1F RETURNDATASIZE SWAP1 DUP2 ADD PUSH1 0x1F NOT AND DUP3 ADD PUSH1 0x40 MSTORE PUSH2 0x2872 SWAP2 SWAP1 DUP2 ADD SWAP1 PUSH2 0x4362 JUMP JUMPDEST SWAP1 POP PUSH1 0x60 PUSH2 0x2880 DUP8 DUP4 PUSH2 0x15D0 JUMP JUMPDEST SWAP1 POP DUP7 CALLER PUSH1 0x1 PUSH1 0x1 PUSH1 0xA0 SHL SUB AND PUSH32 0x8F64CA6A175F84DF6403FBA2601D4C5C734EE77F375196788648AEDC05FF57D5 DUP4 PUSH1 0x0 DUP2 MLOAD DUP2 LT PUSH2 0x28BB JUMPI INVALID JUMPDEST PUSH1 0x20 MUL PUSH1 0x20 ADD ADD MLOAD PUSH1 0x0 ADD MLOAD PUSH1 0x40 MLOAD PUSH2 0x28D4 SWAP2 SWAP1 PUSH2 0x4C43 JUMP JUMPDEST PUSH1 0x40 MLOAD DUP1 SWAP2 SUB SWAP1 LOG3 PUSH1 0x0 DUP8 DUP2 MSTORE PUSH1 0x5 PUSH1 0x20 MSTORE PUSH1 0x40 DUP2 KECCAK256 DUP3 MLOAD DUP6 SWAP3 SWAP1 DUP5 SWAP1 DUP3 SWAP1 PUSH2 0x28F9 JUMPI INVALID JUMPDEST PUSH1 0x20 SWAP1 DUP2 MUL SWAP2 SWAP1 SWAP2 ADD DUP2 ADD MLOAD MLOAD DUP3 MSTORE DUP2 ADD SWAP2 SWAP1 SWAP2 MSTORE PUSH1 0x40 ADD PUSH1 0x0 KECCAK256 SSTORE PUSH1 0x3 SLOAD PUSH1 0x1 PUSH1 0xA0 SHL SWAP1 DIV PUSH1 0xFF AND ISZERO PUSH2 0x2B5F JUMPI PUSH1 0x0 JUMPDEST DUP2 MLOAD DUP2 LT ISZERO PUSH2 0x2B5D JUMPI DUP8 CALLER PUSH1 0x1 PUSH1 0x1 PUSH1 0xA0 SHL SUB AND PUSH32 0xAF1B9133E30ADA3FEE6CB47A46B80B2DFEE808DC5BC919F712BEB9EE33B465D6 DUP5 DUP5 DUP2 MLOAD DUP2 LT PUSH2 0x296B JUMPI INVALID JUMPDEST PUSH1 0x20 MUL PUSH1 0x20 ADD ADD MLOAD PUSH1 0x40 ADD MLOAD PUSH1 0x40 MLOAD PUSH2 0x2984 SWAP2 SWAP1 PUSH2 0x4C43 JUMP JUMPDEST PUSH1 0x40 MLOAD DUP1 SWAP2 SUB SWAP1 LOG3 PUSH1 0x1 SLOAD PUSH1 0x2 SLOAD DUP4 MLOAD PUSH1 0x1 PUSH1 0x1 PUSH1 0xA0 SHL SUB SWAP3 DUP4 AND SWAP3 PUSH4 0xB9F45ADB SWAP3 ADDRESS SWAP3 PUSH4 0x638D3683 PUSH1 0xE1 SHL SWAP3 SWAP1 SWAP2 AND SWAP1 PUSH4 0xE34CA65D PUSH1 0xE0 SHL SWAP1 DUP15 SWAP1 DUP10 SWAP1 DUP10 SWAP1 DUP2 LT PUSH2 0x29CC JUMPI INVALID JUMPDEST PUSH1 0x20 MUL PUSH1 0x20 ADD ADD MLOAD PUSH1 0x40 ADD MLOAD DUP10 DUP10 DUP2 MLOAD DUP2 LT PUSH2 0x29E4 JUMPI INVALID JUMPDEST PUSH1 0x20 MUL PUSH1 0x20 ADD ADD MLOAD PUSH1 0x80 ADD MLOAD PUSH1 0x0 PUSH1 0x2 DUP2 LT PUSH2 0x29FC JUMPI INVALID JUMPDEST PUSH1 0x20 MUL ADD MLOAD DUP11 DUP11 DUP2 MLOAD DUP2 LT PUSH2 0x2A0D JUMPI INVALID JUMPDEST PUSH1 0x20 MUL PUSH1 0x20 ADD ADD MLOAD PUSH1 0x80 ADD MLOAD PUSH1 0x1 PUSH1 0x2 DUP2 LT PUSH2 0x2A25 JUMPI INVALID JUMPDEST PUSH1 0x20 MUL ADD MLOAD DUP12 DUP12 DUP2 MLOAD DUP2 LT PUSH2 0x2A36 JUMPI INVALID JUMPDEST PUSH1 0x20 MUL PUSH1 0x20 ADD ADD MLOAD PUSH1 0xA0 ADD MLOAD PUSH1 0x0 PUSH1 0x3 DUP2 LT PUSH2 0x2A4E JUMPI INVALID JUMPDEST PUSH1 0x20 MUL ADD MLOAD PUSH1 0x40 MLOAD PUSH1 0x24 ADD PUSH2 0x2A67 SWAP6 SWAP5 SWAP4 SWAP3 SWAP2 SWAP1 PUSH2 0x5250 JUMP JUMPDEST PUSH1 0x40 DUP1 MLOAD PUSH1 0x1F NOT DUP2 DUP5 SUB ADD DUP2 MSTORE SWAP2 DUP2 MSTORE PUSH1 0x20 DUP3 ADD DUP1 MLOAD PUSH1 0x1 PUSH1 0x1 PUSH1 0xE0 SHL SUB AND PUSH1 0x1 PUSH1 0x1 PUSH1 0xE0 SHL SUB NOT SWAP5 DUP6 AND OR SWAP1 MSTORE PUSH1 0x3 SLOAD SWAP1 MLOAD PUSH1 0xE0 DUP9 SWAP1 SHL SWAP1 SWAP4 AND DUP4 MSTORE PUSH2 0x2ABF SWAP6 SWAP5 SWAP4 SWAP3 PUSH1 0x1 PUSH1 0x1 PUSH1 0xA0 SHL SUB SWAP1 SWAP2 AND SWAP1 PUSH1 0x4 ADD PUSH2 0x4B27 JUMP JUMPDEST PUSH1 0x20 PUSH1 0x40 MLOAD DUP1 DUP4 SUB DUP2 PUSH1 0x0 DUP8 DUP1 EXTCODESIZE ISZERO DUP1 ISZERO PUSH2 0x2AD9 JUMPI PUSH1 0x0 DUP1 REVERT JUMPDEST POP GAS CALL ISZERO DUP1 ISZERO PUSH2 0x2AED JUMPI RETURNDATASIZE PUSH1 0x0 DUP1 RETURNDATACOPY RETURNDATASIZE PUSH1 0x0 REVERT JUMPDEST POP POP POP POP PUSH1 0x40 MLOAD RETURNDATASIZE PUSH1 0x1F NOT PUSH1 0x1F DUP3 ADD AND DUP3 ADD DUP1 PUSH1 0x40 MSTORE POP DUP2 ADD SWAP1 PUSH2 0x2B11 SWAP2 SWAP1 PUSH2 0x43D4 JUMP JUMPDEST PUSH1 0x4 PUSH1 0x0 DUP11 DUP2 MSTORE PUSH1 0x20 ADD SWAP1 DUP2 MSTORE PUSH1 0x20 ADD PUSH1 0x0 KECCAK256 PUSH1 0x0 DUP5 DUP5 DUP2 MLOAD DUP2 LT PUSH2 0x2B32 JUMPI INVALID JUMPDEST PUSH1 0x20 MUL PUSH1 0x20 ADD ADD MLOAD PUSH1 0x40 ADD MLOAD DUP2 MSTORE PUSH1 0x20 ADD SWAP1 DUP2 MSTORE PUSH1 0x20 ADD PUSH1 0x0 KECCAK256 DUP2 SWAP1 SSTORE POP DUP1 DUP1 PUSH1 0x1 ADD SWAP2 POP POP PUSH2 0x292A JUMP JUMPDEST POP JUMPDEST POP POP PUSH1 0x0 DUP1 SLOAD PUSH1 0xFF PUSH1 0xA8 SHL NOT AND PUSH1 0x1 PUSH1 0xA8 SHL OR SWAP1 SSTORE POP POP POP POP POP JUMP JUMPDEST PUSH2 0x2B83 PUSH2 0x3BE2 JUMP JUMPDEST PUSH1 0x0 SLOAD PUSH1 0x1 PUSH1 0x1 PUSH1 0xA0 SHL SUB SWAP1 DUP2 AND SWAP2 AND EQ PUSH2 0x2BB0 JUMPI PUSH1 0x40 MLOAD PUSH3 0x461BCD PUSH1 0xE5 SHL DUP2 MSTORE PUSH1 0x4 ADD PUSH2 0xCEC SWAP1 PUSH2 0x4F8C JUMP JUMPDEST PUSH2 0x2BBA DUP3 DUP3 PUSH2 0x3E9F JUMP JUMPDEST POP POP JUMP JUMPDEST PUSH1 0x1 DUP2 JUMP JUMPDEST PUSH1 0x8 PUSH1 0x20 MSTORE PUSH1 0x0 SWAP1 DUP2 MSTORE PUSH1 0x40 SWAP1 KECCAK256 SLOAD PUSH1 0xFF AND DUP2 JUMP JUMPDEST PUSH1 0x0 SLOAD PUSH1 0x1 PUSH1 0xA8 SHL SWAP1 DIV PUSH1 0xFF AND PUSH2 0x2C01 JUMPI PUSH1 0x40 MLOAD PUSH3 0x461BCD PUSH1 0xE5 SHL DUP2 MSTORE PUSH1 0x4 ADD PUSH2 0xCEC SWAP1 PUSH2 0x516A JUMP JUMPDEST PUSH1 0x0 DUP1 SLOAD PUSH1 0xFF PUSH1 0xA8 SHL NOT AND SWAP1 DUP2 SWAP1 SSTORE PUSH1 0x1 PUSH1 0xA0 SHL SWAP1 DIV PUSH1 0xFF AND ISZERO PUSH2 0x2C37 JUMPI PUSH1 0x40 MLOAD PUSH3 0x461BCD PUSH1 0xE5 SHL DUP2 MSTORE PUSH1 0x4 ADD PUSH2 0xCEC SWAP1 PUSH2 0x4EA2 JUMP JUMPDEST PUSH1 0x1 PUSH1 0x1 PUSH1 0xA0 SHL SUB DUP2 AND PUSH1 0x0 SWAP1 DUP2 MSTORE PUSH1 0x6 PUSH1 0x20 MSTORE PUSH1 0x40 SWAP1 KECCAK256 SLOAD CALLVALUE SWAP1 PUSH2 0x2C5C SWAP1 DUP3 PUSH2 0x3BBD JUMP JUMPDEST PUSH1 0x1 PUSH1 0x1 PUSH1 0xA0 SHL SUB DUP1 DUP5 AND PUSH1 0x0 DUP2 DUP2 MSTORE PUSH1 0x6 PUSH1 0x20 MSTORE PUSH1 0x40 SWAP1 DUP2 SWAP1 KECCAK256 SWAP4 SWAP1 SWAP4 SSTORE PUSH1 0x3 SLOAD SWAP3 MLOAD SWAP1 SWAP3 PUSH32 0xD0EFD3E06609FAF7821CA1899AFE6F2AC4CE1514E0935434607CA0E80A81D0F2 SWAP3 PUSH2 0x2CB2 SWAP3 SWAP2 AND SWAP1 DUP6 SWAP1 PUSH2 0x4AAD JUMP JUMPDEST PUSH1 0x40 MLOAD DUP1 SWAP2 SUB SWAP1 LOG2 POP POP PUSH1 0x0 DUP1 SLOAD PUSH1 0xFF PUSH1 0xA8 SHL NOT AND PUSH1 0x1 PUSH1 0xA8 SHL OR SWAP1 SSTORE JUMP JUMPDEST PUSH1 0x0 PUSH1 0x9 DUP3 DUP2 SLOAD DUP2 LT PUSH2 0x2CE0 JUMPI INVALID JUMPDEST PUSH1 0x0 SWAP2 DUP3 MSTORE PUSH1 0x20 SWAP2 DUP3 SWAP1 KECCAK256 ADD SLOAD PUSH1 0x40 DUP1 MLOAD PUSH4 0xD92FC67B PUSH1 0xE0 SHL DUP2 MSTORE SWAP1 MLOAD PUSH1 0x1 PUSH1 0x1 PUSH1 0xA0 SHL SUB SWAP1 SWAP3 AND SWAP3 PUSH4 0xD92FC67B SWAP3 PUSH1 0x4 DUP1 DUP5 ADD SWAP4 DUP3 SWAP1 SUB ADD DUP2 DUP7 DUP1 EXTCODESIZE ISZERO DUP1 ISZERO PUSH2 0xC84 JUMPI PUSH1 0x0 DUP1 REVERT JUMPDEST PUSH1 0x0 PUSH1 0x9 DUP4 DUP2 SLOAD DUP2 LT PUSH2 0x2D38 JUMPI INVALID JUMPDEST PUSH1 0x0 SWAP2 DUP3 MSTORE PUSH1 0x20 SWAP1 SWAP2 KECCAK256 ADD SLOAD PUSH1 0x40 MLOAD PUSH4 0x3F2ACB85 PUSH1 0xE2 SHL DUP2 MSTORE PUSH1 0x1 PUSH1 0x1 PUSH1 0xA0 SHL SUB SWAP1 SWAP2 AND SWAP1 PUSH4 0xFCAB2E14 SWAP1 PUSH2 0x2267 SWAP1 DUP6 SWAP1 PUSH1 0x4 ADD PUSH2 0x4A44 JUMP JUMPDEST PUSH1 0x60 PUSH1 0x0 PUSH1 0x9 DUP6 DUP2 SLOAD DUP2 LT PUSH2 0x2D82 JUMPI INVALID JUMPDEST PUSH1 0x0 SWAP2 DUP3 MSTORE PUSH1 0x20 SWAP2 DUP3 SWAP1 KECCAK256 ADD SLOAD PUSH1 0x40 DUP1 MLOAD PUSH4 0xCC72673 PUSH1 0xE1 SHL DUP2 MSTORE SWAP1 MLOAD PUSH1 0x1 PUSH1 0x1 PUSH1 0xA0 SHL SUB SWAP1 SWAP3 AND SWAP4 POP DUP4 SWAP3 PUSH4 0x198E4CE6 SWAP3 PUSH1 0x4 DUP1 DUP5 ADD SWAP4 DUP3 SWAP1 SUB ADD DUP2 DUP7 DUP1 EXTCODESIZE ISZERO DUP1 ISZERO PUSH2 0x2DCE JUMPI PUSH1 0x0 DUP1 REVERT JUMPDEST POP GAS STATICCALL ISZERO DUP1 ISZERO PUSH2 0x2DE2 JUMPI RETURNDATASIZE PUSH1 0x0 DUP1 RETURNDATACOPY RETURNDATASIZE PUSH1 0x0 REVERT JUMPDEST POP POP POP POP PUSH1 0x40 MLOAD RETURNDATASIZE PUSH1 0x1F NOT PUSH1 0x1F DUP3 ADD AND DUP3 ADD DUP1 PUSH1 0x40 MSTORE POP DUP2 ADD SWAP1 PUSH2 0x2E06 SWAP2 SWAP1 PUSH2 0x43D4 JUMP JUMPDEST DUP4 GT ISZERO PUSH2 0x2E25 JUMPI PUSH1 0x40 MLOAD PUSH3 0x461BCD PUSH1 0xE5 SHL DUP2 MSTORE PUSH1 0x4 ADD PUSH2 0xCEC SWAP1 PUSH2 0x50D9 JUMP JUMPDEST PUSH1 0x60 PUSH2 0x2E36 PUSH1 0x1 PUSH2 0x11EE DUP7 DUP9 PUSH2 0x3B7B JUMP JUMPDEST PUSH1 0x1 PUSH1 0x1 PUSH1 0x40 SHL SUB DUP2 GT DUP1 ISZERO PUSH2 0x2E4B JUMPI PUSH1 0x0 DUP1 REVERT JUMPDEST POP PUSH1 0x40 MLOAD SWAP1 DUP1 DUP3 MSTORE DUP1 PUSH1 0x20 MUL PUSH1 0x20 ADD DUP3 ADD PUSH1 0x40 MSTORE DUP1 ISZERO PUSH2 0x2E85 JUMPI DUP2 PUSH1 0x20 ADD JUMPDEST PUSH2 0x2E72 PUSH2 0x40A8 JUMP JUMPDEST DUP2 MSTORE PUSH1 0x20 ADD SWAP1 PUSH1 0x1 SWAP1 SUB SWAP1 DUP2 PUSH2 0x2E6A JUMPI SWAP1 POP JUMPDEST POP SWAP1 POP DUP5 JUMPDEST DUP5 DUP2 GT PUSH2 0x1913 JUMPI PUSH1 0x40 MLOAD PUSH4 0xA5F40303 PUSH1 0xE0 SHL DUP2 MSTORE PUSH1 0x1 PUSH1 0x1 PUSH1 0xA0 SHL SUB DUP5 AND SWAP1 PUSH4 0x21603F43 SWAP1 DUP3 SWAP1 PUSH4 0xA5F40303 SWAP1 PUSH2 0x2EC5 SWAP1 DUP7 SWAP1 PUSH1 0x4 ADD PUSH2 0x4C43 JUMP JUMPDEST PUSH1 0x20 PUSH1 0x40 MLOAD DUP1 DUP4 SUB DUP2 DUP7 DUP1 EXTCODESIZE ISZERO DUP1 ISZERO PUSH2 0x2EDD JUMPI PUSH1 0x0 DUP1 REVERT JUMPDEST POP GAS STATICCALL ISZERO DUP1 ISZERO PUSH2 0x2EF1 JUMPI RETURNDATASIZE PUSH1 0x0 DUP1 RETURNDATACOPY RETURNDATASIZE PUSH1 0x0 REVERT JUMPDEST POP POP POP POP PUSH1 0x40 MLOAD RETURNDATASIZE PUSH1 0x1F NOT PUSH1 0x1F DUP3 ADD AND DUP3 ADD DUP1 PUSH1 0x40 MSTORE POP DUP2 ADD SWAP1 PUSH2 0x2F15 SWAP2 SWAP1 PUSH2 0x43D4 JUMP JUMPDEST PUSH1 0x40 MLOAD DUP3 PUSH4 0xFFFFFFFF AND PUSH1 0xE0 SHL DUP2 MSTORE PUSH1 0x4 ADD PUSH2 0x2F31 SWAP2 SWAP1 PUSH2 0x4C43 JUMP JUMPDEST PUSH1 0x0 PUSH1 0x40 MLOAD DUP1 DUP4 SUB DUP2 DUP7 DUP1 EXTCODESIZE ISZERO DUP1 ISZERO PUSH2 0x2F49 JUMPI PUSH1 0x0 DUP1 REVERT JUMPDEST POP GAS STATICCALL ISZERO DUP1 ISZERO PUSH2 0x2F5D JUMPI RETURNDATASIZE PUSH1 0x0 DUP1 RETURNDATACOPY RETURNDATASIZE PUSH1 0x0 REVERT JUMPDEST POP POP POP POP PUSH1 0x40 MLOAD RETURNDATASIZE PUSH1 0x0 DUP3 RETURNDATACOPY PUSH1 0x1F RETURNDATASIZE SWAP1 DUP2 ADD PUSH1 0x1F NOT AND DUP3 ADD PUSH1 0x40 MSTORE PUSH2 0x2F85 SWAP2 SWAP1 DUP2 ADD SWAP1 PUSH2 0x44A8 JUMP JUMPDEST DUP3 PUSH2 0x2F90 DUP4 DUP10 PUSH2 0x3B7B JUMP JUMPDEST DUP2 MLOAD DUP2 LT PUSH2 0x2F9A JUMPI INVALID JUMPDEST PUSH1 0x20 SWAP1 DUP2 MUL SWAP2 SWAP1 SWAP2 ADD ADD MSTORE PUSH1 0x1 ADD PUSH2 0x2E8A JUMP JUMPDEST PUSH1 0x0 SLOAD PUSH1 0x1 PUSH1 0xA0 SHL SWAP1 DIV PUSH1 0xFF AND ISZERO PUSH2 0x2FD7 JUMPI PUSH1 0x40 MLOAD PUSH3 0x461BCD PUSH1 0xE5 SHL DUP2 MSTORE PUSH1 0x4 ADD PUSH2 0xCEC SWAP1 PUSH2 0x4EA2 JUMP JUMPDEST PUSH1 0x1 SLOAD PUSH1 0x1 PUSH1 0x1 PUSH1 0xA0 SHL SUB AND CALLER EQ PUSH2 0x3001 JUMPI PUSH1 0x40 MLOAD PUSH3 0x461BCD PUSH1 0xE5 SHL DUP2 MSTORE PUSH1 0x4 ADD PUSH2 0xCEC SWAP1 PUSH2 0x4D94 JUMP JUMPDEST PUSH1 0x3 SLOAD PUSH1 0x1 PUSH1 0xA0 SHL SWAP1 DIV PUSH1 0xFF AND PUSH2 0x302A JUMPI PUSH1 0x40 MLOAD PUSH3 0x461BCD PUSH1 0xE5 SHL DUP2 MSTORE PUSH1 0x4 ADD PUSH2 0xCEC SWAP1 PUSH2 0x5097 JUMP JUMPDEST PUSH1 0x0 SLOAD PUSH1 0x1 PUSH1 0xA8 SHL SWAP1 DIV PUSH1 0xFF AND PUSH2 0x3053 JUMPI PUSH1 0x40 MLOAD PUSH3 0x461BCD PUSH1 0xE5 SHL DUP2 MSTORE PUSH1 0x4 ADD PUSH2 0xCEC SWAP1 PUSH2 0x516A JUMP JUMPDEST PUSH1 0x0 DUP1 SLOAD PUSH1 0xFF PUSH1 0xA8 SHL NOT AND DUP2 SSTORE PUSH1 0x1 PUSH1 0x1 PUSH1 0xA0 SHL SUB DUP4 AND DUP2 MSTORE PUSH1 0x8 PUSH1 0x20 MSTORE PUSH1 0x40 SWAP1 KECCAK256 SLOAD PUSH1 0xFF AND PUSH2 0x3095 JUMPI PUSH1 0x40 MLOAD PUSH3 0x461BCD PUSH1 0xE5 SHL DUP2 MSTORE PUSH1 0x4 ADD PUSH2 0xCEC SWAP1 PUSH2 0x4CD2 JUMP JUMPDEST PUSH2 0x309D PUSH2 0x40A8 JUMP JUMPDEST PUSH2 0x30A7 DUP6 DUP6 PUSH2 0x214E JUMP JUMPDEST PUSH1 0x0 DUP7 DUP2 MSTORE PUSH1 0x5 PUSH1 0x20 SWAP1 DUP2 MSTORE PUSH1 0x40 DUP1 DUP4 KECCAK256 DUP5 MLOAD DUP5 MSTORE SWAP1 SWAP2 MSTORE SWAP1 KECCAK256 SLOAD SWAP1 SWAP2 POP ISZERO PUSH2 0x3104 JUMPI PUSH1 0x0 DUP6 DUP2 MSTORE PUSH1 0x5 PUSH1 0x20 SWAP1 DUP2 MSTORE PUSH1 0x40 DUP1 DUP4 KECCAK256 DUP5 MLOAD DUP5 MSTORE SWAP1 SWAP2 MSTORE SWAP1 KECCAK256 SLOAD GASPRICE GT ISZERO PUSH2 0x3104 JUMPI PUSH1 0x40 MLOAD PUSH3 0x461BCD PUSH1 0xE5 SHL DUP2 MSTORE PUSH1 0x4 ADD PUSH2 0xCEC SWAP1 PUSH2 0x4C8D JUMP JUMPDEST PUSH2 0x310C PUSH2 0x40A8 JUMP JUMPDEST PUSH1 0x9 DUP7 DUP2 SLOAD DUP2 LT PUSH2 0x3119 JUMPI INVALID JUMPDEST PUSH1 0x0 SWAP2 DUP3 MSTORE PUSH1 0x20 SWAP1 SWAP2 KECCAK256 ADD SLOAD PUSH1 0x40 MLOAD PUSH4 0x2CA5159F PUSH1 0xE1 SHL DUP2 MSTORE PUSH1 0x1 PUSH1 0x1 PUSH1 0xA0 SHL SUB SWAP1 SWAP2 AND SWAP1 PUSH4 0x594A2B3E SWAP1 PUSH2 0x3158 SWAP1 CALLER SWAP1 DUP10 SWAP1 DUP10 SWAP1 DUP10 SWAP1 PUSH1 0x4 ADD PUSH2 0x4AC6 JUMP JUMPDEST PUSH1 0x0 PUSH1 0x40 MLOAD DUP1 DUP4 SUB DUP2 PUSH1 0x0 DUP8 DUP1 EXTCODESIZE ISZERO DUP1 ISZERO PUSH2 0x3172 JUMPI PUSH1 0x0 DUP1 REVERT JUMPDEST POP GAS CALL ISZERO DUP1 ISZERO PUSH2 0x3186 JUMPI RETURNDATASIZE PUSH1 0x0 DUP1 RETURNDATACOPY RETURNDATASIZE PUSH1 0x0 REVERT JUMPDEST POP POP POP POP PUSH1 0x40 MLOAD RETURNDATASIZE PUSH1 0x0 DUP3 RETURNDATACOPY PUSH1 0x1F RETURNDATASIZE SWAP1 DUP2 ADD PUSH1 0x1F NOT AND DUP3 ADD PUSH1 0x40 MSTORE PUSH2 0x31AE SWAP2 SWAP1 DUP2 ADD SWAP1 PUSH2 0x44A8 JUMP JUMPDEST PUSH1 0x0 DUP8 DUP2 MSTORE PUSH1 0x4 PUSH1 0x20 SWAP1 DUP2 MSTORE PUSH1 0x40 DUP1 DUP4 KECCAK256 DUP10 DUP5 MSTORE SWAP1 SWAP2 MSTORE SWAP1 KECCAK256 SLOAD SWAP1 SWAP2 POP ISZERO PUSH2 0x324C JUMPI PUSH1 0x1 SLOAD PUSH1 0x0 DUP8 DUP2 MSTORE PUSH1 0x4 PUSH1 0x20 DUP2 DUP2 MSTORE PUSH1 0x40 DUP1 DUP5 KECCAK256 DUP11 DUP6 MSTORE SWAP1 SWAP2 MSTORE SWAP2 DUP3 SWAP1 KECCAK256 SLOAD SWAP2 MLOAD PUSH4 0xEE8CA3B5 PUSH1 0xE0 SHL DUP2 MSTORE PUSH1 0x1 PUSH1 0x1 PUSH1 0xA0 SHL SUB SWAP1 SWAP4 AND SWAP3 PUSH4 0xEE8CA3B5 SWAP3 PUSH2 0x3219 SWAP3 SWAP1 SWAP2 ADD PUSH2 0x4C43 JUMP JUMPDEST PUSH1 0x0 PUSH1 0x40 MLOAD DUP1 DUP4 SUB DUP2 PUSH1 0x0 DUP8 DUP1 EXTCODESIZE ISZERO DUP1 ISZERO PUSH2 0x3233 JUMPI PUSH1 0x0 DUP1 REVERT JUMPDEST POP GAS CALL ISZERO DUP1 ISZERO PUSH2 0x3247 JUMPI RETURNDATASIZE PUSH1 0x0 DUP1 RETURNDATACOPY RETURNDATASIZE PUSH1 0x0 REVERT JUMPDEST POP POP POP POP JUMPDEST PUSH1 0x0 PUSH1 0x9 DUP8 DUP2 SLOAD DUP2 LT PUSH2 0x325B JUMPI INVALID JUMPDEST PUSH1 0x0 SWAP2 DUP3 MSTORE PUSH1 0x20 SWAP1 SWAP2 KECCAK256 ADD SLOAD DUP4 MLOAD PUSH1 0x40 MLOAD PUSH4 0x31A9108F PUSH1 0xE1 SHL DUP2 MSTORE PUSH1 0x1 PUSH1 0x1 PUSH1 0xA0 SHL SUB SWAP1 SWAP3 AND SWAP2 PUSH4 0x6352211E SWAP2 PUSH2 0x3294 SWAP2 PUSH1 0x4 ADD PUSH2 0x4C43 JUMP JUMPDEST PUSH1 0x20 PUSH1 0x40 MLOAD DUP1 DUP4 SUB DUP2 DUP7 DUP1 EXTCODESIZE ISZERO DUP1 ISZERO PUSH2 0x32AC JUMPI PUSH1 0x0 DUP1 REVERT JUMPDEST POP GAS STATICCALL ISZERO DUP1 ISZERO PUSH2 0x32C0 JUMPI RETURNDATASIZE PUSH1 0x0 DUP1 RETURNDATACOPY RETURNDATASIZE PUSH1 0x0 REVERT JUMPDEST POP POP POP POP PUSH1 0x40 MLOAD RETURNDATASIZE PUSH1 0x1F NOT PUSH1 0x1F DUP3 ADD AND DUP3 ADD DUP1 PUSH1 0x40 MSTORE POP DUP2 ADD SWAP1 PUSH2 0x32E4 SWAP2 SWAP1 PUSH2 0x4346 JUMP JUMPDEST SWAP1 POP DUP3 PUSH1 0x0 ADD MLOAD DUP8 DUP3 PUSH1 0x1 PUSH1 0x1 PUSH1 0xA0 SHL SUB AND PUSH32 0x37AACCA185D8A700A40142541D808E10BC61CA82EB929CB3DF05DE903A64DC84 DUP10 PUSH1 0x40 MLOAD PUSH2 0x3325 SWAP2 SWAP1 PUSH2 0x4C43 JUMP JUMPDEST PUSH1 0x40 MLOAD DUP1 SWAP2 SUB SWAP1 LOG4 PUSH1 0x3 SLOAD PUSH1 0x1 PUSH1 0xA0 SHL SWAP1 DIV PUSH1 0xFF AND DUP1 ISZERO PUSH2 0x3349 JUMPI POP PUSH1 0x40 DUP3 ADD MLOAD ISZERO ISZERO JUMPDEST ISZERO PUSH2 0x34CC JUMPI DUP7 DUP2 PUSH1 0x1 PUSH1 0x1 PUSH1 0xA0 SHL SUB AND PUSH32 0xAF1B9133E30ADA3FEE6CB47A46B80B2DFEE808DC5BC919F712BEB9EE33B465D6 DUP5 PUSH1 0x40 ADD MLOAD PUSH1 0x40 MLOAD PUSH2 0x338C SWAP2 SWAP1 PUSH2 0x4C43 JUMP JUMPDEST PUSH1 0x40 MLOAD DUP1 SWAP2 SUB SWAP1 LOG3 PUSH1 0x1 SLOAD PUSH1 0x2 SLOAD PUSH1 0x40 DUP5 ADD MLOAD PUSH1 0x80 DUP6 ADD MLOAD PUSH1 0x1 PUSH1 0x1 PUSH1 0xA0 SHL SUB SWAP4 DUP5 AND SWAP4 PUSH4 0xB9F45ADB SWAP4 ADDRESS SWAP4 PUSH4 0x638D3683 PUSH1 0xE1 SHL SWAP4 SWAP3 SWAP1 SWAP2 AND SWAP2 PUSH4 0xE34CA65D PUSH1 0xE0 SHL SWAP2 DUP15 SWAP2 PUSH1 0x0 PUSH1 0x20 MUL ADD MLOAD PUSH1 0x80 DUP12 ADD MLOAD PUSH1 0x1 PUSH1 0x20 MUL ADD MLOAD PUSH1 0xA0 DUP13 ADD MLOAD PUSH1 0x0 PUSH1 0x20 MUL ADD MLOAD PUSH1 0x40 MLOAD PUSH1 0x24 ADD PUSH2 0x3404 SWAP6 SWAP5 SWAP4 SWAP3 SWAP2 SWAP1 PUSH2 0x5250 JUMP JUMPDEST PUSH1 0x40 DUP1 MLOAD PUSH1 0x1F NOT DUP2 DUP5 SUB ADD DUP2 MSTORE SWAP2 DUP2 MSTORE PUSH1 0x20 DUP3 ADD DUP1 MLOAD PUSH1 0x1 PUSH1 0x1 PUSH1 0xE0 SHL SUB AND PUSH1 0x1 PUSH1 0x1 PUSH1 0xE0 SHL SUB NOT SWAP5 DUP6 AND OR SWAP1 MSTORE PUSH1 0x3 SLOAD SWAP1 MLOAD PUSH1 0xE0 DUP9 SWAP1 SHL SWAP1 SWAP4 AND DUP4 MSTORE PUSH2 0x345C SWAP6 SWAP5 SWAP4 SWAP3 PUSH1 0x1 PUSH1 0x1 PUSH1 0xA0 SHL SUB SWAP1 SWAP2 AND SWAP1 PUSH1 0x4 ADD PUSH2 0x4B27 JUMP JUMPDEST PUSH1 0x20 PUSH1 0x40 MLOAD DUP1 DUP4 SUB DUP2 PUSH1 0x0 DUP8 DUP1 EXTCODESIZE ISZERO DUP1 ISZERO PUSH2 0x3476 JUMPI PUSH1 0x0 DUP1 REVERT JUMPDEST POP GAS CALL ISZERO DUP1 ISZERO PUSH2 0x348A JUMPI RETURNDATASIZE PUSH1 0x0 DUP1 RETURNDATACOPY RETURNDATASIZE PUSH1 0x0 REVERT JUMPDEST POP POP POP POP PUSH1 0x40 MLOAD RETURNDATASIZE PUSH1 0x1F NOT PUSH1 0x1F DUP3 ADD AND DUP3 ADD DUP1 PUSH1 0x40 MSTORE POP DUP2 ADD SWAP1 PUSH2 0x34AE SWAP2 SWAP1 PUSH2 0x43D4 JUMP JUMPDEST PUSH1 0x0 DUP9 DUP2 MSTORE PUSH1 0x4 PUSH1 0x20 SWAP1 DUP2 MSTORE PUSH1 0x40 DUP1 DUP4 KECCAK256 DUP7 DUP3 ADD MLOAD DUP5 MSTORE SWAP1 SWAP2 MSTORE SWAP1 KECCAK256 SSTORE JUMPDEST PUSH1 0x1 SLOAD PUSH1 0x40 DUP1 MLOAD PUSH4 0x5C08631B PUSH1 0xE1 SHL DUP2 MSTORE DUP2 MLOAD PUSH1 0x0 SWAP4 DUP5 SWAP4 PUSH1 0x1 PUSH1 0x1 PUSH1 0xA0 SHL SUB SWAP1 SWAP2 AND SWAP3 PUSH4 0xB810C636 SWAP3 PUSH1 0x4 DUP1 DUP4 ADD SWAP4 SWAP3 DUP3 SWAP1 SUB ADD DUP2 DUP7 DUP1 EXTCODESIZE ISZERO DUP1 ISZERO PUSH2 0x3511 JUMPI PUSH1 0x0 DUP1 REVERT JUMPDEST POP GAS STATICCALL ISZERO DUP1 ISZERO PUSH2 0x3525 JUMPI RETURNDATASIZE PUSH1 0x0 DUP1 RETURNDATACOPY RETURNDATASIZE PUSH1 0x0 REVERT JUMPDEST POP POP POP POP PUSH1 0x40 MLOAD RETURNDATASIZE PUSH1 0x1F NOT PUSH1 0x1F DUP3 ADD AND DUP3 ADD DUP1 PUSH1 0x40 MSTORE POP DUP2 ADD SWAP1 PUSH2 0x3549 SWAP2 SWAP1 PUSH2 0x45A7 JUMP JUMPDEST PUSH1 0x1 PUSH1 0x1 PUSH1 0xA0 SHL SUB DUP6 AND PUSH1 0x0 SWAP1 DUP2 MSTORE PUSH1 0x6 PUSH1 0x20 MSTORE PUSH1 0x40 SWAP1 KECCAK256 SLOAD SWAP2 SWAP4 POP SWAP2 POP DUP3 GT ISZERO PUSH2 0x3586 JUMPI PUSH1 0x40 MLOAD PUSH3 0x461BCD PUSH1 0xE5 SHL DUP2 MSTORE PUSH1 0x4 ADD PUSH2 0xCEC SWAP1 PUSH2 0x51E2 JUMP JUMPDEST PUSH1 0x1 PUSH1 0x1 PUSH1 0xA0 SHL SUB DUP4 AND PUSH1 0x0 SWAP1 DUP2 MSTORE PUSH1 0x6 PUSH1 0x20 MSTORE PUSH1 0x40 SWAP1 KECCAK256 SLOAD PUSH2 0x35A9 SWAP1 DUP4 PUSH2 0x3B7B JUMP JUMPDEST PUSH1 0x1 PUSH1 0x1 PUSH1 0xA0 SHL SUB DUP5 AND PUSH1 0x0 SWAP1 DUP2 MSTORE PUSH1 0x6 PUSH1 0x20 MSTORE PUSH1 0x40 SWAP1 KECCAK256 SSTORE PUSH2 0x35CC DUP3 DUP3 PUSH2 0x3ED4 JUMP JUMPDEST POP POP PUSH1 0x0 DUP1 SLOAD PUSH1 0xFF PUSH1 0xA8 SHL NOT AND PUSH1 0x1 PUSH1 0xA8 SHL OR SWAP1 SSTORE POP POP POP POP POP POP POP JUMP JUMPDEST PUSH1 0x5 PUSH1 0x20 SWAP1 DUP2 MSTORE PUSH1 0x0 SWAP3 DUP4 MSTORE PUSH1 0x40 DUP1 DUP5 KECCAK256 SWAP1 SWAP2 MSTORE SWAP1 DUP3 MSTORE SWAP1 KECCAK256 SLOAD DUP2 JUMP JUMPDEST PUSH2 0x360F PUSH2 0x3BE2 JUMP JUMPDEST PUSH1 0x0 SLOAD PUSH1 0x1 PUSH1 0x1 PUSH1 0xA0 SHL SUB SWAP1 DUP2 AND SWAP2 AND EQ PUSH2 0x363C JUMPI PUSH1 0x40 MLOAD PUSH3 0x461BCD PUSH1 0xE5 SHL DUP2 MSTORE PUSH1 0x4 ADD PUSH2 0xCEC SWAP1 PUSH2 0x4F8C JUMP JUMPDEST PUSH1 0x1 DUP1 SLOAD PUSH1 0x1 PUSH1 0x1 PUSH1 0xA0 SHL SUB SWAP5 DUP6 AND PUSH1 0x1 PUSH1 0x1 PUSH1 0xA0 SHL SUB NOT SWAP2 DUP3 AND OR SWAP1 SWAP2 SSTORE PUSH1 0x2 DUP1 SLOAD SWAP4 SWAP1 SWAP5 AND SWAP3 AND SWAP2 SWAP1 SWAP2 OR SWAP1 SWAP2 SSTORE PUSH1 0x3 DUP1 SLOAD SWAP2 ISZERO ISZERO PUSH1 0x1 PUSH1 0xA0 SHL MUL PUSH1 0xFF PUSH1 0xA0 SHL NOT SWAP1 SWAP3 AND SWAP2 SWAP1 SWAP2 OR SWAP1 SSTORE JUMP JUMPDEST PUSH1 0x60 PUSH1 0x9 DUP3 DUP2 SLOAD DUP2 LT PUSH2 0x3699 JUMPI INVALID JUMPDEST PUSH1 0x0 SWAP2 DUP3 MSTORE PUSH1 0x20 DUP3 KECCAK256 ADD SLOAD PUSH1 0x40 DUP1 MLOAD PUSH4 0x6C0360EB PUSH1 0xE0 SHL DUP2 MSTORE SWAP1 MLOAD PUSH1 0x1 PUSH1 0x1 PUSH1 0xA0 SHL SUB SWAP1 SWAP3 AND SWAP3 PUSH4 0x6C0360EB SWAP3 PUSH1 0x4 DUP1 DUP5 ADD SWAP4 DUP3 SWAP1 SUB ADD DUP2 DUP7 DUP1 EXTCODESIZE ISZERO DUP1 ISZERO PUSH2 0x36E0 JUMPI PUSH1 0x0 DUP1 REVERT JUMPDEST POP GAS STATICCALL ISZERO DUP1 ISZERO PUSH2 0x36F4 JUMPI RETURNDATASIZE PUSH1 0x0 DUP1 RETURNDATACOPY RETURNDATASIZE PUSH1 0x0 REVERT JUMPDEST POP POP POP POP PUSH1 0x40 MLOAD RETURNDATASIZE PUSH1 0x0 DUP3 RETURNDATACOPY PUSH1 0x1F RETURNDATASIZE SWAP1 DUP2 ADD PUSH1 0x1F NOT AND DUP3 ADD PUSH1 0x40 MSTORE PUSH2 0xCBC SWAP2 SWAP1 DUP2 ADD SWAP1 PUSH2 0x4436 JUMP JUMPDEST PUSH2 0x3724 PUSH2 0x3BE2 JUMP JUMPDEST PUSH1 0x0 SLOAD PUSH1 0x1 PUSH1 0x1 PUSH1 0xA0 SHL SUB SWAP1 DUP2 AND SWAP2 AND EQ PUSH2 0x3751 JUMPI PUSH1 0x40 MLOAD PUSH3 0x461BCD PUSH1 0xE5 SHL DUP2 MSTORE PUSH1 0x4 ADD PUSH2 0xCEC SWAP1 PUSH2 0x4F8C JUMP JUMPDEST PUSH1 0x9 DUP5 DUP2 SLOAD DUP2 LT PUSH2 0x375E JUMPI INVALID JUMPDEST PUSH1 0x0 SWAP2 DUP3 MSTORE PUSH1 0x20 SWAP1 SWAP2 KECCAK256 ADD SLOAD PUSH1 0x40 MLOAD PUSH4 0x48541EE1 PUSH1 0xE1 SHL DUP2 MSTORE PUSH1 0x1 PUSH1 0x1 PUSH1 0xA0 SHL SUB SWAP1 SWAP2 AND SWAP1 PUSH4 0x90A83DC2 SWAP1 PUSH2 0x379B SWAP1 DUP7 SWAP1 DUP7 SWAP1 DUP7 SWAP1 PUSH1 0x4 ADD PUSH2 0x4B03 JUMP JUMPDEST PUSH1 0x0 PUSH1 0x40 MLOAD DUP1 DUP4 SUB DUP2 PUSH1 0x0 DUP8 DUP1 EXTCODESIZE ISZERO DUP1 ISZERO PUSH2 0x37B5 JUMPI PUSH1 0x0 DUP1 REVERT JUMPDEST POP GAS CALL ISZERO DUP1 ISZERO PUSH2 0x37C9 JUMPI RETURNDATASIZE PUSH1 0x0 DUP1 RETURNDATACOPY RETURNDATASIZE PUSH1 0x0 REVERT JUMPDEST POP POP POP POP PUSH1 0x1 PUSH1 0x1 PUSH1 0xA0 SHL SUB DUP3 AND PUSH1 0x0 SWAP1 DUP2 MSTORE PUSH1 0x12 PUSH1 0x20 MSTORE PUSH1 0x40 SWAP1 KECCAK256 SLOAD PUSH1 0xFF AND PUSH2 0x3851 JUMPI PUSH1 0x11 DUP1 SLOAD PUSH1 0x1 DUP1 DUP3 ADD SWAP1 SWAP3 SSTORE PUSH32 0x31ECC21A745E3968A04E9570E4425BC18FA8019C68028196B546D1669C200C68 ADD DUP1 SLOAD PUSH1 0x1 PUSH1 0x1 PUSH1 0xA0 SHL SUB NOT AND PUSH1 0x1 PUSH1 0x1 PUSH1 0xA0 SHL SUB DUP6 AND SWAP1 DUP2 OR SWAP1 SWAP2 SSTORE PUSH1 0x0 SWAP1 DUP2 MSTORE PUSH1 0x12 PUSH1 0x20 MSTORE PUSH1 0x40 SWAP1 KECCAK256 DUP1 SLOAD PUSH1 0xFF NOT AND SWAP1 SWAP2 OR SWAP1 SSTORE JUMPDEST POP POP POP POP JUMP JUMPDEST PUSH2 0x385F PUSH2 0x3BE2 JUMP JUMPDEST PUSH1 0x0 SLOAD PUSH1 0x1 PUSH1 0x1 PUSH1 0xA0 SHL SUB SWAP1 DUP2 AND SWAP2 AND EQ PUSH2 0x388C JUMPI PUSH1 0x40 MLOAD PUSH3 0x461BCD PUSH1 0xE5 SHL DUP2 MSTORE PUSH1 0x4 ADD PUSH2 0xCEC SWAP1 PUSH2 0x4F8C JUMP JUMPDEST PUSH1 0x9 DUP3 DUP2 SLOAD DUP2 LT PUSH2 0x3899 JUMPI INVALID JUMPDEST PUSH1 0x0 SWAP2 DUP3 MSTORE PUSH1 0x20 SWAP1 SWAP2 KECCAK256 ADD SLOAD PUSH1 0x40 MLOAD PUSH4 0x68173BCF PUSH1 0xE0 SHL DUP2 MSTORE PUSH1 0x1 PUSH1 0x1 PUSH1 0xA0 SHL SUB SWAP1 SWAP2 AND SWAP1 PUSH4 0x68173BCF SWAP1 PUSH2 0x2480 SWAP1 DUP5 SWAP1 PUSH1 0x4 ADD PUSH2 0x4A44 JUMP JUMPDEST PUSH1 0x0 PUSH1 0x9 DUP4 DUP2 SLOAD DUP2 LT PUSH2 0x38E1 JUMPI INVALID JUMPDEST PUSH1 0x0 SWAP2 DUP3 MSTORE PUSH1 0x20 SWAP1 SWAP2 KECCAK256 ADD SLOAD PUSH1 0x40 MLOAD PUSH4 0x4FE8CEC9 PUSH1 0xE1 SHL DUP2 MSTORE PUSH1 0x1 PUSH1 0x1 PUSH1 0xA0 SHL SUB SWAP1 SWAP2 AND SWAP1 PUSH4 0x9FD19D92 SWAP1 PUSH2 0x2267 SWAP1 DUP6 SWAP1 PUSH1 0x4 ADD PUSH2 0x4C43 JUMP JUMPDEST PUSH1 0x1 SLOAD PUSH1 0x1 PUSH1 0x1 PUSH1 0xA0 SHL SUB AND DUP2 JUMP JUMPDEST PUSH1 0xD SLOAD DUP2 JUMP JUMPDEST PUSH1 0xF DUP2 DUP2 SLOAD DUP2 LT PUSH2 0x1DA4 JUMPI INVALID JUMPDEST PUSH1 0x0 PUSH1 0x9 DUP3 DUP2 SLOAD DUP2 LT PUSH2 0x394B JUMPI INVALID JUMPDEST PUSH1 0x0 SWAP2 DUP3 MSTORE PUSH1 0x20 SWAP2 DUP3 SWAP1 KECCAK256 ADD SLOAD PUSH1 0x40 DUP1 MLOAD PUSH4 0x2273217 PUSH1 0xE3 SHL DUP2 MSTORE SWAP1 MLOAD PUSH1 0x1 PUSH1 0x1 PUSH1 0xA0 SHL SUB SWAP1 SWAP3 AND SWAP3 PUSH4 0x113990B8 SWAP3 PUSH1 0x4 DUP1 DUP5 ADD SWAP4 DUP3 SWAP1 SUB ADD DUP2 DUP7 DUP1 EXTCODESIZE ISZERO DUP1 ISZERO PUSH2 0xC84 JUMPI PUSH1 0x0 DUP1 REVERT JUMPDEST PUSH1 0x0 PUSH1 0x9 DUP4 DUP2 SLOAD DUP2 LT PUSH2 0x39A3 JUMPI INVALID JUMPDEST PUSH1 0x0 SWAP2 DUP3 MSTORE PUSH1 0x20 SWAP1 SWAP2 KECCAK256 ADD SLOAD PUSH1 0x40 MLOAD PUSH4 0x5ACF6903 PUSH1 0xE0 SHL DUP2 MSTORE PUSH1 0x1 PUSH1 0x1 PUSH1 0xA0 SHL SUB SWAP1 SWAP2 AND SWAP1 PUSH4 0x5ACF6903 SWAP1 PUSH2 0x39DC SWAP1 DUP6 SWAP1 PUSH1 0x4 ADD PUSH2 0x4A44 JUMP JUMPDEST PUSH1 0x20 PUSH1 0x40 MLOAD DUP1 DUP4 SUB DUP2 DUP7 DUP1 EXTCODESIZE ISZERO DUP1 ISZERO PUSH2 0x39F4 JUMPI PUSH1 0x0 DUP1 REVERT JUMPDEST POP GAS STATICCALL ISZERO DUP1 ISZERO PUSH2 0x3A08 JUMPI RETURNDATASIZE PUSH1 0x0 DUP1 RETURNDATACOPY RETURNDATASIZE PUSH1 0x0 REVERT JUMPDEST POP POP POP POP PUSH1 0x40 MLOAD RETURNDATASIZE PUSH1 0x1F NOT PUSH1 0x1F DUP3 ADD AND DUP3 ADD DUP1 PUSH1 0x40 MSTORE POP DUP2 ADD SWAP1 PUSH2 0x21F0 SWAP2 SWAP1 PUSH2 0x43B8 JUMP JUMPDEST PUSH2 0x3A34 PUSH2 0x3BE2 JUMP JUMPDEST PUSH1 0x0 SLOAD PUSH1 0x1 PUSH1 0x1 PUSH1 0xA0 SHL SUB SWAP1 DUP2 AND SWAP2 AND EQ PUSH2 0x3A61 JUMPI PUSH1 0x40 MLOAD PUSH3 0x461BCD PUSH1 0xE5 SHL DUP2 MSTORE PUSH1 0x4 ADD PUSH2 0xCEC SWAP1 PUSH2 0x4F8C JUMP JUMPDEST PUSH1 0x1 PUSH1 0x1 PUSH1 0xA0 SHL SUB DUP2 AND PUSH2 0x3A87 JUMPI PUSH1 0x40 MLOAD PUSH3 0x461BCD PUSH1 0xE5 SHL DUP2 MSTORE PUSH1 0x4 ADD PUSH2 0xCEC SWAP1 PUSH2 0x4D4E JUMP JUMPDEST PUSH1 0x0 DUP1 SLOAD PUSH1 0x40 MLOAD PUSH1 0x1 PUSH1 0x1 PUSH1 0xA0 SHL SUB DUP1 DUP6 AND SWAP4 SWAP3 AND SWAP2 PUSH32 0x8BE0079C531659141344CD1FD0A4F28419497F9722A3DAAFE3B4186F6B6457E0 SWAP2 LOG3 PUSH1 0x0 DUP1 SLOAD PUSH1 0x1 PUSH1 0x1 PUSH1 0xA0 SHL SUB NOT AND PUSH1 0x1 PUSH1 0x1 PUSH1 0xA0 SHL SUB SWAP3 SWAP1 SWAP3 AND SWAP2 SWAP1 SWAP2 OR SWAP1 SSTORE JUMP JUMPDEST PUSH1 0x1 PUSH1 0x1 PUSH1 0xA0 SHL SUB AND PUSH1 0x0 SWAP1 DUP2 MSTORE PUSH1 0xA PUSH1 0x20 MSTORE PUSH1 0x40 SWAP1 KECCAK256 SLOAD PUSH1 0xFF AND SWAP1 JUMP JUMPDEST PUSH2 0x3B08 PUSH2 0x3BE2 JUMP JUMPDEST PUSH1 0x0 SLOAD PUSH1 0x1 PUSH1 0x1 PUSH1 0xA0 SHL SUB SWAP1 DUP2 AND SWAP2 AND EQ PUSH2 0x3B35 JUMPI PUSH1 0x40 MLOAD PUSH3 0x461BCD PUSH1 0xE5 SHL DUP2 MSTORE PUSH1 0x4 ADD PUSH2 0xCEC SWAP1 PUSH2 0x4F8C JUMP JUMPDEST PUSH2 0x3B3E DUP2 PUSH2 0x3FA5 JUMP JUMPDEST POP JUMP JUMPDEST PUSH1 0x0 DUP3 PUSH2 0x3B50 JUMPI POP PUSH1 0x0 PUSH2 0xCBC JUMP JUMPDEST DUP3 DUP3 MUL DUP3 DUP5 DUP3 DUP2 PUSH2 0x3B5D JUMPI INVALID JUMPDEST DIV EQ PUSH2 0x21F0 JUMPI PUSH1 0x40 MLOAD PUSH3 0x461BCD PUSH1 0xE5 SHL DUP2 MSTORE PUSH1 0x4 ADD PUSH2 0xCEC SWAP1 PUSH2 0x4F03 JUMP JUMPDEST PUSH1 0x0 PUSH2 0x21F0 DUP4 DUP4 PUSH1 0x40 MLOAD DUP1 PUSH1 0x40 ADD PUSH1 0x40 MSTORE DUP1 PUSH1 0x1E DUP2 MSTORE PUSH1 0x20 ADD PUSH32 0x536166654D6174683A207375627472616374696F6E206F766572666C6F770000 DUP2 MSTORE POP PUSH2 0x4045 JUMP JUMPDEST PUSH1 0x0 DUP3 DUP3 ADD DUP4 DUP2 LT ISZERO PUSH2 0x21F0 JUMPI PUSH1 0x40 MLOAD PUSH3 0x461BCD PUSH1 0xE5 SHL DUP2 MSTORE PUSH1 0x4 ADD PUSH2 0xCEC SWAP1 PUSH2 0x4E23 JUMP JUMPDEST CALLER SWAP1 JUMP JUMPDEST PUSH1 0x60 DUP1 DUP5 PUSH1 0x1 PUSH1 0x1 PUSH1 0xA0 SHL SUB AND PUSH4 0xE20BE69A DUP6 DUP6 PUSH1 0x40 MLOAD DUP4 PUSH4 0xFFFFFFFF AND PUSH1 0xE0 SHL DUP2 MSTORE PUSH1 0x4 ADD PUSH2 0x3C17 SWAP3 SWAP2 SWAP1 PUSH2 0x5242 JUMP JUMPDEST PUSH1 0x0 PUSH1 0x40 MLOAD DUP1 DUP4 SUB DUP2 DUP7 DUP1 EXTCODESIZE ISZERO DUP1 ISZERO PUSH2 0x3C2F JUMPI PUSH1 0x0 DUP1 REVERT JUMPDEST POP GAS STATICCALL ISZERO DUP1 ISZERO PUSH2 0x3C43 JUMPI RETURNDATASIZE PUSH1 0x0 DUP1 RETURNDATACOPY RETURNDATASIZE PUSH1 0x0 REVERT JUMPDEST POP POP POP POP PUSH1 0x40 MLOAD RETURNDATASIZE PUSH1 0x0 DUP3 RETURNDATACOPY PUSH1 0x1F RETURNDATASIZE SWAP1 DUP2 ADD PUSH1 0x1F NOT AND DUP3 ADD PUSH1 0x40 MSTORE PUSH2 0x3C6B SWAP2 SWAP1 DUP2 ADD SWAP1 PUSH2 0x4362 JUMP JUMPDEST SWAP1 POP PUSH1 0x60 DUP2 MLOAD PUSH1 0x1 PUSH1 0x1 PUSH1 0x40 SHL SUB DUP2 GT DUP1 ISZERO PUSH2 0x3C86 JUMPI PUSH1 0x0 DUP1 REVERT JUMPDEST POP PUSH1 0x40 MLOAD SWAP1 DUP1 DUP3 MSTORE DUP1 PUSH1 0x20 MUL PUSH1 0x20 ADD DUP3 ADD PUSH1 0x40 MSTORE DUP1 ISZERO PUSH2 0x3CC0 JUMPI DUP2 PUSH1 0x20 ADD JUMPDEST PUSH2 0x3CAD PUSH2 0x40A8 JUMP JUMPDEST DUP2 MSTORE PUSH1 0x20 ADD SWAP1 PUSH1 0x1 SWAP1 SUB SWAP1 DUP2 PUSH2 0x3CA5 JUMPI SWAP1 POP JUMPDEST POP SWAP1 POP PUSH1 0x0 JUMPDEST DUP3 MLOAD DUP2 LT ISZERO PUSH2 0x1913 JUMPI DUP7 PUSH1 0x1 PUSH1 0x1 PUSH1 0xA0 SHL SUB AND PUSH4 0x21603F43 DUP5 DUP4 DUP2 MLOAD DUP2 LT PUSH2 0x3CEA JUMPI INVALID JUMPDEST PUSH1 0x20 MUL PUSH1 0x20 ADD ADD MLOAD PUSH1 0x40 MLOAD DUP3 PUSH4 0xFFFFFFFF AND PUSH1 0xE0 SHL DUP2 MSTORE PUSH1 0x4 ADD PUSH2 0x3D0E SWAP2 SWAP1 PUSH2 0x4C43 JUMP JUMPDEST PUSH1 0x0 PUSH1 0x40 MLOAD DUP1 DUP4 SUB DUP2 DUP7 DUP1 EXTCODESIZE ISZERO DUP1 ISZERO PUSH2 0x3D26 JUMPI PUSH1 0x0 DUP1 REVERT JUMPDEST POP GAS STATICCALL ISZERO DUP1 ISZERO PUSH2 0x3D3A JUMPI RETURNDATASIZE PUSH1 0x0 DUP1 RETURNDATACOPY RETURNDATASIZE PUSH1 0x0 REVERT JUMPDEST POP POP POP POP PUSH1 0x40 MLOAD RETURNDATASIZE PUSH1 0x0 DUP3 RETURNDATACOPY PUSH1 0x1F RETURNDATASIZE SWAP1 DUP2 ADD PUSH1 0x1F NOT AND DUP3 ADD PUSH1 0x40 MSTORE PUSH2 0x3D62 SWAP2 SWAP1 DUP2 ADD SWAP1 PUSH2 0x44A8 JUMP JUMPDEST DUP3 DUP3 DUP2 MLOAD DUP2 LT PUSH2 0x3D6E JUMPI INVALID JUMPDEST PUSH1 0x20 SWAP1 DUP2 MUL SWAP2 SWAP1 SWAP2 ADD ADD MSTORE PUSH1 0x1 ADD PUSH2 0x3CC6 JUMP JUMPDEST PUSH1 0x0 SLOAD PUSH1 0x1 PUSH1 0xA0 SHL SWAP1 DIV PUSH1 0xFF AND PUSH2 0x3DAA JUMPI PUSH1 0x40 MLOAD PUSH3 0x461BCD PUSH1 0xE5 SHL DUP2 MSTORE PUSH1 0x4 ADD PUSH2 0xCEC SWAP1 PUSH2 0x4C5F JUMP JUMPDEST PUSH1 0x0 DUP1 SLOAD PUSH1 0xFF PUSH1 0xA0 SHL NOT AND SWAP1 SSTORE PUSH32 0x5DB9EE0A495BF2E6FF9C91A7834C1BA4FDD244A5E8AA4E537BD38AEAE4B073AA PUSH2 0x3DE0 PUSH2 0x3BE2 JUMP JUMPDEST PUSH1 0x40 MLOAD PUSH2 0x3DED SWAP2 SWAP1 PUSH2 0x4A44 JUMP JUMPDEST PUSH1 0x40 MLOAD DUP1 SWAP2 SUB SWAP1 LOG1 JUMP JUMPDEST PUSH1 0x0 SLOAD PUSH1 0x1 PUSH1 0xA0 SHL SWAP1 DIV PUSH1 0xFF AND ISZERO PUSH2 0x3E21 JUMPI PUSH1 0x40 MLOAD PUSH3 0x461BCD PUSH1 0xE5 SHL DUP2 MSTORE PUSH1 0x4 ADD PUSH2 0xCEC SWAP1 PUSH2 0x4EA2 JUMP JUMPDEST PUSH1 0x0 DUP1 SLOAD PUSH1 0xFF PUSH1 0xA0 SHL NOT AND PUSH1 0x1 PUSH1 0xA0 SHL OR SWAP1 SSTORE PUSH32 0x62E78CEA01BEE320CD4E420270B5EA74000D11B0C9F74754EBDBFC544B05A258 PUSH2 0x3DE0 PUSH2 0x3BE2 JUMP JUMPDEST PUSH1 0x0 PUSH2 0x21F0 DUP4 DUP4 PUSH1 0x40 MLOAD DUP1 PUSH1 0x40 ADD PUSH1 0x40 MSTORE DUP1 PUSH1 0x1A DUP2 MSTORE PUSH1 0x20 ADD PUSH32 0x536166654D6174683A206469766973696F6E206279207A65726F000000000000 DUP2 MSTORE POP PUSH2 0x4071 JUMP JUMPDEST DUP1 PUSH2 0x3EAB DUP4 PUSH1 0x32 PUSH2 0x3B41 JUMP JUMPDEST GT ISZERO PUSH2 0x3EC9 JUMPI PUSH1 0x40 MLOAD PUSH3 0x461BCD PUSH1 0xE5 SHL DUP2 MSTORE PUSH1 0x4 ADD PUSH2 0xCEC SWAP1 PUSH2 0x4DDB JUMP JUMPDEST PUSH1 0xC SWAP2 SWAP1 SWAP2 SSTORE PUSH1 0xD SSTORE JUMP JUMPDEST PUSH1 0x1 PUSH1 0x1 PUSH1 0xA0 SHL SUB DUP2 AND PUSH20 0xEEEEEEEEEEEEEEEEEEEEEEEEEEEEEEEEEEEEEEEE EQ PUSH2 0x3F10 JUMPI PUSH1 0x40 MLOAD PUSH3 0x461BCD PUSH1 0xE5 SHL DUP2 MSTORE PUSH1 0x4 ADD PUSH2 0xCEC SWAP1 PUSH2 0x4E5A JUMP JUMPDEST PUSH1 0x0 PUSH20 0x7598E84B2E114AB62CAB288CE5F7D5F6BAD35BBA PUSH1 0x1 PUSH1 0x1 PUSH1 0xA0 SHL SUB AND DUP4 PUSH1 0x40 MLOAD PUSH2 0x3F3D SWAP1 PUSH2 0x4A41 JUMP JUMPDEST PUSH1 0x0 PUSH1 0x40 MLOAD DUP1 DUP4 SUB DUP2 DUP6 DUP8 GAS CALL SWAP3 POP POP POP RETURNDATASIZE DUP1 PUSH1 0x0 DUP2 EQ PUSH2 0x3F7A JUMPI PUSH1 0x40 MLOAD SWAP2 POP PUSH1 0x1F NOT PUSH1 0x3F RETURNDATASIZE ADD AND DUP3 ADD PUSH1 0x40 MSTORE RETURNDATASIZE DUP3 MSTORE RETURNDATASIZE PUSH1 0x0 PUSH1 0x20 DUP5 ADD RETURNDATACOPY PUSH2 0x3F7F JUMP JUMPDEST PUSH1 0x60 SWAP2 POP JUMPDEST POP POP SWAP1 POP DUP1 PUSH2 0x3FA0 JUMPI PUSH1 0x40 MLOAD PUSH3 0x461BCD PUSH1 0xE5 SHL DUP2 MSTORE PUSH1 0x4 ADD PUSH2 0xCEC SWAP1 PUSH2 0x4ECC JUMP JUMPDEST POP POP POP JUMP JUMPDEST PUSH1 0x1 PUSH1 0x1 PUSH1 0xA0 SHL SUB DUP2 AND PUSH1 0x0 SWAP1 DUP2 MSTORE PUSH1 0x10 PUSH1 0x20 MSTORE PUSH1 0x40 SWAP1 KECCAK256 SLOAD PUSH1 0xFF AND ISZERO PUSH2 0x3FDE JUMPI PUSH1 0x40 MLOAD PUSH3 0x461BCD PUSH1 0xE5 SHL DUP2 MSTORE PUSH1 0x4 ADD PUSH2 0xCEC SWAP1 PUSH2 0x5050 JUMP JUMPDEST PUSH1 0xF DUP1 SLOAD PUSH1 0x1 DUP2 DUP2 ADD SWAP1 SWAP3 SSTORE PUSH32 0x8D1108E10BCB7C27DDDFC02ED9D693A074039D026CF4EA4240B40F7D581AC802 ADD DUP1 SLOAD PUSH1 0x1 PUSH1 0x1 PUSH1 0xA0 SHL SUB SWAP1 SWAP4 AND PUSH1 0x1 PUSH1 0x1 PUSH1 0xA0 SHL SUB NOT SWAP1 SWAP4 AND DUP4 OR SWAP1 SSTORE PUSH1 0x0 SWAP2 DUP3 MSTORE PUSH1 0x10 PUSH1 0x20 MSTORE PUSH1 0x40 SWAP1 SWAP2 KECCAK256 DUP1 SLOAD PUSH1 0xFF NOT AND SWAP1 SWAP2 OR SWAP1 SSTORE JUMP JUMPDEST PUSH1 0x0 DUP2 DUP5 DUP5 GT ISZERO PUSH2 0x4069 JUMPI PUSH1 0x40 MLOAD PUSH3 0x461BCD PUSH1 0xE5 SHL DUP2 MSTORE PUSH1 0x4 ADD PUSH2 0xCEC SWAP2 SWAP1 PUSH2 0x4C4C JUMP JUMPDEST POP POP POP SWAP1 SUB SWAP1 JUMP JUMPDEST PUSH1 0x0 DUP2 DUP4 PUSH2 0x4092 JUMPI PUSH1 0x40 MLOAD PUSH3 0x461BCD PUSH1 0xE5 SHL DUP2 MSTORE PUSH1 0x4 ADD PUSH2 0xCEC SWAP2 SWAP1 PUSH2 0x4C4C JUMP JUMPDEST POP PUSH1 0x0 DUP4 DUP6 DUP2 PUSH2 0x409E JUMPI INVALID JUMPDEST DIV SWAP6 SWAP5 POP POP POP POP POP JUMP JUMPDEST PUSH1 0x40 MLOAD DUP1 PUSH1 0xE0 ADD PUSH1 0x40 MSTORE DUP1 PUSH1 0x0 DUP2 MSTORE PUSH1 0x20 ADD PUSH1 0x0 DUP2 MSTORE PUSH1 0x20 ADD PUSH1 0x0 DUP2 MSTORE PUSH1 0x20 ADD PUSH1 0x0 DUP2 MSTORE PUSH1 0x20 ADD PUSH2 0x40D7 PUSH2 0x4108 JUMP JUMPDEST DUP2 MSTORE PUSH1 0x20 ADD PUSH2 0x40E4 PUSH2 0x4126 JUMP JUMPDEST DUP2 MSTORE PUSH1 0x20 ADD PUSH1 0x60 DUP2 MSTORE POP SWAP1 JUMP JUMPDEST PUSH1 0x40 DUP1 MLOAD DUP1 DUP3 ADD SWAP1 SWAP2 MSTORE PUSH1 0x0 DUP1 DUP3 MSTORE PUSH1 0x20 DUP3 ADD MSTORE SWAP1 JUMP JUMPDEST PUSH1 0x40 MLOAD DUP1 PUSH1 0x40 ADD PUSH1 0x40 MSTORE DUP1 PUSH1 0x2 SWAP1 PUSH1 0x20 DUP3 MUL DUP1 CALLDATASIZE DUP4 CALLDATACOPY POP SWAP2 SWAP3 SWAP2 POP POP JUMP JUMPDEST PUSH1 0x40 MLOAD DUP1 PUSH1 0x60 ADD PUSH1 0x40 MSTORE DUP1 PUSH1 0x3 SWAP1 PUSH1 0x20 DUP3 MUL DUP1 CALLDATASIZE DUP4 CALLDATACOPY POP SWAP2 SWAP3 SWAP2 POP POP JUMP JUMPDEST PUSH1 0x0 DUP3 PUSH1 0x1F DUP4 ADD SLT PUSH2 0x4154 JUMPI DUP1 DUP2 REVERT JUMPDEST PUSH2 0x415E PUSH1 0x40 PUSH2 0x528A JUMP JUMPDEST SWAP1 POP DUP1 DUP3 DUP5 PUSH1 0x40 DUP6 ADD GT ISZERO PUSH2 0x4172 JUMPI PUSH1 0x0 DUP1 REVERT JUMPDEST PUSH1 0x0 JUMPDEST PUSH1 0x2 DUP2 LT ISZERO PUSH2 0x419E JUMPI DUP2 MLOAD PUSH2 0x4189 DUP2 PUSH2 0x531E JUMP JUMPDEST DUP4 MSTORE PUSH1 0x20 SWAP3 DUP4 ADD SWAP3 SWAP2 SWAP1 SWAP2 ADD SWAP1 PUSH1 0x1 ADD PUSH2 0x4175 JUMP JUMPDEST POP POP POP SWAP3 SWAP2 POP POP JUMP JUMPDEST PUSH1 0x0 DUP3 PUSH1 0x1F DUP4 ADD SLT PUSH2 0x41B7 JUMPI DUP1 DUP2 REVERT JUMPDEST DUP2 CALLDATALOAD PUSH2 0x41CA PUSH2 0x41C5 DUP3 PUSH2 0x52B0 JUMP JUMPDEST PUSH2 0x528A JUMP JUMPDEST DUP2 DUP2 MSTORE SWAP2 POP PUSH1 0x20 DUP1 DUP4 ADD SWAP1 DUP5 DUP2 ADD DUP2 DUP5 MUL DUP7 ADD DUP3 ADD DUP8 LT ISZERO PUSH2 0x41EB JUMPI PUSH1 0x0 DUP1 REVERT JUMPDEST PUSH1 0x0 JUMPDEST DUP5 DUP2 LT ISZERO PUSH2 0x4213 JUMPI DUP2 CALLDATALOAD PUSH2 0x4201 DUP2 PUSH2 0x531E JUMP JUMPDEST DUP5 MSTORE SWAP3 DUP3 ADD SWAP3 SWAP1 DUP3 ADD SWAP1 PUSH1 0x1 ADD PUSH2 0x41EE JUMP JUMPDEST POP POP POP POP POP SWAP3 SWAP2 POP POP JUMP JUMPDEST PUSH1 0x0 DUP3 PUSH1 0x1F DUP4 ADD SLT PUSH2 0x422E JUMPI DUP1 DUP2 REVERT JUMPDEST PUSH2 0x4238 PUSH1 0x60 PUSH2 0x528A JUMP JUMPDEST SWAP1 POP DUP1 DUP3 DUP5 PUSH1 0x60 DUP6 ADD GT ISZERO PUSH2 0x424C JUMPI PUSH1 0x0 DUP1 REVERT JUMPDEST PUSH1 0x0 JUMPDEST PUSH1 0x3 DUP2 LT ISZERO PUSH2 0x419E JUMPI DUP2 MLOAD DUP4 MSTORE PUSH1 0x20 SWAP3 DUP4 ADD SWAP3 SWAP1 SWAP2 ADD SWAP1 PUSH1 0x1 ADD PUSH2 0x424F JUMP JUMPDEST PUSH1 0x0 DUP3 PUSH1 0x1F DUP4 ADD SLT PUSH2 0x427E JUMPI DUP1 DUP2 REVERT JUMPDEST DUP2 CALLDATALOAD PUSH2 0x428C PUSH2 0x41C5 DUP3 PUSH2 0x52B0 JUMP JUMPDEST DUP2 DUP2 MSTORE SWAP2 POP PUSH1 0x20 DUP1 DUP4 ADD SWAP1 DUP5 DUP2 ADD DUP2 DUP5 MUL DUP7 ADD DUP3 ADD DUP8 LT ISZERO PUSH2 0x42AD JUMPI PUSH1 0x0 DUP1 REVERT JUMPDEST PUSH1 0x0 JUMPDEST DUP5 DUP2 LT ISZERO PUSH2 0x4213 JUMPI DUP2 CALLDATALOAD DUP5 MSTORE SWAP3 DUP3 ADD SWAP3 SWAP1 DUP3 ADD SWAP1 PUSH1 0x1 ADD PUSH2 0x42B0 JUMP JUMPDEST PUSH1 0x0 DUP3 PUSH1 0x1F DUP4 ADD SLT PUSH2 0x42DC JUMPI DUP1 DUP2 REVERT JUMPDEST DUP2 MLOAD PUSH2 0x42EA PUSH2 0x41C5 DUP3 PUSH2 0x52B0 JUMP JUMPDEST DUP2 DUP2 MSTORE SWAP2 POP PUSH1 0x20 DUP1 DUP4 ADD SWAP1 DUP5 DUP2 ADD DUP2 DUP5 MUL DUP7 ADD DUP3 ADD DUP8 LT ISZERO PUSH2 0x430B JUMPI PUSH1 0x0 DUP1 REVERT JUMPDEST PUSH1 0x0 JUMPDEST DUP5 DUP2 LT ISZERO PUSH2 0x4213 JUMPI DUP2 MLOAD DUP5 MSTORE SWAP3 DUP3 ADD SWAP3 SWAP1 DUP3 ADD SWAP1 PUSH1 0x1 ADD PUSH2 0x430E JUMP JUMPDEST PUSH1 0x0 PUSH1 0x20 DUP3 DUP5 SUB SLT ISZERO PUSH2 0x433B JUMPI DUP1 DUP2 REVERT JUMPDEST DUP2 CALLDATALOAD PUSH2 0x21F0 DUP2 PUSH2 0x531E JUMP JUMPDEST PUSH1 0x0 PUSH1 0x20 DUP3 DUP5 SUB SLT ISZERO PUSH2 0x4357 JUMPI DUP1 DUP2 REVERT JUMPDEST DUP2 MLOAD PUSH2 0x21F0 DUP2 PUSH2 0x531E JUMP JUMPDEST PUSH1 0x0 PUSH1 0x20 DUP3 DUP5 SUB SLT ISZERO PUSH2 0x4373 JUMPI DUP1 DUP2 REVERT JUMPDEST DUP2 MLOAD PUSH1 0x1 PUSH1 0x1 PUSH1 0x40 SHL SUB DUP2 GT ISZERO PUSH2 0x4388 JUMPI DUP2 DUP3 REVERT JUMPDEST PUSH2 0x4394 DUP5 DUP3 DUP6 ADD PUSH2 0x42CC JUMP JUMPDEST SWAP5 SWAP4 POP POP POP POP JUMP JUMPDEST PUSH1 0x0 PUSH1 0x20 DUP3 DUP5 SUB SLT ISZERO PUSH2 0x43AD JUMPI DUP1 DUP2 REVERT JUMPDEST DUP2 CALLDATALOAD PUSH2 0x21F0 DUP2 PUSH2 0x5333 JUMP JUMPDEST PUSH1 0x0 PUSH1 0x20 DUP3 DUP5 SUB SLT ISZERO PUSH2 0x43C9 JUMPI DUP1 DUP2 REVERT JUMPDEST DUP2 MLOAD PUSH2 0x21F0 DUP2 PUSH2 0x5333 JUMP JUMPDEST PUSH1 0x0 PUSH1 0x20 DUP3 DUP5 SUB SLT ISZERO PUSH2 0x43E5 JUMPI DUP1 DUP2 REVERT JUMPDEST POP MLOAD SWAP2 SWAP1 POP JUMP JUMPDEST PUSH1 0x0 DUP1 PUSH1 0x0 PUSH1 0x60 DUP5 DUP7 SUB SLT ISZERO PUSH2 0x4400 JUMPI DUP2 DUP3 REVERT JUMPDEST DUP4 CALLDATALOAD PUSH2 0x440B DUP2 PUSH2 0x531E JUMP JUMPDEST SWAP3 POP PUSH1 0x20 DUP5 ADD CALLDATALOAD PUSH2 0x441B DUP2 PUSH2 0x531E JUMP JUMPDEST SWAP2 POP PUSH1 0x40 DUP5 ADD CALLDATALOAD PUSH2 0x442B DUP2 PUSH2 0x5333 JUMP JUMPDEST DUP1 SWAP2 POP POP SWAP3 POP SWAP3 POP SWAP3 JUMP JUMPDEST PUSH1 0x0 PUSH1 0x20 DUP3 DUP5 SUB SLT ISZERO PUSH2 0x4447 JUMPI DUP1 DUP2 REVERT JUMPDEST DUP2 MLOAD PUSH1 0x1 PUSH1 0x1 PUSH1 0x40 SHL SUB DUP2 GT ISZERO PUSH2 0x445C JUMPI DUP2 DUP3 REVERT JUMPDEST DUP3 ADD PUSH1 0x1F DUP2 ADD DUP5 SGT PUSH2 0x446C JUMPI DUP2 DUP3 REVERT JUMPDEST DUP1 MLOAD PUSH2 0x447A PUSH2 0x41C5 DUP3 PUSH2 0x52CF JUMP JUMPDEST DUP2 DUP2 MSTORE DUP6 PUSH1 0x20 DUP4 DUP6 ADD ADD GT ISZERO PUSH2 0x448E JUMPI DUP4 DUP5 REVERT JUMPDEST PUSH2 0x449F DUP3 PUSH1 0x20 DUP4 ADD PUSH1 0x20 DUP7 ADD PUSH2 0x52F2 JUMP JUMPDEST SWAP6 SWAP5 POP POP POP POP POP JUMP JUMPDEST PUSH1 0x0 PUSH1 0x20 DUP3 DUP5 SUB SLT ISZERO PUSH2 0x44B9 JUMPI DUP1 DUP2 REVERT JUMPDEST DUP2 MLOAD PUSH1 0x1 PUSH1 0x1 PUSH1 0x40 SHL SUB DUP1 DUP3 GT ISZERO PUSH2 0x44CF JUMPI DUP3 DUP4 REVERT JUMPDEST SWAP1 DUP4 ADD SWAP1 PUSH2 0x140 DUP3 DUP7 SUB SLT ISZERO PUSH2 0x44E3 JUMPI DUP3 DUP4 REVERT JUMPDEST PUSH2 0x44ED PUSH1 0xE0 PUSH2 0x528A JUMP JUMPDEST DUP3 MLOAD DUP2 MSTORE PUSH1 0x20 DUP4 ADD MLOAD PUSH1 0x20 DUP3 ADD MSTORE PUSH1 0x40 DUP4 ADD MLOAD PUSH1 0x40 DUP3 ADD MSTORE PUSH1 0x60 DUP4 ADD MLOAD PUSH1 0x60 DUP3 ADD MSTORE PUSH2 0x451C DUP7 PUSH1 0x80 DUP6 ADD PUSH2 0x4144 JUMP JUMPDEST PUSH1 0x80 DUP3 ADD MSTORE PUSH2 0x452E DUP7 PUSH1 0xC0 DUP6 ADD PUSH2 0x421E JUMP JUMPDEST PUSH1 0xA0 DUP3 ADD MSTORE PUSH2 0x120 DUP4 ADD MLOAD DUP3 DUP2 GT ISZERO PUSH2 0x4545 JUMPI DUP5 DUP6 REVERT JUMPDEST PUSH2 0x4551 DUP8 DUP3 DUP7 ADD PUSH2 0x42CC JUMP JUMPDEST PUSH1 0xC0 DUP4 ADD MSTORE POP SWAP6 SWAP5 POP POP POP POP POP JUMP JUMPDEST PUSH1 0x0 PUSH1 0x20 DUP3 DUP5 SUB SLT ISZERO PUSH2 0x4571 JUMPI DUP1 DUP2 REVERT JUMPDEST POP CALLDATALOAD SWAP2 SWAP1 POP JUMP JUMPDEST PUSH1 0x0 DUP1 PUSH1 0x40 DUP4 DUP6 SUB SLT ISZERO PUSH2 0x458A JUMPI DUP2 DUP3 REVERT JUMPDEST DUP3 CALLDATALOAD SWAP2 POP PUSH1 0x20 DUP4 ADD CALLDATALOAD PUSH2 0x459C DUP2 PUSH2 0x531E JUMP JUMPDEST DUP1 SWAP2 POP POP SWAP3 POP SWAP3 SWAP1 POP JUMP JUMPDEST PUSH1 0x0 DUP1 PUSH1 0x40 DUP4 DUP6 SUB SLT ISZERO PUSH2 0x45B9 JUMPI DUP2 DUP3 REVERT JUMPDEST DUP3 MLOAD SWAP2 POP PUSH1 0x20 DUP4 ADD MLOAD PUSH2 0x459C DUP2 PUSH2 0x531E JUMP JUMPDEST PUSH1 0x0 DUP1 PUSH1 0x0 DUP1 PUSH1 0x80 DUP6 DUP8 SUB SLT ISZERO PUSH2 0x45E0 JUMPI DUP2 DUP3 REVERT JUMPDEST DUP5 CALLDATALOAD SWAP4 POP PUSH1 0x20 DUP6 ADD CALLDATALOAD PUSH2 0x45F2 DUP2 PUSH2 0x531E JUMP JUMPDEST SWAP3 POP PUSH1 0x40 DUP6 ADD CALLDATALOAD PUSH2 0x4602 DUP2 PUSH2 0x531E JUMP JUMPDEST SWAP4 SWAP7 SWAP3 SWAP6 POP SWAP3 SWAP4 PUSH1 0x60 ADD CALLDATALOAD SWAP3 POP POP JUMP JUMPDEST PUSH1 0x0 DUP1 PUSH1 0x0 PUSH1 0x60 DUP5 DUP7 SUB SLT ISZERO PUSH2 0x4626 JUMPI DUP1 DUP2 REVERT JUMPDEST DUP4 CALLDATALOAD SWAP3 POP PUSH1 0x20 DUP5 ADD CALLDATALOAD PUSH2 0x4638 DUP2 PUSH2 0x531E JUMP JUMPDEST SWAP3 SWAP6 SWAP3 SWAP5 POP POP POP PUSH1 0x40 SWAP2 SWAP1 SWAP2 ADD CALLDATALOAD SWAP1 JUMP JUMPDEST PUSH1 0x0 DUP1 PUSH1 0x0 DUP1 PUSH1 0x0 PUSH1 0xA0 DUP7 DUP9 SUB SLT ISZERO PUSH2 0x4660 JUMPI DUP3 DUP4 REVERT JUMPDEST DUP6 CALLDATALOAD SWAP5 POP PUSH1 0x20 DUP7 ADD CALLDATALOAD PUSH1 0x1 PUSH1 0x1 PUSH1 0x40 SHL SUB DUP1 DUP3 GT ISZERO PUSH2 0x467D JUMPI DUP5 DUP6 REVERT JUMPDEST PUSH2 0x4689 DUP10 DUP4 DUP11 ADD PUSH2 0x41A7 JUMP JUMPDEST SWAP6 POP PUSH1 0x40 DUP9 ADD CALLDATALOAD SWAP2 POP DUP1 DUP3 GT ISZERO PUSH2 0x469E JUMPI DUP5 DUP6 REVERT JUMPDEST PUSH2 0x46AA DUP10 DUP4 DUP11 ADD PUSH2 0x426E JUMP JUMPDEST SWAP5 POP PUSH1 0x60 DUP9 ADD CALLDATALOAD SWAP2 POP DUP1 DUP3 GT ISZERO PUSH2 0x46BF JUMPI DUP3 DUP4 REVERT JUMPDEST POP PUSH2 0x46CC DUP9 DUP3 DUP10 ADD PUSH2 0x426E JUMP JUMPDEST SWAP6 SWAP9 SWAP5 SWAP8 POP SWAP3 SWAP6 PUSH1 0x80 ADD CALLDATALOAD SWAP4 SWAP3 POP POP POP JUMP JUMPDEST PUSH1 0x0 DUP1 PUSH1 0x40 DUP4 DUP6 SUB SLT ISZERO PUSH2 0x46F0 JUMPI DUP2 DUP3 REVERT JUMPDEST DUP3 CALLDATALOAD SWAP2 POP PUSH1 0x20 DUP4 ADD CALLDATALOAD PUSH1 0x1 PUSH1 0x1 PUSH1 0x40 SHL SUB DUP2 GT ISZERO PUSH2 0x470C JUMPI DUP2 DUP3 REVERT JUMPDEST PUSH2 0x4718 DUP6 DUP3 DUP7 ADD PUSH2 0x426E JUMP JUMPDEST SWAP2 POP POP SWAP3 POP SWAP3 SWAP1 POP JUMP JUMPDEST PUSH1 0x0 DUP1 PUSH1 0x40 DUP4 DUP6 SUB SLT ISZERO PUSH2 0x4734 JUMPI DUP2 DUP3 REVERT JUMPDEST DUP3 CALLDATALOAD SWAP2 POP PUSH1 0x20 DUP4 ADD CALLDATALOAD PUSH1 0x1 PUSH1 0x1 PUSH1 0x40 SHL SUB DUP2 GT ISZERO PUSH2 0x4750 JUMPI DUP2 DUP3 REVERT JUMPDEST DUP4 ADD PUSH1 0x1F DUP2 ADD DUP6 SGT PUSH2 0x4760 JUMPI DUP2 DUP3 REVERT JUMPDEST DUP1 CALLDATALOAD PUSH2 0x476E PUSH2 0x41C5 DUP3 PUSH2 0x52CF JUMP JUMPDEST DUP2 DUP2 MSTORE DUP7 PUSH1 0x20 DUP4 DUP6 ADD ADD GT ISZERO PUSH2 0x4782 JUMPI DUP4 DUP5 REVERT JUMPDEST DUP2 PUSH1 0x20 DUP5 ADD PUSH1 0x20 DUP4 ADD CALLDATACOPY SWAP1 DUP2 ADD PUSH1 0x20 ADD SWAP3 SWAP1 SWAP3 MSTORE POP SWAP1 SWAP4 SWAP1 SWAP3 POP SWAP1 POP JUMP JUMPDEST PUSH1 0x0 DUP1 PUSH1 0x40 DUP4 DUP6 SUB SLT ISZERO PUSH2 0x47B2 JUMPI DUP2 DUP3 REVERT JUMPDEST POP POP DUP1 CALLDATALOAD SWAP3 PUSH1 0x20 SWAP1 SWAP2 ADD CALLDATALOAD SWAP2 POP JUMP JUMPDEST PUSH1 0x0 DUP1 PUSH1 0x0 PUSH1 0x60 DUP5 DUP7 SUB SLT ISZERO PUSH2 0x47D5 JUMPI DUP1 DUP2 REVERT JUMPDEST DUP4 CALLDATALOAD SWAP3 POP PUSH1 0x20 DUP5 ADD CALLDATALOAD SWAP2 POP PUSH1 0x40 DUP5 ADD CALLDATALOAD PUSH1 0x1 PUSH1 0x1 PUSH1 0x40 SHL SUB DUP2 GT ISZERO PUSH2 0x47F8 JUMPI DUP2 DUP3 REVERT JUMPDEST PUSH2 0x4804 DUP7 DUP3 DUP8 ADD PUSH2 0x426E JUMP JUMPDEST SWAP2 POP POP SWAP3 POP SWAP3 POP SWAP3 JUMP JUMPDEST PUSH1 0x0 DUP1 PUSH1 0x0 DUP1 PUSH1 0x80 DUP6 DUP8 SUB SLT ISZERO PUSH2 0x4823 JUMPI DUP2 DUP3 REVERT JUMPDEST DUP5 CALLDATALOAD SWAP4 POP PUSH1 0x20 DUP6 ADD CALLDATALOAD SWAP3 POP PUSH1 0x40 DUP6 ADD CALLDATALOAD PUSH2 0x483C DUP2 PUSH2 0x531E JUMP JUMPDEST SWAP2 POP PUSH1 0x60 DUP6 ADD CALLDATALOAD PUSH1 0x1 PUSH1 0x1 PUSH1 0x40 SHL SUB DUP2 GT ISZERO PUSH2 0x4856 JUMPI DUP2 DUP3 REVERT JUMPDEST PUSH2 0x4862 DUP8 DUP3 DUP9 ADD PUSH2 0x41A7 JUMP JUMPDEST SWAP2 POP POP SWAP3 SWAP6 SWAP2 SWAP5 POP SWAP3 POP JUMP JUMPDEST PUSH1 0x0 DUP1 PUSH1 0x0 PUSH1 0x60 DUP5 DUP7 SUB SLT ISZERO PUSH2 0x4882 JUMPI DUP1 DUP2 REVERT JUMPDEST POP POP DUP2 CALLDATALOAD SWAP4 PUSH1 0x20 DUP4 ADD CALLDATALOAD SWAP4 POP PUSH1 0x40 SWAP1 SWAP3 ADD CALLDATALOAD SWAP2 SWAP1 POP JUMP JUMPDEST PUSH1 0x1 PUSH1 0x1 PUSH1 0xA0 SHL SUB AND DUP2 MSTORE PUSH1 0x20 ADD SWAP1 JUMP JUMPDEST PUSH1 0x0 DUP2 MLOAD DUP1 DUP5 MSTORE PUSH1 0x20 DUP1 DUP6 ADD SWAP5 POP DUP1 DUP5 ADD DUP4 JUMPDEST DUP4 DUP2 LT ISZERO PUSH2 0x48E2 JUMPI DUP2 MLOAD PUSH1 0x1 PUSH1 0x1 PUSH1 0xA0 SHL SUB AND DUP8 MSTORE SWAP6 DUP3 ADD SWAP6 SWAP1 DUP3 ADD SWAP1 PUSH1 0x1 ADD PUSH2 0x48BD JUMP JUMPDEST POP SWAP5 SWAP6 SWAP5 POP POP POP POP POP JUMP JUMPDEST PUSH1 0x0 DUP2 MLOAD DUP1 DUP5 MSTORE PUSH1 0x20 DUP1 DUP6 ADD DUP1 DUP2 SWAP7 POP DUP3 DUP5 MUL DUP2 ADD SWAP2 POP DUP3 DUP7 ADD DUP6 JUMPDEST DUP6 DUP2 LT ISZERO PUSH2 0x4933 JUMPI DUP3 DUP5 SUB DUP10 MSTORE PUSH2 0x4921 DUP5 DUP4 MLOAD PUSH2 0x49BE JUMP JUMPDEST SWAP9 DUP6 ADD SWAP9 SWAP4 POP SWAP1 DUP5 ADD SWAP1 PUSH1 0x1 ADD PUSH2 0x4909 JUMP JUMPDEST POP SWAP2 SWAP8 SWAP7 POP POP POP POP POP POP POP JUMP JUMPDEST DUP1 PUSH1 0x0 JUMPDEST PUSH1 0x3 DUP2 LT ISZERO PUSH2 0x3851 JUMPI DUP2 MLOAD DUP5 MSTORE PUSH1 0x20 SWAP4 DUP5 ADD SWAP4 SWAP1 SWAP2 ADD SWAP1 PUSH1 0x1 ADD PUSH2 0x4944 JUMP JUMPDEST PUSH1 0x0 DUP2 MLOAD DUP1 DUP5 MSTORE PUSH1 0x20 DUP1 DUP6 ADD SWAP5 POP DUP1 DUP5 ADD DUP4 JUMPDEST DUP4 DUP2 LT ISZERO PUSH2 0x48E2 JUMPI DUP2 MLOAD DUP8 MSTORE SWAP6 DUP3 ADD SWAP6 SWAP1 DUP3 ADD SWAP1 PUSH1 0x1 ADD PUSH2 0x4976 JUMP JUMPDEST PUSH1 0x0 DUP2 MLOAD DUP1 DUP5 MSTORE PUSH2 0x49AA DUP2 PUSH1 0x20 DUP7 ADD PUSH1 0x20 DUP7 ADD PUSH2 0x52F2 JUMP JUMPDEST PUSH1 0x1F ADD PUSH1 0x1F NOT AND SWAP3 SWAP1 SWAP3 ADD PUSH1 0x20 ADD SWAP3 SWAP2 POP POP JUMP JUMPDEST PUSH1 0x0 PUSH2 0x140 DUP3 MLOAD DUP5 MSTORE PUSH1 0x20 DUP1 DUP5 ADD MLOAD DUP2 DUP7 ADD MSTORE PUSH1 0x40 DUP5 ADD MLOAD PUSH1 0x40 DUP7 ADD MSTORE PUSH1 0x60 DUP5 ADD MLOAD PUSH1 0x60 DUP7 ADD MSTORE PUSH1 0x80 DUP5 ADD MLOAD PUSH1 0x80 DUP7 ADD DUP5 JUMPDEST PUSH1 0x2 DUP2 LT ISZERO PUSH2 0x4A12 JUMPI PUSH2 0x4A04 DUP3 DUP5 MLOAD PUSH2 0x4899 JUMP JUMPDEST SWAP3 DUP5 ADD SWAP3 SWAP2 POP PUSH1 0x1 ADD PUSH2 0x49F0 JUMP JUMPDEST POP POP POP POP PUSH1 0xA0 DUP4 ADD MLOAD PUSH2 0x4A28 PUSH1 0xC0 DUP7 ADD DUP3 PUSH2 0x4940 JUMP JUMPDEST POP PUSH1 0xC0 DUP4 ADD MLOAD DUP2 PUSH2 0x120 DUP7 ADD MSTORE PUSH2 0x449F DUP3 DUP7 ADD DUP3 PUSH2 0x4963 JUMP JUMPDEST SWAP1 JUMP JUMPDEST PUSH1 0x1 PUSH1 0x1 PUSH1 0xA0 SHL SUB SWAP2 SWAP1 SWAP2 AND DUP2 MSTORE PUSH1 0x20 ADD SWAP1 JUMP JUMPDEST PUSH1 0x1 PUSH1 0x1 PUSH1 0xA0 SHL SUB DUP6 AND DUP2 MSTORE PUSH1 0x80 PUSH1 0x20 DUP3 ADD DUP2 SWAP1 MSTORE PUSH1 0x0 SWAP1 PUSH2 0x4A7C SWAP1 DUP4 ADD DUP7 PUSH2 0x48AA JUMP JUMPDEST DUP3 DUP2 SUB PUSH1 0x40 DUP5 ADD MSTORE PUSH2 0x4A8E DUP2 DUP7 PUSH2 0x4963 JUMP JUMPDEST SWAP1 POP DUP3 DUP2 SUB PUSH1 0x60 DUP5 ADD MSTORE PUSH2 0x4AA2 DUP2 DUP6 PUSH2 0x4963 JUMP JUMPDEST SWAP8 SWAP7 POP POP POP POP POP POP POP JUMP JUMPDEST PUSH1 0x1 PUSH1 0x1 PUSH1 0xA0 SHL SUB SWAP3 SWAP1 SWAP3 AND DUP3 MSTORE PUSH1 0x20 DUP3 ADD MSTORE PUSH1 0x40 ADD SWAP1 JUMP JUMPDEST PUSH1 0x1 PUSH1 0x1 PUSH1 0xA0 SHL SUB DUP6 DUP2 AND DUP3 MSTORE PUSH1 0x20 DUP3 ADD DUP6 SWAP1 MSTORE DUP4 AND PUSH1 0x40 DUP3 ADD MSTORE PUSH1 0x80 PUSH1 0x60 DUP3 ADD DUP2 SWAP1 MSTORE PUSH1 0x0 SWAP1 PUSH2 0x4AF9 SWAP1 DUP4 ADD DUP5 PUSH2 0x48AA JUMP JUMPDEST SWAP7 SWAP6 POP POP POP POP POP POP JUMP JUMPDEST PUSH1 0x1 PUSH1 0x1 PUSH1 0xA0 SHL SUB SWAP4 DUP5 AND DUP2 MSTORE SWAP2 SWAP1 SWAP3 AND PUSH1 0x20 DUP3 ADD MSTORE PUSH1 0x40 DUP2 ADD SWAP2 SWAP1 SWAP2 MSTORE PUSH1 0x60 ADD SWAP1 JUMP JUMPDEST PUSH1 0x1 PUSH1 0x1 PUSH1 0xA0 SHL SUB DUP7 DUP2 AND DUP3 MSTORE PUSH1 0x1 PUSH1 0x1 PUSH1 0xE0 SHL SUB NOT DUP7 AND PUSH1 0x20 DUP4 ADD MSTORE DUP5 DUP2 AND PUSH1 0x40 DUP4 ADD MSTORE PUSH1 0xA0 PUSH1 0x60 DUP4 ADD DUP2 SWAP1 MSTORE PUSH1 0x0 SWAP2 SWAP1 PUSH2 0x4B65 SWAP1 DUP5 ADD DUP7 PUSH2 0x4992 JUMP JUMPDEST SWAP2 POP DUP1 DUP5 AND PUSH1 0x80 DUP5 ADD MSTORE POP SWAP7 SWAP6 POP POP POP POP POP POP JUMP JUMPDEST PUSH1 0x0 PUSH1 0x20 DUP1 DUP4 ADD DUP2 DUP5 MSTORE DUP1 DUP6 MLOAD DUP1 DUP4 MSTORE PUSH1 0x40 DUP7 ADD SWAP2 POP PUSH1 0x40 DUP5 DUP3 MUL DUP8 ADD ADD SWAP3 POP DUP4 DUP8 ADD DUP6 JUMPDEST DUP3 DUP2 LT ISZERO PUSH2 0x4BCD JUMPI PUSH1 0x3F NOT DUP9 DUP7 SUB ADD DUP5 MSTORE PUSH2 0x4BBB DUP6 DUP4 MLOAD PUSH2 0x48ED JUMP JUMPDEST SWAP5 POP SWAP3 DUP6 ADD SWAP3 SWAP1 DUP6 ADD SWAP1 PUSH1 0x1 ADD PUSH2 0x4B9F JUMP JUMPDEST POP SWAP3 SWAP8 SWAP7 POP POP POP POP POP POP POP JUMP JUMPDEST PUSH1 0x0 PUSH1 0x20 DUP3 MSTORE PUSH2 0x21F0 PUSH1 0x20 DUP4 ADD DUP5 PUSH2 0x48ED JUMP JUMPDEST PUSH1 0x20 DUP1 DUP3 MSTORE DUP3 MLOAD DUP3 DUP3 ADD DUP2 SWAP1 MSTORE PUSH1 0x0 SWAP2 SWAP1 PUSH1 0x40 SWAP1 DUP2 DUP6 ADD SWAP1 DUP7 DUP5 ADD DUP6 JUMPDEST DUP3 DUP2 LT ISZERO PUSH2 0x4933 JUMPI DUP2 MLOAD DUP1 MLOAD PUSH1 0x1 PUSH1 0x1 PUSH1 0xA0 SHL SUB AND DUP6 MSTORE DUP7 ADD MLOAD DUP7 DUP6 ADD MSTORE SWAP3 DUP5 ADD SWAP3 SWAP1 DUP6 ADD SWAP1 PUSH1 0x1 ADD PUSH2 0x4C0A JUMP JUMPDEST SWAP1 ISZERO ISZERO DUP2 MSTORE PUSH1 0x20 ADD SWAP1 JUMP JUMPDEST SWAP1 DUP2 MSTORE PUSH1 0x20 ADD SWAP1 JUMP JUMPDEST PUSH1 0x0 PUSH1 0x20 DUP3 MSTORE PUSH2 0x21F0 PUSH1 0x20 DUP4 ADD DUP5 PUSH2 0x4992 JUMP JUMPDEST PUSH1 0x20 DUP1 DUP3 MSTORE PUSH1 0x14 SWAP1 DUP3 ADD MSTORE PUSH20 0x14185D5CD8589B194E881B9BDD081C185D5CD959 PUSH1 0x62 SHL PUSH1 0x40 DUP3 ADD MSTORE PUSH1 0x60 ADD SWAP1 JUMP JUMPDEST PUSH1 0x20 DUP1 DUP3 MSTORE PUSH1 0x25 SWAP1 DUP3 ADD MSTORE PUSH32 0x436F726E466920436F6E74726F6C6C65723A2047617320507269636520546F6F PUSH1 0x40 DUP3 ADD MSTORE PUSH5 0x4090D2CED PUSH1 0xDB SHL PUSH1 0x60 DUP3 ADD MSTORE PUSH1 0x80 ADD SWAP1 JUMP JUMPDEST PUSH1 0x20 DUP1 DUP3 MSTORE PUSH1 0x16 SWAP1 DUP3 ADD MSTORE PUSH22 0x21B7B93723349D1024B73B30B634B2102937BABA32B9 PUSH1 0x51 SHL PUSH1 0x40 DUP3 ADD MSTORE PUSH1 0x60 ADD SWAP1 JUMP JUMPDEST PUSH1 0x20 DUP1 DUP3 MSTORE PUSH1 0x2C SWAP1 DUP3 ADD MSTORE PUSH32 0x436F726E466920436F6E74726F6C6C65723A204E6F20557365722046756E6473 PUSH1 0x40 DUP3 ADD MSTORE PUSH12 0x20746F205769746864726177 PUSH1 0xA0 SHL PUSH1 0x60 DUP3 ADD MSTORE PUSH1 0x80 ADD SWAP1 JUMP JUMPDEST PUSH1 0x20 DUP1 DUP3 MSTORE PUSH1 0x26 SWAP1 DUP3 ADD MSTORE PUSH32 0x4F776E61626C653A206E6577206F776E657220697320746865207A65726F2061 PUSH1 0x40 DUP3 ADD MSTORE PUSH6 0x646472657373 PUSH1 0xD0 SHL PUSH1 0x60 DUP3 ADD MSTORE PUSH1 0x80 ADD SWAP1 JUMP JUMPDEST PUSH1 0x20 DUP1 DUP3 MSTORE PUSH1 0x27 SWAP1 DUP3 ADD MSTORE PUSH32 0x436F726E466920436F6E74726F6C6C65723A2047656C61746F204F6E6C792046 PUSH1 0x40 DUP3 ADD MSTORE PUSH7 0x3AB731BA34B7B7 PUSH1 0xC9 SHL PUSH1 0x60 DUP3 ADD MSTORE PUSH1 0x80 ADD SWAP1 JUMP JUMPDEST PUSH1 0x20 DUP1 DUP3 MSTORE PUSH1 0x28 SWAP1 DUP3 ADD MSTORE PUSH32 0x436F726E466920436F6E74726F6C6C65723A204D617820536C69707061676520 PUSH1 0x40 DUP3 ADD MSTORE PUSH8 0x115E18D959591959 PUSH1 0xC2 SHL PUSH1 0x60 DUP3 ADD MSTORE PUSH1 0x80 ADD SWAP1 JUMP JUMPDEST PUSH1 0x20 DUP1 DUP3 MSTORE PUSH1 0x1B SWAP1 DUP3 ADD MSTORE PUSH32 0x536166654D6174683A206164646974696F6E206F766572666C6F770000000000 PUSH1 0x40 DUP3 ADD MSTORE PUSH1 0x60 ADD SWAP1 JUMP JUMPDEST PUSH1 0x20 DUP1 DUP3 MSTORE PUSH1 0x28 SWAP1 DUP3 ADD MSTORE PUSH32 0x436F726E466920436F6E74726F6C6C65723A20496E76616C6964205061796D65 PUSH1 0x40 DUP3 ADD MSTORE PUSH8 0x373A102A37B5B2B7 PUSH1 0xC1 SHL PUSH1 0x60 DUP3 ADD MSTORE PUSH1 0x80 ADD SWAP1 JUMP JUMPDEST PUSH1 0x20 DUP1 DUP3 MSTORE PUSH1 0x10 SWAP1 DUP3 ADD MSTORE PUSH16 0x14185D5CD8589B194E881C185D5CD959 PUSH1 0x82 SHL PUSH1 0x40 DUP3 ADD MSTORE PUSH1 0x60 ADD SWAP1 JUMP JUMPDEST PUSH1 0x20 DUP1 DUP3 MSTORE PUSH1 0x1E SWAP1 DUP3 ADD MSTORE PUSH32 0x5F7472616E736665723A20455448207472616E73666572206661696C65640000 PUSH1 0x40 DUP3 ADD MSTORE PUSH1 0x60 ADD SWAP1 JUMP JUMPDEST PUSH1 0x20 DUP1 DUP3 MSTORE PUSH1 0x21 SWAP1 DUP3 ADD MSTORE PUSH32 0x536166654D6174683A206D756C7469706C69636174696F6E206F766572666C6F PUSH1 0x40 DUP3 ADD MSTORE PUSH1 0x77 PUSH1 0xF8 SHL PUSH1 0x60 DUP3 ADD MSTORE PUSH1 0x80 ADD SWAP1 JUMP JUMPDEST PUSH1 0x20 DUP1 DUP3 MSTORE PUSH1 0x28 SWAP1 DUP3 ADD MSTORE PUSH32 0x436F726E4669205661756C7420426173653A205472616465204944204F757420 PUSH1 0x40 DUP3 ADD MSTORE PUSH8 0x6F662052616E6765 PUSH1 0xC0 SHL PUSH1 0x60 DUP3 ADD MSTORE PUSH1 0x80 ADD SWAP1 JUMP JUMPDEST PUSH1 0x20 DUP1 DUP3 MSTORE DUP2 DUP2 ADD MSTORE PUSH32 0x4F776E61626C653A2063616C6C6572206973206E6F7420746865206F776E6572 PUSH1 0x40 DUP3 ADD MSTORE PUSH1 0x60 ADD SWAP1 JUMP JUMPDEST PUSH1 0x20 DUP1 DUP3 MSTORE PUSH1 0x26 SWAP1 DUP3 ADD MSTORE PUSH32 0x436F726E466920436F6E74726F6C6C65723A20455448207472616E7366657220 PUSH1 0x40 DUP3 ADD MSTORE PUSH6 0x19985A5B1959 PUSH1 0xD2 SHL PUSH1 0x60 DUP3 ADD MSTORE PUSH1 0x80 ADD SWAP1 JUMP JUMPDEST PUSH1 0x20 DUP1 DUP3 MSTORE PUSH1 0x29 SWAP1 DUP3 ADD MSTORE PUSH32 0x436F726E4669205661756C742051756572793A20546F6B656E204944204F7574 PUSH1 0x40 DUP3 ADD MSTORE PUSH9 0x206F662052616E6765 PUSH1 0xB8 SHL PUSH1 0x60 DUP3 ADD MSTORE PUSH1 0x80 ADD SWAP1 JUMP JUMPDEST PUSH1 0x20 DUP1 DUP3 MSTORE PUSH1 0x27 SWAP1 DUP3 ADD MSTORE PUSH32 0x436F726E466920436F6E74726F6C6C65723A20496E76616C6964204F72646572 PUSH1 0x40 DUP3 ADD MSTORE PUSH7 0x102334B63632B9 PUSH1 0xC9 SHL PUSH1 0x60 DUP3 ADD MSTORE PUSH1 0x80 ADD SWAP1 JUMP JUMPDEST PUSH1 0x20 DUP1 DUP3 MSTORE PUSH1 0x22 SWAP1 DUP3 ADD MSTORE PUSH32 0x436F726E466920436F6E74726F6C6C65723A2047656C61746F2044697361626C PUSH1 0x40 DUP3 ADD MSTORE PUSH2 0x1959 PUSH1 0xF2 SHL PUSH1 0x60 DUP3 ADD MSTORE PUSH1 0x80 ADD SWAP1 JUMP JUMPDEST PUSH1 0x20 DUP1 DUP3 MSTORE PUSH1 0x25 SWAP1 DUP3 ADD MSTORE PUSH32 0x436F726E466920436F6E74726F6C6C65723A205175657279204F7574206F6620 PUSH1 0x40 DUP3 ADD MSTORE PUSH5 0x52616E6765 PUSH1 0xD8 SHL PUSH1 0x60 DUP3 ADD MSTORE PUSH1 0x80 ADD SWAP1 JUMP JUMPDEST PUSH1 0x20 DUP1 DUP3 MSTORE PUSH1 0x2C SWAP1 DUP3 ADD MSTORE PUSH32 0x436F726E466920436F6E74726F6C6C65723A204F6E6C7920416374697665204F PUSH1 0x40 DUP3 ADD MSTORE PUSH12 0x726465722046696C6C657273 PUSH1 0xA0 SHL PUSH1 0x60 DUP3 ADD MSTORE PUSH1 0x80 ADD SWAP1 JUMP JUMPDEST PUSH1 0x20 DUP1 DUP3 MSTORE PUSH1 0x1F SWAP1 DUP3 ADD MSTORE PUSH32 0x5265656E7472616E637947756172643A207265656E7472616E742063616C6C00 PUSH1 0x40 DUP3 ADD MSTORE PUSH1 0x60 ADD SWAP1 JUMP JUMPDEST PUSH1 0x20 DUP1 DUP3 MSTORE PUSH1 0x21 SWAP1 DUP3 ADD MSTORE PUSH32 0x436F726E466920436F6E74726F6C6C65723A20496E616374697665205661756C PUSH1 0x40 DUP3 ADD MSTORE PUSH1 0x1D PUSH1 0xFA SHL PUSH1 0x60 DUP3 ADD MSTORE PUSH1 0x80 ADD SWAP1 JUMP JUMPDEST PUSH1 0x20 DUP1 DUP3 MSTORE PUSH1 0x2D SWAP1 DUP3 ADD MSTORE PUSH32 0x436F726E466920436F6E74726F6C6C65723A20496E737566666963656E742055 PUSH1 0x40 DUP3 ADD MSTORE PUSH13 0x736572204761732046756E6473 PUSH1 0x98 SHL PUSH1 0x60 DUP3 ADD MSTORE PUSH1 0x80 ADD SWAP1 JUMP JUMPDEST PUSH1 0x0 PUSH1 0x20 DUP3 MSTORE PUSH2 0x21F0 PUSH1 0x20 DUP4 ADD DUP5 PUSH2 0x49BE JUMP JUMPDEST SWAP2 DUP3 MSTORE PUSH1 0x20 DUP3 ADD MSTORE PUSH1 0x40 ADD SWAP1 JUMP JUMPDEST SWAP5 DUP6 MSTORE PUSH1 0x20 DUP6 ADD SWAP4 SWAP1 SWAP4 MSTORE PUSH1 0x1 PUSH1 0x1 PUSH1 0xA0 SHL SUB SWAP2 DUP3 AND PUSH1 0x40 DUP6 ADD MSTORE AND PUSH1 0x60 DUP4 ADD MSTORE PUSH1 0x80 DUP3 ADD MSTORE PUSH1 0xA0 ADD SWAP1 JUMP JUMPDEST PUSH1 0xFF SWAP2 SWAP1 SWAP2 AND DUP2 MSTORE PUSH1 0x20 ADD SWAP1 JUMP JUMPDEST PUSH1 0x40 MLOAD DUP2 DUP2 ADD PUSH1 0x1 PUSH1 0x1 PUSH1 0x40 SHL SUB DUP2 GT DUP3 DUP3 LT OR ISZERO PUSH2 0x52A8 JUMPI PUSH1 0x0 DUP1 REVERT JUMPDEST PUSH1 0x40 MSTORE SWAP2 SWAP1 POP JUMP JUMPDEST PUSH1 0x0 PUSH1 0x1 PUSH1 0x1 PUSH1 0x40 SHL SUB DUP3 GT ISZERO PUSH2 0x52C5 JUMPI DUP1 DUP2 REVERT JUMPDEST POP PUSH1 0x20 SWAP1 DUP2 MUL ADD SWAP1 JUMP JUMPDEST PUSH1 0x0 PUSH1 0x1 PUSH1 0x1 PUSH1 0x40 SHL SUB DUP3 GT ISZERO PUSH2 0x52E4 JUMPI DUP1 DUP2 REVERT JUMPDEST POP PUSH1 0x1F ADD PUSH1 0x1F NOT AND PUSH1 0x20 ADD SWAP1 JUMP JUMPDEST PUSH1 0x0 JUMPDEST DUP4 DUP2 LT ISZERO PUSH2 0x530D JUMPI DUP2 DUP2 ADD MLOAD DUP4 DUP3 ADD MSTORE PUSH1 0x20 ADD PUSH2 0x52F5 JUMP JUMPDEST DUP4 DUP2 GT ISZERO PUSH2 0x3851 JUMPI POP POP PUSH1 0x0 SWAP2 ADD MSTORE JUMP JUMPDEST PUSH1 0x1 PUSH1 0x1 PUSH1 0xA0 SHL SUB DUP2 AND DUP2 EQ PUSH2 0x3B3E JUMPI PUSH1 0x0 DUP1 REVERT JUMPDEST DUP1 ISZERO ISZERO DUP2 EQ PUSH2 0x3B3E JUMPI PUSH1 0x0 DUP1 REVERT INVALID LOG2 PUSH5 0x6970667358 0x22 SLT KECCAK256 PUSH27 0xA7868B4100FDAC9C9A513FD5B0F672CE511A538BFB315565A9175B SMOD SSTORE 0xDF 0xB1 PUSH5 0x736F6C6343 STOP MOD 0xC STOP CALLER ",
  "sha1": "c3721c1a51f02239404f34938a7dc760b569194f",
  "source": "// SPDX-License-Identifier: MIT\npragma solidity 0.6.12;\n\nimport \"../interfaces/IVaultBase.sol\";\nimport \"../interfaces/IUniswapV2Router02.sol\";\nimport \"./openzeppelin/contracts/token/ERC20/SafeERC20.sol\";\nimport \"./openzeppelin/contracts/access/Ownable.sol\";\nimport \"./openzeppelin/contracts/utils/Pausable.sol\";\nimport \"./openzeppelin/contracts/utils/ReentrancyGuard.sol\";\nimport \"../interfaces/IPokeMe.sol\";\nimport \"../interfaces/IResolver.sol\";\nimport \"../interfaces/IStrategy.sol\";\n\n\npragma experimental ABIEncoderV2;\n\ncontract Controller is Ownable, Pausable, ReentrancyGuard {\n    using SafeERC20 for IERC20;\n    using SafeMath for uint256;\n\n    struct UserTokens {\n        address vault;\n        uint256 tokenId;\n    }\n\n    uint8 public constant NOT_A_VAULT = 0;\n    uint8 public constant ACTIVE_VAULT = 1;\n    uint8 public constant DEACTIVATED_VAULT = 2;\n\n    // Gelato address that receives the gas fee after execution\n    address payable public constant gelato = 0x7598e84B2E114AB62CAB288CE5f7d5f6bad35BbA;\n\n    // Native token\n    address public constant ETH = 0xEeeeeEeeeEeEeeEeEeEeeEEEeeeeEeeeeeeeEEeE;\n\n    // Contract that will call this contract to fill orders\n    IPokeMe public PokeMe = IPokeMe(0x527a819db1eb0e34426297b03bae11F2f8B3A19E);\n\n    // Contract for finding the best router and path for a given swap\n    IResolver public Resolver;\n\n    // Token used to pay Gelato for executing transactions\n    address public GasToken = 0xEeeeeEeeeEeEeeEeEeEeeEEEeeeeEeeeeeeeEEeE;\n\n    // true: Gelato is active - Gelato will monitor orders and fill when executable\n    // false: Gelato is inactive - Dev will monitor orders and fill when executable\n    bool public Gelato;\n\n    // taskIds[vaultId][tokenId] --> Gelato task ID\n    // Gelato tasks are only created when 'Gelato' = true\n    mapping(uint256 => mapping(uint256 => bytes32)) public taskIds;\n\n    // tokenMaxGas[vaultId][tokenId] --> Max gas price (gwei)\n    // Filling order txs will revert if the gas price exceeds what the user set\n    mapping(uint256 => mapping(uint256 => uint256)) public tokenMaxGas;\n\n    // Amount of gas a user has deposited\n    mapping(address => uint256) public userGasAmounts;\n\n    // All routers used for filling orders\n    IUniswapV2Router02[] public routers;\n\n    // activeRouters[router] --> true: Router is active; false: Router is inactive\n    // Note: Deactivated routers are not removed from 'routers', be sure that the\n    // router being used returns 'true' from the mapping below before using to \n    // fill orders.\n    mapping(IUniswapV2Router02 => bool) public activeRouters;\n\n    // All vaults\n    IVaultBase[] public vaults;\n\n    // _vaults[vault] --> 0: Vault not present in Controller; 1: Vault is active;\n    // 2: Vault is deactivated\n    mapping(address => uint8) internal _vaults;\n\n    // _vaultIds[vault] --> Vault index of 'vaults' (i.e. vault ID)\n    mapping(address => uint256) internal _vaultIds;\n\n    // Dev wallet for protocol fees\n    address public constant Fees = 0x22B20054BBD6dC5C23D7c7595e092ca728a00c32;\n\n    // Slippage setting for when filling orders\n    // slippage = SLIPPAGE_POINTS / SLIPPAGE_BASE_POINTS\n    // 0.5% slippage --> SLIPPAGE_POINTS = 5; SLIPPAGE_BASE_POINTS = 1000\n    uint256 public SLIPPAGE_POINTS;\n    uint256 public SLIPPAGE_BASE_POINTS;\n\n    // true: Only whitelisted addresses can fill orders\n    // false: Any address can fill orders\n    bool public whitelistOrderFillers;\n\n    // Whitelisted addresses that can fill orders\n    address[] public orderFillers;\n\n    // activeOrderFillers[filler] --> 0: Filler not whitelisted; 1: Filler is whitelisted;\n    // 2: Filler has permissions revoked\n    mapping(address => uint8) public activeOrderFillers;\n\n    // Contracts that hold trade tokens\n    address[] public holdingStrategies;\n\n    // _holdingStrategies[strategy] --> true: Active holding strategy; false: Holding\n    // strategy not added yet.\n    mapping(address => bool) internal _holdingStrategies;\n\n\n    // --------------------------------------------------------------------------------\n    // //////////////////////////////////// Events ////////////////////////////////////\n    // --------------------------------------------------------------------------------\n    event DepositGas(address indexed _receiver, address _gasToken, uint256 _amount);\n    event CreateTrade(address indexed _creator, uint256 indexed _vaultId, uint256 _tokenId);\n    event CreateOrder(address indexed _creator, uint256 indexed _vaultId, uint256 _orderId);\n    event FillOrder(address indexed _orderOwner, uint256 indexed _vaultId, uint256 indexed _tokenId, uint256 _orderId);\n    event Withdraw(address indexed _owner, uint256 indexed _vaultId, uint256 indexed _tokenId);\n\n    \n    // --------------------------------------------------------------------------------\n    // ////////////////////////////////// Modifiers ///////////////////////////////////\n    // --------------------------------------------------------------------------------\n\n    /**\n    * @dev Restricts the caller to only the Gelato 'PokeMe' contract \n    */\n    modifier onlyGelato() {\n        require(\n            msg.sender == address(PokeMe), \n            \"CornFi Controller: Gelato Only Function\"\n        );\n        require(Gelato, \"CornFi Controller: Gelato Disabled\");\n        _;\n    }\n\n    // --------------------------------------------------------------------------------\n\n    /**\n    * @dev Restricts the caller to only addresses that are whitelisted \n    */\n    modifier onlyApprovedFillers() {\n        if(whitelistOrderFillers) {\n            require(\n                activeOrderFillers[msg.sender] == 1, \n                \"CornFi Controller: Invalid Order Filler\"\n            );\n        }\n        _;\n    }\n\n\n    // --------------------------------------------------------------------------------\n    // --------------------------------------------------------------------------------\n    // --------------------------------------------------------------------------------\n    // --------------------------------------------------------------------------------\n\n    /**\n    * @param _slippagePoints: Highest acceptable slippage amount when executing swaps\n    * @param _slippageBasePoints: (_slippagePoints / _slippageBasePoints) --> slippage %\n    * @param _routers: Approved routers used for executing swaps. No new routers can be\n    * added after deploying this contract.\n    * @param _resolver: Gelato resolver contract used to find the router and swap path\n    * that provides the highest output amount.\n    */\n    constructor(\n        uint256 _slippagePoints,\n        uint256 _slippageBasePoints,\n        IUniswapV2Router02[] memory _routers,\n        address _resolver\n    ) public {\n        _setSlippage(_slippagePoints, _slippageBasePoints);\n        Gelato = true;\n        \n        Resolver = IResolver(_resolver);\n        for(uint i = 0; i < _routers.length; i++) {\n            _addRouter(_routers[i]);\n        }\n        whitelistOrderFillers = true;\n        _addOrderFiller(msg.sender);\n    }\n\n\n    // --------------------------------------------------------------------------------\n    // //////////////////////// Contract Settings - Only Owner ////////////////////////\n    // --------------------------------------------------------------------------------\n\n    /**\n    * @dev After calling, 'createTrade', 'fillOrder', 'fillOrderGelato', and 'depositGas'\n    * functions will be disabled. Users will only be able to withdraw their trades and\n    * any deposited gas. Only the owner of this contract can call this function.\n    */\n    function pause() external onlyOwner {\n        _pause();\n    }\n\n    // --------------------------------------------------------------------------------\n\n    /**\n    * @dev Enables 'createTrade', 'fillOrder', 'fillOrderGelato', and 'depositGas'\n    * functions. Only the owner of this contract can call this function.\n    */\n    function unpause() external onlyOwner {\n        _unpause();\n    }\n\n    // --------------------------------------------------------------------------------\n\n    /**\n    * @dev Whitelist an order filler. Only the owner of this contract can call this \n    * function.\n    * @param _filler: Address that will call 'fillOrder()' within this contract\n    */\n    function addOrderFiller(address _filler) external onlyOwner {\n        _addOrderFiller(_filler);\n    }\n\n    // --------------------------------------------------------------------------------\n\n    /**\n    * @dev Restrict order filling to a whitelist of addresses or allow any address to\n    * fill orders. Only the owner of this contract can call this function.\n    * @param _whitelist: true: Only whitelisted addresses can fill orders; false: Any\n    * address can fill orders\n    */\n    function setOrderFillers(bool _whitelist) external onlyOwner {\n        whitelistOrderFillers = _whitelist;\n    }\n\n    // --------------------------------------------------------------------------------\n\n    /**\n    * @dev Revokes order filling permissions from an address. Only the owner of this \n    * contract can call this function.\n    * @param _filler: Address that will have its order filling permissions revoked\n    */\n    function deactivateOrderFiller(address _filler) external onlyOwner {\n        require(\n            activeOrderFillers[_filler] == 1, \n            \"CornFi Controller: Only Active Order Fillers\"\n        );\n        activeOrderFillers[_filler] = 2;\n    }\n\n    // --------------------------------------------------------------------------------\n\n    /**\n    * @dev Set the URI of a vault to display an image. Only the owner of this contract \n    * can call this function.\n    * @param _vaultId: Vault that will have its URI set\n    * @param _URI: IPFS link\n    */\n    function setVaultURI(uint256 _vaultId, string memory _URI) external onlyOwner {\n        vaults[_vaultId].setBaseURI(_URI);\n    }\n\n    // --------------------------------------------------------------------------------\n\n    /**\n    * @dev Deactivated router will no longer be able to be used for filling orders.\n    * A deactivated router cannot be reactivated. Only the owner of this contract can \n    * call this function.\n    * @param _router: Router to deactivate \n    */\n    function deactivateRouter(IUniswapV2Router02 _router) external onlyOwner {\n        activeRouters[_router] = false;\n    }\n\n    // --------------------------------------------------------------------------------\n\n    /**\n    * @dev Add a vault for trading. Vault must inherit 'VaultBase.sol' and meet the\n    * vault standard for proper functionality. Only the owner of this contract can call \n    * this function.\n    * @param _vault: Address of vault to add\n    */\n    function addVault(address _vault) external onlyOwner {\n        require(_vaults[_vault] == NOT_A_VAULT);\n        _vaultIds[_vault] = vaults.length;\n        vaults.push(IVaultBase(_vault));\n        _vaults[_vault] = ACTIVE_VAULT;\n    }\n\n    // --------------------------------------------------------------------------------\n\n    /**\n    * @dev Disables the 'createTrade', 'fillOrder', and 'fillOrderGelato' functions.\n    * Once a vault is deactivated, users will only be able to withdraw their trades.\n    * Deactivated vaults cannot be reactivated. Only the owner of this contract can \n    * call this function.\n    * @param _vault: Address of vault to deactivate\n    */\n    function deactivateVault(address _vault) external onlyOwner {\n        _vaults[_vault] = DEACTIVATED_VAULT;\n    }\n\n    // --------------------------------------------------------------------------------\n\n    /**\n    * @dev Set the slippage amount for each order being filled. Only the owner of this \n    * contract can call this function.\n    * @param _slippagePoints: This value divided by '_slippageBasePoints' gives the \n    * slippage percentage.\n    * @param _slippageBasePoints: Max amount of slippage points\n    */\n    function setSlippage(uint256 _slippagePoints, uint256 _slippageBasePoints) external onlyOwner {\n        _setSlippage(_slippagePoints, _slippageBasePoints);\n    }\n\n    // --------------------------------------------------------------------------------\n\n    /**\n    * @dev Configure Gelato settings. Enable/disable filling orders with Gelato. Only \n    * the owner of this contract can call this function.\n    * @param _pokeMe: Gelato contract that will call this contract\n    * @param _resolver: Contract that the Gelato executor will call for the input data\n    * used when calling this contract.\n    * @param _gelato: true: Gelato fills orders; false: Dev fills orders\n    */\n    function gelatoSettings(IPokeMe _pokeMe, IResolver _resolver, bool _gelato) external onlyOwner {\n        PokeMe = _pokeMe;\n        Resolver = _resolver;\n        Gelato = _gelato;\n    }\n\n    // --------------------------------------------------------------------------------\n\n    /**\n    * @dev Deactivate an ERC20 token for a vault. Once a token is deactivated, it cannot\n    * be reactivated. Only the owner can call this function.\n    * @param _vaultId: Index of vault in 'vaults'\n    * @param _token: ERC20 token address  \n    */\n    function deactivateToken(uint256 _vaultId, address _token) external onlyOwner {\n        return vaults[_vaultId].deactivateToken(_token);\n    } \n\n    // --------------------------------------------------------------------------------\n\n    /**\n    * @dev Map a holding strategy contract to an ERC20 token. A token can only be mapped\n    * to holding strategy once. Only the owner of this contract can call this function.\n    * @param _vaultId: Index of vault in 'vaults'\n    * @param _token: ERC20 token address\n    * @param _strategy: Holding strategy contract\n    * @param _minDeposit: Minimum amount of '_token' that can be deposited when creating\n    * a trade. \n    */\n    function setTokenStrategy(\n        uint256 _vaultId, \n        address _token, \n        address _strategy, \n        uint256 _minDeposit\n    ) external onlyOwner {\n        // Map the holding strategy to the ERC20 token\n        vaults[_vaultId].setStrategy(_token, _strategy, _minDeposit);\n\n        // Add the holding strategy address if not already done\n        if(!_holdingStrategies[_strategy]) {\n            holdingStrategies.push(_strategy);\n            _holdingStrategies[_strategy] = true;\n        }\n    } \n\n    // --------------------------------------------------------------------------------\n\n    /**\n    * @dev Change the minimum deposit amount for an ERC20 token when creating a trade.\n    * ERC20 token must already be mapped to a holding strategy before calling this\n    * function. Only the owner of this contract can call this function. \n    */\n    function changeTokenMinimumDeposit(\n        uint256 _vaultId, \n        address _token, \n        uint256 _minDeposit\n    ) external onlyOwner {              \n        vaults[_vaultId].changeMinimumDeposit(_token, _minDeposit);\n    }\n\n\n    // --------------------------------------------------------------------------------\n    // ///////////////////////////// Read-Only Functions //////////////////////////////\n    // --------------------------------------------------------------------------------\n\n    /**\n    * @param _vaultId: Index of vault in 'vaults'\n    * @param _token: ERC20 token address\n    * @return Holding strategy mapped to '_token'\n    */\n    function tokenStrategy(\n        uint256 _vaultId, \n        address _token\n    ) external view returns (IStrategy) {                                     \n        return vaults[_vaultId].strategy(_token);                                                                   \n    }                                                                                                       \n\n    // --------------------------------------------------------------------------------\n\n    /**\n    * @param _vaultId: Index of vault in 'vaults'\n    * @param _token: ERC20 token address\n    * @return Minimum amount of '_token' that can be deposited while creating a trade\n    */\n    function tokenMinimumDeposit(uint256 _vaultId, address _token) external view returns (uint256) {                                 \n        return vaults[_vaultId].minimumDeposit(_token);                                                                     \n    }   \n\n    // --------------------------------------------------------------------------------\n\n    /**\n    * @notice Array of all ERC20 tokens mapped to a holding strategy within a vault.\n    * Active and deactivated tokens are included. Use 'activeTokens()' to verify if the\n    * token is active or not.\n    * @param _vaultId: Index of vault in 'vaults'\n    * @param _index: Index of 'tokens' within a vault\n    * @return ERC20 token address\n    */\n    function tokens(uint256 _vaultId, uint256 _index) public view returns (address) {\n        return vaults[_vaultId].tokens(_index);\n    }  \n\n    // --------------------------------------------------------------------------------\n\n    /**\n    * @param _vaultId: Index of vault in 'vaults'\n    * @param _token: ERC20 token address\n    * @return true: ERC20 token is active and can be used to create a trade; false: ERC20\n    * token is inactive and cannot be used to create a trade\n    */\n    function activeTokens(uint256 _vaultId, address _token) external view returns (bool) {\n        return vaults[_vaultId].activeTokens(_token);\n    }   \n\n    // --------------------------------------------------------------------------------\n \n    /**\n    * @param _vaultId: Index of vault in 'vaults'\n    * @return Number of ERC20 tokens mapped to a holding strategy in a vault\n    */\n    function tokensLength(uint256 _vaultId) external view returns (uint256) {\n        return vaults[_vaultId].tokensLength();\n    }                        \n\n    // --------------------------------------------------------------------------------\n\n    /**\n    * @notice Use to get the minimum amount out of a swap\n    * @param _amountIn: Amount of a given ERC20 token\n    * @return Adjusts '_amountIn' to account for slippage\n    */\n    function slippage(uint256 _amountIn) public view returns (uint256) {\n        return _amountIn.sub(_amountIn.mul(SLIPPAGE_POINTS).div(SLIPPAGE_BASE_POINTS));\n    }\n\n\n    // --------------------------------------------------------------------------------\n    // /////////////////////////////// Vault Functions ////////////////////////////////\n    // --------------------------------------------------------------------------------\n\n    /**\n    * @dev Change vault URI with 'setVaultURI'\n    * @notice Vault URI is mutable\n    * @param _vaultId: Vault to view URI of\n    * @return Vault URI\n    */\n    function vaultURI(uint256 _vaultId) external view returns (string memory) {\n        return vaults[_vaultId].baseURI();\n    }\n\n    // --------------------------------------------------------------------------------\n\n    /**\n    * @param _vault: Address of vault\n    * @return 0: Not added to this contract; 1 = Active vault; 2 = Deactivated vault\n    */\n    function vault(address _vault) public view returns (uint8) {\n        return _vaults[_vault];\n    }\n\n    // --------------------------------------------------------------------------------\n\n    /**\n    * @param _vault: Address of vault\n    * @return Reverse mapping vault address to index in 'vaults'\n    */\n    function vaultId(address _vault) public view returns (uint256) {\n        return _vaultIds[_vault];\n    }\n\n    // --------------------------------------------------------------------------------\n\n    /**\n    * @notice Includes active and added then deactivated vaults\n    * @return Number of added vaults \n    */\n    function vaultsLength() public view returns (uint256) {\n        return vaults.length;\n    }\n\n    // --------------------------------------------------------------------------------\n\n    /**\n    * @notice The prices used when creating trades need to be multiplied by the value\n    * returned from this function. This is done to handle the decimals.\n    * @param _vaultId: Index of vault in 'vaults'\n    * @return Value to multiply with the price \n    */\n    function priceMultiplier(uint256 _vaultId) external view returns (uint256) {\n        return vaults[_vaultId].PRICE_MULTIPLIER();\n    }\n\n    // --------------------------------------------------------------------------------\n\n    /**\n    * @param _vaultId: Index of vault in 'vaults'\n    * @param _tokenId: Vault token\n    * @param _tradeIds: Trades within the vault token\n    * @return Order[trade ID][order index] - Returns the trades and their orders \n    */\n    function viewTrades(\n        uint256 _vaultId, \n        uint256 _tokenId, \n        uint256[] memory _tradeIds\n    ) external view returns (IVaultBase.Order[][] memory) {\n        IVaultBase _vault = vaults[_vaultId];\n\n        // Check for valid token ID\n        require(\n            _tokenId <= _vault.tokenCounter(), \n            \"CornFi Vault Query: Token ID Out of Range\"\n        );\n\n        IVaultBase.Order[][] memory tradeOrders = new IVaultBase.Order[][](_tradeIds.length);\n\n        // Loop through the trades\n        for(uint i = 0; i < _tradeIds.length; i++) {\n\n            // Check for valid trade ID\n            require(\n                _tradeIds[i] <= _vault._tokenTradeLength(_tokenId), \n                \"CornFi Vault Base: Trade ID Out of Range\"\n            );\n\n            // Get the trade and its orders\n            tradeOrders[i] = _viewTrade(_vault, _tokenId, _tradeIds[i]);\n        }\n        return tradeOrders;\n    }\n\n    // --------------------------------------------------------------------------------\n\n    /**\n    * @notice View a single order. Order can be open or closed.\n    * @param _vaultId: Index of vault in 'vaults'\n    * @param _orderId: Order to view\n    * @return Order details \n    */\n    function viewOrder(\n        uint256 _vaultId, \n        uint256 _orderId\n    ) public view returns (IVaultBase.Order memory) {\n        return vaults[_vaultId].order(_orderId);\n    }\n\n    // --------------------------------------------------------------------------------\n\n    /**\n    * @notice View multiple orders. \n    * @param _vaultId: Index of vault in 'vaults'\n    * @param _orderIds: Orders to view\n    * @return Array of order details \n    */\n    function viewOrders(\n        uint256 _vaultId, \n        uint256[] memory _orderIds\n    ) public view returns (IVaultBase.Order[] memory) {\n        IVaultBase _vault = vaults[_vaultId];\n        IVaultBase.Order[] memory _orders = new IVaultBase.Order[](_orderIds.length);\n\n        // Loop through orders\n        for(uint i = 0; i < _orderIds.length; i++) {\n            _orders[i] = _vault.order(_orderIds[i]);\n        }\n        return _orders;\n    }\n\n    // --------------------------------------------------------------------------------\n\n    /**\n    * @param _vaultId: Index of vault in 'vaults'\n    * @param _tokenId: Vault token\n    * @return All open orders for a given vault token\n    */ \n    function viewOpenOrdersByToken(\n        uint256 _vaultId, \n        uint256 _tokenId\n    ) public view returns (IVaultBase.Order[] memory) {\n        IVaultBase _vault = vaults[_vaultId];\n\n        // Get number of open orders for a vault token\n        uint256 orderLength = _vault.tokenOpenOrdersLength(_tokenId);\n\n        IVaultBase.Order[] memory _orders = new IVaultBase.Order[](orderLength);\n\n        // Loop through open orders\n        for(uint i = 0; i < orderLength; i++) {\n            _orders[i] = _vault.order(_vault.tokenOpenOrderId(_tokenId, i));\n        }\n        return _orders;\n    }\n\n    // --------------------------------------------------------------------------------\n\n    /**\n    * @notice View multiple open orders in one call. Call may revert if the range is\n    * too big.\n    * @param _vaultId: Index of vault in 'vaults'\n    * @param _start: Start index of 'openOrderIds' within the vault\n    * @param _end: End index of 'openOrderIds' within the vault\n    * @return Open orders inside the given range\n    */ \n    function viewOpenOrdersInRange(\n        uint256 _vaultId, \n        uint256 _start, \n        uint256 _end\n    ) external view returns (IVaultBase.Order[] memory) {\n        IVaultBase _vault = vaults[_vaultId];\n        require(_end <= _vault.openOrdersLength(), \"CornFi Controller: Query Out of Range\");\n        IVaultBase.Order[] memory _orders = new IVaultBase.Order[](_end.sub(_start).add(1));\n        for(uint i = _start; i <= _end; i++) {\n            _orders[i.sub(_start)] = _vault.order(_vault.openOrderId(i));\n        }\n        return _orders;\n    }\n\n    // --------------------------------------------------------------------------------\n\n    /**\n    * @param _vaultId: Index of vault in 'vaults'\n    * @return Number of orders created in the vault \n    */\n    function ordersLength(uint256 _vaultId) external view returns (uint256) {\n        return vaults[_vaultId].ordersLength();\n    }\n\n    // --------------------------------------------------------------------------------\n\n    /**\n    * @param _vaultId: Index of vault in 'vaults'\n    * @return Number of open orders in the vault \n    */\n    function openOrdersLength(uint256 _vaultId) external view returns (uint256) {\n        return vaults[_vaultId].openOrdersLength();\n    }\n\n    // --------------------------------------------------------------------------------\n\n    /**\n    * @param _vaultId: Index of vault in 'vaults'\n    * @param _tokenId: Vault token\n    * @return Number of open orders for a token in a vault \n    */\n    function tokenOpenOrdersLength(\n        uint256 _vaultId, \n        uint256 _tokenId\n    ) external view returns (uint256) {\n        return vaults[_vaultId].tokenOpenOrdersLength(_tokenId);\n    }\n\n    // --------------------------------------------------------------------------------\n\n    /**\n    * @param _vaultId: Index of vault in 'vaults'\n    * @return Number of all minted tokens in a vault (includes burnt tokens) \n    */\n    function tokenLength(uint256 _vaultId) external view returns (uint256) {\n        return vaults[_vaultId].tokenCounter();\n    }\n\n    // --------------------------------------------------------------------------------\n\n    /**\n    * @param _vaultId: Index of vault in 'vaults'\n    * @param _tokenId: Vault token\n    * @return Number of trades within a vault token \n    */\n    function tokenTradeLength(\n        uint256 _vaultId, \n        uint256 _tokenId\n    ) external view returns (uint256) {\n        return vaults[_vaultId]._tokenTradeLength(_tokenId);\n    }\n\n    // --------------------------------------------------------------------------------\n\n    /**\n    * @param _owner: Owner of vault tokens\n    * @return All vault tokens the user owns. Returns the vault address and token ID\n    */\n    function vaultTokensByOwner(address _owner) external view returns (UserTokens[] memory) {\n        uint256 _tokensLength = 0;\n\n        // Get number of tokens the user owns accross all vaults\n        for(uint256 k = 0; k < vaultsLength(); k++) {\n            _tokensLength += vaults[k].balanceOf(_owner);\n        }\n\n        UserTokens[] memory userTokens = new UserTokens[](_tokensLength);\n        uint256 counter = 0;\n\n        // Loop through all vaults\n        for(uint256 i = 0; i < vaultsLength(); i++) {\n            // Loop through all tokens user owns within a vault\n            for(uint256 j = 0; j < vaults[i].balanceOf(_owner); j++) {\n                userTokens[counter++] = UserTokens(\n                    address(vaults[i]), \n                    vaults[i].tokenOfOwnerByIndex(_owner, j)\n                );\n            }\n        }\n\n        return userTokens;\n    }\n\n    // --------------------------------------------------------------------------------\n\n    /**\n    * @notice Create a trade with one of the approved vaults. The format for '_tokens',\n    * '_amounts', and '_times' is specific to the vault. Refer to the vault being used\n    * to verify the correct data format. Trades are only created with active vaults.\n    * The strating amount of the trade is deposited upon creating a trade. A deposit fee\n    * is taken from the deposited amount. When Gelato is active, a task is created for\n    * each open order.\n    * @param _vaultId: Index of vault in 'vaults'\n    * @param _tokens: Specific to the vault used. Refer to vault documentation.\n    * @param _amounts: Specific to the vault used. Refer to vault documentation.\n    * @param _times: Specific to the vault used. Refer to vault documentation.\n    * @param _maxGas: In gwei. The maximum gas price that any order within this trade\n    * can be executed at.\n    */\n    function createTrade(\n        uint256 _vaultId, \n        address[] memory _tokens, \n        uint256[] memory _amounts, \n        uint[] memory _times, \n        uint256 _maxGas\n    ) external whenNotPaused nonReentrant {\n        // Active vaults only\n        require(\n            vault(address(vaults[_vaultId])) == ACTIVE_VAULT, \n            \"CornFi Controller: Inactive Vault\"\n        );\n\n        // Create a trade and get the created orders \n        uint256[] memory orderIds = vaults[_vaultId].createTrade(msg.sender, _tokens, _amounts, _times);\n        IVaultBase.Order[] memory orders = viewOrders(_vaultId, orderIds);\n\n        emit CreateTrade(msg.sender, _vaultId, orders[0].tokenId);\n\n        // Max gas price for when filling orders. Lower gas price saves the user ETH,\n        // but increases the risk that their orders will not get filled during network\n        // congestion.\n        tokenMaxGas[_vaultId][orders[0].tokenId] = _maxGas;\n\n        // When Gelato is active, create a task for the orders created. Gelato will monitor\n        // each order and execute when trade conditions are met.\n        if(Gelato) {\n            for(uint i = 0; i < orders.length; i++) {\n\n                emit CreateOrder(msg.sender, _vaultId, orders[i].orderId);\n\n                // Gelato executors will call the Resolver contract with encoded\n                // data to get the input data for filling an order. Specifically,\n                // the Resolver will find the best path and router for the order\n                // then encode the input data for 'fillOrderGelato'\n                taskIds[_vaultId][orders[i].orderId] = PokeMe.createTaskNoPrepayment(\n                    address(this), \n                    this.fillOrderGelato.selector, \n                    address(Resolver), \n                    abi.encodeWithSelector(\n                        Resolver.checker.selector, \n                        _vaultId, \n                        orders[i].orderId, \n                        orders[i].tokens[0], \n                        orders[i].tokens[1], \n                        orders[i].amounts[0]\n                    ),\n                    GasToken\n                );\n            }\n        }\n    }\n\n    // --------------------------------------------------------------------------------\n\n    /**\n    * @notice Fill open orders when trade conditions are met. Only Gelato executors\n    * can call this function. This function is the primary method used to fill orders. \n    * If Gelato is no longer used, orders are filled through calling 'fillOrder()'\n    * instead. Gelato executor will call 'checker()' in Resolver.sol first to get the \n    * router and path with the highest output amount. Gelato executor is refunded the \n    * gas cost from the ETH the order owner has deposited.\n    * @param _vaultId: Index of vault in 'vaults'\n    * @param _orderId: Order to fill\n    * @param _router: Router used to fill the order\n    * @param _path: Swap path used to fill the order\n    */\n    function fillOrderGelato(\n        uint256 _vaultId, \n        uint256 _orderId, \n        IUniswapV2Router02 _router, \n        address[] memory _path\n    ) external whenNotPaused onlyGelato nonReentrant {\n        // Revert if the router is not whitelisted. \n        require(activeRouters[_router], \"CornFi: Invalid Router\");\n\n        // Order to fill\n        IVaultBase.Order memory _order = viewOrder(_vaultId, _orderId);\n\n        // When tokenMaxGas = 0, the order can be fill at any gas price.\n        // Otherwise, ensure that the gas price is below the user set max.\n        if(tokenMaxGas[_vaultId][_order.tokenId] > 0) {\n            require(\n                tx.gasprice <= tokenMaxGas[_vaultId][_order.tokenId], \n                \"CornFi Controller: Gas Price Too High\"\n            );\n        }\n\n        // Fill the order\n        IVaultBase.Order memory order = vaults[_vaultId].fillOrder(msg.sender, _orderId, _router, _path);\n\n        // If the order has an associated task ID, cancel the task\n        if(taskIds[_vaultId][_orderId] != bytes32(0)) PokeMe.cancelTask(taskIds[_vaultId][_orderId]);\n\n        // Owner of the order being filled\n        address orderOwner = vaults[_vaultId].ownerOf(_order.tokenId);\n\n        emit FillOrder(orderOwner, _vaultId, _order.tokenId, _orderId);\n\n        // When using Gelato to fill orders.\n        // An order ID greater than '0' indicates a new order was created. Create a new\n        // task with Gelato to monitor and fill the created order.\n        if(Gelato && order.orderId != 0) {\n\n            emit CreateOrder(orderOwner, _vaultId, order.orderId);\n\n            // Create a task with Gelato to monitor and fill the created order\n            taskIds[_vaultId][order.orderId] = PokeMe.createTaskNoPrepayment(\n                address(this), \n                this.fillOrderGelato.selector, \n                address(Resolver), \n                abi.encodeWithSelector(\n                    Resolver.checker.selector, \n                    _vaultId, \n                    order.orderId, \n                    order.tokens[0], \n                    order.tokens[1], \n                    order.amounts[0]\n                ),\n                GasToken\n            );\n        }\n\n        (uint256 fee, address feeToken) = PokeMe.getFeeDetails();\n        \n        // Check that the order owner has enough ETH deposited to cover the gas\n        require(\n            userGasAmounts[orderOwner] >= fee, \n            \"CornFi Controller: Insufficent User Gas Funds\"\n        );\n\n        // Subtract the gas spent from the order owners deposited amount of ETH\n        userGasAmounts[orderOwner] = userGasAmounts[orderOwner].sub(fee);\n\n        // Reimburse the caller for the gas spent filling the order\n        _transfer(fee, feeToken);\n    }\n\n    // --------------------------------------------------------------------------------\n\n    /**\n    * @notice Fill open orders when trade conditions are met. Only approved order fillers\n    * can call this function. This function will only be used if the use of Gelato is\n    * stopped. Call 'findBestPath()' in Resolver.sol first to get the router and path\n    * with the highest output amount. Caller is refunded the gas cost from the ETH the\n    * order owner has deposited.\n    * @param _vaultId: Index of vault in 'vaults'\n    * @param _orderId: Order to fill\n    * @param _router: Router used to fill the order\n    * @param _path: Swap path used to fill the order\n    */\n    function fillOrder(\n        uint256 _vaultId,\n        uint256 _orderId, \n        IUniswapV2Router02 _router, \n        address[] memory _path\n    ) external whenNotPaused onlyApprovedFillers nonReentrant {\n        // Starting amount of gas\n        uint256 startGas = gasleft();\n\n        // Revert if the router is not whitelisted. \n        require(activeRouters[_router], \"CornFi: Invalid Router\");\n\n        // Order to fill\n        IVaultBase.Order memory _order = viewOrder(_vaultId, _orderId);\n\n        // When tokenMaxGas = 0, the order can be fill at any gas price.\n        // Otherwise, ensure that the gas price is below the user set max.\n        if(tokenMaxGas[_vaultId][_order.tokenId] > 0) {\n            require(\n                tx.gasprice <= tokenMaxGas[_vaultId][_order.tokenId], \n                \"CornFi Controller: Gas Price Too High\"\n            );\n        }\n\n        // Fill the order\n        IVaultBase.Order memory order = vaults[_vaultId].fillOrder(msg.sender, _orderId, _router, _path);\n\n        // If the order has an associated task ID, cancel the task\n        if(taskIds[_vaultId][_orderId] != bytes32(0)) PokeMe.cancelTask(taskIds[_vaultId][_orderId]);\n\n        // Owner of the order being filled\n        address orderOwner = vaults[_vaultId].ownerOf(_order.tokenId);\n\n        emit FillOrder(orderOwner, _vaultId, _order.tokenId, _orderId);\n\n        // When using Gelato to fill orders.\n        // An order ID greater than '0' indicates a new order was created. Create a new\n        // task with Gelato to monitor and fill the created order.\n        if(Gelato && order.orderId != 0) {\n\n            emit CreateOrder(orderOwner, _vaultId, order.orderId);\n\n            // Create a task with Gelato to monitor and fill the created order\n            taskIds[_vaultId][order.orderId] = PokeMe.createTaskNoPrepayment(\n                address(this), \n                this.fillOrderGelato.selector, \n                address(Resolver), \n                abi.encodeWithSelector(\n                    Resolver.checker.selector, \n                    _vaultId, \n                    order.orderId, \n                    order.tokens[0], \n                    order.tokens[1], \n                    order.amounts[0]\n                ),\n                GasToken\n            );\n        }\n        \n        // Calculate the gas used for this tx.\n        // Add 30,000 gas to account for the remaining instructions\n        uint256 gasUsed = startGas.sub(gasleft()).add(30000);\n\n        // Calculate the amount of ETH used for gas\n        uint256 fee = gasUsed.mul(tx.gasprice);\n\n        // Check that the order owner has enough ETH deposited to cover the gas\n        require(\n            userGasAmounts[orderOwner] >= fee, \n            \"CornFi Controller: Insufficent User Gas Funds\"\n        );\n\n        // Subtract the gas spent from the order owners deposited amount of ETH\n        userGasAmounts[orderOwner] = userGasAmounts[orderOwner].sub(fee);\n\n        // Reimburse the caller for the gas spent filling the order\n        (bool success, ) = msg.sender.call{value: fee}(\"\");\n\n        // Check that the ETH transfer was successful\n        require(success, \"CornFi Controller: ETH transfer failed\");\n    }\n\n    // --------------------------------------------------------------------------------\n\n    /**\n    * @notice Withdraws the ERC20 tokens owned by a vault token and returns to the token\n    * owner. All open orders associated with the vault token are closed and the vault\n    * token is burnt.\n    * @param _vaultId: Index of vault in 'vaults'\n    * @param _tokenId: Vault token  \n    */\n    function withdraw(uint256 _vaultId, uint256 _tokenId) external nonReentrant {\n        // Get open orders for the vault token\n        IVaultBase.Order[] memory _orders = viewOpenOrdersByToken(_vaultId, _tokenId);\n\n        // Cancel the tasks with Gelato \n        for(uint i = 0; i < _orders.length; i++) {\n            if(taskIds[_vaultId][_orders[i].orderId] != 0) {\n                PokeMe.cancelTask(taskIds[_vaultId][_orders[i].orderId]);\n            }\n        }\n\n        // Withdraw ERC20 tokens and burn vault token\n        vaults[_vaultId].withdraw(msg.sender, _tokenId);\n\n        emit Withdraw(msg.sender, _vaultId, _tokenId);\n    }\n\n    // --------------------------------------------------------------------------------\n\n    /**\n    * @notice Deposit ETH to pay for gas cost accrued from filling orders. ETH deposited\n    * is automatically taken from the order owners balance when their orders are filled.\n    * User is able to withdraw their balance of ETH at any point in time. This function\n    * is not callable when 'isPaused()' == true.\n    * @param _receiver: Address that is credited with the deposited ETH\n    */\n    function depositGas(address _receiver) external payable nonReentrant whenNotPaused {\n        // User can only deposit ETH. Amount to deposit is msg.value.\n        uint256 depositAmount = msg.value;\n\n        // Add the deposited ETH to the '_receiver' balance\n        userGasAmounts[_receiver] = userGasAmounts[_receiver].add(depositAmount);\n\n        emit DepositGas(_receiver, GasToken, depositAmount);\n    }\n\n    // --------------------------------------------------------------------------------\n\n    /**\n    * @notice Remove the deposited ETH balance of a user. Any amount of ETH not used to\n    * pay for gas is able to be withdrawn. Withdrawing ETH while still having open orders\n    * will result in the orders not being filled. A user must maintain a certian amount\n    * of ETH deposited to cover gas costs.  \n    */\n    function withdrawGas() external nonReentrant {\n        // Revert if the user does not have any deposited ETH\n        require(\n            userGasAmounts[msg.sender] > 0, \n            \"CornFi Controller: No User Funds to Withdraw\"\n        );\n\n        // Get the balance of ETH the user has deposited\n        uint256 amount = userGasAmounts[msg.sender];\n\n        // Set user ETH balance to '0'\n        delete userGasAmounts[msg.sender];\n\n        // Transfer ETH balance to the user\n        (bool success, ) = msg.sender.call{value: amount}(\"\");\n\n        // Revert if the transfer fails\n        require(success, \"CornFi Controller: ETH transfer failed\");\n    }\n\n\n    // --------------------------------------------------------------------------------\n    // ////////////////////////////// Internal Functions //////////////////////////////\n    // --------------------------------------------------------------------------------    \n\n    /**\n    * @param _vault: Vault holding the trade\n    * @param _tokenId: Vault token\n    * @param _tradeId: Trade owned by the vault token\n    * @return Orders within the trade \n    */\n    function _viewTrade(\n        IVaultBase _vault, \n        uint256 _tokenId, \n        uint256 _tradeId\n    ) internal view returns (IVaultBase.Order[] memory) {\n        // Get IDs of the orders within the trade \n        uint256[] memory tradeOrderIds = _vault.trade(_tokenId, _tradeId);\n\n        IVaultBase.Order[] memory tradeOrders = new IVaultBase.Order[](tradeOrderIds.length);\n\n        // Loop through the orders\n        for(uint i = 0; i < tradeOrderIds.length; i++) {\n            tradeOrders[i] = _vault.order(tradeOrderIds[i]);\n        }\n        return tradeOrders;\n    }\n\n    // --------------------------------------------------------------------------------\n\n    /**\n    * @dev Transfers the gas cost of filling an order to the Gelato executor. Payment\n    * token must be ETH.\n    * @param _amount: Amount of ETH to transfer\n    * @param _paymentToken: ETH or ERC20 token used to pay for gas costs  \n    */\n    function _transfer(uint256 _amount, address _paymentToken) internal {\n        require(_paymentToken == ETH, \"CornFi Controller: Invalid Payment Token\");\n        (bool success, ) = gelato.call{value: _amount}(\"\");\n        require(success, \"_transfer: ETH transfer failed\");\n    }\n\n    // --------------------------------------------------------------------------------\n\n    /**\n    * @dev Whitelists an order filler and sets their state as active\n    * @param _filler: Address that will fill orders \n    */\n    function _addOrderFiller(address _filler) internal {\n        // 0 = order filler not whitelisted\n        require(\n            activeOrderFillers[_filler] == 0, \n            \"CornFi Controller: Invalid Order Filler\"\n        );\n\n        // Add the order filler\n        orderFillers.push(_filler);\n\n        // Set order filler state to active\n        activeOrderFillers[_filler] = 1;\n    }\n\n    // --------------------------------------------------------------------------------\n\n    /**\n    * @dev Whitelists a Uniswap V2 router for filling orders\n    * @param _router: Router address\n    */\n    function _addRouter(IUniswapV2Router02 _router) internal {\n        routers.push(_router);\n        activeRouters[_router] = true;\n    }\n\n    // --------------------------------------------------------------------------------\n\n    /**\n    * @dev Sets the slippage amount used when filling orders\n    * @param _slippagePoints: This value divided by '_slippageBasePoints' gives the \n    * slippage percentage.\n    * @param _slippageBasePoints: Max amount of slippage points\n    */\n    function _setSlippage(uint256 _slippagePoints, uint256 _slippageBasePoints) internal {\n        // Max slippage allowed is 2%\n        require(\n            _slippagePoints.mul(50) <= _slippageBasePoints, \n            \"CornFi Controller: Max Slippage Exceeded\"\n        );\n        SLIPPAGE_POINTS = _slippagePoints;\n        SLIPPAGE_BASE_POINTS = _slippageBasePoints;\n    }\n}",
  "sourcePath": "contracts/Controller.sol",
  "type": "contract"
}