{
  "_format": "hh-sol-artifact-1",
  "contractName": "MasterChefV2",
  "sourceName": "contracts/MasterChefV2.sol",
  "abi": [
    {
      "inputs": [
        {
          "internalType": "contract CobToken",
          "name": "_cob",
          "type": "address"
        },
        {
          "internalType": "address",
          "name": "_devaddr",
          "type": "address"
        },
        {
          "internalType": "address",
          "name": "_feeAddress",
          "type": "address"
        },
        {
          "internalType": "uint256",
          "name": "_cobPerBlock",
          "type": "uint256"
        },
        {
          "internalType": "uint256",
          "name": "_startBlock",
          "type": "uint256"
        }
      ],
      "stateMutability": "nonpayable",
      "type": "constructor"
    },
    {
      "anonymous": false,
      "inputs": [
        {
          "indexed": true,
          "internalType": "address",
          "name": "user",
          "type": "address"
        },
        {
          "indexed": true,
          "internalType": "uint256",
          "name": "pid",
          "type": "uint256"
        },
        {
          "indexed": false,
          "internalType": "uint256",
          "name": "amount",
          "type": "uint256"
        }
      ],
      "name": "Deposit",
      "type": "event"
    },
    {
      "anonymous": false,
      "inputs": [
        {
          "indexed": true,
          "internalType": "address",
          "name": "user",
          "type": "address"
        },
        {
          "indexed": true,
          "internalType": "uint256",
          "name": "pid",
          "type": "uint256"
        },
        {
          "indexed": false,
          "internalType": "uint256",
          "name": "amount",
          "type": "uint256"
        }
      ],
      "name": "EmergencyWithdraw",
      "type": "event"
    },
    {
      "anonymous": false,
      "inputs": [
        {
          "indexed": true,
          "internalType": "address",
          "name": "previousOwner",
          "type": "address"
        },
        {
          "indexed": true,
          "internalType": "address",
          "name": "newOwner",
          "type": "address"
        }
      ],
      "name": "OwnershipTransferred",
      "type": "event"
    },
    {
      "anonymous": false,
      "inputs": [
        {
          "indexed": true,
          "internalType": "address",
          "name": "user",
          "type": "address"
        },
        {
          "indexed": true,
          "internalType": "address",
          "name": "newAddress",
          "type": "address"
        }
      ],
      "name": "SetDevAddress",
      "type": "event"
    },
    {
      "anonymous": false,
      "inputs": [
        {
          "indexed": true,
          "internalType": "address",
          "name": "user",
          "type": "address"
        },
        {
          "indexed": true,
          "internalType": "address",
          "name": "newAddress",
          "type": "address"
        }
      ],
      "name": "SetFeeAddress",
      "type": "event"
    },
    {
      "anonymous": false,
      "inputs": [
        {
          "indexed": true,
          "internalType": "address",
          "name": "user",
          "type": "address"
        },
        {
          "indexed": false,
          "internalType": "uint256",
          "name": "goosePerBlock",
          "type": "uint256"
        }
      ],
      "name": "UpdateEmissionRate",
      "type": "event"
    },
    {
      "anonymous": false,
      "inputs": [
        {
          "indexed": true,
          "internalType": "address",
          "name": "user",
          "type": "address"
        },
        {
          "indexed": true,
          "internalType": "uint256",
          "name": "pid",
          "type": "uint256"
        },
        {
          "indexed": false,
          "internalType": "uint256",
          "name": "amount",
          "type": "uint256"
        }
      ],
      "name": "Withdraw",
      "type": "event"
    },
    {
      "inputs": [],
      "name": "BONUS_MULTIPLIER",
      "outputs": [
        {
          "internalType": "uint256",
          "name": "",
          "type": "uint256"
        }
      ],
      "stateMutability": "view",
      "type": "function"
    },
    {
      "inputs": [
        {
          "internalType": "uint256",
          "name": "_allocPoint",
          "type": "uint256"
        },
        {
          "internalType": "contract IERC20",
          "name": "_lpToken",
          "type": "address"
        },
        {
          "internalType": "uint16",
          "name": "_depositFeeBP",
          "type": "uint16"
        },
        {
          "internalType": "bool",
          "name": "_withUpdate",
          "type": "bool"
        }
      ],
      "name": "add",
      "outputs": [],
      "stateMutability": "nonpayable",
      "type": "function"
    },
    {
      "inputs": [],
      "name": "cob",
      "outputs": [
        {
          "internalType": "contract CobToken",
          "name": "",
          "type": "address"
        }
      ],
      "stateMutability": "view",
      "type": "function"
    },
    {
      "inputs": [],
      "name": "cobPerBlock",
      "outputs": [
        {
          "internalType": "uint256",
          "name": "",
          "type": "uint256"
        }
      ],
      "stateMutability": "view",
      "type": "function"
    },
    {
      "inputs": [
        {
          "internalType": "uint256",
          "name": "_pid",
          "type": "uint256"
        },
        {
          "internalType": "uint256",
          "name": "_amount",
          "type": "uint256"
        }
      ],
      "name": "deposit",
      "outputs": [],
      "stateMutability": "nonpayable",
      "type": "function"
    },
    {
      "inputs": [
        {
          "internalType": "address",
          "name": "_devaddr",
          "type": "address"
        }
      ],
      "name": "dev",
      "outputs": [],
      "stateMutability": "nonpayable",
      "type": "function"
    },
    {
      "inputs": [],
      "name": "devaddr",
      "outputs": [
        {
          "internalType": "address",
          "name": "",
          "type": "address"
        }
      ],
      "stateMutability": "view",
      "type": "function"
    },
    {
      "inputs": [
        {
          "internalType": "uint256",
          "name": "_pid",
          "type": "uint256"
        }
      ],
      "name": "emergencyWithdraw",
      "outputs": [],
      "stateMutability": "nonpayable",
      "type": "function"
    },
    {
      "inputs": [],
      "name": "feeAddress",
      "outputs": [
        {
          "internalType": "address",
          "name": "",
          "type": "address"
        }
      ],
      "stateMutability": "view",
      "type": "function"
    },
    {
      "inputs": [],
      "name": "feeBasisPoints",
      "outputs": [
        {
          "internalType": "uint256",
          "name": "",
          "type": "uint256"
        }
      ],
      "stateMutability": "view",
      "type": "function"
    },
    {
      "inputs": [
        {
          "internalType": "uint256",
          "name": "_from",
          "type": "uint256"
        },
        {
          "internalType": "uint256",
          "name": "_to",
          "type": "uint256"
        }
      ],
      "name": "getMultiplier",
      "outputs": [
        {
          "internalType": "uint256",
          "name": "",
          "type": "uint256"
        }
      ],
      "stateMutability": "view",
      "type": "function"
    },
    {
      "inputs": [],
      "name": "massUpdatePools",
      "outputs": [],
      "stateMutability": "nonpayable",
      "type": "function"
    },
    {
      "inputs": [],
      "name": "owner",
      "outputs": [
        {
          "internalType": "address",
          "name": "",
          "type": "address"
        }
      ],
      "stateMutability": "view",
      "type": "function"
    },
    {
      "inputs": [
        {
          "internalType": "uint256",
          "name": "_pid",
          "type": "uint256"
        },
        {
          "internalType": "address",
          "name": "_user",
          "type": "address"
        }
      ],
      "name": "pendingCob",
      "outputs": [
        {
          "internalType": "uint256",
          "name": "",
          "type": "uint256"
        }
      ],
      "stateMutability": "view",
      "type": "function"
    },
    {
      "inputs": [
        {
          "internalType": "contract IERC20",
          "name": "",
          "type": "address"
        }
      ],
      "name": "poolExistence",
      "outputs": [
        {
          "internalType": "bool",
          "name": "",
          "type": "bool"
        }
      ],
      "stateMutability": "view",
      "type": "function"
    },
    {
      "inputs": [
        {
          "internalType": "uint256",
          "name": "",
          "type": "uint256"
        }
      ],
      "name": "poolInfo",
      "outputs": [
        {
          "internalType": "contract IERC20",
          "name": "lpToken",
          "type": "address"
        },
        {
          "internalType": "uint256",
          "name": "allocPoint",
          "type": "uint256"
        },
        {
          "internalType": "uint256",
          "name": "lastRewardBlock",
          "type": "uint256"
        },
        {
          "internalType": "uint256",
          "name": "accCobPerShare",
          "type": "uint256"
        },
        {
          "internalType": "uint16",
          "name": "depositFeeBP",
          "type": "uint16"
        }
      ],
      "stateMutability": "view",
      "type": "function"
    },
    {
      "inputs": [],
      "name": "poolLength",
      "outputs": [
        {
          "internalType": "uint256",
          "name": "",
          "type": "uint256"
        }
      ],
      "stateMutability": "view",
      "type": "function"
    },
    {
      "inputs": [],
      "name": "renounceOwnership",
      "outputs": [],
      "stateMutability": "nonpayable",
      "type": "function"
    },
    {
      "inputs": [
        {
          "internalType": "uint256",
          "name": "_pid",
          "type": "uint256"
        },
        {
          "internalType": "uint256",
          "name": "_allocPoint",
          "type": "uint256"
        },
        {
          "internalType": "uint16",
          "name": "_depositFeeBP",
          "type": "uint16"
        },
        {
          "internalType": "bool",
          "name": "_withUpdate",
          "type": "bool"
        }
      ],
      "name": "set",
      "outputs": [],
      "stateMutability": "nonpayable",
      "type": "function"
    },
    {
      "inputs": [
        {
          "internalType": "address",
          "name": "_feeAddress",
          "type": "address"
        }
      ],
      "name": "setFeeAddress",
      "outputs": [],
      "stateMutability": "nonpayable",
      "type": "function"
    },
    {
      "inputs": [],
      "name": "startBlock",
      "outputs": [
        {
          "internalType": "uint256",
          "name": "",
          "type": "uint256"
        }
      ],
      "stateMutability": "view",
      "type": "function"
    },
    {
      "inputs": [],
      "name": "totalAllocPoint",
      "outputs": [
        {
          "internalType": "uint256",
          "name": "",
          "type": "uint256"
        }
      ],
      "stateMutability": "view",
      "type": "function"
    },
    {
      "inputs": [
        {
          "internalType": "address",
          "name": "newOwner",
          "type": "address"
        }
      ],
      "name": "transferOwnership",
      "outputs": [],
      "stateMutability": "nonpayable",
      "type": "function"
    },
    {
      "inputs": [
        {
          "internalType": "uint256",
          "name": "_cobPerBlock",
          "type": "uint256"
        }
      ],
      "name": "updateEmissionRate",
      "outputs": [],
      "stateMutability": "nonpayable",
      "type": "function"
    },
    {
      "inputs": [
        {
          "internalType": "uint256",
          "name": "_pid",
          "type": "uint256"
        }
      ],
      "name": "updatePool",
      "outputs": [],
      "stateMutability": "nonpayable",
      "type": "function"
    },
    {
      "inputs": [
        {
          "internalType": "uint256",
          "name": "",
          "type": "uint256"
        },
        {
          "internalType": "address",
          "name": "",
          "type": "address"
        }
      ],
      "name": "userInfo",
      "outputs": [
        {
          "internalType": "uint256",
          "name": "amount",
          "type": "uint256"
        },
        {
          "internalType": "uint256",
          "name": "rewardDebt",
          "type": "uint256"
        }
      ],
      "stateMutability": "view",
      "type": "function"
    },
    {
      "inputs": [
        {
          "internalType": "uint256",
          "name": "_pid",
          "type": "uint256"
        },
        {
          "internalType": "uint256",
          "name": "_amount",
          "type": "uint256"
        }
      ],
      "name": "withdraw",
      "outputs": [],
      "stateMutability": "nonpayable",
      "type": "function"
    }
  ],
  "bytecode": "0x608060405261271060065560006009553480156200001c57600080fd5b506040516200374338038062003743833981810160405281019062000042919062000256565b62000062620000566200014560201b60201c565b6200014d60201b60201c565b6001808190555084600260006101000a81548173ffffffffffffffffffffffffffffffffffffffff021916908373ffffffffffffffffffffffffffffffffffffffff16021790555083600360006101000a81548173ffffffffffffffffffffffffffffffffffffffff021916908373ffffffffffffffffffffffffffffffffffffffff16021790555082600560006101000a81548173ffffffffffffffffffffffffffffffffffffffff021916908373ffffffffffffffffffffffffffffffffffffffff1602179055508160048190555080600a81905550505050505062000378565b600033905090565b60008060009054906101000a900473ffffffffffffffffffffffffffffffffffffffff169050816000806101000a81548173ffffffffffffffffffffffffffffffffffffffff021916908373ffffffffffffffffffffffffffffffffffffffff1602179055508173ffffffffffffffffffffffffffffffffffffffff168173ffffffffffffffffffffffffffffffffffffffff167f8be0079c531659141344cd1fd0a4f28419497f9722a3daafe3b4186f6b6457e060405160405180910390a35050565b60008151905062000222816200032a565b92915050565b600081519050620002398162000344565b92915050565b60008151905062000250816200035e565b92915050565b600080600080600060a086880312156200026f57600080fd5b60006200027f8882890162000228565b9550506020620002928882890162000211565b9450506040620002a58882890162000211565b9350506060620002b8888289016200023f565b9250506080620002cb888289016200023f565b9150509295509295909350565b6000620002e58262000300565b9050919050565b6000620002f982620002d8565b9050919050565b600073ffffffffffffffffffffffffffffffffffffffff82169050919050565b6000819050919050565b6200033581620002d8565b81146200034157600080fd5b50565b6200034f81620002ec565b81146200035b57600080fd5b50565b620003698162000320565b81146200037557600080fd5b50565b6133bb80620003886000396000f3fe608060405234801561001057600080fd5b50600436106101a95760003560e01c80638705fcd4116100f9578063a6ca860b11610097578063d49e77cd11610071578063d49e77cd14610489578063d9638422146104a7578063e2bbb158146104c3578063f2fde38b146104df576101a9565b8063a6ca860b1461041d578063b8606eef1461043b578063cbd258b514610459576101a9565b80638d88a90e116100d35780638d88a90e146103825780638da5cb5b1461039e5780638dbb1e3a146103bc57806393f1a40b146103ec576101a9565b80638705fcd4146103185780638aa28550146103345780638ca68bf814610352576101a9565b806348cd4cb111610166578063630b5ba111610140578063630b5ba1146102ca5780637143d843146102d4578063715018a6146102f257806384e82a33146102fc576101a9565b806348cd4cb11461027457806351eb05a6146102925780635312ea8e146102ae576101a9565b8063081e3eda146101ae5780630ba84cd2146101cc5780631526fe27146101e857806317caf6f11461021c578063412753581461023a578063441a3e7014610258575b600080fd5b6101b66104fb565b6040516101c39190612d19565b60405180910390f35b6101e660048036038101906101e19190612621565b610508565b005b61020260048036038101906101fd9190612621565b6105e4565b604051610213959493929190612b04565b60405180910390f35b610224610658565b6040516102319190612d19565b60405180910390f35b61024261065e565b60405161024f9190612a53565b60405180910390f35b610272600480360381019061026d9190612712565b610684565b005b61027c610931565b6040516102899190612d19565b60405180910390f35b6102ac60048036038101906102a79190612621565b610937565b005b6102c860048036038101906102c39190612621565b610c6e565b005b6102d2610e24565b005b6102dc610e57565b6040516102e99190612d19565b60405180910390f35b6102fa610e5d565b005b610316600480360381019061031191906126af565b610ee5565b005b610332600480360381019061032d91906125a6565b6111d6565b005b61033c611304565b6040516103499190612d19565b60405180910390f35b61036c60048036038101906103679190612673565b611309565b6040516103799190612d19565b60405180910390f35b61039c600480360381019061039791906125a6565b611563565b005b6103a6611691565b6040516103b39190612a53565b60405180910390f35b6103d660048036038101906103d19190612712565b6116ba565b6040516103e39190612d19565b60405180910390f35b61040660048036038101906104019190612673565b6116ea565b604051610414929190612d34565b60405180910390f35b61042561171b565b6040516104329190612ae9565b60405180910390f35b610443611741565b6040516104509190612d19565b60405180910390f35b610473600480360381019061046e91906125f8565b611747565b6040516104809190612ace565b60405180910390f35b610491611767565b60405161049e9190612a53565b60405180910390f35b6104c160048036038101906104bc919061274e565b61178d565b005b6104dd60048036038101906104d89190612712565b611995565b005b6104f960048036038101906104f491906125a6565b611d14565b005b6000600780549050905090565b610510611e0c565b73ffffffffffffffffffffffffffffffffffffffff1661052e611691565b73ffffffffffffffffffffffffffffffffffffffff1614610584576040517f08c379a000000000000000000000000000000000000000000000000000000000815260040161057b90612c39565b60405180910390fd5b61058c610e24565b806004819055503373ffffffffffffffffffffffffffffffffffffffff167fe2492e003bbe8afa53088b406f0c1cb5d9e280370fc72a74cf116ffd343c4053826040516105d99190612d19565b60405180910390a250565b600781815481106105f457600080fd5b90600052602060002090600502016000915090508060000160009054906101000a900473ffffffffffffffffffffffffffffffffffffffff16908060010154908060020154908060030154908060040160009054906101000a900461ffff16905085565b60095481565b600560009054906101000a900473ffffffffffffffffffffffffffffffffffffffff1681565b600260015414156106ca576040517f08c379a00000000000000000000000000000000000000000000000000000000081526004016106c190612cf9565b60405180910390fd5b600260018190555060006007838154811061070e577f4e487b7100000000000000000000000000000000000000000000000000000000600052603260045260246000fd5b9060005260206000209060050201905060006008600085815260200190815260200160002060003373ffffffffffffffffffffffffffffffffffffffff1673ffffffffffffffffffffffffffffffffffffffff168152602001908152602001600020905082816000015410156107b9576040517f08c379a00000000000000000000000000000000000000000000000000000000081526004016107b090612c79565b60405180910390fd5b6107c284610937565b600061080c82600101546107fe64e8d4a510006107f087600301548760000154611e1490919063ffffffff16565b611e2a90919063ffffffff16565b611e4090919063ffffffff16565b90506000811115610822576108213382611e56565b5b600084111561089a57610842848360000154611e4090919063ffffffff16565b826000018190555061089933858560000160009054906101000a900473ffffffffffffffffffffffffffffffffffffffff1673ffffffffffffffffffffffffffffffffffffffff166120bd9092919063ffffffff16565b5b6108cc64e8d4a510006108be85600301548560000154611e1490919063ffffffff16565b611e2a90919063ffffffff16565b8260010181905550843373ffffffffffffffffffffffffffffffffffffffff167ff279e6a1f5e320cca91135676d9cb6e44ca8a08c0b88342bcdb1144f6511b5688660405161091b9190612d19565b60405180910390a3505050600180819055505050565b600a5481565b600060078281548110610973577f4e487b7100000000000000000000000000000000000000000000000000000000600052603260045260246000fd5b90600052602060002090600502019050806002015443116109945750610c6b565b60008160000160009054906101000a900473ffffffffffffffffffffffffffffffffffffffff1673ffffffffffffffffffffffffffffffffffffffff166370a08231306040518263ffffffff1660e01b81526004016109f39190612a53565b60206040518083038186803b158015610a0b57600080fd5b505afa158015610a1f573d6000803e3d6000fd5b505050506040513d601f19601f82011682018060405250810190610a43919061264a565b90506000811480610a58575060008260010154145b15610a6d574382600201819055505050610c6b565b6000610a7d8360020154436116ba565b90506000610ac0600954610ab28660010154610aa460045487611e1490919063ffffffff16565b611e1490919063ffffffff16565b611e2a90919063ffffffff16565b9050600260009054906101000a900473ffffffffffffffffffffffffffffffffffffffff1673ffffffffffffffffffffffffffffffffffffffff166340c10f19600360009054906101000a900473ffffffffffffffffffffffffffffffffffffffff16610b37600a85611e2a90919063ffffffff16565b6040518363ffffffff1660e01b8152600401610b54929190612aa5565b600060405180830381600087803b158015610b6e57600080fd5b505af1158015610b82573d6000803e3d6000fd5b50505050600260009054906101000a900473ffffffffffffffffffffffffffffffffffffffff1673ffffffffffffffffffffffffffffffffffffffff166340c10f1930836040518363ffffffff1660e01b8152600401610be3929190612aa5565b600060405180830381600087803b158015610bfd57600080fd5b505af1158015610c11573d6000803e3d6000fd5b50505050610c55610c4284610c3464e8d4a5100085611e1490919063ffffffff16565b611e2a90919063ffffffff16565b856003015461214390919063ffffffff16565b8460030181905550438460020181905550505050505b50565b60026001541415610cb4576040517f08c379a0000000000000000000000000000000000000000000000000000000008152600401610cab90612cf9565b60405180910390fd5b6002600181905550600060078281548110610cf8577f4e487b7100000000000000000000000000000000000000000000000000000000600052603260045260246000fd5b9060005260206000209060050201905060006008600084815260200190815260200160002060003373ffffffffffffffffffffffffffffffffffffffff1673ffffffffffffffffffffffffffffffffffffffff16815260200190815260200160002090506000816000015490506000826000018190555060008260010181905550610dc833828560000160009054906101000a900473ffffffffffffffffffffffffffffffffffffffff1673ffffffffffffffffffffffffffffffffffffffff166120bd9092919063ffffffff16565b833373ffffffffffffffffffffffffffffffffffffffff167fbb757047c2b5f3974fe26b7c10f732e7bce710b0952a71082702781e62ae059583604051610e0f9190612d19565b60405180910390a35050506001808190555050565b6000600780549050905060005b81811015610e5357610e4281610937565b80610e4c90612f87565b9050610e31565b5050565b60045481565b610e65611e0c565b73ffffffffffffffffffffffffffffffffffffffff16610e83611691565b73ffffffffffffffffffffffffffffffffffffffff1614610ed9576040517f08c379a0000000000000000000000000000000000000000000000000000000008152600401610ed090612c39565b60405180910390fd5b610ee36000612159565b565b610eed611e0c565b73ffffffffffffffffffffffffffffffffffffffff16610f0b611691565b73ffffffffffffffffffffffffffffffffffffffff1614610f61576040517f08c379a0000000000000000000000000000000000000000000000000000000008152600401610f5890612c39565b60405180910390fd5b8260001515600b60008373ffffffffffffffffffffffffffffffffffffffff1673ffffffffffffffffffffffffffffffffffffffff16815260200190815260200160002060009054906101000a900460ff16151514610ff5576040517f08c379a0000000000000000000000000000000000000000000000000000000008152600401610fec90612c99565b60405180910390fd5b6006548361ffff16111561103e576040517f08c379a000000000000000000000000000000000000000000000000000000000815260040161103590612b79565b60405180910390fd5b811561104d5761104c610e24565b5b6000600a54431161106057600a54611062565b435b90506110798660095461214390919063ffffffff16565b6009819055506001600b60008773ffffffffffffffffffffffffffffffffffffffff1673ffffffffffffffffffffffffffffffffffffffff16815260200190815260200160002060006101000a81548160ff02191690831515021790555060076040518060a001604052808773ffffffffffffffffffffffffffffffffffffffff168152602001888152602001838152602001600081526020018661ffff16815250908060018154018082558091505060019003906000526020600020906005020160009091909190915060008201518160000160006101000a81548173ffffffffffffffffffffffffffffffffffffffff021916908373ffffffffffffffffffffffffffffffffffffffff16021790555060208201518160010155604082015181600201556060820151816003015560808201518160040160006101000a81548161ffff021916908361ffff1602179055505050505050505050565b600560009054906101000a900473ffffffffffffffffffffffffffffffffffffffff1673ffffffffffffffffffffffffffffffffffffffff163373ffffffffffffffffffffffffffffffffffffffff1614611266576040517f08c379a000000000000000000000000000000000000000000000000000000000815260040161125d90612cb9565b60405180910390fd5b80600560006101000a81548173ffffffffffffffffffffffffffffffffffffffff021916908373ffffffffffffffffffffffffffffffffffffffff1602179055508073ffffffffffffffffffffffffffffffffffffffff163373ffffffffffffffffffffffffffffffffffffffff167fd44190acf9d04bdb5d3a1aafff7e6dee8b40b93dfb8c5d3f0eea4b9f4539c3f760405160405180910390a350565b600181565b60008060078481548110611346577f4e487b7100000000000000000000000000000000000000000000000000000000600052603260045260246000fd5b9060005260206000209060050201905060006008600086815260200190815260200160002060008573ffffffffffffffffffffffffffffffffffffffff1673ffffffffffffffffffffffffffffffffffffffff168152602001908152602001600020905060008260030154905060008360000160009054906101000a900473ffffffffffffffffffffffffffffffffffffffff1673ffffffffffffffffffffffffffffffffffffffff166370a08231306040518263ffffffff1660e01b81526004016114129190612a53565b60206040518083038186803b15801561142a57600080fd5b505afa15801561143e573d6000803e3d6000fd5b505050506040513d601f19601f82011682018060405250810190611462919061264a565b9050836002015443118015611478575060008114155b1561151357600061148d8560020154436116ba565b905060006114d06009546114c288600101546114b460045487611e1490919063ffffffff16565b611e1490919063ffffffff16565b611e2a90919063ffffffff16565b905061150e6114ff846114f164e8d4a5100085611e1490919063ffffffff16565b611e2a90919063ffffffff16565b8561214390919063ffffffff16565b935050505b611557836001015461154964e8d4a5100061153b868860000154611e1490919063ffffffff16565b611e2a90919063ffffffff16565b611e4090919063ffffffff16565b94505050505092915050565b600360009054906101000a900473ffffffffffffffffffffffffffffffffffffffff1673ffffffffffffffffffffffffffffffffffffffff163373ffffffffffffffffffffffffffffffffffffffff16146115f3576040517f08c379a00000000000000000000000000000000000000000000000000000000081526004016115ea90612bf9565b60405180910390fd5b80600360006101000a81548173ffffffffffffffffffffffffffffffffffffffff021916908373ffffffffffffffffffffffffffffffffffffffff1602179055508073ffffffffffffffffffffffffffffffffffffffff163373ffffffffffffffffffffffffffffffffffffffff167f618c54559e94f1499a808aad71ee8729f8e74e8c48e979616328ce493a1a52e760405160405180910390a350565b60008060009054906101000a900473ffffffffffffffffffffffffffffffffffffffff16905090565b60006116e260016116d48585611e4090919063ffffffff16565b611e1490919063ffffffff16565b905092915050565b6008602052816000526040600020602052806000526040600020600091509150508060000154908060010154905082565b600260009054906101000a900473ffffffffffffffffffffffffffffffffffffffff1681565b60065481565b600b6020528060005260406000206000915054906101000a900460ff1681565b600360009054906101000a900473ffffffffffffffffffffffffffffffffffffffff1681565b611795611e0c565b73ffffffffffffffffffffffffffffffffffffffff166117b3611691565b73ffffffffffffffffffffffffffffffffffffffff1614611809576040517f08c379a000000000000000000000000000000000000000000000000000000000815260040161180090612c39565b60405180910390fd5b6006548261ffff161115611852576040517f08c379a000000000000000000000000000000000000000000000000000000000815260040161184990612c19565b60405180910390fd5b801561186157611860610e24565b5b6118d3836118c5600787815481106118a2577f4e487b7100000000000000000000000000000000000000000000000000000000600052603260045260246000fd5b906000526020600020906005020160010154600954611e4090919063ffffffff16565b61214390919063ffffffff16565b6009819055508260078581548110611914577f4e487b7100000000000000000000000000000000000000000000000000000000600052603260045260246000fd5b9060005260206000209060050201600101819055508160078581548110611964577f4e487b7100000000000000000000000000000000000000000000000000000000600052603260045260246000fd5b906000526020600020906005020160040160006101000a81548161ffff021916908361ffff16021790555050505050565b600260015414156119db576040517f08c379a00000000000000000000000000000000000000000000000000000000081526004016119d290612cf9565b60405180910390fd5b6002600181905550600060078381548110611a1f577f4e487b7100000000000000000000000000000000000000000000000000000000600052603260045260246000fd5b9060005260206000209060050201905060006008600085815260200190815260200160002060003373ffffffffffffffffffffffffffffffffffffffff1673ffffffffffffffffffffffffffffffffffffffff1681526020019081526020016000209050611a8c84610937565b600081600001541115611afb576000611ae38260010154611ad564e8d4a51000611ac787600301548760000154611e1490919063ffffffff16565b611e2a90919063ffffffff16565b611e4090919063ffffffff16565b90506000811115611af957611af83382611e56565b5b505b6000831115611c7e57611b553330858560000160009054906101000a900473ffffffffffffffffffffffffffffffffffffffff1673ffffffffffffffffffffffffffffffffffffffff1661221d909392919063ffffffff16565b60008260040160009054906101000a900461ffff1661ffff161115611c5d576000611bb3600654611ba58560040160009054906101000a900461ffff1661ffff1687611e1490919063ffffffff16565b611e2a90919063ffffffff16565b9050611c26600560009054906101000a900473ffffffffffffffffffffffffffffffffffffffff16828560000160009054906101000a900473ffffffffffffffffffffffffffffffffffffffff1673ffffffffffffffffffffffffffffffffffffffff166120bd9092919063ffffffff16565b611c4f81611c4186856000015461214390919063ffffffff16565b611e4090919063ffffffff16565b826000018190555050611c7d565b611c7483826000015461214390919063ffffffff16565b81600001819055505b5b611cb064e8d4a51000611ca284600301548460000154611e1490919063ffffffff16565b611e2a90919063ffffffff16565b8160010181905550833373ffffffffffffffffffffffffffffffffffffffff167f90890809c654f11d6e72a28fa60149770a0d11ec6c92319d6ceb2bb0a4ea1a1585604051611cff9190612d19565b60405180910390a35050600180819055505050565b611d1c611e0c565b73ffffffffffffffffffffffffffffffffffffffff16611d3a611691565b73ffffffffffffffffffffffffffffffffffffffff1614611d90576040517f08c379a0000000000000000000000000000000000000000000000000000000008152600401611d8790612c39565b60405180910390fd5b600073ffffffffffffffffffffffffffffffffffffffff168173ffffffffffffffffffffffffffffffffffffffff161415611e00576040517f08c379a0000000000000000000000000000000000000000000000000000000008152600401611df790612b99565b60405180910390fd5b611e0981612159565b50565b600033905090565b60008183611e229190612e16565b905092915050565b60008183611e389190612de5565b905092915050565b60008183611e4e9190612e70565b905092915050565b6000600260009054906101000a900473ffffffffffffffffffffffffffffffffffffffff1673ffffffffffffffffffffffffffffffffffffffff166370a08231306040518263ffffffff1660e01b8152600401611eb39190612a53565b60206040518083038186803b158015611ecb57600080fd5b505afa158015611edf573d6000803e3d6000fd5b505050506040513d601f19601f82011682018060405250810190611f03919061264a565b9050600081831115611fc557600260009054906101000a900473ffffffffffffffffffffffffffffffffffffffff1673ffffffffffffffffffffffffffffffffffffffff1663a9059cbb85846040518363ffffffff1660e01b8152600401611f6c929190612aa5565b602060405180830381600087803b158015611f8657600080fd5b505af1158015611f9a573d6000803e3d6000fd5b505050506040513d601f19601f82011682018060405250810190611fbe91906125cf565b9050612077565b600260009054906101000a900473ffffffffffffffffffffffffffffffffffffffff1673ffffffffffffffffffffffffffffffffffffffff1663a9059cbb85856040518363ffffffff1660e01b8152600401612022929190612aa5565b602060405180830381600087803b15801561203c57600080fd5b505af1158015612050573d6000803e3d6000fd5b505050506040513d601f19601f8201168201806040525081019061207491906125cf565b90505b806120b7576040517f08c379a00000000000000000000000000000000000000000000000000000000081526004016120ae90612bb9565b60405180910390fd5b50505050565b61213e8363a9059cbb60e01b84846040516024016120dc929190612aa5565b604051602081830303815290604052907bffffffffffffffffffffffffffffffffffffffffffffffffffffffff19166020820180517bffffffffffffffffffffffffffffffffffffffffffffffffffffffff83818316178352505050506122a6565b505050565b600081836121519190612d8f565b905092915050565b60008060009054906101000a900473ffffffffffffffffffffffffffffffffffffffff169050816000806101000a81548173ffffffffffffffffffffffffffffffffffffffff021916908373ffffffffffffffffffffffffffffffffffffffff1602179055508173ffffffffffffffffffffffffffffffffffffffff168173ffffffffffffffffffffffffffffffffffffffff167f8be0079c531659141344cd1fd0a4f28419497f9722a3daafe3b4186f6b6457e060405160405180910390a35050565b6122a0846323b872dd60e01b85858560405160240161223e93929190612a6e565b604051602081830303815290604052907bffffffffffffffffffffffffffffffffffffffffffffffffffffffff19166020820180517bffffffffffffffffffffffffffffffffffffffffffffffffffffffff83818316178352505050506122a6565b50505050565b6000612308826040518060400160405280602081526020017f5361666545524332303a206c6f772d6c6576656c2063616c6c206661696c65648152508573ffffffffffffffffffffffffffffffffffffffff1661236d9092919063ffffffff16565b9050600081511115612368578080602001905181019061232891906125cf565b612367576040517f08c379a000000000000000000000000000000000000000000000000000000000815260040161235e90612cd9565b60405180910390fd5b5b505050565b606061237c8484600085612385565b90509392505050565b6060824710156123ca576040517f08c379a00000000000000000000000000000000000000000000000000000000081526004016123c190612bd9565b60405180910390fd5b6123d385612499565b612412576040517f08c379a000000000000000000000000000000000000000000000000000000000815260040161240990612c59565b60405180910390fd5b6000808673ffffffffffffffffffffffffffffffffffffffff16858760405161243b9190612a3c565b60006040518083038185875af1925050503d8060008114612478576040519150601f19603f3d011682016040523d82523d6000602084013e61247d565b606091505b509150915061248d8282866124ac565b92505050949350505050565b600080823b905060008111915050919050565b606083156124bc5782905061250c565b6000835111156124cf5782518084602001fd5b816040517f08c379a00000000000000000000000000000000000000000000000000000000081526004016125039190612b57565b60405180910390fd5b9392505050565b60008135905061252281613312565b92915050565b60008135905061253781613329565b92915050565b60008151905061254c81613329565b92915050565b60008135905061256181613340565b92915050565b60008135905061257681613357565b92915050565b60008135905061258b8161336e565b92915050565b6000815190506125a08161336e565b92915050565b6000602082840312156125b857600080fd5b60006125c684828501612513565b91505092915050565b6000602082840312156125e157600080fd5b60006125ef8482850161253d565b91505092915050565b60006020828403121561260a57600080fd5b600061261884828501612552565b91505092915050565b60006020828403121561263357600080fd5b60006126418482850161257c565b91505092915050565b60006020828403121561265c57600080fd5b600061266a84828501612591565b91505092915050565b6000806040838503121561268657600080fd5b60006126948582860161257c565b92505060206126a585828601612513565b9150509250929050565b600080600080608085870312156126c557600080fd5b60006126d38782880161257c565b94505060206126e487828801612552565b93505060406126f587828801612567565b925050606061270687828801612528565b91505092959194509250565b6000806040838503121561272557600080fd5b60006127338582860161257c565b92505060206127448582860161257c565b9150509250929050565b6000806000806080858703121561276457600080fd5b60006127728782880161257c565b94505060206127838782880161257c565b935050604061279487828801612567565b92505060606127a587828801612528565b91505092959194509250565b6127ba81612ea4565b82525050565b6127c981612eb6565b82525050565b60006127da82612d5d565b6127e48185612d73565b93506127f4818560208601612f54565b80840191505092915050565b61280981612f0c565b82525050565b61281881612f30565b82525050565b600061282982612d68565b6128338185612d7e565b9350612843818560208601612f54565b61284c8161302e565b840191505092915050565b6000612864602583612d7e565b915061286f8261303f565b604082019050919050565b6000612887602683612d7e565b91506128928261308e565b604082019050919050565b60006128aa602083612d7e565b91506128b5826130dd565b602082019050919050565b60006128cd602683612d7e565b91506128d882613106565b604082019050919050565b60006128f0600983612d7e565b91506128fb82613155565b602082019050919050565b6000612913602583612d7e565b915061291e8261317e565b604082019050919050565b6000612936602083612d7e565b9150612941826131cd565b602082019050919050565b6000612959601d83612d7e565b9150612964826131f6565b602082019050919050565b600061297c601283612d7e565b91506129878261321f565b602082019050919050565b600061299f601983612d7e565b91506129aa82613248565b602082019050919050565b60006129c2601883612d7e565b91506129cd82613271565b602082019050919050565b60006129e5602a83612d7e565b91506129f08261329a565b604082019050919050565b6000612a08601f83612d7e565b9150612a13826132e9565b602082019050919050565b612a2781612ed4565b82525050565b612a3681612f02565b82525050565b6000612a4882846127cf565b915081905092915050565b6000602082019050612a6860008301846127b1565b92915050565b6000606082019050612a8360008301866127b1565b612a9060208301856127b1565b612a9d6040830184612a2d565b949350505050565b6000604082019050612aba60008301856127b1565b612ac76020830184612a2d565b9392505050565b6000602082019050612ae360008301846127c0565b92915050565b6000602082019050612afe6000830184612800565b92915050565b600060a082019050612b19600083018861280f565b612b266020830187612a2d565b612b336040830186612a2d565b612b406060830185612a2d565b612b4d6080830184612a1e565b9695505050505050565b60006020820190508181036000830152612b71818461281e565b905092915050565b60006020820190508181036000830152612b9281612857565b9050919050565b60006020820190508181036000830152612bb28161287a565b9050919050565b60006020820190508181036000830152612bd28161289d565b9050919050565b60006020820190508181036000830152612bf2816128c0565b9050919050565b60006020820190508181036000830152612c12816128e3565b9050919050565b60006020820190508181036000830152612c3281612906565b9050919050565b60006020820190508181036000830152612c5281612929565b9050919050565b60006020820190508181036000830152612c728161294c565b9050919050565b60006020820190508181036000830152612c928161296f565b9050919050565b60006020820190508181036000830152612cb281612992565b9050919050565b60006020820190508181036000830152612cd2816129b5565b9050919050565b60006020820190508181036000830152612cf2816129d8565b9050919050565b60006020820190508181036000830152612d12816129fb565b9050919050565b6000602082019050612d2e6000830184612a2d565b92915050565b6000604082019050612d496000830185612a2d565b612d566020830184612a2d565b9392505050565b600081519050919050565b600081519050919050565b600081905092915050565b600082825260208201905092915050565b6000612d9a82612f02565b9150612da583612f02565b9250827fffffffffffffffffffffffffffffffffffffffffffffffffffffffffffffffff03821115612dda57612dd9612fd0565b5b828201905092915050565b6000612df082612f02565b9150612dfb83612f02565b925082612e0b57612e0a612fff565b5b828204905092915050565b6000612e2182612f02565b9150612e2c83612f02565b9250817fffffffffffffffffffffffffffffffffffffffffffffffffffffffffffffffff0483118215151615612e6557612e64612fd0565b5b828202905092915050565b6000612e7b82612f02565b9150612e8683612f02565b925082821015612e9957612e98612fd0565b5b828203905092915050565b6000612eaf82612ee2565b9050919050565b60008115159050919050565b6000612ecd82612ea4565b9050919050565b600061ffff82169050919050565b600073ffffffffffffffffffffffffffffffffffffffff82169050919050565b6000819050919050565b6000612f1782612f1e565b9050919050565b6000612f2982612ee2565b9050919050565b6000612f3b82612f42565b9050919050565b6000612f4d82612ee2565b9050919050565b60005b83811015612f72578082015181840152602081019050612f57565b83811115612f81576000848401525b50505050565b6000612f9282612f02565b91507fffffffffffffffffffffffffffffffffffffffffffffffffffffffffffffffff821415612fc557612fc4612fd0565b5b600182019050919050565b7f4e487b7100000000000000000000000000000000000000000000000000000000600052601160045260246000fd5b7f4e487b7100000000000000000000000000000000000000000000000000000000600052601260045260246000fd5b6000601f19601f8301169050919050565b7f6164643a20696e76616c6964206465706f73697420666565206261736973207060008201527f6f696e7473000000000000000000000000000000000000000000000000000000602082015250565b7f4f776e61626c653a206e6577206f776e657220697320746865207a65726f206160008201527f6464726573730000000000000000000000000000000000000000000000000000602082015250565b7f73616665436f625472616e736665723a207472616e73666572206661696c6564600082015250565b7f416464726573733a20696e73756666696369656e742062616c616e636520666f60008201527f722063616c6c0000000000000000000000000000000000000000000000000000602082015250565b7f6465763a207775743f0000000000000000000000000000000000000000000000600082015250565b7f7365743a20696e76616c6964206465706f73697420666565206261736973207060008201527f6f696e7473000000000000000000000000000000000000000000000000000000602082015250565b7f4f776e61626c653a2063616c6c6572206973206e6f7420746865206f776e6572600082015250565b7f416464726573733a2063616c6c20746f206e6f6e2d636f6e7472616374000000600082015250565b7f77697468647261773a206e6f7420676f6f640000000000000000000000000000600082015250565b7f6e6f6e4475706c6963617465643a206475706c69636174656400000000000000600082015250565b7f736574466565416464726573733a20464f5242494444454e0000000000000000600082015250565b7f5361666545524332303a204552433230206f7065726174696f6e20646964206e60008201527f6f74207375636365656400000000000000000000000000000000000000000000602082015250565b7f5265656e7472616e637947756172643a207265656e7472616e742063616c6c00600082015250565b61331b81612ea4565b811461332657600080fd5b50565b61333281612eb6565b811461333d57600080fd5b50565b61334981612ec2565b811461335457600080fd5b50565b61336081612ed4565b811461336b57600080fd5b50565b61337781612f02565b811461338257600080fd5b5056fea2646970667358221220bd8b5eaae4eea090fe1a2700a1021c68f5d6b52d0a613a49c8a961d6b3e0998364736f6c63430008040033",
  "linkReferences": {},
  "deployedLinkReferences": {}
}